:100000000100000000000000000200000447BA08E0
:100010001CF09FE51CF09FE51CF09FE51CF09FE5A0
:100020001CF09FE51CF09FE51CF09FE51CF09FE590
:1000300005390E1B980900001C090000200900006A
:10004000780900007C090000800900008409000094
:1000500091090000000000EAE80000EA28008FE2B1
:10006000000C90E800A08AE000B08BE001704AE24A
:100070000B005AE1E100000A0F00BAE814E04FE279
:10008000010013E303F0471013FF2FE17085040014
:100090001086040001C08FE21CFF2FE18A1803784C
:1000A00001309C07A40F01D1047801301D1101D14A
:1000B00005780130013C05D0067801300E70013121
:1000C000013CF9D1002D11D004781B0701309B0FA2
:1000D0000C1B032B01D1037801301B02E41A6B1CAB
:1000E000267801340E700131013BF9D59142D6D307
:1000F00070470000102052E27800B0287800A12854
:10010000FBFFFF8A822EB0E13000B0283000A1282A
:1001100000409045004081451EFF2FE10030A0E3E4
:100120000040A0E30050A0E30060A0E3102052E2F2
:100130007800A128FCFFFF8A822EB0E13000A128C0
:10014000003081451EFF2FE104309FE503308FE032
:1001500013FF2FE1D506000010B5040000F086E97A
:100160000068005D000706D5DF2C04D02000203891
:1001700010BC08BC18472000FAE70000194930B449
:1001800017220A6036224A60174A184C0021030CD5
:100190008D001B185351164B491C58430019372921
:1001A000F5DB30BC70470120E8E770B40D4C0E4D14
:1001B0006068216883008E00EA58AE59491E401ECF
:1001C0009219EA5036230029216002DA2360606028
:1001D00003E00028606000DA6360500070BC4008F3
:1001E00070470000C89B040090250500E119D66601
:1001F000CD0D010010B4042A0ED303000B439B075E
:100200000AD108C810C9A34202D1121FA7A6618B48
:1002100001000000FC01000000020000C092652304
:10022000042AF8D2A34201D0001F091F002A02D1DC
:10023000002010BC7047D30701D0521C05E00378A2
:100240000C78401C491CA34207D103780C78401C51
:10025000491CA34201D1921EF1D1181BE9E700000D
:10026000013050E0030052213802009A030052E3AB
:10027000020080E0021081E02500009A030010E3F4
:10028000013071150120421201306015030010E3A6
:10029000FAFFFF1A033011E28900000A042052E23B
:1002A0001B00003A03C031E7020053E30800003AA4
:1002B0000F00008A0C38A0E104C031E5042052E2AE
:1002C0002C3883E1043020E5F9FFFF2A021081E297
:1002D0000F0000EA0C3CA0E104C031E5042052E22A
:1002E0002C3483E1043020E5F9FFFF2A011081E27C
:1002F000070000EA0C34A0E104C031E5042052E21A
:100300002C3C83E1043020E5F9FFFF2A031081E251
:100310000000A0E1822FB0E10130712501C07125FC
:10032000012051450130602501C060250120404574
:100330001EFF2FE103000B43020070B49B0710D196
:100340000F4CE50100E008C208C91E1B9E432E4267
:10035000F9D01906090E1170521C00290DD01B0A84
:10036000F7E70C78491C531C002C147005D00C784E
:10037000491C5A1C002C1C70F3D170BC7047000043
:1003800001010101030010E310402DE90040A0E14C
:10039000030011030A00001A50E09FE5042052E216
:1003A000060000BA043091E40EC043E003C0CCE183
:1003B0008EC31CE004308004F7FFFF0A041041E202
:1003C000042082E2012052E2050000BA0130D1E4AB
:1003D000000053E30130C0E4F9FFFF1A0210A0E16E
:1003E000DC0100EB0400A0E11040BDE81EFF2FE19E
:1003F000010101012024A0E10000C1E50120C1E5C7
:100400002028A0E10220C1E5202CA0E10320C1E5C5
:100410001EFF2FE10000A0E15A0000EB4BDF762623
:1004200001000000F803000000020000347ADB9EA7
:1004300003002DE9BA0000EB0300BDE8820000FADA
:100440000F002DE9B90000EB0F00BDE81CC09FE5CF
:100450000FC08CE001001CE30DE08F120FE0A00143
:100460001CFF2FE101C08FE21CFF2FE100F08AF892
:1004700039E4020001402DE90000A0E1A10000FAEA
:100480000140BDE8000000EA0000E0E3260000EAC9
:100490001EFF2FE110402DE9290000EB1040BDE8C0
:1004A000040080E21EFF2FE1AD000000013050E0AB
:1004B00003005221AE01009A020080E0030010E325
:1004C000021081E0012042120130711501306015E7
:1004D000030010E3FAFFFF1A102052E20500003A71
:1004E00010402DE9185031E9102052E2185020E94F
:1004F000FBFFFF2A1040BDE8823EB0E10810312921
:10050000081020290430314504302045030012E34F
:100510001EFF2F01822FB0E1B23071210120514521
:10052000B2306021012040451EFF2FE10C109FE5F5
:100530001800A0E3563412EF1EFF2FE154FFFFFF17
:100540002600020004009FE51EFF2FE11EFF2FE1A1
:100550008C26050010B5C046C046080007D00178BB
:10056000002904D005A100F024E9002804D10448A2
:10057000784410BC08BC18470020FAE7430000008C
:10058000547E040010B5C046C0460400C046C046B4
:100590002000FFF770EF10BC08BC18470E40A0E128
:1005A000660000EB04E0A0E101402DE97B0000EBD8
:1005B0000040A0E10140BDE813402DE90100A0E3A7
:1005C000121DA0E3081084E5000084E51340BDE897
:1005D0000010A0E1040084E50EF0A0E110402DE938
:1005E00003002DE96D0000EB0040A0E10300BDE831
:1005F000042094E50D30A0E100E082E003005EE11C
:10060000002081E50B00008A0E3093E0011A8EE293
:100610006330A0E1071081E20730C3E30710C1E3B4
:10062000030051E10310A081041084E57DB587EC3F
:1006300001000000F4050000000200002D8205EE1C
:100640001040BDE8020041E01EFF2FE10020A0E1C4
:100650000000A0E30000A0E11040BDE81EFF2FE174
:10066000F0B585B0C046C04605000C0047F022EA50
:10067000002001950294C046C046039001A8FFF7F0
:1006800082ED040001A80D00009303C81600C046C7
:10069000C046C046C046FFF7A4FD00210800C04682
:1006A000C0460700FFF758EF0490002107600800DC
:1006B000FFF75AFF411C0498416000210800C04622
:1006C000C04601000498816000210800C046C04671
:1006D00001000498C16000210800C046C046010026
:1006E00004980161C046C046C046C046C046C046E8
:1006F000C046C046C046C046C046C046C046C046CA
:10070000C046C046C046C046009B05B02000049CC1
:1007100029003200A646F0BC01B0704710B5C046B3
:10072000C0460020C046C046C046C046C046C0467F
:1007300010BC08BC184700000000E0E30210E0E332
:100740001EFF2FE110402DE90000A0E11040BDE8A0
:100750001EFF2FE10E50A0E1430000EB05E0A0E1F9
:100760000050A0E10700C0E30D10A0E10A30A0E1B5
:1007700000D0A0E160D08DE220402DE9814B00FA4D
:100780002040BDE80060A0E30070A0E30080A0E38B
:1007900000B0A0E30710C1E305C0A0E1C009ACE8C8
:1007A000C009ACE8C009ACE8C009ACE801D0A0E1E0
:1007B0001EFF2FE104009FE51EFF2FE11EFF2FE12A
:1007C0007C260500030010E3030011031700001A44
:1007D00000402DE984E09FE5042090E4043091E49A
:1007E0000EC042E002C0CCE18EC31CE00300520107
:1007F000F8FFFF0A0040BDE8030CA0E1020C50E046
:10080000FF0E1C030700001A0308A0E1020850E0D5
:10081000FF0C1C030300001A0304A0E1020450E0D3
:10082000FF081C03020053006000A0111EFF2FE10F
:100830000120D0E40130D1E4010052E3BE7A867E8B
:1008400001000000F007000000020000D96ABB535D
:10085000030052210400001A0120D0E40130D1E449
:10086000010052E303005221F5FFFF0A030042E0BA
:100870001EFF2FE10101010110B410BC7047000000
:1008800000009FE51EFF2FE16C26050004009FE598
:100890001EFF2FE11EFF2FE170260500913082E040
:1008A0000300A0E10210A0E11EFF2FE100A000471D
:1008B0006C129FE534229FE5DB00A0E300F021E10C
:1008C000021081E00310C1E3041041E201D0A0E175
:1008D00000A0A0E300B0A0E314229FE5D200A0E3B3
:1008E00000F021E1021081E00310C1E3041041E2B5
:1008F00001D0A0E1D300A0E300F021E1E8319FE5C1
:10090000001083E5E0119FE5000091E5040080E21E
:10091000E8119FE5E8319FE5D8219FE5000081E5DA
:10092000002083E5020080E0D8119FE50020A0E3CD
:10093000002081E5C0219FE5000082E5E4219FE5DC
:10094000E4019FE52C0082E50700A0E3300082E58A
:100950000900A0E3000082E50B10A0E3101082E57F
:100960000130A0E3243082E5283082E5BC219FE5F8
:100970001030A0E3083082E51EFF2FE10EF0B0E159
:10098000FF402DE900004FE101002DE9A0119FE596
:10099000002091E51F2002E298319FE5823193E724
:1009A0000FE0A0E113FF2FE188019FE50810A0E30D
:1009B000920102E00410A0E3012082E0021090E71F
:1009C00024209DE5012082E024208DE50100BDE882
:1009D00000F069E1FF80FDE8FEFFFFEAFEFFFFEAAD
:1009E000FEFFFFEA6E0000EA02F0DEFF5348004718
:1009F000F34623F0BBFC000040019FE540119FE55A
:100A0000001080E53C019FE5001090E538019FE56E
:100A1000001090E534319FE50310C1E10030A0E300
:100A2000031081E1001080E500619FE50235A0E33D
:100A3000083186E518019FE5100F01EE14F19FE5DE
:100A4000900F07EE1EFF2FE10C019FE509B7D6CAF4
:100A500001000000EC090000000200001E73B90E46
:100A60000010E0E3001080E504019FE504119FE51C
:100A7000001080E500019FE5001090E5081081E37B
:100A8000001080E5001090E5081011E2FCFFFF0A5D
:100A9000900F07EE1EFF2FE1100F11EE1EFF2FE14A
:100AA000100F01EE1EFF2FE1010050E2FDFFFF1AC3
:100AB0001EFF2FE1C4009FE5C4109FE5F720A0E3CF
:100AC000040081E4012042E20000A0E3040081E48C
:100AD000012052E2FCFFFF1AA8009FE5A8109FE545
:100AE000001080E5A4009FE5A4109FE5001080E5BC
:100AF000A0009FE5A0109FE5001080E51EFF2FE1FC
:100B00005CFE00041000000000040000000400006F
:100B100014FD000434FD000438FD00043CFD000415
:100B200001C05EE50C0053E10330DE370C30DE27F8
:100B300083C08EE01CFF2FE1986805000030008024
:100B40003F1F000000280080B038008020DB040038
:100B50001950F0030C20008023387E500040019093
:100B6000442000803CC600007C17000044000000C8
:100B70000C2800800828008002004000C42000806B
:100B8000F0F0F0F024FC0004D8FC00044D08000054
:100B9000DCFC0004253B0400E0FC000489090000A3
:100BA00004F01FE50CF0F30304F01FE598F1F303E4
:100BB00004F01FE5E0F0F30304F01FE52451F00317
:100BC00004F01FE50B70F30304F01FE5D570F30389
:100BD00004F01FE5FB70F30304F01FE5A370F303BB
:100BE00004F01FE5CF6FF30304F01FE5C956F003CF
:100BF00004F01FE5F162F00304F01FE5ED6AF30372
:100C000004F01FE51563F00304F01FE5DB62F00359
:100C100004F01FE514FAF30304F01FE5BB6DF303C2
:100C200004F01FE56F6DF30304F01FE5956DF3030A
:100C300004F01FE56F6EF30304F01FE54D6DF30341
:100C400004F01FE55D57F00304F01FE520F2F30305
:100C500004F01FE5C5A6F30304F01FE5BCB0A069CE
:100C600001000000E80B000000020000EA9B07B34F
:100C700044F1F30304F01FE5FCEFF30304F01FE578
:100C800040F2F30304F01FE530ECF30304F01FE53A
:100C90009167F00304F01FE5AF67F00304F01FE570
:100CA000C8F3F30304F01FE527A9F30304F01FE5DD
:100CB0004F66F00304F01FE5DD8FF00304F01FE53D
:100CC000BF8DF00304F01FE52555F00304F01FE588
:100CD0002B56F00304F01FE5EF55F00304F01FE579
:100CE000B956F00304F01FE55763F00304F01FE565
:100CF000594BF00304F01FE5FD52F00304F01FE52B
:100D0000D1ADF30304F01FE5A9ADF30304F01FE533
:100D1000DFADF30304F01FE5B5ADF30304F01FE509
:100D2000EDADF30304F01FE5C3ADF30304F01FE5DD
:100D3000AF71F30304F01FE51B72F30304F01FE52A
:100D40003972F30304F01FE5DB71F30304F01FE5D0
:100D5000C362F00304F01FE5F7ABF30304F01FE5F3
:100D6000D9F1F30304F01FE5B9A2F30304F01FE582
:100D7000D1A2F30304F01FE547A3F30304F01FE53A
:100D80000F00F20304F01FE5E7FFF10304F01FE595
:100D90001F82F00304F01FE59767F00304F01FE5DE
:100DA000591EF30304F01FE5E91DF30304F01FE5EA
:100DB0007F1EF30304F01FE55984F00304F01FE5E0
:100DC0003F64F00304F01FE58F64F00304F01FE5B7
:100DD000D764F00304F01FE57165F00304F01FE52C
:100DE000676DF00304F01FE55F69F00304F01FE591
:100DF0007969F00304F01FE5E7ACF30304F01FE5A5
:100E0000CFACF30304F01FE5DBACF30304F01FE504
:100E10003FBEF30304F01FE57FBEF30304F01FE5BC
:100E20006FBEF30304F01FE507A9F30304F01FE509
:100E3000D53AF00304F01FE509AEF30304F01FE513
:100E400011B5F30304F01FE58DB5F30304F01FE5BE
:100E50001148F00304F01FE5B944F00304F01FE566
:100E60005149F00304F01FE5D14AF00377CEFEDBD1
:100E700001000000E40D000000020000F363D9C38C
:100E800004F01FE59D49F00304F01FE5D121F003B4
:100E900004F01FE59523F00304F01FE5C923F003D8
:100EA00004F01FE5D522F00304F01FE59917F003C5
:100EB00004F01FE50114F00304F01FE5C91AF00364
:100EC00004F01FE51517F00304F01FE5F518F00313
:100ED00004F01FE53915F00304F01FE57519F00360
:100EE00004F01FE5C115F00304F01FE5C535F0035C
:100EF00004F01FE5C53CF00304F01FE56540F00376
:100F000004F01FE5613FF00304F01FE52D41F003FD
:100F100004F01FE59942F00304F01FE56B76F0033F
:100F200004F01FE514ECF30304F01FE5ACF3F30346
:100F300004F01FE5B4F3F30304F01FE501F4F0033C
:100F400004F01FE58531F10304F01FE5AB02F10366
:100F500004F01FE585E0F20304F01FE50959F203F0
:100F600004F01FE571E0F20304F01FE5056EF203E3
:100F700004F01FE5BB8FF00304F01FE5D95CF2031A
:100F800004F01FE59120F10304F01FE581E6F00372
:100F900004F01FE593E9F10304F01FE59BD2F10390
:100FA00004F01FE5FD6DF00304F01FE55D70F00334
:100FB00004F01FE54330F20304F01FE5A723F2031A
:100FC00004F01FE56D37F20304F01FE5111EF30373
:100FD00004F01FE58B6DF00304F01FE58F45F3036C
:100FE00004F01FE5F12EF30304F01FE54331F30392
:100FF00004F01FE59F44F30304F01FE52740F303CB
:1010000004F01FE5E746F30304F01FE5BF31F303E7
:1010100004F01FE5C32EF30304F01FE5D32EF30302
:1010200004F01FE5AB48F30304F01FE50130F303C0
:1010300004F01FE52D82F20304F01FE5AF30F30347
:1010400004F01FE5EF40F30304F01FE58B30F303DA
:1010500004F01FE5C301F20304F01FE50D53F30391
:1010600004F01FE50F54F30304F01FE54151F303AF
:1010700004F01FE565AAF20304F01FE5EC04C10CBF
:1010800001000000E00F000000020000078B677EF7
:10109000B94DF30304F01FE51B02F20304F01FE552
:1010A000DB81F20304F01FE5F330F30304F01FE5E6
:1010B0003F02F20304F01FE59B39F30304F01FE540
:1010C000E139F30304F01FE5DF4FF30304F01FE5FC
:1010D000413BF30304F01FE5B13BF30304F01FE5CC
:1010E0009F31F30304F01FE5F92FF30304F01FE52C
:1010F0003337F30304F01FE57333F30304F01FE504
:101100009340F20304F01FE5F1A7F20304F01FE59A
:101110000B74F30304F01FE54159F30304F01FE5DA
:10112000377EF00304F01FE5999DF10304F01FE5FD
:10113000AFE3F00304F01FE5B399F10304F01FE5FA
:10114000C7CDF10304F01FE5CBCDF10304F01FE59B
:10115000ABCDF10304F01FE5BDCDF10304F01FE5B5
:101160008931F10304F01FE5CBB8F10304F01FE56A
:10117000B5CDF10304F01FE5A59DF10304F01FE5D3
:10118000D95DF20304F01FE5CBA2F10304F01FE5E3
:10119000EF5DF20304F01FE5D949F10304F01FE508
:1011A000799FF10304F01FE5291FF20304F01FE506
:1011B0007345F20304F01FE58938F20304F01FE5DC
:1011C0007535F20304F01FE57B1CF20304F01FE504
:1011D000576CF20304F01FE561A7F20304F01FE56A
:1011E0009D41F30304F01FE52712F30304F01FE50C
:1011F0004F2DF30304F01FE5372DF30304F01FE533
:10120000FB22F30304F01FE5D1ABF30304F01FE569
:101210003766F00304F01FE57B82F00304F01FE55E
:10122000E97BF00304F01FE5F97BF00304F01FE510
:101230009189F00304F01FE5BF7BF00304F01FE584
:10124000E387F00304F01FE5E97CF00304F01FE5F9
:101250002B67F00304F01FE5ED66F00304F01FE5D3
:10126000C5A9F30304F01FE5FFA8F30304F01FE58D
:1012700011AAF30304F01FE521A5F30304F01FE511
:1012800015A5F30304F01FE5BBA8F303D6B314635D
:1012900001000000DC110000000200007990C0CEC7
:1012A00004F01FE5BFACF30304F01FE52DA5F30325
:1012B00004F01FE55573F30304F01FE5A362F00388
:1012C00004F01FE55562F00304F01FE50173F3031A
:1012D00004F01FE53973F30304F01FE58972F3038B
:1012E00004F01FE51F73F30304F01FE59169F00399
:1012F00004F01FE50964F00304F01FE5F722F20390
:1013000004F01FE51F7AF00304F01FE5B188F30332
:1013100004F01FE50185F30304F01FE5A37CF3034C
:1013200004F01FE5A77BF30304F01FE5837EF303BE
:1013300004F01FE5AD7EF30304F01FE5EDA6F30313
:1013400004F01FE501A7F30304F01FE54FA9F30321
:1013500004F01FE54FABF30304F01FE51166F00343
:1013600004F01FE52F66F00304F01FE5A9D0F00399
:1013700004F01FE5CBA7F30304F01FE59D5AF20329
:1013800004F01FE54967F00304F01FE5256AF00348
:1013900004F01FE5EF57F30304F01FE5D961F003F4
:1013A00004F01FE5E5F6F10304F01FE5671DF20305
:1013B00004F01FE51355F30304F01FE58D55F30307
:1013C00004F01FE5B959F20304F01FE524F5F30317
:1013D00004F01FE52C0BF40304F01FE5C763F003D2
:1013E00004F01FE53DACF30304F01FE58BACF30301
:1013F00004F01FE5B9A6F30304F01FE59363F003BF
:1014000004F01FE5757300C004F01FE5797300C098
:1014100004F01FE52FA6F30304F01FE543A6F30332
:1014200004F01FE565A6F30304F01FE54DA6F303E2
:1014300004F01FE517A9F30304F01FE5C173F303DC
:1014400004F01FE59D8FF30304F01FE57590F3038F
:1014500004F01FE52390F30304F01FE5719AF303F2
:1014600004F01FE5639BF30304F01FE5597CF303CD
:1014700004F01FE5DF8BF30304F01FE55B90F3033B
:1014800004F01FE5D189F30304F01FE50392F30391
:1014900004F01FE5DB8EF30304F01FE5874F42697C
:1014A00001000000D8130000000200008D787E7358
:1014B0001D8FF30304F01FE5319EF30304F01FE5D5
:1014C000479EF30304F01FE50586F30304F01FE5D0
:1014D0006D86F30304F01FE5A58DF30304F01FE50B
:1014E000CD86F30304F01FE5E786F30304F01FE560
:1014F0003594F30304F01FE52B74F30304F01FE5A8
:10150000F788F30304F01FE5B77BF30304F01FE54E
:10151000FD9CF30304F01FE5DD7BF30304F01FE5FE
:10152000EF89F30304F01FE55789F30304F01FE587
:10153000076AF00304F01FE5D36BF00304F01FE526
:10154000E969F00304F01FE5DBAAF30304F01FE5EB
:1015500059A3F30304F01FE5C9AAF30304F01FE540
:10156000F1AAF30304F01FE507ABF30304F01FE552
:1015700070EBF30304F01FE5E1A8F30304F01FE5AB
:10158000F5A8F30304F01FE5D1A8F30304F01FE569
:10159000D7A8F30304F01FE54D9BF30304F01FE508
:1015A000079BF30304F01FE57F8CF30304F01FE5B2
:1015B0004189F30304F01FE5D37CF30304F01FE536
:1015C000C0F3F30304F01FE5F186F30304F01FE515
:1015D0005787F30304F01FE57D89F30304F01FE54B
:1015E0002D90F30304F01FE5BD94F30304F01FE511
:1015F000BB9AF30304F01FE5F379F30304F01FE54E
:101600006D94F30304F01FE54179F30304F01FE543
:101610000193F30304F01FE57786F30304F01FE55D
:1016200021ABF30304F01FE5A365F00304F01FE50D
:101630008143F00304F01FE50D45F00304F01FE5BE
:101640000D42F00304F01FE56B7BF00304F01FE58F
:101650008D7BF00304F01FE51368F00304F01FE531
:101660002B7CF00304F01FE5EB7DF00304F01FE595
:101670005180F00304F01FE5071EF30304F01FE59B
:101680007B7FF00304F01FE5037FF00304F01FE508
:10169000DB7FF00304F01FE5FF80F00304F01FE59B
:1016A0006981F00304F01FE55D7CF003B39E63865F
:1016B00001000000D4150000000200009480A00387
:1016C00004F01FE55F7DF00304F01FE5D763F0032E
:1016D00004F01FE50163F00304F01FE53D2FF00364
:1016E00004F01FE565A8F30304F01FE579A8F303F0
:1016F00004F01FE5D5A9F30304F01FE5E5A9F30302
:1017000004F01FE531A8F30304F01FE5E3A7F3039A
:1017100004F01FE5B1A4F30304F01FE5B5A9F3033A
:1017200004F01FE5C9A4F30304F01FE5DBA4F303F1
:1017300004F01FE56BA9F30304F01FE563A9F303AD
:1017400004F01FE517A4F30304F01FE5E545F003DB
:1017500004F01FE5F159F20304F01FE53B1EF2030C
:1017600004F01FE5A91AF20304F01FE5BDF9F10327
:1017700004F01FE5F36FF00304F01FE5B770F0030A
:1017800004F01FE58DEEF10304F01FE50BAAF3034F
:1017900004F01FE5B5A3F30304F01FE5EDA3F30385
:1017A00004F01FE5A5A2F30304F01FE50FA6F30361
:1017B00004F01FE56FA3F30304F01FE52D45F003CC
:1017C00004F01FE5C4EBF30304F01FE59BADF30346
:1017D00004F01FE58357F00304F01FE5C5ABF303E6
:1017E00004F01FE5FBADF30304F01FE563ADF30365
:1017F00004F01FE5ABA2F30304F01FE509A5F30312
:1018000004F01FE551A5F30304F01FE589A9F303D4
:1018100004F01FE59951F00304F01FE5D772F303BC
:1018200004F01FE5F3ACF30304F01FE503ADF3038D
:1018300070B5040008000025E20704D0FFF7FCE9BA
:1018400012491148086012480078012819D1200770
:1018500002D500F01FF80500600602D5FFF7F0E999
:101860000500200602D5FFF7F0E90500A00502D526
:1018700000F06AF805006007800F02D0FFF7E8E982
:101880000500280070BD00002D5A020030EF000452
:1018900018FA00047FB525480078002843D1FFF7E7
:1018A000DCE900222248D2430021FFF7DAE9214E89
:1018B0001F2230600189520308181F499353EA61BF
:1018C00001000000D01700000002000060681EBE8A
:1018D000000C009008681E4D90430F2252038018A0
:1018E00008600A00A8692521FFF7C8E96869252171
:1018F0006A46FFF7C4E9154AA8692621FFF7BEE941
:10190000144A68692621FFF7BAE9134CE080306871
:1019100000892081FFF7B6E960814004000C0021B6
:10192000A0812180618031680A890190511803915A
:10193000A8692C2101AAFFF7A2E9002004B070BD1C
:1019400034FA00043C1100C024FA0004503003C0F3
:10195000AC3003C05C3003C0943103C0FEB500243A
:10196000334E344D2721686901AAFFF788E90198B1
:10197000641CC00701D0B442F4D32F4C2F4E2088F2
:10198000002822D130680027002803D02C4909689C
:10199000884737602B48FFF77AE9002830600FD07E
:1019A00001890A182849521E89788A181278120764
:1019B000120F22806780E78000894018A0800DE028
:1019C00022490868401C086008E068692D216A46C1
:1019D000FFF754E9E08800994018E080E1891C484D
:1019E0000429218902D162898918FFE702681181DF
:1019F0002188002913D0016832680A60A088E28833
:101A0000052380183268108168690122FFF742E9D6
:101A10006088401C60802088401E208005E00068AF
:101A2000018908186189FFF706E90020FEBD000062
:101A3000FFFF0000AC3003C0943103C028FA00045B
:101A400030FA00043C3003C0683003C03CFA0004A4
:101A500024FA00040022F0B5D2430021334887B0B5
:101A6000FFF708E9324F334D386001896A4608189C
:101A7000000C009028692521FFF700E92E4A012675
:101A80006B461E71D1880020002901D15E7100E0F3
:101A9000587100206B460821987199725872D8715C
:101AA00018725089002805D0012805D0022807D1D6
:101AB000072002E0032000E006206B46187301E0D7
:101AC0006B461973E868252101AAFFF755C2928772
:101AD00001000000CC19000000020000A7711CE307
:101AE000D8E8E868262101AAFFF7D2E8174A286952
:101AF0002621FFF7CEE8164CE08038680089208167
:101B0000FFF7CAE860814004000CA0810021268014
:101B1000618039680A890490511802200691059065
:101B2000E8682C2104AAFFF7B4E80A48E188008895
:101B3000FFF7BEE80849C870002007B0F0BD0000FC
:101B40003C1100C020FA0004AC3003C05C3003C07C
:101B5000843103C01AFA0004683003C070B5040071
:101B60001C4D0020E20708D06868002802D11B4AFB
:101B7000194810600800FFF7A0E819490978012901
:101B80001AD1210704D517480078002815D0002065
:101B9000610604D5144900200860FFF792E8210689
:101BA00001D5FFF792E8E10501D500F075F861076E
:101BB000890F01D0FFF78CE870BDFFF78EE86868E9
:101BC000002801D100F012F868680228DFD1FFF781
:101BD0004BFFDCE7AC3003C02D5A020030EF0004AD
:101BE00018FA000434FA0004A09904007FB500221A
:101BF000D24300212048FFF748E8204E204D3060B6
:101C00000189204A0818000C0090E8682521FFF798
:101C100040E8286925216A46FFF73AE8194AE8684A
:101C20002621FFF736E8184A28692621FFF730E811
:101C3000164CE080306800892081FFF72EE8608133
:101C40004004000C0121A0812180002161803168C5
:101C50000A89019051180391E8682C2101AAFFF725
:101C600018E80B48E1880088FFF722E80949C870A6
:101C7000002004B070BD00003C1100C020FA000438
:101C8000AC3003C0503003C05C3003C0843103C0AB
:101C90001AFA0004683003C0F8B50024534D5448C4
:101CA000272100696A46FEF7F4EF0098641CC0071C
:101CB00001D0AC42F3D34F4D4F4E6888F1784F4F6F
:101CC0004F4C88424BD12368242018816888E988CA
:101CD000B2784843310080189880B0788F87CF7DE4
:101CE00001000000C81B0000000200005399A25E22
:101CF000F21C80180278F37812091B0712011B0FDF
:101D00001A430270B0783200093A80188278C3789A
:101D100012021A43521C130A8370C2703A68130EDF
:101D20000371130C4371130A8371C2712268081D79
:101D30009288121F8A7122689288121F1212CA7129
:101D400022689388083B0B729388083B1B124371EF
:101D5000108980188A78091DFEF77CEF21682E48CB
:101D60008A8800681123FEF7AAEF002068802060AF
:101D700002E02068002819D12848FEF7BCEF0428AB
:101D800014D800222548D2430021FEF788EF112104
:101D90002060C18020300221C17021682420088188
:101DA00000206880B0782430A88003E01C490868CF
:101DB000401C0860206800281AD01A490968086089
:101DC0006888EA885043AA88801822681081E889C8
:101DD0000428288902D16A898018FFE70881094808
:101DE000012200690423FEF76AEF6888401C6880BE
:101DF0000020E8813868401C38600020F8BD0000F1
:101E0000FFFF0000AC3003C0843103C0683003C062
:101E1000A09904002CFA0004DC8A04003C1100C0E4
:101E200038FA000420FA000400207047FEB50120B3
:101E3000400210F0D5FC6D4A116803231B02994340
:101E400011606B4D002169612A68012A5ED1296009
:101E500028696B46028941691418AA6896781E7130
:101E6000D6785E7173071BD4002906D00A79022A3E
:101E700003D113F00DF900280ED16B461879000735
:101E8000800F0228286908D110F0B0F90028F3D19A
:101E90002869002132F0BCF99BE01FF0FBFF98E0BD
:101EA000507813780002184313002033C018236FB2
:101EB000C01CDE7980088000022E20D10B79022B15
:101EC0000DD19279D2070AD00722D2018918896BE5
:101ED000412252018918C9890A06120E00E0002227
:101EE000417803780902194310390170BA295B2837
:101EF00001000000C41D0000000200004A617C2EA9
:101F0000090A41700092236F2268002101F03EFF10
:101F100070E0032E71D12268002101F0ADFF69E06D
:101F20006A68012A5FD1696037494C6C0E00E96923
:101F30006769491CE9610107344809D5286A401CD2
:101F40002862A869401CA861200012F091F84AE0BC
:101F50000290FEF7DEEE8079C00708D1E86881794B
:101F6000890704D53979022901D02BF099FDE86859
:101F7000C079022808D10298FEF7CAEE41780278AB
:101F800009021143103909E003280AD10298FEF72B
:101F9000C0EE417802780902114322390170090A22
:101FA0004170A0884038A0800298FEF7B2EE807899
:101FB0000007800F022813D1154A00922089154A84
:101FC0000119154B200002F005F900280BD0040080
:101FD00031000BF095FA3100200043F095F902E052
:101FE00020002CF0CFFB0D49064A080010327C3847
:101FF00003F0D4FB6869002801D123F0E9F8FEBDA5
:1020000000A0009034420004E0990004209A0004EB
:10201000D49400C0DC9400C07866050068A5040074
:10202000FFB58DB0080016001D00179A1699019291
:102030007A4C00913200A46801000D98A047002856
:102040005CD1FEF76AEE0690002005900120400268
:1020500007918459E800401B80190C90C0790490C6
:102060000C98007A03900D9841780278080210438A
:1020700044D0FF36C136B06A002801D0169800E07F
:1020800017980022009208900D980822032100233F
:1020900040F004FA07000D98002512300B9030E054
:1020A0002801401B00190E30FEF732EE0B99801C00
:1020B0000622FEF735F9002822D12801401B041919
:1020C0000E34002F03D0B978039881420AD0B16A48
:1020D000200031F01FFC0100B26A089831F02FFC9B
:1020E00000280BD02000FEF714EE17990172169805
:1020F00020730822201D06A9FEF7B6ED28418A604C
:1021000001000000C01F000000020000BE89C29351
:1021100011B0F0BD6D1C207BA842CBD80D98417842
:102120000278080210430990093005042D0C002F95
:1021300005D1ED1C03982D042D0C059022E0B878F4
:10214000039988421ED00C98407A8007E0D519E0A8
:102150000A980028DCD0B16A200031F0F4FB0706B1
:102160003F0E3801C01B0019B16A0E3031F0DCFBA4
:10217000B26A089931F0EDFB0028C9D1390020007E
:102180003AF0A0FD207B0A90617B8842E0D2201DBE
:10219000FEF7C8ED471920000830FEF7C4ED87426E
:1021A000D6D82000FEF7BEED0600201DFEF7BAEDE2
:1021B0003618A81E3070000A707037000B99093766
:1021C0000622B01CFEF75AED179830720D99099A45
:1021D00020313800FEF752ED09980599381800298A
:1021E00005D0032101700121417005998170207B88
:1021F0000301181A07190E3739003000FEF790E96D
:102200000822381D06A9FEF73AED16986B4638737A
:10221000187C78730398B873207B401C2073201DB2
:10222000FEF780ED4019211DFEF77AE970E7000006
:10223000D0A404000349012010B5087000F0E2FCAE
:1022400010BD0000D48A04000020704710B50400BF
:10225000124822180889D38940180C30002B16D157
:10226000118A002913D1518A002910D10B4B01008A
:102270000E330622E018FEF702ED200002F0D0FC3B
:102280008F229200F021A018FEF754ED03E0210008
:102290001BF06EF90400200010BD000021020000B8
:1022A00009490220086009490A20086009490848CC
:1022B00008600A49084808600A49094808600B494B
:1022C000094808607047000084870400888704007C
:1022D0000DDB01008C870400FD0A020090870400DA
:1022E000090C0100948704009D26020098870400D1
:1022F0007CB50400FF2206216846FEF720ED0E2281
:10230000200069462FF0BAFE34F002F91253C7C11B
:1023100001000000BC21000000020000B656334E50
:1023200005000DE0FF202D30005D002802D02000C8
:1023300014F044FFA279617920001BF0B1F9040088
:10234000002CEFD1280034F0F2F87CBDFEB5060079
:102350000720C0013018846B1F2080012018C06B3B
:10236000002830D034F0DEF801903F2040012518DD
:10237000287E0127002827D0012821D1C00220185B
:1023800002210760297640682FF04CFA1448002299
:1023900000922318B179134A13482FF0DFF90198FE
:1023A00034F0C5F83000FFF7ADFF4034207D400722
:1023B00006D50121300004F057FE30000DF074FF07
:1023C000019834F0B4F8FEBD0548002200922318AD
:1023D000B179044A04482FF0C1F92F76F0E70000E4
:1023E000040800000087930389220000F8B50C0060
:1023F00034F098F807002106090E01201BF0D2F8EE
:1024000000281AD00721C90141188C6B3F214901CE
:102410006518297E0026012910D002290AD15421ED
:10242000095D490701D505F001F90120C002201816
:102430002E760660380034F07AF8F8BD2E76F9E78B
:10244000FFB581B01C0005001700180004F0DCFB8C
:10245000012802D1002005B0F0BD124E206871683D
:10246000401C491CFEF778EC2160B268281F002A46
:1024700005D000680C4A000C904200D0FEE74C20CA
:1024800048434C230019C56420684422584300196E
:10249000076520680299584300190830FEF7F8EBE9
:1024A0000120D8E7A08C0400EFBE000070B5050045
:1024B0000C00080004F0E4FB012801D1002070BDED
:1024C000064920680968401C491CFEF746EC880054
:1024D000001921608560012070BD0000A08C0400FF
:1024E00070B504000720C0012618B06BFF215531DC
:1024F0000A584B21095C8A4201D3002070BDFF308D
:10250000F130202103F0A6F8112149010006002234
:102510006518000EFF28EA8211D0401C030C039DB1
:1025200001000000B82300000002000042BE8DF34D
:10253000E882FF2001212D300155B06BFF30413082
:102540004169491C0129416103D1442120000EF059
:102550009BF8E88A70BD0000024901480860704796
:10256000112400004C8C040030B50025039C8571BB
:102570000D7885704D78C5701278027144710978B4
:10258000890600D5038030BDFFB50D218901040007
:102590004518A86981B00A9F1E00002801D000F0EC
:1025A0004BFF0020A861F5208000251800212000A5
:1025B00004F064FD9C212800FEF7D0EB039A0299F9
:1025C000330028000097FFF7CFFF05B0F0BD0000F3
:1025D00070B50D000D49060000240322FDF7BEFE74
:1025E000002806D00A4903223000FDF7B7FE002874
:1025F00006D1F078012805D0022801D12C00044032
:10260000200070BDEC07E40FFAE70000BC7A04007C
:10261000887A040013B56B461A78197900201407DC
:1026200003D50B0701D501201CBD530701D54B076E
:10263000F9D4D30701D0CB07F5D19207F4D5890798
:10264000F1D41CBD034810B5FEF780EB002800D084
:10265000012010BDD4DF0400F8B504000D000028EF
:102660007ED0002D7CD0FF21424800222D31FEF784
:102670003EEB002828607CD020000C3000901AF03F
:10268000F7FF296806004861296802200873296855
:102690001C20088128685A217C3041732968B020A9
:1026A00008812D680020B0352F000F37F91FFDF786
:1026B0004CEF0F20287100206871E07AA17A0002A7
:1026C0000843010AA8700E28E9700CD2E07AA17ABA
:1026D000000208430E21091AC019FEF7E8EA0E208D
:1026E000A8700020E87044F01DFB002800D0207A7C
:1026F0002873687BF1214008400008406873E07A45
:10270000A17A02020A4300993800FEF7CCEA207B46
:10271000002814D1607B002811D1A07B00280ED1A5
:10272000E07B00280BD1207C002808D164CB01E29B
:1027300001000000B4250000000200005B46538346
:10274000607C002805D131000622C6313800FEF732
:10275000B4EAA07C002816D1E07C002813D1207DAB
:10276000002810D1607D00280DD1A07D00280AD15D
:10277000E07D00E007E0002805D10448062201685A
:10278000B81DFEF79AEAF8BD34410004D888040069
:102790000F49002810B501D1012010BDCA7B8B7BE9
:1027A00012021A430AD10021FF220170193241702E
:1027B0008270120AC2700171417107E04A7B0B7B83
:1027C00012021A43921D0831FEF776EA002010BD6E
:1027D00052DF0400FEB50027184E3C00029782200D
:1027E00060438519E87BA97B0002084321D00822B9
:1027F00029006846FEF760EA01990098794008438D
:1028000017D18220604302A980190830FFF72EFFFC
:10281000E87BA97B00027D230843DB00584300903E
:10282000C1170191082228006946FEF746EA02987E
:10283000FEBD641C012CD2D30020FEBD52DF04007B
:1028400010B5064C00200100822242430B0A1219E7
:10285000401C91730128D373F6D310BD52DF0400DE
:1028600010B504000648FEF77CEA002806D0FF34C5
:102870002134207B002801D0012010BD002010BD94
:10288000D4DF04001CB50028184C04D12100A0732B
:102890008231E07323E0C1788278090211430A0093
:1028A000FF3A193A1FD1417903790A0201001A430C
:1028B0002000921D0830FEF700EAE07BA17B0002B9
:1028C0007D230843DB0058430090C1170191082283
:1028D00020006946FEF7F0E9044904488231FDF71B
:1028E0003EEE00201CBD01201CBD000052DF040094
:1028F000F0B500263400354F8BB0FEF736EA09916B
:1029000008900822391D6846FEF7D6E9009A089813
:10291000019B0999801A99410BD30822391D02A8FD
:10292000FEF7CAE9029A0898039B0999801A99410F
:102930000CE00822391D04A8FEF7BEE92543D5673F
:1029400001000000B027000000020000AFAEED3E25
:1029500004980599089A099BC043C94380185941B6
:102960007D220023D200FEF71AEA0D000690822194
:102970001B486143823808180A90C17B827B080299
:10298000104321D00A99082204A8FEF7A0E904A860
:1029900007C82B00121A8B4110D20A99082204A8EA
:1029A000FEF794E904A807C8801AA9410391029090
:1029B0000A98082202A9FEF78AE905E00A98082287
:1029C00008A1FEF784E90126641C012CCFD308225C
:1029D000381D08A9FEF77AE930000BB0F0BD000001
:1029E000D4DF0400000000000000000008B501680A
:1029F000836A01290AD1002202600100044A1800FA
:102A00000092044A044B1C3100F008F808BD000095
:102A10004D280000044700042C470004FFB583B094
:102A20000C0015001E00C979A0790C9F00290BD05D
:102A30002A00210002F01EFD002811D0A0792A00F2
:102A4000210004F03FF81DE03200210002F0F2FC0A
:102A5000002805D0A0793200210003F0EFFF11E03B
:102A6000A0796B46187106222100581DFEF72EE949
:102A7000E0796B46D872094B37211D68039808230B
:102A800001AAA847E17901970091A37921890398C8
:102A900022000EF0AFFB07B0F0BD0000B4870400C9
:102AA000FFB583B002AA1E0003A8154C0092A46AC9
:102AB00007C80027A047002802D0029807B0F0BD41
:102AC000002416E02001315C00290FD085190498FC
:102AD000E91C0622FDF756FC002807D16978039807
:102AE000814203D10598A97801270170641C24064E
:102AF000240E044840688442E4D33800DEE7000036
:102B000030A3040084870400F7B582B01600144B8C
:102B10000399DC6A0298002701ABA047002802D085
:102B2000019805B0F0BD002414E014206043315C2E
:102B300000290CD085190398291D0622FDF722FCD7
:102B4000002804D169780298814200D191BC86E5C1
:102B500001000000AC2900000002000068B7EF632C
:102B60000127641C2406240E034800688442E6D32F
:102B70003800E0E730A3040084870400002810B583
:102B80000DD0074B074A04E089008478C9180C600F
:102B9000001D01889142F7D18478FF2CF4D110BD3B
:102BA00000200090FFFF0000820004481018026817
:102BB0001206120E8A430260704700000020009047
:102BC00004490E20C043087056310870C8708871DF
:102BD00070470000388804000349800040180068EE
:102BE0000006000E7047000000200090820004489C
:102BF000101802681206120E0A43026070470000A5
:102C000000200090054A01781170044982785631FD
:102C10000A704278CA70C07888717047388804009A
:102C2000024A800080180160704700000020009078
:102C300070470000042008B5FEF7BEE800280090A9
:102C400009D0064A04491160054901600548016838
:102C50006846FEF7B6E808BD9131010090F5000422
:102C6000EF1300004417F403F8B51F480569681C0A
:102C700039D01020FEF7A0E80028009033D01B497F
:102C8000002402C0FF220A21FEF78AE824E0E807B8
:102C900020D0601E0D281DD8A0000019083800D5CE
:102CA000002001001A314F2903DD4F210E2C00D0E6
:102CB0003520009A091A121D41188C4608E0460773
:102CC000C108760F0127535CB740BB43401C5354E7
:102CD0008445F4D86D08641C002DD8D104480168DF
:102CE0006846FEF76EE8F8BDD48A040001140000BF
:102CF0004417F403F0B5844600260B483500C0891C
:102D00000AE04C5D575D7C4003E0E70700D0761C8D
:102D10006410002CF9D16D1C8542F2DB6046C100C5
:102D20001E6005980160F0BDA49B040070B504000E
:102D30004D6808000368E968A669082B58D008DCCC
:102D40009B1CFEF742E80A65216868684968684F7D
:102D50004068162B5AD010DC092B5CD163D377E086
:102D600001000000A82B0000000200009C5F51DE63
:102D70000C310D0030001AF0B3FE002854D0E87971
:102D8000A97902020A432B00092130001DE0172B0C
:102D90004BD100202071A1683C311AE00320800251
:102DA000FEF720E830002BF0F3F830002BF0BDF9EF
:102DB00001202EF0CCFE012016F006FA217D00291C
:102DC00032D03300E28AC633DFE73DF02DFDA16843
:102DD00018312000FEF70AE826E01449300000F020
:102DE00085FD0022032130001300EEE72A686968A0
:102DF00030003EF01FFF17E02A68696830003FF09E
:102E000039FC11E00C310D0030001AF069FE002889
:102E10000AD0E879A97902020A432B000821B4E715
:102E20000120B7E72068E060002070BD04080000C2
:102E300070B5060010781400E02886B004D1200098
:102E400017F0CAF9050000E011250021481EFDF722
:102E5000D2EF2279E178A07803AB07C33300627820
:102E600021780191FF21029221310E2002A20095CA
:102E7000FDF7C4EF06B070BD5268626262626262C2
:102E8000000000003EB503F009FB00282CD100F043
:102E900015FB002828D10C22009218480422062392
:102EA00012A107F081FD15480C2200920422001D9A
:102EB000062313A107F078FD144C1548B122210018
:102EC000FDF778EF1349002213A06B4607C32200D9
:102ED0000A480F49001F0C2307F08CFE002803D17D
:102EE00037F090FE00203EBD01203EBD43425072AF
:102EF0006F63534D454D736751000000088A04000D
:102F0000434250726F634D7367510000A406000086
:102F100058D104008DA6010043422050726F630017
:102F2000054810B5006A07F0E4FE03480C220121B1
:102F30002C3007F0EDFD10BDE4890400F8B5002247
:102F400006000F0010481100FDF7F8EE040016D03F
:102F50002089082105192800FDF7D0EE290030004E
:102F6000FDF71AEB291D3800FDF716EBE0F31F58AB
:102F700001000000A42D00000002000085A78FAE14
:102F800007482200806A0421002307F0A9FD0028D9
:102F900003D02000FDF740EF0120F8BDDC41000424
:102FA000E4890400F7B588B0150006004069069072
:102FB00009984030FDF7FCEE040024340790E078D7
:102FC000800607D5B088103807043F0CB780603FF3
:102FD000002F02DC00200BB0F0BD28003030039041
:102FE000001F029060782178000240180004000C55
:102FF0000590E079A179000240186179000240183B
:103000002179000240180490069844220079114862
:1030100046640999FDF778EE3BF034FF0E49012034
:1030200008600E482B00056009980C332030007EA4
:1030300021004207520F00923A040798120C00F048
:103040009BFD039905980880029904980860012067
:10305000C1E70000E0990004384200044042000447
:10306000F7B50F00164E002426E02C256543706846
:1030700029182220405CB8421BD100981C3106223E
:10308000FDF79EF9002814D17068029A29182031A2
:10309000C97891420DD1405900280AD02C206043B4
:1030A00071684018001D0EF069FD716800204851DC
:1030B000FEBD641C2406240E30788442D5D3FEBDA8
:1030C00020940400F7B507001AF0C6FF00283DD091
:1030D00029F058FC002839D0380021F0B2FE002831
:1030E00034D08D48016A8D4E0C07FF25240F2D35F5
:1030F0008A49803606E00A2023F0DAFD8648006A15
:103100000407240F8548C168890708D5F16A49007A
:1031100003D4052C03D0062C01D06D1EEBD2FF2565
:103120002D3502E00A2023F0C3FD7C48C0688007EB
:103130000CD57B48006BC00308D5F06A400005D46D
:10314000052C01D0062C01D16D1EEBD2754CA06A66
:1031500075490840A062606A744908436062802132
:103160000220FFF757FD012023F0A2FD802102205D
:10317000FFF72EFD012023F09BFD0199A28C6EA488
:1031800001000000A02F000000020000714F311369
:10319000380024F0D9FA6B48FFF70EFD0198029928
:1031A00005062D0E2A00380015F010FC012015F040
:1031B000B1FC002F13D10298022807D002980328EF
:1031C00004D001980E2801D15F4806E02CF0F8FBEE
:1031D000012801D15D4800E05D48FFF7EDFC5D4E40
:1031E000029A0198390032F0ADFB029A0198390039
:1031F00032F044FC029A0198390032F021FC029A24
:103200000198390032F0DCFB606A4D49C94308403F
:1032100060620BF03FFE019A0299380039F044FADF
:103220000BF068FD012039F0ACFA029A2900380051
:1032300027F004F804000100380039F0A1FA380042
:1032400021F009FE0100380015F06CFC0221072076
:103250000BF0F6FD33F072F8380021F0FCFD002889
:1032600004D0102107200BF0EBFD03E01021072014
:103270000BF03CFE2100380039F06EFA21003800D6
:1032800039F080FA33F0DAF8380021F0E4FD002854
:103290001FD02848006B800317D407200BF01CFEBA
:1032A0008009012803D13069401C30610AE00228FE
:1032B00003D17069401C706104E0032802D1B06939
:1032C000401CB061F068401CF060022107200BF048
:1032D0000DFE0BF0DBFD204C072021694003002F81
:1032E00008D18143216120690521490308432061F8
:1032F0001A4807E0814321612069032149030843FB
:10330000206117482061380021F0CCFC380032F0F1
:10331000B7FD012803D10199380032F014FE20696D
:103320000821084320610120FEBD0000000001903B
:1033300000A700804020008000A80080FCFDFFFF67
:10334000C0000080429E04006AA20400C6A10400DE
:10335000CAA1040034880400C0A2008008A80000AC
:1033600008680000F8B50D0016000F4F1D213868E1
:103370007C68401CFDF736ED009111E0A000C019FB
:1033800080680189081801784907490FA3E2FCFB0E
:10339000010000009C310000000200000F5496A3C1
:1033A000B14201D1603005731D21601CFDF724ED91
:1033B0000C000099A142EBD1F8BD0000ECA4040080
:1033C00038B50500134B0C001B686A469847002867
:1033D00001D0009838BD104900200A6807E0142386
:1033E0004343EB5C002B0BD1401C0006000E9042C7
:1033F000F5D34968002008E00201A25C002A01D050
:10340000012038BD401C0006000E8842F4D3002085
:1034100038BD000030A304008487040070B50400A8
:103420008568002086B0002D0590049016D0174EB8
:1034300004AA0092F0893269290005ABFFF782FCEB
:1034400013490598CA6B1218CA63F3898A6BD2189C
:1034500000288A6304D1086A401C086206B070BD67
:1034600030790028FAD0FF2801D0401E3071A088A2
:10347000402203920022019000920021FF200223AB
:1034800004A20295FDF7D8ECE8E70000A49B040035
:103490004C2505006262686D000000000748417815
:1034A000002909D106490968012209054270490F1E
:1034B00002001C32515C817080787047E49400C037
:1034C00000200080002810B505D000218173012163
:1034D0000173FDF7B6EC10BD064800226C2110B553
:1034E000FDF74AEC002803D001218173022101730A
:1034F00010BD0000604200040B4808B502680C498A
:1035000000920800094A0B4B0830FDF79EEC00289A
:1035100001D0012008BD094907480860080042F0B1
:10352000D1FA002008BD0000888B04002C9A00040A
:1035300058420004008402C055060100CC9400C02B
:1035400070B50500054C02E02169406C88472800F1
:1035500009F090FF0028F7D170BD0000A08C040096
:1035600070B50500054C02E0E26800219047280094
:1035700009F098FF0028F7D170BD0000A08C04006E
:10358000FFB585B004001E000E9D0698134F0095F0
:1035900004903F68079A06992000B84719EB9549AF
:1035A000010000009833000000020000FBBC281E50
:1035B000002814D12000002D039402D1A1794D07D9
:1035C0006D0F21005131022D0BD110220292019179
:1035D000079B012204A903A8009606F06DFF09B01D
:1035E000F0BD0091079A0699330006F0F1FEF6E768
:1035F000E8A30400FEB501220024120301889142D1
:1036000002D10E2421020CE001225203914202D188
:103610000724A10205E00122D202914202D11C241A
:10362000A101018000882C4FB030388002E00120D9
:1036300007F095FB2948FDF7D6EB05002748082140
:10364000FDF710EC060025481021FDF70CEC3018B2
:103650008542ECD12248FDF7C6EB05002048082141
:10366000FDF700EC06001E481021FDF7FCEB3018BA
:103670008542DCD11B48FDF7B6EB0500194808214F
:10368000FDF7F0EB060017481021FDF7ECEB3018C2
:103690008542CCD1144D002228684121FDF77AEBF8
:1036A0000EF0DCFC11490D48FDF7E0EB10483988BD
:1036B000818084710F480E49026800920E4A0748C3
:1036C0000E4BFDF7CCEB042001902868422101AAA3
:1036D000FDF760EBFEBD0000E6890400F840000441
:1036E00034410004B44100048C86040071A700003A
:1036F00004410004888B0400A04C0004001E01C09B
:10370000FFB585B015000E0000220E9F130069461C
:103710000CC1AC1C6A80A978F32289088900114089
:103720000831A970727BD20709D0002F03D0090796
:10373000090FC0310BE00907090F403107E0002FE6
:1037400003D00907090F803101E00907090F217033
:10375000F179B27909021143EA2904D1717B082277
:103760001143717305E0E92903D1617820221143E7
:10377000617001792A000C320492921DC630EF2745
:103780000029039202901AD0012947D002293DD185
:1037900008990622A81DFDF7D6EA02990498062288
:1037A000FDF7D0EA089903980622891D4C855395A8
:1037B000010000009435000000020000E244F66EB3
:1037C000FDF7CAEA6078022140084000084338400B
:1037D00025E002990622A81DFDF7BEEA1E48062232
:1037E00001680498FDF7B8EAF079B179000208435E
:1037F000E62802D10299062201E0089906220398E0
:10380000FDF7AAEA607801210843FD210840134929
:10381000607009683840497CC907C90E0843607068
:10382000280006221A306946FDF796EA09B0F0BD75
:1038300008990622A81DFDF790EA074806220168AC
:103840000498FDF78AEA029903980622FDF784EAB4
:10385000607840084000D8E7D8880400DC8804007D
:10386000312818D009DC11280DD012280FD02128BA
:103870000BD0222807D10520704732280DD03328DD
:1038800007D07728F8D00020704704207047012027
:1038900070470A20704708207047092070470028A9
:1038A00001DD002004E06521C943884200DA0800F8
:1038B0004042000600167047002801DD002004E0A9
:1038C0006421C943884200DA08004042000600161D
:1038D0007047662801DD662002E0002800DA00203B
:1038E0000006001670470000F8B515000600080035
:1038F00029F06AF9002825D032F078FE0700124836
:10390000FDF75AEA040015D01049012208889203F5
:10391000C004C00C80182071000A60710888401C27
:1039200008802868A11DFCF76AEE074821001438BA
:10393000FDF7AAEA380032F05EFEFF21491C300094
:10394000FFF72EFBF8BD000038100500249304009B
:10395000002210B51CF022FC10BD0000084810B574
:1039600001684908490001600648416818229143EE
:10397000416005210448C901FDF7F2E910BD0000CE
:1039800080AF008040A50080E49A02C010B50BF023
:103990009FFA05480BF0BAF90BF096FA0248001DA1
:1039A000FFF728F910BD0000F89600C010B5FFF72A
:1039B000EDFFFFF7D3FF10BD044B10B5F7C39C78A4
:1039C00001000000903700000002000016AC48D350
:1039D0001870DA62D96100F005F800F02BF810BD1C
:1039E000D89600C00D48002101600D4A82600A226D
:1039F000C2604161052181610A490A78022A03D126
:103A000040224A70084902E020224A7007490160BA
:103A100007494868182210434860704780AF00800B
:103A2000E49A02C0D89600C00110000001180000FE
:103A300040A50080154870B50124007825000228B3
:103A400003D00225032800D0002531F0C5F9022853
:103A500002D0032800D000240D48FFF7D5F80C4809
:103A6000ED00BC302818A4000059FFF7CDF80BF08A
:103A700039FA07480C380BF053F90548D4302818A8
:103A800000590BF04DF90BF029FA70BDD89600C023
:103A9000049800C070B500250F4C104E6068401CA3
:103AA00060603068A16A401AE169884202D931F049
:103AB0006DF805000A490868400840000860086879
:103AC0000122104308603068A062E16A002901D039
:103AD00028008847280070BDD89600C000A6008046
:103AE00080AF0080002910B50FD0CC1DF9342269B9
:103AF000824208D1E031087F022804D1034960697D
:103B00000E2229F0F5FF0020206110BDAB860400D5
:103B100003494868012292029043486070470000C0
:103B200000A0009070B500248300CC50074D210008
:103B300008E04B009E187678864200D1D454491C88
:103B40000906090E2B689942F3D370BD84870400DF
:103B5000F0B5002212250B4E2423534300219F1958
:103B60008B00FB185C78844200D15D70491C09060B
:103B7000090E0929F4D3521C1206120E032AEBD3A4
:103B8000F0BD0000948E0400124870B50468124E17
:103B9000A10706D500210161B26D012090470220E6
:103BA00084432006000F03D0E02084431020044308
:103BB00000250AE0E00706D0A8003258002A02D00B
:103BC00021002800904764086D1C002C211BC72190
:103BD000010000008C39000000020000D1B54A8EBF
:103BE000F2D1002070BD0000002800805445000480
:103BF000FFB589B003AA05000020049001200390BE
:103C00001299414C0192009124681F003D4E0B9A7D
:103C10000A992800A047002802D003980DB0F0BDF3
:103C20003A48002101603A4839000FF06EFA0B98CB
:103C300081210004C9004118354808384160B06945
:103C40008047A8780107890F022908D100090828B0
:103C500005D1706804061298240E049002E03068C2
:103C60000406240EE878C10704D0800702D5A41DFD
:103C70002406240E2B00390077690B9A0A98B8475E
:103C8000B068129B0206120E00920B9A290005A83A
:103C900004F0C3FF1E4805A938300FF036FA2200A1
:103CA000290005A804F07CFF194805A948300FF049
:103CB0002CFA049A290005A804F092FF144805A9DB
:103CC00058300FF022FAB068129A03061B0E290032
:103CD00005A804F043FF0E4805A920300FF015FA9F
:103CE0000A990B480831083881630A99C163074A69
:103CF00011680123DB03194311600168012211439C
:103D000001608AE7848C0400B8A4040000B100902C
:103D100008A00090FFB587B0140002AA0500109912
:103D20003C4E0091019276680A9B08992200B047A8
:103D3000002802D002980BB0F0BD3749002008607F
:103D4000364821000FF0E1F90898012100048902AA
:103D50004118324808384160314FB8698047A87827
:103D60000107890F022907D10009082804D17868C2
:103D7000109E0406240E03E038680406240E002674
:103D8000E878C10704D0800702D5A41D2406240EBC
:103D900000220092109B089A290003A804F03DFF1E
:103DA0001E4803A938300FF0B0F92200290003A8FB
:103DB00004F0F6FE194803A948300FF0A6F93200C6
:103DC000290003A804F00CFF144803A958300FF091
:103DD0009CF9109A2900002303A804F06EA1304139
:103DE00001000000883B000000020000255DF43364
:103DF000BFFE0F4803A920300FF091F90C480A9933
:103E0000083881633A69F968891849192031C16312
:103E1000064A11680123DB0319431160016801227E
:103E200011430160002090E7B8A4040000B10090A5
:103E300008A00090848C0400F7B582B0140007003D
:103E4000006800900190039800254030FCF7F6EFE1
:103E500006000198F1784069490605D4C0304079E0
:103E6000400726D4012524E0002C02D1002005B013
:103E7000F0BDA07AC0071CD0E079012805D10399D4
:103E8000220068460DF06EFC05E003992200042331
:103E9000684600F027FB050000983860B079C0073D
:103EA00007D1012D05D1A079800702D5200029F086
:103EB0008DFE2800DBE700007FB582B004001D0006
:103EC0001F480A9E04603BF023F81E490120086049
:103ED000E07840210843E070288F208420000021F2
:103EE00020308170B1012031C170686B606232F0A6
:103EF0009BFB06006B46187C23004207520F009282
:103F000060782278010211432A0028330C32200005
:103F1000FFF70AFF60782178000208431030207014
:103F2000000A6070300032F084FB288F401C0004CF
:103F3000000C288702D1686B401C686306B070BD16
:103F40003C42000434420004F0B50500080085B08E
:103F50001400012103911F0021000C321C316B461B
:103F600007C329002031238F626B0E00280001F067
:103F7000CDFEF078B9010843F070208F401C00049A
:103F8000000C208702D1606B401C60636878297840
:103F9000000208430C302870000A6870039805B0CE
:103FA000F0BD0000FFB583B00400002002905F7BED
:103FB0006C2078431C491E7B45181C4804603AF06D
:103FC000A7FF1B4901200860E07840210843E0700A
:103FD00042F020FF002801D00120029024235E43FC
:103FE000A01CA95D81770021C177220096F29E096D
:103FF00001000000843D0000000200003CA52A43AF
:1040000022320221380041F077F932F017FB7219A1
:10401000009207006078217803020B431D006B4675
:10402000187D2B0041070298490F220041F090F8BB
:10403000380032F008FB07B0F0BD0000F02D00049E
:104040003C42000434420004F7B5012188B0150059
:10405000079108218C4604218E46184B00214032DE
:10406000127A1C686B46260C1E73260A5E739C73BC
:1040700013019B1A5E19737B002B02D010270121BC
:1040800000E008270023FF1E07E0F41803ADED1839
:104090005B1CA47B1B061B0EEC70BB42F5DB009186
:1040A0000999019262468A1A7146411820312030DE
:1040B00003AB01F06BFF07980BB0F0BD00A60080CA
:1040C00010B5D37904000020022B03D12068FEF73D
:1040D000B9FF10BD032BFCD120680EF08FFB10BD83
:1040E00008B5018909180B6F4069DA79022A19D1DC
:1040F0000279022A0ED10A6E9279D2070AD00722DB
:10410000D2018018806B412252018018C0890206BA
:10411000120E00E0002200920A68086E0021FFF7EC
:10412000D5FE06E0032A04D10A68086E0021FFF7D5
:1041300043FF002008BD0000FFB58DB0040006AAB3
:1041400002AF179E169D199918980196009507C7FA
:104150000EA96C4F0EC92000FF69B847002802D095
:10416000069811B0F0BD6069079020890019089089
:10417000417E027E0802104300090B900898007EE1
:104180000007000F0A90089841780278080210434F
:1041900068380004000C09900A98002832D1286879
:1041A00000280CD1584F02E00120FCF79AEE574945
:1041B000386A0022FCF71CEE00282860F4D052492F
:1041C00028680969884730000CF0D2F92868306007
:1041D00001894D4B4718380024307060DB6820227D
:1041E000089938009847099860303870000A78704C
:1041F000474800684449C9694018B0605442724653
:1042000001000000803F000000020000C84D94FE45
:104210002968606948611AE03068002802D0018985
:10422000471806D13D4B61899B68E0880322984777
:1042300041E0B07C0A99401C88423ED178783A78B7
:1042400001020998114308183870000A78700F9914
:104250000091099A0899019770680E9B121D2831E8
:1042600001F02CFE00282ED11098199980004018DA
:1042700034300C90FCF7F6ED0C99401CFCF7F0E99B
:104280000E99189A009101920F9B109A0798390085
:104290000DF054F8214F079879698847BB68618908
:1042A000E088032298472868FCF710EE30000CF0F5
:1042B00069F90020286000205DE7184B6189E088DB
:1042C0009B680322EEE7189938000CF093F9134924
:1042D0002000896988470898C078400712D4787808
:1042E00039780002084329680C4B88809B686189F3
:1042F000E0880322984730000CF044F92868002138
:10430000296038E70B983082716809980818706046
:104310000A98B07486E7000084A30400B087040004
:104320002C06000000A60080FFB589B0040016002E
:1043300003AA1299724F01920091BF691D000A9958
:104340003200B847002802D003980DB0F0BD0A989B
:10435000417E027E08021043000908900A98007E00
:104360000007000F07900BD10A98C078400707D4C8
:104370000A984178027808021043A0802000E4E700
:10438000A088202803D920380004000C00E0002079
:104390000490129800780128079808D1002808D0C6
:1043A000584B61899B68E0880322984756E00028B3
:1043B00034D1129900200870306800280DD1514F77
:1043C00002E00120FCF796ED7D21386A0022090108
:1043D000FCF718ED00283060F3D04A490020059022
:1043E00009693068884728000CF0CCF830682860EC
:1043F0000189444B4718380020306860DB68202270
:104400000A9938009847404800683E49C11AFB5352
:10441000010000007C410000000200002D1AC9F9D3
:10442000C9694018A860316860694861059834E03E
:10443000288A089988420AD12868062201894118E9
:104440000A980C310C30FCF71FF8002812D03068A5
:10445000FCF746ED304B61899B68E0880322984762
:1044600028000CF099F812980121017000203060AA
:10447000002074E7286801894718A87C0799401C28
:104480008842E4D1787839780002084304994018CA
:104490003870000A7870042005900421091A0498E5
:1044A000081806900CD005990A981B4B4118DB6838
:1044B0006868069A203198476868069940186860CD
:1044C0000A98C078400720D4049800280AD1787848
:1044D000397800020843A1882022511A401A387006
:1044E000000A7870787839780002084331680A4BFE
:1044F00088809B686189E0880322984728000CF037
:104500004BF830680021316029E708982882079825
:10451000A8744FE784A30400B087040000A60080BD
:10452000FFB508008DB01E0017000D990D68002121
:1045300006916969002A059112D040300C90FCF771
:104540009CEC04008119C0782031400602D4A88870
:1045500011B0F0BD6078227800021043682801D8BD
:104560000020F5E7080009786B46197741785977FC
:1045700081789977C1788E093101891BCF19797BB0
:10458000002903D010220121069100E00822002119
:10459000D21E944605E07A1807AB5B18927B491C43
:1045A000DA706145F7D3E178490702D4217E090723
:1045B00021D02E4A2E492F4801AB07C333002E4A83
:1045C0000092069A280007A9FFF7CAFD040003D14C
:1045D0000D9800210160C3E70D98046020890C99B3
:1045E0000019FCF748E84178027808021043A080DF
:1045F00001200B9037E006990194009161782378AF
:104600000A021A43643A011D07AB01F061FC00285D
:104610000B900FD0164920000BF0F6FFD7BA0EB85A
:10462000010000007843000000020000D9F2774446
:10463000607821780002084308382070000A607012
:10464000A8880838A88018E00D48B1000C18343448
:104650002000FCF71CEC401C2100FCF716E80C982D
:10466000FCF714EC3900074A0E3101920091010069
:10467000069B059832000CF075FE0B9872E700005F
:10468000704800048C66050078660500E09400C060
:10469000F8B506002FF092FE0027FF43002803D153
:1046A0003CF078FF00282ED03289901941790379A7
:1046B0000906091419430C180E32881805062D0E28
:1046C00030002FF0AAFE002809D12000C430C179A3
:1046D00082790802083510432D062D0E03E0607B19
:1046E000217B00020843094988420CD12200A11D08
:1046F0003000358109F096FE002804D030000BF020
:1047000013FF0020F8BD3800F8BD0000888E0000BF
:1047100003488168012252051143816070470000FF
:104720000028008030B500224368002B0DD1CA60FC
:10473000016041604968002903D0017A491C017277
:1047400030BD417A491C417230BD4B68002B04D109
:10475000CA604268D1604160F3E70024057A0268CC
:10476000230002E01400D2685B1C9D42FADC002C9E
:10477000CA6001D10160E0E7002AE160DDD141605B
:10478000DBE70000024880680006000E704700006A
:104790001C8A0400034841680122920211434160CF
:1047A0007047000000A00090F7B588B00600314BBC
:1047B00009999D68140003ABA847002802D003980C
:1047C0000BB0F0BD002E53D00998002850D0002C1B
:1047D0004ED020783500340001077135603400294F
:1047E0002EDA25480022FF210068D2439131FCF7E0
:1047F0001EEB018906000F180999102204A8FCF786
:10480000F2EA002101970091207CE17B000208433D
:10481000C2082B00022104A803F09CFB207CE17B52
:104820000002084308300204120C100ACA493EABC9
:10483000010000007445000000020000C00AA93415
:10484000E273207439002800FCF7D6EA3000FCF748
:104850005CEB15E0400715D530003F301021060015
:104860003CF01CFE207CE37B0102FF221943521C1A
:104870000192009109982B00102231000AF064FA8D
:104880000120A7E70020A5E7C4A40400C08C040011
:10489000FEB505000C0000784006400E0290002096
:1048A000019000908020FCF748EB314E07003369FF
:1048B00028006A4601A99847A86801994018019004
:1048C000E8680099401800903800FCF736EB7068F3
:1048D000002805D0B16800980860F1680198086068
:1048E0000199002942D0009864235843FCF7BCEAA0
:1048F000206002980022FF21FCF722EB01998842F8
:1049000005D802980022FF21FCF71EEB27E0029851
:104910000022FF21FCF71CEB0199884205D8029880
:104920000022FF21FCF718EB0CE002980022FF2187
:10493000FCF716EB0199884208D802980022FF2163
:10494000FCF712EB2168884210D80BE02869316827
:1049500088420BD302980022FF21FCF706EB216866
:10496000884201D80020FEBD0120FEBD0220FEBD10
:104970005094040001004A69C96980688A4201D9DB
:10498000511A081870470170002141608160C160B0
:10499000016141618161C161704701697D22D2007D
:1049A000914201D20A310161704710B503785B066C
:1049B0005B0E0E2B0AD3C4694369A34206D91B1BA5
:1049C0000B608069834201D9181A106010BD70B560
:1049D00002780B7E5406D5094268640ED2184260F4
:1049E0000A19203252784E7DED011300A64205D1FE
:1049F000897E002902D05B1E1B061B0E002D03D0F2
:104A0000012A01D901221300C168C918C160816857
:104A100089188160100070BD10B504008EB0684622
:104A200000F006F82000694628F024FC0EB010BD06
:104A3000FFB581B004000D001E002D4F26A95BEFCD
:104A400001000000704700000002000034E21789F6
:104A5000039A7F68B847002851D138212000FCF71D
:104A6000DAE90398002801D0022000E001200421A7
:104A7000102D0BD102222270002208436270A07018
:104A8000000A2A003100E070A01D33E00127202D2C
:104A900018D13A0A277008436270A070000AE070CB
:104AA00010223100A01DFCF7B2E9310020000822DD
:104AB00018311630FCF7AAE9310008221031200025
:104AC0001E3017E00D2D01D0052D18D100222270C7
:104AD00008436270A070000AE0700398002802D0BA
:104AE000A271E77102E0F08CA071E27120002A004F
:104AF00031000830FCF78AE9280A2571607105B099
:104B0000F0BD0000E8A30400F7B582B00E00134B1F
:104B100002989C68150001ABA047002803D06B46A3
:104B2000187905B0F0BD0E4F002411E02001295C7A
:104B300001290AD140194178B14206D10299C01C1D
:104B40000622FBF7BFFC002805D0641C2406240EB7
:104B500078688442EAD32000E3E7000030A3040031
:104B60008487040010B504000020E20702D008008A
:104B7000FCF708EA0C490978012914D1210701D56D
:104B800000F014F8610601D5FCF700EA210601D512
:104B9000FCF700EAE10501D500F05EF86107890F36
:104BA00001D0FCF7FCE910BD18FA0004244870B5E8
:104BB00086B00078002802D0002006B070BD214DDC
:104BC00000242868002802D0FCF7A8E92C601E4EBB
:104BD0003068002802D0FCF7A2E9346000221B48AC
:104BE000D2430021FCF736E92860194902890A817D
:104BF000F02253004A8102228B810A804C80018975
:104C0000144D0818019200930290E8682C216A461E
:104C1000FCF724E901206B461873587308209C7335
:104C200098745C74DC731C741C75E868252103AAF5
:104C3000FCF714E9E868262103AAFCF710E9BBE7B2
:104C400034FA000420FA000424FA0004C918DAAB8C
:104C5000010000006C49000000020000F3FB15D4C5
:104C60003C1100C0843103C0AC3003C00022FF21DE
:104C700070B5D2431D48491CFCF7F6E81C4C1D4E8C
:104C80000025002820602ED0202101810321C18031
:104C90002030C17021687089888027200881F089C0
:104CA000022801D1002200E07289708988801248B0
:104CB0000823C068FCF780E92068242101810F499E
:104CC00024300A790270497903230907090F4170DA
:104CD000216889888170216809488A880068D21C07
:104CE000FCF7D2E825600020F58170BD181100C0E6
:104CF00024FA0004843103C0AC3003C0683003C020
:104D0000DC8A0400094A0020030010B50101545C4C
:104D1000002C02D053548918CB60401C0006000EB2
:104D20000A28F3D319F06CF810BD00002C470004DA
:104D3000F7B50600144B029A9B6B0199984700281F
:104D400021D11248002517E014276F43F05D002899
:104D50000FD04969BC19E07888470020F055E06021
:104D6000E078029A0199FEF737FFE178A0782FF0FA
:104D7000EBFD6D1C2D062D0E044908688542E3D31A
:104D8000080080688047FEBD30A3040084870400CB
:104D900070B500240A4E25000EE02C206043716897
:104DA0000A58002A05D00D5071684018001D0CF0FB
:104DB00071FF641C2406240E30788442EDD370BD4C
:104DC000209404008F21890041180079012801D026
:104DD000022809D100224A608A600A60C0318868CE
:104DE000002801D002608A607047F3B583B00024C8
:104DF0000498039E05062D1611E00298874207D2FB
:104E00003000FCF762E802000299380004F002F872
:104E1000641C240624160C21614303980E183000EC
:104E20000830FCF752E80700301DFCF74EE88742D7
:104E300002901AD804988442DFDD16E00C21694301
:104E400003980E183000FCF740E80700301DFCF70F
:104E50003CE8019030000830FCF736E8B2913D9212
:104E600001000000684B0000000200000713AB695E
:104E700001993A000BF036FC6D1E2D062D16AC4242
:104E8000E6DD05B0F0BD00000349884201D10020F5
:104E90007047012070470000381901C08A4208D2CB
:104EA000D10808185107490F012302788B409A4313
:104EB00002707047F7B582B02423070004981F4999
:104EC0005843461831F000FC01901D480569049ACA
:104ED0002805C40D0399380003F020FF0127194B62
:104EE000FF071EE07069E100401842680021116070
:104EF00019553169491EA14209D1F16809013943A7
:104F00000160280001252D038543002409E0B168D4
:104F1000083509013943ED04641CED0C2404240C0C
:104F20000160185D0028DDD128040499000CFCF70D
:104F300052E8019831F0CDFB05B0F0BD00A000C0F3
:104F400080A30080B0A100C073B527F087F80400EB
:104F500016D020890519280033F0FEF84D2028735B
:104F60000020687328000422103001A9FBF762EFCB
:104F70000420A8720020E8720198210027F0FEF9B1
:104F80007CBD70B505000720C0012818866B0F2076
:104F90008001281854360129817603D1280000F0B9
:104FA00075F904E0022905D1280000F00BFA716FB1
:104FB000040006E0032909D1280000F069F8B16F68
:104FC0000400280002F01CFC200070BD012070BD10
:104FD0000721C901401810B50649806B0A680649C7
:104FE000054BFF3035304118283BC01800F006F85B
:104FF00010BD0000D8880400FC06000070B5040055
:105000000D001600A4B014221CA115A8FBF71AEF7E
:10501000002C30D0002D2ED0062231001AA8FBF72C
:105020000AEF202128003CF057FA1BA82022290073
:10503000801CFBF700EF202105A83CF04DFA15A8D5
:10504000FBF7CCEF0300202226200DA901AD07C5F8
:105050001AAA0092202115AA05A804F01BF80DA891
:105060002EC82EC4103C12991198E1619E4636E775
:1050700001000000644D0000000200001EEB7519E5
:10508000A061149913986161206124B070BD000083
:1050900047726F7570206B657920657870616E73EB
:1050A000696F6E00F0B5040089B008F02DFC0700B0
:1050B00002D1012009B0F0BD3889C01904904179AE
:1050C00000790902014304980E18F5208000251884
:1050D000320007201332C00120180592846B28008B
:1050E00027F060FBE8680190A86802908320000127
:1050F00022180092A87821008006C00FC203543104
:105100008032300001AB089108F070FA059ACF2187
:105110005078412208405201A1180791CA8992078C
:10512000920E1043059A507030008A894030C27345
:1051300089890422090A01742F482118300051304E
:10514000FBF782EE300071300390A8782B490207FC
:1051500001D4C2062ED5039810226118FBF774EE15
:10516000039810300390300060300690017CC27BC1
:10517000090211431031C173090A01745420005D02
:1051800040071ED5079903980822FBF75EEE1A49DF
:1051900003981039083008226118FBF756EE06987C
:1051A000017CC27B0802069910431030C873000AC4
:1051B000087406E0800604D5089A6118300032F0C1
:1051C00041FF29002A1D64313000FFF71FFB307DAD
:1051D00029004207520F5431300002F025FA049999
:1051E0001230020A8870CA70B8800F2138002FF080
:1051F0001BF900205EE700002808000008080000F6
:10520000F3B583B00022018909180291466921484B
:105210001100FBF73EEE040002D1012005B0F0BD05
:105220002FF0EEF80004000C2081082705190F214B
:1052300028002773FBF70CEE41F0BAFB28730F2010
:10524000287100206871380AAF71E871B068606138
:10525000B0796870002200920F4A2E000F36029932
:105260003000931D02F01AFA0499002240313000F8
:1052700002F0DAF91230A870000AE870F2523CBD70
:1052800001000000604F000000020000EA03CBA410
:10529000607B0121084360730548A0610F21200055
:1052A0002FF0CCF80020C3E7B4410004AB86040023
:1052B00015D80200F0B5050085B008F02FFB0400FA
:1052C00002D1012005B0F0BD20890619707931792D
:1052D000000208438719F52080002D18280027F0C8
:1052E0006BFAE8680190A868029028001430202129
:1052F00003903CF005F9039A00920122D202291D85
:10530000380001AB08F07CF938006030017CC27BCA
:10531000080210435F3005042D0C380029000E30C0
:105320001FF018F91235280AB570F0700F2120000F
:10533000A5802FF083F80020C4E70000FFB583B0FC
:105340000022018909180291466926481100FBF7DD
:10535000AAED050002D1012007B0F0BD2FF05AF8E8
:105360000004000C2881082744190F2120002F7306
:10537000FBF778ED41F026FB20730F202071002011
:105380006071380AA771E071B0686861B0796070C7
:10539000049A0092144A26000F3602993000931D99
:1053A00002F086F9B07C01280CD00F4A3000921D23
:1053B000911F7130002328F095FA31006031C873D5
:1053C000000A0874069A0599300002F037F9123085
:1053D000A070000AE0700F2128002FF02FF80020A5
:1053E000BAE70000B4410004AB860400F0B585B014
:1053F000070008F093FA060002D1012005B0F0BDC5
:10540000308980190390417900790902014303989A
:105410000D18F52080003C180720C0013818876B54
:10542000200027F0C9F9E0680190A068220014323A
:1054300000920290A07811218006C00FC003C9011C
:105440004218211D280001AB08F0DAF8A07828499D
:10545000020701D4C2060CD57A18106900282ED094
:1054600040782900801C6031030AC8730B741169ED
:105470000DE0800627D57A18506900281FD04078A3
:105480002900801C6031030AC8730B74515E5D28CB
:10549000010000005C5100000002000094186C1430
:1054A0005169020028007130FBF7E2ECA078800619
:1054B00013D514483A00383839185432280032F0DD
:1054C000D5FD2100221D64312800FFF7B3F9002823
:1054D00003D13000FBF754ED99E7287D2100420706
:1054E000520F5431280002F0B3F803991230020A27
:1054F0008870CA70B0800F2130002EF0A9FF002004
:1055000086E7000040080000F7B582B000220600E0
:1055100000891100801901902B487769FBF7CCECCA
:10552000040002D1012005B0F0BD2EF07DFF000483
:10553000000C20810821051921730F212800FBF799
:105540009CEC41F049FA28730F2028710020687103
:105550000820A8710020E871B8686061B8796870A7
:1055600000220092194A2F000F3701993800931D2D
:1055700002F0A8F8039900224031380002F068F8E0
:105580001230A870000AE8700398406F00280BD012
:10559000607B0121084360730498002801D00C4807
:1055A00000E00C48A06109E00498002803D0300016
:1055B00028F0ECFA02E0300028F0F2FA0F21200087
:1055C0002EF046FF0020AEE7B4410004AB86040095
:1055D00049D802005DD80200F8B505000E000C4B5A
:1055E00014009F696B46B847002801D00098F8BDA9
:1055F000220029003000FFF7B9FA064949688842BD
:1056000003D200010019C068F8BD0020C043F8BDF6
:1056100030A3040084870400F7B582B00700174B5D
:1056200003995C69150001ABA047002802D00198DE
:1056300005B0F0BD124E002412E014206043295C36
:1056400001290AD141194878B84206D10398091DA9
:105650000622FAF769FF002805D0641C2406240EF0
:1056600030688442E9D33068844202D10020C043CC
:10567000DEE7142060434019C068D9E730A3040076
:1056800084870400FF30413010B5006900F001F854
:1056900010BD10B504000B000020D105A1C5432D9D
:1056A00001000000585300000002000060F0D2A981
:1056B00009D4210018002FF0B1FA0006000EFBF704
:1056C000BAEC0004000C10BD10B52FF0D7FCFBF7AE
:1056D000B2EC10BD0148008870470000409E0400F5
:1056E00010B507210170002104004170801C29F0D1
:1056F00067FA002806D0811EA170090A801C0006E6
:10570000000EE17010BDF8B505000E0017001C007A
:1057100041F0F8FBFF3541350090286923003A003D
:10572000310000F001F8F8BDFFB581B000240E0093
:1057300015000A9FD10505D42A003100FFF7B3FFF9
:105740004004040C049A3B0029003000FBF776EC7F
:1057500000190004000C05B0F0BDF8B505000E00FE
:1057600017001C0041F0CEFB009023003A003100EE
:10577000280000F001F8F8BDFFB581B006001D005B
:105780000A9FFFF7A1FF0400039A02992B00300043
:105790000097FBF758EC00190004000C05B0F0BDB1
:1057A00024235843114930B54018C16905690B05D8
:1057B000DC0D01236D1E1B03A54213D0140AE40067
:1057C0000919C904C90C1206C16101D1C16903E0FC
:1057D0000831C904C90CC1610A052924120D24012C
:1057E000A24201D98B43C361C06930BD00A000C093
:1057F000242358431349F0B54018C1694469090589
:10580000C90DCA000669A3180022751E1B6801276E
:105810003F053B408D4205D1C1693F128F430021B6
:10582000C76105E0C7690837FF04FF0C491CC76161
:10583000002B05D1CB00E318521C96428161E5D2C2
:10584000C069F0BD00A000C003000020020070B5D8
:1058500001240FE0082A01D15B1C002226001D78DC
:105860009640354204D1197894402143197070BD97
:10587000401C521C8842EDD3FF2070BD002210B5A1
:105880000AE00C235343C358002B04D101240C23FA
:105890005343C45002E0521C8A42F2D38A4201D1DF
:1058A000002010BD0C215143081810BD9D313B2430
:1058B00001000000545500000002000079080CD9D6
:1058C00070B504000E0015005C211000FBF740EBE2
:1058D00028E06078801CB04226DC207820280BD09D
:1058E000252805D0282805D0292807D1EC6414E004
:1058F000AC6412E02C6510E06C650EE0290020001D
:105900000AF0CBF9002808D12078DD2805D1A01CA9
:1059100001F0FEFB002800D0AC656078A41C361AAC
:10592000B61E0419002ED4D1300070BDF0B524236A
:105930008E46002158438C4623494018C169090509
:10594000CA0D82614169D300CB180121090324E00B
:105950001C68A50201D5E4072ED10469641E944297
:105960000BD1C26801241201E40722431A60C36903
:105970000A009A43C26100220BE0846801252401D9
:10598000ED072C431C60C3690833DB04DB0C521C9D
:10599000C3614369D4001B198261C469056A260585
:1059A0002F05360D3F0DBE42D2D10C400D40AC420A
:1059B000CED06146012904D1C0697146088058687B
:1059C000F0BD0020F0BD000000A000C0F7B507004A
:1059D000114B01991B681600984700281BD10F4DE9
:1059E000019807F0FBFD04000DD0A26C002A06D040
:1059F0006B69210020004430984700280BD12969A9
:105A0000606C8847ECE7380007F000FE002802D001
:105A10003060A9698847FEBDC0A40400A08C0400C2
:105A20000649401E89784143054840780818000619
:105A3000000E412800D340207047000030F40004DD
:105A4000C8990400214910B509780400FF200129F4
:105A50000ED0022917D0032936D11C4A0221C632A2
:105A6000200003F0F9F9FF2823D0032109022AE0DE
:105A7000164A06213032200003F0EEF9FF2823D029
:105A8000FF21491C1FE0114A03216C32200003F062
:105A9000E3F9FF2802D00121490214E00B4A062154
:105AA0008A32200003F0D8F9FF280DD02121090106
:105AB00009E0064A0721DA32200003F0640DB180C4
:105AC0000100000050570000000200008DE0B264A9
:105AD000CDF9FF2802D031210901084310BD000093
