:100000000100000000000000000200000447BA08E0
:100010001CF09FE51CF09FE51CF09FE51CF09FE5A0
:100020001CF09FE51CF09FE51CF09FE51CF09FE590
:1000300005390E1B0C0A000090090000940900000D
:10004000EC090000F0090000F4090000F8090000C4
:10005000050A0000000000EA050100EA28008FE21E
:10006000000C90E800A08AE000B08BE001704AE24A
:100070000B005AE1FE00000A0F00BAE814E04FE25C
:10008000010013E303F0471013FF2FE16CB70400E6
:100090000CB8040001C08FE21CFF2FE18A1803781E
:1000A00001309C07A40F01D1047801301D1101D14A
:1000B00005780130013C05D0067801300E70013121
:1000C000013CF9D1002D11D004781B0701309B0FA2
:1000D0000C1B032B01D1037801301B02E41A6B1CAB
:1000E000267801340E700131013BF9D59142D6D307
:1000F00070470000102052E27800B0287800A12854
:10010000FBFFFF8A822EB0E13000B0283000A1282A
:1001100000409045004081451EFF2FE10030A0E3E4
:100120000040A0E30050A0E30060A0E3102052E2F2
:100130007800A128FCFFFF8A822EB0E13000A128C0
:10014000003081451EFF2FE104309FE503308FE032
:1001500013FF2FE14907000010402DE9C140B0E135
:10016000A34024E00100005A000070E20010E1E228
:10017000030013E10100005A002072E20030E3E2C4
:100180008A0200EB010114E30100000A000070E2A2
:100190000010E1E2020114E30100000A002072E213
:1001A0000030E3E21040BDE81EFF2FE110B504006F
:1001B00000F096E90068005D000706D5DF2C04D04A
:1001C0002000203810BC08BC18472000FAE70000C7
:1001D000194930B417220A6036224A60174A184C6F
:1001E0000021030C8D001B185351164B491C58431A
:1001F00000193729F5DB30BC70470120E8E770B4FF
:100200000D4C0E4D6068216883008E000B07FAA329
:1002100001000000FC01000000020000C092652304
:10022000EA58AE59491E401E9219EA503623002959
:10023000216002DA2360606003E00028606000DA79
:100240006360500070BC400870470000E8CE0400B6
:10025000A0530500E119D666CD0D010010B4042AA3
:100260000ED303000B439B070AD108C810C9A34251
:1002700002D1121F042AF8D2A34201D0001F091F85
:10028000002A02D1002010BC7047D30701D0521CB5
:1002900005E003780C78401C491CA34207D1037881
:1002A0000C78401C491CA34201D1921EF1D1181BAD
:1002B000E9E70000013050E0030052214202009AB9
:1002C000030052E3020080E0021081E02500009A62
:1002D000030010E301307115012042120130601556
:1002E000030010E3FAFFFF1A033011E29100000A45
:1002F000042052E21B00003A03C031E7020053E33E
:100300000800003A0F00008A0C38A0E104C031E573
:10031000042052E22C3883E1043020E5F9FFFF2A63
:10032000021081E20F0000EA0C3CA0E104C031E5BC
:10033000042052E22C3483E1043020E5F9FFFF2A47
:10034000011081E2070000EA0C34A0E104C031E5AD
:10035000042052E22C3C83E1043020E5F9FFFF2A1F
:10036000031081E20000A0E1822FB0E1013071258D
:1003700001C07125012051450130602501C0602573
:10038000012040451EFF2FE103000B43020070B423
:100390009B0710D10F4CE50100E008C208C91E1BE5
:1003A0009E432E42F9D01906090E1170521C0029E5
:1003B0000DD01B0AF7E70C78491C531C002C147055
:1003C00005D00C78491C5A1C002C1C70F3D170BC51
:1003D0007047000001010101030010E310402DE906
:1003E0000040A0E1030011030A00001A50E09FE55D
:1003F000042052E2060000BA043091E40EC043E04B
:1004000003C0CCE18EC31CE004308004F7FFFF0A78
:10041000041041E2042082E2012052E22404141478
:1004200001000000F803000000020000347ADB9EA7
:10043000050000BA0130D1E4000053E30130C0E40C
:10044000F9FFFF1A0210A0E1E60100EB0400A0E1B1
:100450001040BDE81EFF2FE1010101010120D0E5A0
:100460000010D0E50230D0E50300D0E5021481E1B0
:10047000031881E1000C81E11EFF2FE12024A0E19F
:100480000000C1E50120C1E52028A0E10220C1E56E
:10049000202CA0E10320C1E51EFF2FE10000A0E118
:1004A0005A0000EB03002DE9BA0000EB0300BDE8A1
:1004B000820000FA0F002DE9B90000EB0F00BDE843
:1004C0001CC09FE50FC08CE001001CE30DE08F1203
:1004D0000FE0A0011CFF2FE101C08FE21CFF2FE104
:1004E00000F08AF87512030001402DE90000A0E138
:1004F000A10000FA0140BDE8000000EA0000E0E3CE
:10050000260000EA1EFF2FE110402DE9290000EB34
:100510001040BDE8040080E21EFF2FE1AD000000A6
:10052000013050E003005221B001009A020080E047
:10053000030010E3021081E0012042120130711526
:1005400001306015030010E3FAFFFF1A102052E299
:100550000500003A10402DE9185031E9102052E210
:10056000185020E9FBFFFF2A1040BDE8823EB0E1B1
:100570000810312908102029043031450430204565
:10058000030012E31EFF2F01822FB0E1B230712170
:1005900001205145B2306021012040451EFF2FE16E
:1005A0000C109FE51800A0E3563412EF1EFF2FE158
:1005B00054FFFFFF2600020004009FE51EFF2FE10D
:1005C0001EFF2FE19C54050010B5C046C046080030
:1005D00007D00178002904D005A100F024E9002803
:1005E00004D10448784410BC08BC18470020FAE73E
:1005F00043000000DCAF040010B5C046C046040054
:10060000C046C0462000FFF770EF10BC08BC18477A
:100610000E40A0E1660000EB04E0A0E101402DE9FE
:100620007B0000EB0040A0E10140BDE89EA64ADF50
:1006300001000000F4050000000200002D8205EE1C
:1006400013402DE90100A0E3121DA0E3081084E58A
:10065000000084E51340BDE80010A0E1040084E53B
:100660000EF0A0E110402DE903002DE96D0000EB34
:100670000040A0E10300BDE8042094E50D30A0E1B6
:1006800000E082E003005EE1002081E50B00008ACB
:100690000E3093E0011A8EE26330A0E1071081E290
:1006A0000730C3E30710C1E3030051E10310A08149
:1006B000041084E51040BDE8020041E01EFF2FE178
:1006C0000020A0E10000A0E30000A0E11040BDE890
:1006D0001EFF2FE1F0B585B0C046C04605000C00F6
:1006E0004AF0D8EA002001950294C046C046039023
:1006F00001A8FFF748ED040001A80D00009303C80E
:100700001600C046C046C046C046FFF794FD002113
:100710000800C046C0460700FFF758EF04900021CC
:1007200007600800FFF75AFF411C04984160002150
:100730000800C046C04601000498816000210800FE
:10074000C046C04601000498C16000210800C046B0
:10075000C046010004980161C046C046C046C0467C
:10076000C046C046C046C046C046C046C046C04659
:10077000C046C046C046C046C046C046009B05B005
:100780002000049C29003200A646F0BC01B070474E
:1007900010B5C046C0460020C046C046C046C04650
:1007A000C046C04610BC08BC184700000000E0E38B
:1007B0000210E0E31EFF2FE110402DE90000A0E150
:1007C0001040BDE81EFF2FE10E50A0E1430000EBFA
:1007D00005E0A0E10050A0E10700C0E30D10A0E19A
:1007E0000A30A0E100D0A0E160D08DE220402DE9E8
:1007F000D45300FA2040BDE80060A0E30070A0E3FD
:100800000080A0E300B0A0E30710C1E305C0A0E1B1
:10081000C009ACE8C009ACE8C009ACE8C009ACE864
:1008200001D0A0E11EFF2FE104009FE51EFF2FE194
:100830001EFF2FE18C540500030010E393A048D164
:1008400001000000F007000000020000D96ABB535D
:10085000030011031700001A00402DE984E09FE512
:10086000042090E4043091E40EC042E002C0CCE1E8
:100870008EC31CE003005201F8FFFF0A0040BDE8F0
:10088000030CA0E1020C50E0FF0E1C030700001A4D
:100890000308A0E1020850E0FF0C1C030300001A4B
:1008A0000304A0E1020450E0FF081C03020053000F
:1008B0006000A0111EFF2FE10120D0E40130D1E43F
:1008C000010052E3030052210400001A0120D0E489
:1008D0000130D1E4010052E303005221F5FFFF0A89
:1008E000030042E01EFF2FE10101010110B410BC22
:1008F0007047000000009FE51EFF2FE17C540500BB
:1009000004009FE51EFF2FE11EFF2FE1805405002C
:10091000913082E00300A0E10210A0E11EFF2FE170
:1009200000A000476C129FE534229FE5DB00A0E3A6
:1009300000F021E1021081E00310C1E3041041E264
:1009400001D0A0E100A0A0E300B0A0E314229FE545
:10095000D200A0E300F021E1021081E00310C1E326
:10096000041041E201D0A0E1D300A0E300F021E1B6
:10097000E8319FE5001083E5E0119FE5000091E577
:10098000040080E2E8119FE5E8319FE5D8219FE56A
:10099000000081E5002083E5020080E0D8119FE59A
:1009A0000020A0E3002081E5C0219FE5000082E552
:1009B000E4219FE5E4019FE52C0082E50700A0E328
:1009C000300082E50900A0E3000082E50B10A0E3FF
:1009D000101082E50130A0E3243082E5283082E562
:1009E000BC219FE51030A0E3083082E51EFF2FE117
:1009F0000EF0B0E1FF402DE900004FE101002DE9CC
:100A0000A0119FE5002091E51F2002E298319FE5AB
:100A1000823193E70FE0A0E113FF2FE188019FE50A
:100A20000810A0E3920102E00410A0E3012082E09C
:100A3000021090E724209DE5012082E024208DE52E
:100A40000100BDE800F069E1FF80FDE85B32AB73B7
:100A500001000000EC090000000200001E73B90E46
:100A6000FEFFFFEAFEFFFFEAFEFFFFEA700000EA7A
:100A700002F0C4FF53480047F34625F043FE000050
:100A800040019FE540119FE5001080E53C019FE596
:100A9000001090E538019FE5001090E534319FE5A6
:100AA0000310C1E10030A0E3031081E1001080E5F4
:100AB00000619FE50235A0E3083186E518019FE556
:100AC000100F01EE14F19FE5900F07EE1EFF2FE1CE
:100AD0000C019FE50010E0E3001080E504019FE5B4
:100AE00004119FE5001080E500019FE5001090E5EE
:100AF000081081E3001080E5001090E5081011E275
:100B0000FCFFFF0A900F07EE1EFF2FE1100F11EE02
:100B10001EFF2FE1100F01EE1EFF2FE1010050E23A
:100B2000FDFFFF1A1EFF2FE1C4009FE5C4109FE5E3
:100B3000F720A0E3040081E4012042E20000A0E3EA
:100B4000040081E4012052E2FCFFFF1AA8009FE5A7
:100B5000A8109FE5001080E5A4009FE5A4109FE584
:100B6000001080E5A0009FE5A0109FE5001080E543
:100B70001EFF2FE15CFE00041000000000040000D6
:100B80000004000014FD000434FD000438FD0004DE
:100B90003CFD000401C05EE50C0053E10330DE378C
:100BA0000C30DE2783C08EE01CFF2FE198940500F7
:100BB000003000803F1F000000280080B038008017
:100BC000201105001950F0030C20008023387E50BE
:100BD00000400190442000803CC600007C170000CB
:100BE000440000000C28008008280080020040001B
:100BF000C4200080F0F0F0F024FC0004D8FC0004D5
:100C0000C1080000DCFC0004F96C0400E0FC0004F6
:100C1000FD09000004F01FE5A405F40304F01FE53E
:100C20008009F40304F01FE50C0BF40304F01FE546
:100C3000540AF40304F01FE52451F00304F01FE507
:100C40004596F30304F01FE5757EF30304F01FE5FA
:100C50004B7EF30304F01FE58413F4031CAD6B8A91
:100C600001000000E80B000000020000EA9B07B34F
:100C700004F01FE55FC0F30304F01FE5B80AF403B6
:100C800004F01FE57009F40304F01FE5940BF4036E
:100C900004F01FE54986F00304F01FE56786F003C2
:100CA00004F01FE51C0DF40304F01FE5E7C2F30395
:100CB00004F01FE5AF81F30304F01FE5FFACF00380
:100CC00004F01FE51FABF00304F01FE5B77EF3034C
:100CD00004F01FE5594BF00304F01FE5FD52F0034B
:100CE00004F01FE5B5C7F30304F01FE58DC7F30358
:100CF00004F01FE5C3C7F30304F01FE599C7F3032E
:100D000004F01FE5D1C7F30304F01FE5A7C7F30301
:100D100004F01FE5000DF40304F01FE5337EF30338
:100D200004F01FE5CFC5F30304F01FE54D0BF403FA
:100D300004F01FE5D7BBF30304F01FE5EDBBF3039D
:100D400004F01FE563BCF30304F01FE57316F20320
:100D500004F01FE54B16F20304F01FE5779FF00344
:100D600004F01FE54F86F00304F01FE5B93FF303DD
:100D700004F01FE5493FF30304F01FE5DF3FF303F1
:100D800004F01FE5B1A1F00304F01FE59F7FF3031A
:100D900004F01FE5EF7FF30304F01FE53780F30352
:100DA00004F01FE5D180F30304F01FE50D88F00384
:100DB00004F01FE52788F00304F01FE59FCBF20342
:100DC00004F01FE5D74FF30304F01FE52B52F303A4
:100DD00004F01FE5AD6EF20304F01FE5D172F303DA
:100DE00004F01FE5516EF20304F01FE5BFC6F303E4
:100DF00004F01FE5A7C6F30304F01FE5B3C6F30331
:100E000004F01FE523D8F30304F01FE563D8F303D0
:100E100004F01FE553D8F30304F01FE5C7C2F30342
:100E200004F01FE5D53AF00304F01FE5EDC7F30326
:100E300004F01FE5F5CEF30304F01FE571CFF303D3
:100E400004F01FE51148F00304F01FE5B944F00376
:100E500004F01FE55149F00304F01FE5D14AF00307
:100E600004F01FE59D49F00304F01FE5369835CBEB
:100E700001000000E40D000000020000F363D9C38C
:100E8000D121F00304F01FE59523F00304F01FE5E2
:100E9000C923F00304F01FE5D522F00304F01FE599
:100EA0009917F00304F01FE50114F00304F01FE5A7
:100EB000C91AF00304F01FE51517F00304F01FE54D
:100EC000F518F00304F01FE53915F00304F01FE5F1
:100ED0007519F00304F01FE5C115F00304F01FE5D8
:100EE000C535F00304F01FE5C53CF00304F01FE531
:100EF0006540F00304F01FE5613FF00304F01FE5D7
:100F00002D41F00304F01FE59942F00304F01FE5C2
:100F10007F92F00304F01FE5FC0EF40304F01FE5DC
:100F2000F910F10304F01FE52D4DF10304F01FE566
:100F30007F1EF10304F01FE51502F30304F01FE523
:100F4000C76DF20304F01FE50102F30304F01FE58F
:100F5000E582F20304F01FE5EBACF00304F01FE5BB
:100F60006907F10304F01FE5F937F10304F01FE509
:100F7000B971F20304F01FE5453CF10304F01FE5ED
:100F80008903F10304F01FE58DFAF10304F01FE576
:100F90009DF8F10304F01FE57500F20304F01FE56E
:100FA000D7E9F10304F01FE5A130F20304F01FE5D7
:100FB000C72FF20304F01FE5673FF30304F01FE5BA
:100FC000313FF30304F01FE5018AF00304F01FE54D
:100FD000258CF00304F01FE55D44F20304F01FE5E7
:100FE000954BF20304F01FE5713FF30304F01FE596
:100FF000D558F20304F01FE5A772F30304F01FE5D0
:10100000D30CF30304F01FE583E3F20304F01FE5C0
:101010004912F30304F01FE56951F10304F01FE5E1
:101020005738F30304F01FE52735F30304F01FE5F9
:101030003F4EF30304F01FE5314EF30304F01FE5C8
:101040007162F30304F01FE50961F30304F01FE587
:101050008B65F30304F01FE5A597F20304F01FE589
:101060009B64F30304F01FE53D51F30304F01FE517
:101070004960F30304F01FE57766F303AD9B2B880B
:1010800001000000E00F000000020000078B677EF7
:1010900004F01FE5A752F30304F01FE5A94FF30383
:1010A00004F01FE5B94FF30304F01FE5F167F30304
:1010B00004F01FE5E950F30304F01FE5C597F203C0
:1010C00004F01FE59751F30304F01FE51362F303E7
:1010D00004F01FE57351F30304F01FE51F18F2033A
:1010E00004F01FE56970F30304F01FE59B70F30340
:1010F00004F01FE53B71F30304F01FE54364F303C1
:1011000004F01FE5936EF30304F01FE57718F20374
:1011100004F01FE5415FF30304F01FE52552F303DC
:1011200004F01FE56987F30304F01FE5BB57F303E1
:1011300004F01FE56F97F20304F01FE5DB51F303A2
:1011400004F01FE5B354F30304F01FE58972F303C1
:1011500004F01FE58759F30304F01FE5CD59F303AD
:1011600004F01FE5F959F30304F01FE58B5AF3036C
:1011700004F01FE5695BF30304F01FE5D95BF3039B
:1011800004F01FE5F155F30304F01FE58752F30364
:1011900004F01FE5E150F30304F01FE56557F30386
:1011A00004F01FE55B54F30304F01FE55B13F20347
:1011B00004F01FE5FF10F20304F01FE5F916F20337
:1011C00004F01FE57B16F20304F01FE5CF54F20391
:1011D00004F01FE5D371F30304F01FE5D3A6F20377
:1011E00004F01FE56FC2F20304F01FE52DD6F203F1
:1011F00004F01FE55348F10304F01FE5FB89F003F9
:1012000004F01FE58341F30304F01FE52B98F3037B
:1012100004F01FE59B9BF00304F01FE5CD79F30379
:1012200004F01FE5C579F30304F01FE55DB2F30395
:1012300004F01FE54FB7F10304F01FE5B700F10319
:1012400004F01FE5730DF10304F01FE5411CF103E9
:1012500004F01FE5510AF10304F01FE5691CF103D6
:1012600004F01FE519E5F10304F01FE533E5F10390
:1012700004F01FE529E5F10304F01FE5659CF10387
:1012800004F01FE5B59CF10304F01FE5CF39DD77CD
:1012900001000000DC110000000200007990C0CEC7
:1012A000159CF10304F01FE59DB3F10304F01FE565
:1012B00039E5F10304F01FE55BB7F10304F01FE526
:1012C000B972F20304F01FE591BCF10304F01FE5CD
:1012D000CF72F20304F01FE53965F10304F01FE556
:1012E0004BB9F10304F01FE58F35F20304F01FE55D
:1012F000715AF20304F01FE5B34CF20304F01FE54A
:10130000EB49F20304F01FE5ED32F20304F01FE5B0
:10131000DFC1F20304F01FE5AB61F30304F01FE546
:10132000FF2FF30304F01FE59B33F30304F01FE5E5
:10133000D942F30304F01FE52B4EF30304F01FE53D
:101340002B44F30304F01FE58D89F00304F01FE53F
:10135000C78BF00304F01FE5A9C5F30304F01FE5F4
:101360009781F30304F01FE5D39FF00304F01FE51A
:101370002B99F00304F01FE55D99F00304F01FE5DD
:10138000F9A6F00304F01FE50199F00304F01FE54E
:1013900035A5F00304F01FE561ACF00304F01FE590
:1013A0004D9AF00304F01FE5137EF30304F01FE5EC
:1013B000C57DF30304F01FE58B82F30304F01FE502
:1013C0004D82F30304F01FE595C3F30304F01FE51A
:1013D000BFC2F30304F01FE501C4F30304F01FE5EB
:1013E0009FBEF30304F01FE593BEF30304F01FE573
:1013F00079C2F30304F01FE597C6F30304F01FE579
:10140000ABBEF30304F01FE58795F00304F01FE57E
:101410001D95F00304F01FE55B95F00304F01FE554
:10142000697FF30304F01FE50D96F00304F01FE558
:101430003F88F00304F01FE54F97F00304F01FE529
:101440001B6EF20304F01FE5140DF40304F01FE516
:10145000080DF40304F01FE529A1F30304F01FE5D0
:1014600055A1F30304F01FE531A5F30304F01FE5D4
:10147000D59FF30304F01FE5A79FF30304F01FE5D6
:10148000979EF30304F01FE5A79EF30304F01FE506
:1014900087C0F30304F01FE59DC0F303B84F419CE0
:1014A00001000000D8130000000200008D787E7358
:1014B00004F01FE511C3F30304F01FE527C5F30390
:1014C00004F01FE57181F30304F01FE58F81F3033E
:1014D00004F01FE5C1ECF00304F01FE579C1F3034C
:1014E00004F01FE57D6FF20304F01FE50186F003B1
:1014F00004F01FE5B183F30304F01FE5497DF30316
:1015000004F01FE5B50DF20304F01FE59333F20379
:1015100004F01FE5996EF20304F01FE5277FF30343
:1015200004F01FE515C6F30304F01FE563C6F303DB
:1015300004F01FE551C0F30304F01FE5F37EF3034D
:1015400004F01FE5757300C004F01FE5797300C057
:1015500004F01FE5EDBFF30304F01FE501C0F30342
:1015600004F01FE51FC0F30304F01FE50BC0F303F5
:1015700004F01FE5D7C2F30304F01FE545B3F303FE
:1015800004F01FE5DBB3F30304F01FE5579FF303FB
:1015900004F01FE505A6F30304F01FE5FFA8F3031D
:1015A00004F01FE505ADF30304F01FE54B98F303CA
:1015B00004F01FE589B5F30304F01FE5CD9EF303A6
:1015C00004F01FE523A6F30304F01FE5ABC4F30307
:1015D00004F01FE575BCF30304F01FE597C4F303A3
:1015E00004F01FE5C3C4F30304F01FE5DBC4F303F9
:1015F00004F01FE5A1C2F30304F01FE5B5C2F30335
:1016000004F01FE591C2F30304F01FE597C2F30352
:1016100004F01FE5B1A5F30304F01FE5A5A5F3034E
:1016200004F01FE5A013F40304F01FE589ADF303F4
:1016300004F01FE58FB3F30304F01FE5BD9DF30332
:1016400004F01FE53DADF30304F01FE5D1ABF30358
:1016500004F01FE5F7C4F30304F01FE50381F3036F
:1016600004F01FE58143F00304F01FE50D45F0038E
:1016700004F01FE50D42F00304F01FE5A798F00306
:1016800004F01FE5C998F00304F01FE5C186F003DC
:1016900004F01FE58F99F00304F01FE54F9BF00362
:1016A00004F01FE5BD9DF00304F01FE5B05A619FF3
:1016B00001000000D4150000000200009480A00387
:1016C000E79CF00304F01FE5659CF00304F01FE5C0
:1016D000479DF00304F01FE54BA6F00304F01FE55F
:1016E0006B9EF00304F01FE5BB9EF00304F01FE5C2
:1016F000C199F00304F01FE5C39AF00304F01FE55D
:10170000377FF30304F01FE5617EF30304F01FE568
:101710003D2FF00304F01FE51BC2F30304F01FE5A7
:101720002FC2F30304F01FE5A7C3F30304F01FE582
:10173000B9C3F30304F01FE5E5C1F30304F01FE5AB
:1017400093C1F30304F01FE52FBEF30304F01FE57C
:1017500083C3F30304F01FE547BEF30304F01FE562
:1017600059BEF30304F01FE531C3F30304F01FE592
:1017700029C3F30304F01FE595BDF30304F01FE54F
:10178000E545F00304F01FE5D16EF20304F01FE518
:10179000A134F20304F01FE51B31F20304F01FE54E
:1017A000EF10F20304F01FE5978CF00304F01FE53F
:1017B0007105F20304F01FE5FBC3F30304F01FE51A
:1017C000CDBCF30304F01FE56BBDF30304F01FE58C
:1017D000B1BBF30304F01FE58DBFF30304F01FE575
:1017E000DBBCF30304F01FE52D45F00304F01FE517
:1017F0005405F40304F01FE57FC7F30304F01FE56D
:101800009DC5F30304F01FE5DFC7F30304F01FE5F4
:1018100047C7F30304F01FE5C9BBF30304F01FE55A
:1018200087BEF30304F01FE5CFBEF30304F01FE50A
:1018300051C3F30304F01FE59951F00304F01FE5D1
:10184000CBC6F30304F01FE5DBC6F30370B5040059
:1018500008000025E20704D00EF0F4FD12491148FB
:10186000086012480078012819D1200702D500F03D
:101870001FF80500600602D50EF066FD0500200683
:1018800002D50EF07DFD0500A00502D500F06AF836
:1018900005006007800F02D00EF08AFD05002800C9
:1018A00070BD0000D17D0200D8EE0004A8F900044C
:1018B0007FB525480078002843D10EF085440062AA
:1018C00001000000D01700000002000060681EBE8A
:1018D0009BFD00222248D243002119F08FFF214EA8
:1018E0001F2230600189520308181F49000C009024
:1018F00008681E4D90430F225203801808600A00AA
:10190000A869252130F0DEF8686925216A4630F0A3
:10191000D9F8154AA869262130F0D4F8144A686924
:10192000262130F0CFF8134CE08030680089208108
:10193000FFF7CAE960814004000C0021A0812180EA
:10194000618031680A89019051180391A8692C219E
:1019500001AA30F0B7F8002004B070BDCCF9000443
:101960007C1100C0BCF90004B0F90004A03003C031
:10197000503003C0883303C0FEB50024334E344DCD
:101980002721686901AA30F09DF80198641CC007FE
:1019900001D0B442F4D32F4C2F4E2088002822D1FE
:1019A00030680027002803D02C4909688847376031
:1019B0002B48FFF78EE9002830600FD001890A1804
:1019C0002849521E89788A1812781207120F22802D
:1019D0006780E78000894018A0800DE022490868F0
:1019E000401C086008E068692D216A4630F06AF8FA
:1019F000E08800994018E080E1891C480429218989
:101A000002D162898918FFE70268118121880029C3
:101A100013D0016832680A60A088E2880523801824
:101A20003268108168690122FFF756E96088401C1E
:101A300060802088401E208005E000680189081829
:101A40006189FFF736E90020FEBD0000FFFF0000BE
:101A5000A03003C0883303C0C0F90004C8F90004F3
:101A60003C3003C05C3003C000C50400BCF9000476
:101A70000022F0B5D2430021334887B019F0BEFEF2
:101A8000324F334D386001896A460818000C0090C7
:101A90002869252130F016F82E4A01266B461E7162
:101AA000D1880020002901D15E7100E0587100202A
:101AB0006B460821987199725872D87118725089C2
:101AC000002805D0012805D0022807D1B4DD4954EB
:101AD00001000000CC19000000020000A7711CE307
:101AE000072002E0032000E006206B46187301E0A7
:101AF0006B461973E868252101AA2FF0EDFFE8680D
:101B0000262101AA2FF0E8FF174A286926212FF085
:101B1000E3FF164CE080386800892081FFF7DEE89B
:101B200060814004000CA08100212680618039681A
:101B30000A8904905118022006910590E8682C212A
:101B400004AA2FF0C9FF0A48E1880088FFF7D2E80D
:101B50000849C870002007B0F0BD00007C1100C02B
:101B6000B8F90004A03003C0503003C0783303C07C
:101B7000AAF900045C3003C070B504001C4D0020BD
:101B8000E20708D06868002802D11B4A1948106093
:101B900008000EF03BFD1949097801291AD12107E7
:101BA00004D517480078002815D00020610604D518
:101BB0001449002008600EF0C1FC210601D50EF08A
:101BC000D9FCE10501D500F075F86107890F01D056
:101BD0000EF0E8FC70BD0EF003FD6868002801D12E
:101BE00000F012F868680228DFD1FFF74BFFDCE74E
:101BF000A03003C0D17D0200D8EE0004A8F9000493
:101C0000CCF90004A0CC04007FB50022D24300210F
:101C1000204819F0FDFD204E204D30600189204AFA
:101C20000818000C0090E86825212FF055FF28695E
:101C300025216A462FF050FF194AE86826212FF027
:101C40004BFF184A286926212FF046FF164CE080EA
:101C5000306800892081FFF742E860814004000C71
:101C60000121A08121800021618031680A890190D1
:101C700051180391E8682C2101AA2FF02DFF0B4881
:101C8000E1880088FFF736E80949C870002004B0F1
:101C900070BD00007C1100C0B8F90004A03003C082
:101CA000B0F90004503003C0783303C0AAF900042F
:101CB0005C3003C0F8B50024534D54482721006917
:101CC0006A462FF009FF0098641CC00701D0AC429F
:101CD000F3D34F4D4F4E6888F1784F4F43E9E61EDE
:101CE00001000000C81B0000000200005399A25E22
:101CF0004F4C88424BD12368242018816888E9889A
:101D0000B2784843310080189880B078F21C80186F
:101D10000278F37812091B0712011B0F1A43027095
:101D2000B0783200093A80188278C37812021A43D8
:101D3000521C130A8370C2703A68130E0371130C9D
:101D40004371130A8371C2712268081D9288121FA1
:101D50008A7122689288121F1212CA7122689388AF
:101D6000083B0B729388083B1B1243711089801843
:101D70008A78091DFEF7ACEF21682E488A88006832
:101D80001123FEF7BEEF00206880206002E020688B
:101D9000002819D1284819F0A5FD042814D80022DC
:101DA0002548D243002119F03DFD11212060C1805A
:101DB00020300221C1702168242008810020688021
:101DC000B0782430A88003E01C490868401C0860F3
:101DD000206800281AD01A49096808606888EA88CB
:101DE0005043AA88801822681081E889042828892D
:101DF00002D16A898018FFE7088109480122006939
:101E00000423FEF77EEF6888401C68800020E8818C
:101E10003868401C38600020F8BD0000FFFF00005B
:101E2000A03003C0783303C05C3003C0A0CC0400F2
:101E3000C4F90004DCBC04007C1100C0FCC4040034
:101E4000B8F90004002070470120F0B5400285B0C9
:101E500012F0C4FA71490A6803231B029A430A600C
:101E60006F4D002169612A68012A5ED129602869C5
:101E70006B46028941691418AA6896781E71D67853
:101E80005E7173071BD4002906D00A79022A03D198
:101E900015F022FA00280ED16B4618790007800F42
:101EA0000228286908D111F047FF0028F3D12869DA
:101EB000002135F01DF9A3E022F00AF9A0E05078E6
:101EC00013780002184313002033C018236FC01C7E
:101ED000DE7980088000022E20D10B79022B0DD1F3
:101EE0009279D2070AD00722D201891814D016138A
:101EF00001000000C41D0000000200004A617C2EA9
:101F0000896B412252018918C9890A06120E00E024
:101F10000022417803780902194310390170090A37
:101F200041700092236F2268002101F04FFF78E09A
:101F3000032E79D12268002101F0BEFF71E06A68AA
:101F4000012A67D169603C494C6C0291E969676973
:101F5000491CE961010702D5296A491C2962EE681A
:101F6000F179032901D1082188430107334806D5B7
:101F7000A869401CA861200014F09EF94AE0039073
:101F8000FEF7EEEA8079C00708D1B079800705D561
:101F90003879022802D030002EF0DCFBE868C079E6
:101FA000022808D10398FEF7DCEA4178027809029A
:101FB0001143103909E003280AD10398FEF7D0EA4B
:101FC000417802780902114322390170090A4170EF
:101FD000A0884038A0800398FEF7C2EA8078000706
:101FE000800F022813D1164A00922089154A011940
:101FF000154B200002F00EF900280BD002990400C6
:102000000CF0F0FB0299200046F076FA02E0200086
:102010002FF010FB0D49074A080010327C3803F0FE
:1020200031FC6869002801D125F098FA05B0F0BDAF
:1020300000A0009078440004E09C0004209D00046F
:10204000D49400C0DC9400C078920500B8DA040093
:10205000FFB58DB0080016001D00179A1699019261
:102060007A4C00913200A46801000D98A047002826
:102070005CD1FEF758EE069000200590012040024A
:1020800007918459E800401B80190C90C079049096
:102090000C98007A03900D9841780278080210435A
:1020A00044D0FF36C136B06A002801D0169800E04F
:1020B00017980022009208900D980822032100230F
:1020C00043F0D6FA07000D98002512300B9030E04F
:1020D0002801401B00190E30FEF742EA0B99801CC4
:1020E0000622FEF747F9002822D12801401B0419D7
:1020F0000E34002F03D0B978039881423286EA0A61
:1021000001000000C01F000000020000BE89C29351
:102110000AD0B16A200034F077FB0100B26A089857
:1021200034F087FB00280BD02000FEF724EA179933
:102130000172169820730822201D06A9FEF7DCED17
:1021400011B0F0BD6D1C207BA842CBD80D98417812
:102150000278080210430990093005042D0C002F65
:1021600005D1ED1C03982D042D0C059022E0B878C4
:10217000039988421ED00C98407A8007E0D519E078
:102180000A980028DCD0B16A200034F04CFB070626
:102190003F0E3801C01B0019B16A0E3034F034FB19
:1021A000B26A089934F045FB0028C9D139002000F3
:1021B0003DF0F4FD207B0A90617B8842E0D2201D37
:1021C000FEF7D8E9471920000830FEF7D4E9874226
:1021D000D6D82000FEF7CEE90600201DFEF7CAE99A
:1021E0003618A81E3070000A707037000B99093736
:1021F0000622B01CFEF780ED179830720D99099AEF
:1022000020313800FEF778ED099805993818002933
:1022100005D0032101700121417005998170207B57
:102220000301181A07190E3739003000FEF7B2E91A
:102230000822381D06A9FEF760ED16986B46387324
:10224000187C78730398B873207B401C2073201D82
:10225000FEF790E94019211DFEF79CE970E70000A8
:1022600020DA04000349012010B5087000F0E2FCF8
:1022700010BD0000D4BC04000020704710B504005D
:10228000124822180889D38940180C30002B16D127
:10229000118A002913D1518A002910D10B4B01005A
:1022A0000E330622E018FEF728ED200002F02CFD88
:1022B0008F229200F021A018FEF742ED03E02100EA
:1022C0001DF074FA0400200010BD0000210200007F
:1022D00009490220086009490A200860094908489C
:1022E00008600A49084808600A49094808600B491B
:1022F00009480860704700007CB9040080B90400F8
:1023000049FD010084B90400392D020045BD276F45
:1023100001000000BC21000000020000B656334E50
:1023200088B90400552701008CB90400D94802007F
:1023300090B904007CB50400FF2206216846FEF730
:102340000EED0E222000694632F002FE37F0BCF896
:1023500005000DE0FF202D30005D002802D0200098
:1023600017F01AF8A279617920001DF0B7FA04007D
:10237000002CEFD1280037F0ACF87CBDFEB506008C
:102380000720C0013018846B1F2080012018C06B0B
:10239000002830D037F098F801903F2040012518F0
:1023A000287E0127002827D0012821D1C00220182B
:1023B000022107602976406832F094F9144800221F
:1023C00000922318B179134A134832F027F9019883
:1023D00037F07FF83000FFF7ADFF4034207D400735
:1023E00006D50121300004F0B1FE30000FF0F4FCFE
:1023F000019837F06EF8FEBD0548002200922318C0
:10240000B179044A044832F009F92F76F0E7000068
:102410000408000000879303B9220000F8B50C00FF
:1024200037F052F807002106090E01201DF0D8F9F7
:1024300000281AD00721C90141188C6B3F2149019E
:102440006518297E0026012910D002290AD15421BD
:10245000095D490701D505F05BF90120C00220188C
:102460002E760660380037F034F8F8BD2E76F9E79E
:10247000FFB581B01C0005001700180004F036FC01
:10248000012802D1002005B0F0BD124E206871680D
:10249000401C491CFEF766EC2160B268281F002A28
:1024A00005D000680C4A000C904200D0FEE74C209A
:1024B00048434C230019C56420684422584300193E
:1024C000076520680299584300190830FEF71EEC92
:1024D0000120D8E734BE0400EFBE000070B505004F
:1024E0000C00080004F03EFC012801D1002070BD62
:1024F000064920680968401C491CFEF734EC880036
:10250000001921608560012070BD000034BE040008
:1025100070B504000720C0012618B06BFE82ADED37
:1025200001000000B82300000002000042BE8DF34D
:10253000FF2155310A584B21095C8A4201D3002002
:1025400070BDFF30F130202103F002F91121490163
:10255000000600226518000EFF28EA8211D0401CF8
:10256000E882FF2001212D300155B06BFF30413052
:102570004169491C0129416103D1442120000FF028
:1025800029FEE88A70BD00000249014808607047D2
:1025900041240000E0BD040030B50025039C857196
:1025A0000D7885704D78C570127802714471097884
:1025B000890600D5038030BDFFB50D2189010400D7
:1025C0004518A86981B00A9F1E00002801D000F0BC
:1025D0004BFF0020A861F520800025180021200075
:1025E00004F0BEFD9C212800FEF7BEEB039A029981
:1025F000330028000097FFF7CFFF05B0F0BD0000C3
:1026000070B50D000D49060000240322FDF7D0FE31
:10261000002806D00A4903223000FDF7C9FE002831
:1026200006D1F078012805D0022801D12C00044001
:10263000200070BDEC07E40FFAE700009CAC04003A
:1026400068AC040013B56B461A781979002014079A
:1026500003D50B0701D501201CBD530701D54B073E
:10266000F9D4D30701D0CB07F5D19207F4D5890768
:10267000F1D41CBD034810B5FDF790EF002800D041
:10268000012010BDD4150500F8B504000D00002888
:102690007ED0002D7CD0FF21424800222D3119F040
:1026A000E9F8002828607CD020000C3000901DF054
:1026B000FDF8296806004861296802200873296826
:1026C0001C20088128685A217C3041732968B02079
:1026D00008812D680020B0352F000F37F91FFDF756
:1026E0006EEF0F20287100206871E07AA17A000255
:1026F0000843010AA8700E28E9700CD2E07AA17A8A
:10270000000208430E21091AC019FEF70EEB0E2035
:10271000A8700020E87047F0FDFB002800D0207A68
:102720002873687BF121400840000840DF293B12F4
:1027300001000000B4250000000200005B46538346
:102740006873E07AA17A02020A4300993800FEF722
:10275000F2EA207B002814D1607B002811D1A07BF5
:1027600000280ED1E07B00280BD1207C002808D166
:10277000607C002805D131000622C6313800FEF702
:10278000DAEAA07C002816D1E07C002813D1207D55
:10279000002810D1607D00280DD1A07D00280AD12D
:1027A000E07D00E007E0002805D10448062201682A
:1027B000B81DFEF7C0EAF8BDAC410004D4BA04006D
:1027C0000F49002810B501D1012010BDCA7B8B7BB9
:1027D00012021A430AD10021FF22017019324170FE
:1027E0008270120AC2700171417107E04A7B0B7B53
:1027F00012021A43921D0831FEF79CEA002010BD18
:1028000052150500FEB50027184E3C0002978220A5
:1028100060438519E87BA97B0002084321D0082288
:1028200029006846FEF786EA019900987940084336
:1028300017D18220604302A980190830FFF72EFFCC
:10284000E87BA97B00027D230843DB00584300900E
:10285000C1170191082228006946FEF76CEA029828
:10286000FEBD641C012CD2D30020FEBD5215050014
:1028700010B5064C00200100822242430B0A1219B7
:10288000401C91730128D373F6D310BD5215050077
:1028900010B504000648FDF78CEE002806D0FF3482
:1028A0002134207B002801D0012010BD002010BD64
:1028B000D41505001CB50028184C04D12100A073C4
:1028C0008231E07323E0C1788278090211430A0063
:1028D000FF3A193A1FD1417903790A0201001A43DC
:1028E0002000921D0830FEF726EAE07BA17B000263
:1028F0007D230843DB0058430090C1170191082253
:1029000020006946FEF716EA044904488231FDF7C3
:1029100060EE00201CBD01201CBD0000521505000A
:10292000F0B500263400354F8BB0FEF724EA09914C
:1029300008900822391D6846FEF7FCE9FDBB6BFFD5
:1029400001000000B027000000020000AFAEED3E25
:10295000009A0898019B0999801A99410BD3082283
:10296000391D02A8FEF7F0E9029A0898039B09991D
:10297000801A99410CE00822391D04A8FEF7E4E909
:1029800004980599089A099BC043C9438018594186
:102990007D220023D200FEF7D4E90D0006908221AB
:1029A0001B486143823808180A90C17B827B080269
:1029B000104321D00A99082204A8FEF7C6E904A80A
:1029C00007C82B00121A8B4110D20A99082204A8BA
:1029D000FEF7BAE904A807C8801AA941039102903A
:1029E0000A98082202A9FEF7B0E905E00A98082231
:1029F00008A1FEF7AAE90126641C012CCFD3082206
:102A0000381D08A9FEF7A0E930000BB0F0BD0000AA
:102A1000D4150500000000000000000008B50168A2
:102A2000836A01290AD1002202600100044A1800C9
:102A30000092044A044B1C3100F008F808BD000065
:102A40007D2800007049000498490004FFB583B058
:102A50000C0015001E00C979A0790C9F00290BD02D
:102A60002A00210002F07AFD002811D0A0792A0066
:102A7000210004F099F81DE03200210002F04EFD23
:102A8000002805D0A0793200210004F049F811E0B7
:102A9000A0796B46187106222100581DFEF754E9F3
:102AA000E0796B46D872094B37211D6803980823DB
:102AB00001AAA847E17901970091A3792189039898
:102AC000220010F03DF907B0F0BD0000ACB90400E1
:102AD000FFB583B002AA1E0003A8154C0092A46A99
:102AE00007C80027A047002802D0029807B0F0BD11
:102AF000002416E02001315C00290FD085190498CC
:102B0000E91C0622FDF768FC002807D169780398C4
:102B1000814203D10598A97801270170641C24061D
:102B2000240E044840688442E4D33800DEE7000005
:102B300080D804007CB90400F7B582B01600144BAD
:102B40000399DC6A0298002701ABA0472335913036
:102B500001000000AC2900000002000068B7EF632C
:102B6000002802D0019805B0F0BD002414E0142024
:102B70006043315C00290CD085190398291D062279
:102B8000FDF734FC002804D169780298814200D115
:102B90000127641C2406240E034800688442E6D3FF
:102BA0003800E0E780D804007CB90400002810B5A4
:102BB0000DD0074B074A04E089008478C9180C60DF
:102BC000001D01889142F7D18478FF2CF4D110BD0B
:102BD00000200090FFFF00008200044810180268E7
:102BE0001206120E8A430260704700000020009017
:102BF00004490E20C043087056310870C8708871AF
:102C00007047000030BA0400034980004018006893
:102C10000006000E7047000000200090820004486B
:102C2000101802681206120E0A4302607047000074
:102C300000200090054A01781170044982785631CD
:102C40000A704278CA70C0788871704730BA040040
:102C5000024A800080180160704700000020009048
:102C600070470000042008B5FEF7A8E8002800908F
:102C700009D0064A04491160054901600548016808
:102C80006846FEF7A0E808BD714E0100F8F40004A4
:102C9000EF130000BC23F403F8B51F480569681C56
:102CA00039D01020FEF78AE80028009033D01B4965
:102CB000002402C0FF220A21FEF778E824E0E8079A
:102CC00020D0601E0D281DD8A0000019083800D59E
:102CD000002001001A314F2903DD4F210E2C00D0B6
:102CE0003520009A091A121D41188C4608E0460743
:102CF000C108760F0127535CB740BB43401C5354B7
:102D00008445F4D86D08641C002DD8D104480168AE
:102D10006846FEF758E8F8BDD4BC04000114000072
:102D2000BC23F403F0B5844600260B483500C08967
:102D30000AE04C5D575D7C4003E0E70700D0761C5D
:102D40006410002CF9D16D1C8542F2DB6046C10095
:102D50001E6005980160F0BDC4CE0400DB2FBBF0FF
:102D600001000000A82B0000000200009C5F51DE63
:102D700070B504004D6808000368E968A669082B6F
:102D800058D008DC9B1CFEF72CE80A6521686868AF
:102D90004968684F4068162B5AD010DC092B5CD16B
:102DA0000C310D0030001CF0B9FF002854D0E87938
:102DB000A97902020A432B00092130001DE0172BDC
:102DC0004BD100202071A1683C311AE00320800221
:102DD000FEF70AE830002DF035FF30002DF0FFFF40
:102DE000012031F014FE012018F01AFB217D00298A
:102DF00032D03300E28AC633DFE740F0FFFDA1683E
:102E000018312000FDF7F4EF26E01449300000F0FF
:102E100085FD0022032130001300EEE72A6869686F
:102E2000300041F0F1FF17E02A686968300042F095
:102E30000BFD11E00C310D0030001CF06FFF00287D
:102E40000AD0E879A97902020A432B000821B4E7E5
:102E50000120B7E72068E060002070BD0408000092
:102E600070B5060010781400E02886B004D1200068
:102E700019F088FC050000E011250021481EFDF72F
:102E8000BCEF2279E178A07803AB07C33300627806
:102E900021780191FF21029221310E2002A200959A
:102EA000FDF7AEEF06B070BD5268626262626262A8
:102EB000000000003EB503F06BFB00282CD100F0B1
:102EC00015FB002828D10C22009218480422062362
:102ED00012A107F0DDFE15480C2200920422001D0D
:102EE000062313A107F0D4FE144C1548B12221008B
:102EF000FDF766EF1349002213A06B4607C32200BB
:102F00000A480F49001F0C2307F0E8FF002803D1EF
:102F10003AF076FE00203EBD01203EBD4342507295
:102F20006F63534D454D73675100000008BC0400AA
:102F3000434250726F634D7367510000A406000056
:102F400058070500C9C8010043422050726F630052
:102F5000054810B5006A08F040F803480C2201212A
:102F60002C3007F049FF10BDE4BB04006D75102D37
:102F700001000000A42D00000002000085A78FAE14
:102F8000F8B5002206000F001048110018F0A4FC4C
:102F9000040016D02089082105192800FDF7F6EE57
:102FA00029003000FDF73CEB291D3800FDF738EB18
:102FB00007482200806A0421002307F005FF00284B
:102FC00003D0200018F0C8FC0120F8BDA84300047D
:102FD000E4BB0400F7B588B0150006004069069010
:102FE00009984030FDF70CEB040024340790E0789A
:102FF000800607D5B088103807043F0CB780603FC3
:10300000002F02DC00200BB0F0BD28003030039010
:10301000001F029060782178000240180004000C24
:103020000590E079A179000240186179000240180A
:103030002179000240180490069844220079114832
:1030400046640999FDF79EEE3EF088FF0E49012087
:1030500008600E482B00056009980C332030007E74
:1030600021004207520F00923A040798120C00F018
:10307000A3FD03990598088002990498086001202F
:10308000C1E70000E09C00047C4400048444000488
:10309000F7B50F00164E002426E02C256543706816
:1030A00029182220405CB8421BD100981C3106220E
:1030B000FDF7B0F9002814D17068029A2918203160
:1030C000C97891420DD1405900280AD02C20604384
:1030D00071684018001D10F0F7FA7168002048511F
:1030E000FEBD641C2406240E30788442D5D3FEBD78
:1030F00048C60400F7B507001DF0CCF800283DD005
:103100002CF09AFA002839D0380024F065F800280D
:1031100034D08D48016A8D4E0C07FF25240F2D35C4
:103120008A49C03606E00A2025F086FF8648006AF4
:103130000407240F8548C168890708D5B16989004B
:1031400003D5052C03D0062C01D06D1EEBD2FF2534
:103150002D3502E00A2025F06FFF7C48C06880070B
:103160000CD57B48006BC00308D5B069800005D53D
:10317000052C01D0062C01D16D1EEBD2DEE995F5B0
:1031800001000000A02F000000020000714F311369
:10319000754CA06A75490840A062606A744908438A
:1031A000606280210220FFF757FD012025F04EFFCD
:1031B00080210220FFF72EFD012025F047FF019915
:1031C000380026F047FC6B48FFF70EFD0198029986
:1031D00005062D0E2A00380017F0E6FC012017F036
:1031E000ADFD002F13D10298022807D002980328C2
:1031F00004D001980E2801D15F4806E02FF040FB73
:10320000012801D15D4800E05D48FFF7EDFC5D4E0F
:10321000029A0198390035F055FB029A019839005D
:1032200035F000FC029A0198390035F0DDFB029A76
:103230000198390035F084FB606A4D49C943084064
:1032400060620DF005F8019A029938003CF03CFAF2
:103250000CF02EFF01203CF000FB029A2900380000
:1032600029F0C4FD0400010038003CF0F5FA3800F4
:1032700023F0BCFF0100380017F068FD0221072091
:103280000CF0BCFF36F02CF8380023F0AFFF00281C
:1032900004D0102107200CF0B1FF03E0102107201B
:1032A0000DF002F8210038003CF0C2FA210038008D
:1032B0003CF0D4FA36F094F8380023F097FF002859
:1032C0001FD02848006B800317D407200CF0E2FFC2
:1032D0008009012803D13069401C30610AE00228CE
:1032E00003D17069401C706104E0032802D1B06909
:1032F000401CB061F068401CF060022107200CF017
:10330000D3FF0CF0A1FF204C072021694003002FC0
:1033100008D18143216120690521490308432061C7
:103320001A4807E0814321612069032149030843CA
:10333000206117482061380023F076FE380035F010
:1033400071FD012803D10199380035F0CEFD2069C7
:103350000821084320610120FEBD0000000001900B
:1033600000A700804020008000A80080FCFDFFFF37
:10337000C0000080CAD10400BAD7040016D70400E8
:103380001AD704002CBA0400C0A200805911503290
:10339000010000009C310000000200000F5496A3C1
:1033A00008A8000008680000F8B50D0016000F4FCF
:1033B0001D2138687C68401CFDF724ED009111E068
:1033C000A000C01980680189081801784907490FD1
:1033D000B14201D1603005731D21601CFDF712ED73
:1033E0000C000099A142EBD1F8BD00003CDA0400CA
:1033F00038B50500134B0C001B686A469847002837
:1034000001D0009838BD104900200A6807E0142355
:103410004343EB5C002B0BD1401C0006000E904296
:10342000F5D34968002008E00201A25C002A01D01F
:10343000012038BD401C0006000E8842F4D3002055
:1034400038BD000080D804007CB9040070B50400C9
:103450008568002086B0002D0590049016D0174E88
:1034600004AA0092F0893269290005ABFFF782FCBB
:1034700013490598CA6B1218CA63F3898A6BD2186C
:1034800000288A6304D1086A401C086206B070BD37
:1034900030790028FAD0FF2801D0401E3071A08872
:1034A000402203920022019000920021FF2002237B
:1034B00004A20295FDF7C2ECE8E70000C4CE0400C8
:1034C0005C5305006262686D0000000007484178A7
:1034D000002909D106490968012209054270490FEE
:1034E00002001C32515C817080787047E49400C007
:1034F00000200080002810B505D000218173012133
:10350000017318F03DFA10BD064800226C2110B579
:1035100018F0F6F9002803D001218173022101730C
:1035200010BD00009C4400040B4808B502680C491B
:1035300000920800094A0B4B20382BF01BFF002893
:1035400001D0012008BD094907480860080045F07E
:10355000B1FB002008BD000038BD04002C9D000414
:10356000BC440004008402C0A1210100CC9400C02E
:1035700070B50500054C02E02169406C88472800C1
:103580000BF0EAF80028F7D170BD000034BE04004B
:1035900070B50500054C02E0E2680021CB702012F6
:1035A000010000009833000000020000FBBC281E50
:1035B000904728000BF0F2F80028F7D170BD00000A
:1035C00034BE0400FFB585B004001E000E9D0698B1
:1035D000134F009504903F68079A06992000B8475A
:1035E000002814D12000002D039402D1A1794D07A9
:1035F0006D0F21005131022D0BD110220292019149
:10360000079B012204A903A8009607F0C9F809B096
:10361000F0BD0091079A0699330007F04DF8F6E7E0
:1036200038D90400FEB5012200241203018891421A
:1036300002D10E2421020CE001225203914202D158
:103640000724A10205E00122D202914202D11C24EA
:10365000A101018000882C4FB030388002E00120A9
:1036600007F0F1FC294818F0B5F9050027480821B2
:1036700018F0D7F906002548102118F0D2F93018B3
:103680008542ECD1224818F0A5F905002048082110
:1036900018F0C7F906001E48102118F0C2F93018BA
:1036A0008542DCD11B4818F095F90500194808211E
:1036B00018F0B7F906001748102118F0B2F93018C1
:1036C0008542CCD1144D0022286841212EF086FA83
:1036D00010F06AFA11490D4800F01EFA10483988B6
:1036E000018384760F480E49026800920E4A07480B
:1036F0000E4B2BF049FE042001902868422101AABC
:103700002EF06CFAFEBD0000E6BB0400F840000499
:10371000AC4100043043000488B8040059AA0000FA
:103720001841000438BD0400104F0004001E01C001
:10373000FFB585B015000E0000220E9F13006946EC
:103740000CC1AC1C6A80A978F32289088900114059
:103750000831A970727BD20709D0002F03D0090766
:10376000090FC0310BE00907090F403107E0002FB6
:1037700003D00907090F803101E00907090F217003
:10378000F179B27909021143EA2904D1717B082247
:103790001143717305E0E92903D1617820221143B7
:1037A000617001792A000C320492921D4C37218EEF
:1037B000010000009435000000020000E244F66EB3
:1037C000C630EF270029039202901AD0012947D072
:1037D00002293DD108990622A81DFDF7FCEA0299AD
:1037E00004980622FDF7F6EA089903980622891D37
:1037F000FDF7F0EA607802214008400008433840B5
:1038000025E002990622A81DFDF7E4EA1E480622DB
:1038100001680498FDF7DEEAF079B1790002084307
:10382000E62802D10299062201E0089906220398AF
:10383000FDF7D0EA607801210843FD2108401349D3
:10384000607009683840497CC907C90E0843607038
:10385000280006221A306946FDF7BCEA09B0F0BD1F
:1038600008990622A81DFDF7B6EA07480622016856
:103870000498FDF7B0EA029903980622FDF7AAEA38
:10388000607840084000D8E7D4BA0400D8BA0400F1
:10389000312818D009DC11280DD012280FD021288A
:1038A0000BD0222807D10520704732280DD03328AD
:1038B00007D07728F8D000207047042070470120F7
:1038C00070470A2070470820704709207047002879
:1038D00001DD002004E06521C943884200DA0800C8
:1038E0004042000600167047002801DD002004E079
:1038F0006421C943884200DA0800404200060016ED
:103900007047662801DD662002E0002800DA00200A
:103910000006001670470000F8B515000600080004
:103920002BF0ACFF002825D035F032FE07001248FE
:10393000FDF764EA040015D01049012208889203BB
:10394000C004C00C80182071000A60710888401CF7
:1039500008802868A11DFCF78CEE07482100143868
:10396000FDF784EA380035F018FEFF21491C3000CD
:10397000FFF72EFBF8BD000038460500DCC404004C
:10398000002210B51EF028FD10BD0000084810B53B
:1039900001684908490001600648416818229143BE
:1039A000416005210448C901FDF718EA10BD000077
:1039B00080AF008040A50080E49A02C0CF2D41ED89
:1039C00001000000903700000002000016AC48D350
:1039D00010B50CF065FC05480CF080FB0CF05CFCAD
:1039E0000248001DFFF728F910BD0000F89600C03E
:1039F00010B5FFF7EDFFFFF7D3FF10BD044B10B577
:103A00001870DA62D96100F005F800F02BF810BDEB
:103A1000D89600C00D48002101600D4A82600A223C
:103A2000C2604161052181610A490A78022A03D1F5
:103A300040224A70084902E020224A70074901608A
:103A400007494868182210434860704780AF0080DB
:103A5000E49A02C0D89600C00110000001180000CE
:103A600040A50080154870B5012400782500022883
:103A700003D00225032800D0002534F097F902284E
:103A800002D0032800D000240D48FFF7D5F80C48D9
:103A9000ED00BC302818A4000059FFF7CDF80CF059
:103AA000FFFB07480C380CF019FB0548D4302818E8
:103AB00000590CF013FB0CF0EFFB70BDD89600C062
:103AC000049800C070B500250F4C104E6068401C73
:103AD00060603068A16A401AE169884202D934F016
:103AE0003FF805000A490868400840000860086877
:103AF0000122104308603068A062E16A002901D009
:103B000028008847280070BDD89600C000A6008015
:103B100080AF0080002910B50FD0CC1DF934226988
:103B2000824208D1E031087F022804D1034960694C
:103B30000E222CF037FE0020206110BDA7B8040033
:103B400010B5C06940698847002800D0012010BD29
:103B50000349486801229202904348607047000080
:103B600000A0009070B500248300CC50074D2100C8
:103B700008E04B009E187678864200D1D454491C48
:103B80000906090E2B689942F3D370BD7CB9040075
:103B9000F0B5002212250B4E2423534300219F1918
:103BA0008B00FB185C78844200D15D70491C0906CB
:103BB000090E0929F4D3521C1206120E032AEBD364
:103BC000F0BD000028C00400124870B55ABB618FD8
:103BD000010000008C39000000020000D1B54A8EBF
:103BE0000468124EA10706D500210161B26D0120C3
:103BF0009047022084432006000F03D0E020844336
:103C00001020044300250AE0E00706D0A80032583F
:103C1000002A02D021002800904764086D1C002C67
:103C2000F2D1002070BD000000280080C0470004D1
:103C3000FFB589B003AA050000200490012003907D
:103C40001299414C0192009124681F003D4E0B9A3D
:103C50000A992800A047002802D003980DB0F0BDB3
:103C60003A48002101603A48390010F0CAFF0B9829
:103C700081210004C9004118354808384160B06905
:103C80008047A8780107890F022908D10009082870
:103C900005D1706804061298240E049002E0306882
:103CA0000406240EE878C10704D0800702D5A41DBD
:103CB0002406240E2B00390077690B9A0A98B8471E
:103CC000B068129B0206120E00920B9A290005A8FA
:103CD00005F011F91E4805A9383010F092FF2200B6
:103CE000290005A805F0CAF8194805A9483010F0C0
:103CF00088FF049A290005A805F0E0F8144805A9F2
:103D0000583010F07EFFB068129A03061B0E29008F
:103D100005A805F091F80E4805A9203010F071FFB4
:103D20000A990B480831083881630A99C163074A28
:103D300011680123DB03194311600168012211435B
:103D400001608AE718BE040008DA040000B10090A0
:103D500008A00090FFB587B0140002AA05001099D2
:103D60003C4E0091019276680A9B08992200B04768
:103D7000002802D002980BB0F0BD3749002008603F
:103D80003648210010F03DFF089801210004890207
:103D90004118324808384160314FB8698047A878E7
:103DA0000107890F022907D10009082804D1786882
:103DB000109E0406240E03E038680406240E002634
:103DC000E878C10704D0800702D5A41D2406240E7C
:103DD00000220092109B089A290003A8102DC168A8
:103DE00001000000883B000000020000255DF43364
:103DF00005F08BF81E4803A9383010F00CFF2200A4
:103E0000290003A805F044F8194803A9483010F028
:103E100002FF3200290003A805F05AF8144803A94C
:103E2000583010F0F8FE109A2900002303A805F07E
:103E30000DF80F4803A9203010F0EDFE0C480A9948
:103E4000083881633A69F968891849192031C163D2
:103E5000064A11680123DB0319431160016801223E
:103E600011430160002090E708DA040000B10090DF
:103E700008A0009018BE0400F7B582B01400070037
:103E8000006800900190039800254030FCF7FEEB9D
:103E900006000198F1784069490605D4C0304079A0
:103EA000400726D4012524E0002C02D1002005B0D3
:103EB000F0BDA07AC0071CD0E079012805D1039994
:103EC000220068460FF0F4F905E00399220004236C
:103ED000684600F027FB050000983860B079C007FD
:103EE00007D1012D05D1A079800702D520002CF043
:103EF000C7FC2800DBE700007FB582B004001D008E
:103F00001F480A9E04603EF06FF81E4901200860B9
:103F1000E07840210843E070288F208420000021B1
:103F200020308170B1012031C170686B606235F062
:103F30004DFB06006B46187C23004207520F00928F
:103F400060782278010211432A0028330C322000C5
:103F5000FFF70AFF607821780002084310302070D4
:103F6000000A6070300035F036FB288F401C0004DA
:103F7000000C288702D1686B401C686306B070BDD6
:103F80008044000478440004F0B50500080085B0C2
:103F90001400012103911F0021000C321C316B46DB
:103FA00007C329002031238F626B0E00280001F027
:103FB00021FFF078B9010843F070208F401C000405
:103FC000000C208702D1606B401C60636878297800
:103FD000000208430C302870000A6870039805B08E
:103FE000F0BD0000FFB583B0040000200151E96B73
:103FF00001000000843D0000000200003CA52A43AF
:1040000002905F7B6C2078431C491E7B45181C483E
:1040100004603DF0F3FF1B4901200860E078402177
:104020000843E07045F0F8FF002801D0012002901D
:1040300024235E43A01CA95D81770021C177220063
:1040400022320221380044F04FFA35F0C9FA7219D1
:10405000009207006078217803020B431D006B4635
:10406000187D2B0041070298490F220044F068F99F
:10407000380035F0BAFA07B0F0BD0000F02D0004AA
:104080008044000478440004F7B5012188B015008D
:10409000079108218C4604218E46184B002140329E
:1040A000127A1C686B46260C1E73260A5E739C737C
:1040B00013019B1A5E19737B002B02D0102701217C
:1040C00000E008270023FF1E07E0F41803ADED18F9
:1040D0005B1CA47B1B061B0EEC70BB42F5DB009146
:1040E0000999019262468A1A71464118203120309E
:1040F00003AB01F0BFFF07980BB0F0BD00A6008036
:1041000010B5D37904000020022B03D12068FEF7FC
:10411000B1FF10BD032BFCD1206810F06DF910BD6C
:1041200008B5018909180B6F4069DA79022A19D19B
:104130000279022A0ED10A6E9279D2070AD007229A
:10414000D2018018806B412252018018C08902067A
:10415000120E00E0002200920A68086E0021FFF7AC
:10416000D5FE06E0032A04D10A68086E0021FFF795
:1041700043FF002008BD0000FFB58DB0040006AA73
:1041800002AF179E169D199918980196009507C7BA
:104190000EA96C4F0EC92000FF69B847002802D055
:1041A000069811B0F0BD6069079020890019089049
:1041B000417E027E0802104300090B900898007EA1
:1041C0000007000F0A90089841780278080210430F
:1041D00068380004000C09900A98002832D1286839
:1041E00000280CD1584F02E00120FCF76CEE574933
:1041F000386A002217F0C0FB0028286089BF87C6F4
:1042000001000000803F000000020000C84D94FE45
:10421000F4D0524928680969884730000DF04AFFF8
:104220002868306001894D4B471838002430706091
:10423000DB68202208993800984709986030387068
:10424000000A7870474800684449C9694018B0605E
:104250002968606948611AE03068002802D0018945
:10426000471806D13D4B61899B68E0880322984737
:1042700041E0B07C0A99401C88423ED178783A7877
:1042800001020998114308183870000A78700F99D4
:104290000091099A0899019770680E9B121D2831A8
:1042A00001F080FE00282ED1109819998000401846
:1042B00034300C90FCF7FEE90C99401CFCF70AEA3C
:1042C0000E99189A009101920F9B109A0798390045
:1042D0000EF0DAFD214F079879698847BB6861893C
:1042E000E08803229847286817F090FB30000DF013
:1042F000E1FE0020286000205DE7184B6189E0881E
:104300009B680322EEE7189938000DF019FF134956
:104310002000896988470898C078400712D47878C7
:1043200039780002084329680C4B88809B686189B2
:10433000E0880322984730000DF0BCFE2868002179
:10434000296038E70B983082716809980818706006
:104350000A98B07486E70000D4D80400A8B9040015
:104360002C06000000A60080FFB589B004001600EE
:1043700003AA1299724F01920091BF691D000A9918
:104380003200B847002802D003980DB0F0BD0A985B
:10439000417E027E08021043000908900A98007EC0
:1043A0000007000F07900BD10A98C078400707D488
:1043B0000A984178027808021043A0802000E4E7C0
:1043C000A088202803D920380004000C00E0002039
:1043D0000490129800780128079808D1002808D086
:1043E000584B61899B68E0880322984756E0002873
:1043F00034D1129900200870306800280DD1514F37
:1044000002E00120FCF768ED7D21386A48DAFCD52E
:10441000010000007C410000000200002D1AC9F9D3
:104420000022090117F0BCFA00283060F3D04A4995
:104430000020059009693068884728000DF044FE87
:10444000306828600189444B471838002030686084
:10445000DB6820220A9938009847404800683E49A6
:10446000C9694018A860316860694861059834E0FE
:10447000288A089988420AD12868062201894118A9
:104480000A980C310C30FCF729F8002812D030685B
:1044900017F0C6FA304B61899B68E0880322984781
:1044A00028000DF011FE12980121017000203060EB
:1044B000002074E7286801894718A87C0799401CE8
:1044C0008842E4D17878397800020843049940188A
:1044D0003870000A7870042005900421091A0498A5
:1044E000081806900CD005990A981B4B4118DB68F8
:1044F0006868069A2031984768680699401868608D
:104500000A98C078400720D4049800280AD1787807
:10451000397800020843A1882022511A401A3870C5
:10452000000A7870787839780002084331680A4BBD
:1045300088809B686189E0880322984728000DF0F5
:10454000C3FD30680021316029E708982882079868
:10455000A8744FE7D4D80400A8B9040000A60080CE
:10456000FFB508008DB01E0017000D990D680021E1
:1045700006916969002A059112D040300C90FCF731
:10458000A4E804008119C0782031400602D4A8882C
:1045900011B0F0BD6078227800021043682801D87D
:1045A0000020F5E7080009786B46197741785977BC
:1045B00081789977C1788E093101891BCF19797B70
:1045C000002903D010220121069100E008220021D9
:1045D000D21E944605E07A1807AB5B18927B491C03
:1045E000DA706145F7D3E178490702D4217E0907E3
:1045F00021D02E4A2E492F4801AB07C333002E4A43
:104600000092069A280007A9FFF7CAFD040003D10B
:104610000D9800210160C3E70D98046075FBB8F5A3
:10462000010000007843000000020000D9F2774446
:1046300020890C990019FCF762E841780278080299
:104640001043A08001200B9037E00699019400915F
:10465000617823780A021A43643A011D07AB01F01E
:10466000B5FC00280B900FD0164920000DF07CFD02
:10467000607821780002084308382070000A6070D2
:10468000A8880838A88018E00D48B1000C18343408
:104690002000FCF724E8401C2100FCF730E80C98CF
:1046A000FCF71CE83900074A0E3101920091010025
:1046B000069B059832000EF0FBFB0B9872E700009A
:1046C000DC4A00048C92050078920500E09400C05A
:1046D000F8B5060032F0E2FD0027FF43002803D1C1
:1046E00040F042F800282ED03289901941790379A0
:1046F0000906091419430C180E32881805062D0EE8
:10470000300032F0FAFD002809D12000C430C17910
:1047100082790802083510432D062D0E03E0607BD8
:10472000217B00020843094988420CD12200A11DC7
:10473000300035810AF0E8FF002804D030000DF089
:104740008BFC0020F8BD3800F8BD0000888E00000A
:1047500003488168012252051143816070470000BF
:104760000028008030B500224368002B0DD1CA60BC
:10477000016041604968002903D0017A491C017237
:1047800030BD417A491C417230BD4B68002B04D1C9
:10479000CA604268D1604160F3E70024057A02688C
:1047A000230002E01400D2685B1C9D42FADC002C5E
:1047B000CA6001D10160E0E7002AE160DDD141601B
:1047C000DBE70000024880680006000E704700002A
:1047D0001CBC04000348416801229202114341605D
:1047E0007047000000A00090F7B588B00600314B7C
:1047F00009999D68140003ABA847002802D00398CC
:104800000BB0F0BD002E53D00998002850D0002CDA
:104810004ED020783500340001077135603400290E
:104820002EDA25480022FF210068D24308C471FE19
:10483000010000007445000000020000C00AA93415
:10484000913117F0C1F8018906000F18099910225B
:1048500004A8FCF710EB002101970091207CE17B7C
:1048600000020843C2082B00022104A803F0EAFC5E
:10487000207CE17B0002084308300204120C100A7D
:10488000E273207439002800FCF7F4EA300017F0D6
:10489000DBF815E0400715D530003F301021060049
:1048A0003FF0E6FE207CE37B0102FF221943521C0D
:1048B0000192009109982B00102231000BF022FC8C
:1048C0000120A7E70020A5E714DA040054BE040085
:1048D000FEB505000C0000784006400E0290002056
:1048E000019000908020FCF71AEB314E07003369ED
:1048F00028006A4601A99847A868019940180190C4
:10490000E8680099401800903800FCF708EB7068E0
:10491000002805D0B16800980860F1680198086027
:104920000199002942D0009864235843FCF7BEEA5D
:10493000206002980022FF21FCF7F4EA01998842E6
:1049400005D802980022FF21FCF7F0EA27E0029840
:104950000022FF21FCF7EEEA0199884205D802986F
:104960000022FF21FCF7EAEA0CE002980022FF2176
:10497000FCF7E8EA0199884208D802980022FF2152
:10498000FCF7E4EA2168884210D80BE02869316816
:1049900088420BD302980022FF21FCF7D8EA216855
:1049A000884201D80020FEBD0120FEBD0220FEBDD0
:1049B00078C6040001004A69C96980688A4201D941
:1049C000511A081870470170002141608160C16070
:1049D000016141618161C161704701697D22D2003D
:1049E000914201D20A310161704710B503785B062C
:1049F0005B0E0E2B0AD3C4694369A34206D91B1B65
:104A00000B608069834201D9181A106010BD70B51F
:104A100002780B7E5406D5094268640ED2184260B3
:104A20000A19203252784E7DED011300A64205D1BD
:104A3000897E002902D05B1E1B061B0ED36E7710E9
:104A400001000000704700000002000034E21789F6
:104A5000002D03D0012A01D901221300C168C91811
:104A6000C160816889188160100070BDF0B50600D2
:104A7000002713B43B000D4C01992200FBF7D4EC46
:104A80002200FCF772EA0D000199002204003B00AD
:104A9000921B8B4103DA2000290003B0F0BD0022F5
:104AA000D2432900A0185141F7E7000000CA9A3B01
:104AB000F0B5002613B482B0154F02980399C019BF
:104AC000714100910190FFF7D1FF04000D0003999F
:104AD0000298FFF7CBFF001969410522FCF744EA71
:104AE00004000D00039902980A22FCF73EEA001B1D
:104AF000A94102DA0399029801E000990198FFF7B1
:104B0000B5FF33003A00FBF790EC05B0F0BD0000B4
:104B100000CA9A3B10B504008EB0684600F006F853
:104B2000200069462BF00AFA0EB010BDFFB581B027
:104B300004000D001E002D4F039A7F68B84700281F
:104B400051D138212000FCF7A4E90398002801D0B6
:104B5000022000E001200421102D0BD1022222703E
:104B6000002208436270A070000A2A003100E07041
:104B7000A01D33E00127202D18D13A0A27700843E1
:104B80006270A070000AE07010223100A01DFCF7D6
:104B90007CE931002000082218311630FCF774E956
:104BA00031000822103120001E3017E00D2D01D0F9
:104BB000052D18D10022227008436270A070000AEF
:104BC000E0700398002802D0A271E77102E0F08C37
:104BD000A071E27120002A0031000830FCF754E98E
:104BE000280A2571607105B0F0BD000038D90400B5
:104BF000F7B582B00E00134B02989C68150001AB0C
:104C0000A047002803D06B46187905B0F0BD0E4FC1
:104C1000002411E02001295C01290AD140194178C2
:104C2000B14206D10299C01C0622FBF775FC002890
:104C300005D0641C2406240E78688442EAD3200040
:104C4000E3E7000080D804007CB90400B34970E6B3
:104C5000010000006C49000000020000F3FB15D4C5
:104C600010B504000020E20702D008000BF08CFE13
:104C70000C490978012914D1210701D500F014F855
:104C8000610601D50BF02EFE210601D50BF03EFE8C
:104C9000E10501D500F05EF86107890F01D00BF046
:104CA00047FE10BDA8F90004244870B586B000780E
:104CB000002802D0002006B070BD214D00242868D5
:104CC000002802D016F0D4FE2C601E4E306800285A
:104CD00002D016F0CDFE346000221B48D2430021E2
:104CE00016F086FE2860194902890A81F0225300D5
:104CF0004A8102228B810A804C800189144D081858
:104D0000019200930290E8682C216A462CF0D4FFAF
:104D100001206B461873587308209C7398745C7458
:104D2000DC731C741C75E868252103AA2CF0C4FFF1
:104D3000E868262103AA2CF0BFFFBBE7CCF90004EA
:104D4000B8F90004BCF900047C1100C0783303C03A
:104D5000A03003C00022FF2170B5D2431D48491C7A
:104D600016F046FE1C4C1D4E0025002820602ED05B
:104D7000202101810321C1802030C1702168708908
:104D8000888027200881F089022801D1002200E0D4
:104D900072897089888012480823C068FCF7F2E89D
:104DA0002068242101810F4924300A790270497951
:104DB00003230907090F41702168898881702168E0
:104DC00009488A880068D21CFCF780E8256000202A
:104DD000F58170BD081100C0BCF90004783303C030
:104DE000A03003C05C3003C0DCBC0400094A0020D2
:104DF000030010B50101545C002C02D053548918F3
:104E0000CB60401C0006000E0A28F3D31BF016F9F5
:104E100010BD000098490004F7B50600144B029A33
:104E20009B6B01999847002821D11248002517E073
:104E300014276F43F05D00280FD04969BC19E07852
:104E400088470020F055E060E078029A0199FEF76B
:104E5000E3FEE178A07832F061FD6D1CB9676F1256
:104E600001000000684B0000000200000713AB695E
:104E70002D062D0E044908688542E3D3080080689A
:104E80008047FEBD80D804007CB9040070B50024C2
:104E90000A4E25000EE02C20604371680A58002A53
:104EA00005D00D5071684018001D0EF0A3FC641C65
:104EB0002406240E30788442EDD370BD48C6040029
:104EC0008F21890041180079012801D0022809D1D9
:104ED00000224A608A600A60C0318868002801D0D8
:104EE00002608A607047F3B583B000240498039E83
:104EF00005062D1611E00298874207D23000FBF715
:104F000016EC02000299380004F002F9641C240631
:104F100024160C21614303980E1830000830FBF76B
:104F200006EC0700301DFBF702EC874202901AD80E
:104F300004988442DFDD16E00C21694303980E18C3
:104F40003000FBF7F4EB0700301DFBF7F0EB0190AE
:104F500030000830FBF7EAEB01993A000DF068F9F0
:104F60006D1E2D062D16AC42E6DD05B0F0BD00002D
:104F70000349884201D1002070470120704700009A
:104F8000381901C08A4208D2D10808185107490FC0
:104F9000012302788B409A4302707047F7B582B0C4
:104FA0002423070004981F495843461834F05EFB39
:104FB00001901D480569049A2805C40D039938001D
:104FC00004F01AF80127194BFF071EE07069E10091
:104FD000401842680021116019553169491EA142EB
:104FE00009D1F168090139430160280001252D0329
:104FF0008543002409E0B168083509013943ED040F
:10500000641CED0C2404240C0160185D0028DDD123
:1050100028040499000CFBF7C4EF019834F02BFB33
:1050200005B0F0BD00A000C080A30080B0A100C00A
:1050300073B529F003FE040016D020890519280055
:1050400036F082F84D20287300206873280004226F
:10505000103001A9FBF72CEF0420A8720020E872A1
:105060000198210029F07AFF7CBD70B5C167C805A1
:1050700001000000644D0000000200001EEB7519E5
:1050800005000720C0012818866B0F208001281812
:1050900054360129817603D1280000F075F904E027
:1050A000022905D1280000F00BFA716F040006E018
:1050B000032909D1280000F069F8B16F0400280025
:1050C00002F01AFC200070BD012070BD0721C9014B
:1050D000401810B50649806B0A680649054BFF3039
:1050E00035304118283BC01800F006F810BD00000C
:1050F000D4BA0400FC06000070B504000D001600D0
:10510000A4B014221CA115A8FBF7E4EE002C30D0AB
:10511000002D2ED0062231001AA8FBF7D4EE202154
:1051200028003FF0CDFA1BA820222900801CFBF7A5
:10513000CAEE202105A83FF0C3FA15A8FBF73EEF01
:105140000300202226200DA901AD07C51AAA00924E
:10515000202115AA05A804F01BF90DA82EC82EC4FD
:10516000103C12991198E161A06114991398616142
:10517000206124B070BD000047726F7570206B65B0
:105180007920657870616E73696F6E00F0B5040008
:1051900089B009F02BFD070002D1012009B0F0BD54
:1051A0003889C019049041790079090201430498B3
:1051B0000E18F52080002518320007201332C00198
:1051C00020180592846B28002AF0FEF8E868019008
:1051D000A86802908320000122180092A87821007C
:1051E0008006C00FC20354318032300001AB0891F9
:1051F00009F06EFB059ACF215078412208405201F8
:10520000A1180791CA899207920E1043059A50700F
:1052100030008A894030C27389890422090A0174E6
:105220002F48211830005130FBF74CEE3000713020
:105230000390A8782B49020701D4C2062ED5039803
:1052400010226118FBF73EEE0398103003903000F7
:1052500060300690017CC27B090211431031C1739A
:10526000090A01745420005D40071ED50799039870
:105270000822FBF728EE1A4903981039F87DFD91B2
:1052800001000000604F000000020000EA03CBA410
:10529000083008226118FBF720EE0698017CC27BDB
:1052A0000802069910431030C873000A087406E01B
:1052B000800604D5089A6118300035F0C5FE290033
:1052C0002A1D64313000FFF7CBFA307D29004207F8
:1052D000520F5431300002F023FA04991230020ABE
:1052E0008870CA70B8800F21380032F017F800209B
:1052F0005EE700002808000008080000F3B583B04E
:10530000002201890918029146692148110016F00E
:105310008DFB040002D1012005B0F0BD31F0EAFFA1
:105320000004000C2081082705190F21280027738D
:10533000FBF7D6ED44F03EFC28730F2028710020C7
:105340006871380AAF71E871B0686061B0796870EF
:10535000002200920F4A2E000F3602993000931D52
:1053600002F018FA049900224031300002F0D8F916
:105370001230A870000AE870607B01210843607356
:105380000548A0610F21200031F0C8FF0020C3E7CD
:1053900030430004A7B80400C9040300F0B50500B9
:1053A00085B009F02DFC040002D1012005B0F0BD4C
:1053B0002089061970793179000208438719F52090
:1053C00080002D1828002AF009F8E8680190A868E4
:1053D000029028001430202103903FF07BF9039ABB
:1053E00000920122D202291D380001AB09F07AFA9D
:1053F00038006030017CC27B080210435F30050436
:105400002D0C380029000E3021F066FA1235280ADA
:10541000B570F0700F212000A58031F07FFF0020D3
:10542000C4E70000FFB583B000220189091802918A
:1054300046692648110016F0F9FA050002D101204C
:1054400007B0F0BD31F056FF0004000C288108279A
:1054500044190F2120002F73FBF742ED44F0AAFB03
:1054600020730F20207100206071380AA771E0714D
:10547000B0686861B0796070049A0092144A26009E
:105480000F3602993000931D02F084F944BF84C3A3
:10549000010000005C5100000002000094186C1430
:1054A000B07C01280CD00F4A3000921D911F713042
:1054B00000232BF07BF831006031C873000A0874B8
:1054C000069A0599300002F035F91230A070000AF2
:1054D000E0700F21280031F02BFF0020BAE7000018
:1054E00030430004A7B80400F0B585B0070009F008
:1054F00091FB060002D1012005B0F0BD3089801972
:105500000390417900790902014303980D18F520B1
:1055100080003C180720C0013818876B200029F054
:1055200067FFE0680190A0682200143200920290A8
:10553000A07811218006C00FC003C9014218211DA7
:10554000280001AB09F0D8F9A0782849020701D456
:10555000C2060CD57A18106900282ED04078290090
:10556000801C6031030AC8730B7411690DE080065A
:1055700027D57A18506900281FD040782900801C50
:105580006031030AC8730B7451690200280071303E
:10559000FBF7ACECA078800613D514483A003838F5
:1055A00039185432280035F059FD2100221D64318C
:1055B0002800FFF75FF9002803D1300016F080FAC9
:1055C00099E7287D21004207520F5431280002F04C
:1055D000B1F803991230020A8870CA70B0800F21A6
:1055E000300031F0A5FE002086E7000040080000F2
:1055F000F7B582B0002206000089110080190190E1
:105600002B48776916F01CFA040002D1012005B07E
:10561000F0BD31F079FE0004000C2081082105194D
:1056200021730F212800FBF766EC44F0CDFA2873B4
:105630000F202871002068710820A8710020E871EF
:10564000B8686061B879687000220092194A2F002A
:105650000F3701993800931D02F0A6F80399002234
:105660004031380002F066F81230A870000AE87085
:105670000398406F00280BD0607B012108436073C2
:105680000498002801D00C4800E00C48A06109E013
:105690000498002803D030002BF0D2F82D49905008
:1056A00001000000585300000002000060F0D2A981
:1056B00002E030002BF0D8F80F21200031F042FE3C
:1056C0000020AEE730430004A7B80400FD04030047
:1056D00011050300F8B505000E000C4B14009F697E
:1056E0006B46B847002801D00098F8BD2200290079
:1056F0003000FFF7B9FA06494968884203D2000131
:105700000019C068F8BD0020C043F8BD80D804006F
:105710007CB90400F7B582B00700174B03995C69A8
:10572000150001ABA047002802D0019805B0F0BDDC
:10573000124E002412E014206043295C01290AD192
:1057400041194878B84206D10398091D0622FAF794
:105750001FFF002805D0641C2406240E30688442F4
:10576000E9D33068844202D10020C043DEE7142030
:1057700060434019C068D9E780D804007CB90400B0
:10578000FF30413010B5006900F001F810BD10B5D0
:1057900004000B000020D10509D42100180032F0CC
:1057A00027FA0006000EFBF72CEC0004000C10BDDD
:1057B00010B532F04DFCFBF724EC10BD0148008819
:1057C00070470000C8D1040010B507210170002106
:1057D00004004170801C2CF04BF9002806D0811E7B
:1057E000A170090A801C0006000EE17010BDF8B51A
:1057F00005000E0017001C0044F07CFCFF3541350D
:105800000090286923003A00310000F001F8F8BD4B
:10581000FFB581B000240E0015000A9FD10505D404
:105820002A003100FFF7B3FF4004040C049A3B0048
:1058300029003000FBF7E8EB00190004000C05B06C
:10584000F0BDF8B505000E0017001C0044F052FC36
:10585000009023003A003100280000F001F8F8BD64
:10586000FFB581B006001D000A9FFFF7A1FF0400ED
:10587000039A02992B0030000097FBF7CAEB00193E
:105880000004000C05B0F0BD24235843114930B585
:105890004018C16905690B05DC0D01236D1E1B0352
:1058A000A54213D0140AE4000919C904B8B435316B
:1058B00001000000545500000002000079080CD9D6
:1058C000C90C1206C16101D1C16903E00831C904E4
:1058D000C90CC1610A052924120D2401A24201D973
:1058E0008B43C361C06930BD00A000C0242358436E
:1058F0001349F0B54018C16944690905C90DCA00CA
:105900000669A3180022751E1B6801273F053B404E
:105910008D4205D1C1693F128F430021C76105E067
:10592000C7690837FF04FF0C491CC761002B05D16C
:10593000CB00E318521C96428161E5D2C069F0BDEC
:1059400000A000C003000020020070B501240FE099
:10595000082A01D15B1C002226001D7896403542A2
:1059600004D1197894402143197070BD401C521C19
:105970008842EDD3FF2070BD002210B50AE00C2351
:105980005343C358002B04D101240C235343C45068
:1059900002E0521C8A42F2D38A4201D1002010BD9B
:1059A0000C215143081810BD70B504000E001500FD
:1059B0005C211000FBF7D2EA28E06078801CB0423E
:1059C00026DC207820280BD0252805D0282805D0D3
:1059D000292807D1EC6414E0AC6412E02C6510E0D7
:1059E0006C650EE0290020000BF0DBFE002808D1DA
:1059F0002078DD2805D1A01C01F0FCFB002800D098
:105A0000AC656078A41C361AB61E0419002ED4D1D9
:105A1000300070BDF0B524238E46002158438C46DB
:105A200023494018C1690905CA0D82614169D30043
:105A3000CB180121090324E01C68A50201D5E40765
:105A40002ED10469641E94420BD1C2680124120154
:105A5000E40722431A60C3690A009A43C261002224
:105A60000BE0846801252401ED072C431C60C36909
:105A70000833DB04DB0C521CC3614369D4001B19DF
:105A80008261C469056A26052F05360D3F0DBE42A9
:105A9000D2D10C400D40AC42CED06146012904D198
:105AA000C069714608805868F0BD0020F0BD000054
:105AB00000A000C0F7B50700114B0199741E7820B3
:105AC0000100000050570000000200008DE0B264A9
:105AD0001B681600984700281BD10F4D019808F04D
