:100000000100000000010004000200006BE4519AAE
:1000100000000000000000000000000000000000E0
:100020008950020004000000895002000600000010
:100030008950020007000000D9600100080000009C
:10004000316101000F0000005D610100100000003F
:100050001961010011000000C160010016000000DC
:100060000000000000000000000000000000000090
:10007000000000000000000051A2012C30A102107D
:100080001B806004012C9943510C11FC071C140ABD
:100090001004141303041972C9144B0103080B1044
:1000A0000402300B110901580911280B1007031421
:1000B000110A110628091150EA0292C1ABFFFFEEA6
:1000C0001344A01B804C041A54041A5C041A6404E0
:1000D0001A6C041A74041A7C041A34041A3C041AA4
:1000E0001C041A24041A2C041A14041A40041A4872
:1000F000041A50041A58041A60041A68041A700486
:100100001A78041A30041A38041A18041A20041A27
:1001100028041A1004163A010201DF12D512D01277
:1001200038123412301A2C023A2802210910F20136
:100130002A12082B0401F63A05063A06061A0706A3
:10014000123C3A160C3A17063A26063A27063A287F
:10015000063A290604112401101A491AE232131F23
:100160001F1BFFFF6B021A084B2823044B94110836
:100170002370178BB80B042364191AC857232C4C0F
:100180002390652358982320CB2384E44BE8FD304B
:1001900023BC3423786923349E23F0D214683C01B5
:1001A00014E0A501149CDA0114580F0223F1042372
:1001B000E30923D50E23C61323AA1D238D271B7EF7
:1001C0002C4022315A8F209AC71C23543B231A4FAC
:1001D00023FD581BE16264111E78010A0414CA1839
:1001E0001068049C06D008380DA011701A4023A88E
:1001F0002C3023C6048C09520E1813A41C3026F68A
:100200002ABC2F6804EA09D413BE1DA8A38B0CD402
:1002100001000000FC020004D0000000B2CF87768D
:10022000277C3B504F3A5924633201193E1A080487
:100230001A10045A18041A28041A30041A38041A16
:1002400040041A48041A50041A58045A60041A0147
:10025000041A09041A11041A19041A21041A290487
:100260001A31041A39041B05490422481A0D041ACC
:1002700015041A1D041A25041A2D041A35041A3DF2
:100280000413FC271BC0F8041AF4045AF0041AD013
:10029000041ACC041AC8041AC4041AC0041ABC04F0
:1002A0001AB8045AB4041A94041A90041A8C041A42
:1002B00088041A84041A80041A7C041A78041A54D4
:1002C000041A50041A4C041A48041A44041A40042C
:1002D0001A3C041A38041A34044A0E0120080F107C
:1002E0001112131415000000510A00009DD4FC499E
:1002F00001000000001100C000020000A63C2037F1
:1003000070470000C100231E4D617276656C6C2041
:100310004669726D776172652053444B2056657251
:1003200073696F6E20322E332E30041529A1025AC4
:1003300035187201DA0F0441100F0A14376EDC0B06
:100340000F0A0E090D080C076809010203040506CF
:100350000720092A03016A0701EA080129272F0358
:10036000050507070901890839075B09097B2AFF89
:100370000102400A0269053C8950026E147565024B
:1003800029B71A5D0802270C12700211020223011C
:100390004B3AA13845FEFFFFFF19073908810336A4
:1003A0000A04697C13C41B42C0135C1C1BC04004BC
:1003B0001A78041A840401113023FF03020101FF9B
:1003C0000707060605050404FF0B0A0A09090808C1
:1003D000080F0F0E0E0D0D0C0C0C070E222233030E
:1003E000120A10190869203307100A1026082A0873
:1003F000201A240829100A112808091D20714BF819
:100400001FBC0B112820C459FA12021A03021A0544
:10041000021A07027A0902391E2A01041C02040189
:1004200009490CE9041C020502D31F02120204024E
:10043000124C390CE9042B0205F71A03241A032481
:10044000490CE9041B02054F015D3AFF0129F269DD
:10045000FA0122180B070707030203030101030C2B
:10046000100A060707040507020307200C01080508
:100470000708030408010208A90C2A0F34313202CC
:1004800019D7091F0CA9309A100C0A15110C092E46
:10049000300A2D0E0C0922B409FD0C095B0C5E0F0D
:1004A0001212120F011A0E0139102C1010100489AB
:1004B000102B111104095E101A0D01E9801A0E109B
:1004C00039086901D940091E1041843338F929F3EC
:1004D00011E3F40114550101D91391023F80120276
:1004E000120B32041209129C1A1A4E122712AB1266
:1004F0002912031A2C721240129A12451D85E56DBD
:1005000001000000FC1200C000020000FC472F3E6A
:100510001283126F12311A028114030112140501A1
:100520000B14190136141C010F141E012914220189
:1005300052142501EF144201C81A43A8144501E6DC
:10054000144C011A1450010614510116146E014482
:100550000415FFFFFF1A3764BC3B0154202B0C909D
:100560000410218E3A0E9F1C730E9FAAAC0E903879
:10057000E50E90C71D109F5556109FE38F10907188
:10058000C8129F180F01129F8E3A12901C7312907E
:10059000AAAC14342027F81F6277F81FE5BFF810C3
:1005A0006908F810EC51FA1F6F98FA1FF2E1FA107F
:1005B0007628FA10F971FC1F7CB9FC101857FC1052
:1005C0008349FE1F0691FE1F89DAFE10C4EDA81FA5
:1005D0008001A81FD8E5A81031C8A8108AACA810BF
:1005E000E38FAA1F3C73AA1F9556AA1FEE3AAA10C2
:1005F000471DAA10A001AA10F8E5AC1F51C8AC1FF6
:10060000AAACAC108001A010CCCEA21F2223A21F46
:100610007778A21F0C1A100C1A100C19181AA418AB
:100620001AA4181AA4181AA4181AA4181AA4182775
:10063000A61F999B862018168620471D86208E3A75
:100640008620D556881F1C73881F638F8858180A08
:10065000881FF1C8881038E58860180E8810C71DFB
:100660008A1F0E3A8A1F55568AB818267C2FB13C2D
:100670007C2FF2E17C2034847C2076287C20B7CC4F
:100680007C20F9717E2F3B157E2F7CB97E2FBE5DBD
:100690007E5C18647E2041A57E2083497E20C4EDC7
:1006A000802F6277542FC001542FEC73542018E52B
:1006B00054204556542071C854209E3A5420CAAC48
:1006C0005420F71D562F238F562F5001562F7C7321
:1006D000562FA8E5562FD556562040015020666764
:1006E000502091125020BBBD5020E667522F1112AE
:1006F000522F3BBD522F660C1A910C1ABB0C1918C5
:100700001A20181A20181930175220CC7395F81F88
:1007100001000000F81400C00002000031332C700A
:10072000CEE41914C01C1A1BC054041A8C041AC439
:10073000041AFC0413341B1BC06C043204122C1268
:10074000011245128323020114190136146E01446B
:100750000461FFFFFF14030109141C010C141E01A6
:1007600018141F0120142501FF3C4501E77C1C03E0
:1007700001121C1A0F1C1A291C1A301C1AEF1C3AE1
:10078000E61C1C1E013A209A240C3A2D0C23822FC1
:100790002382201A83081A83081A84081A84081AE4
:1007A00085081A85081B8A1F0422101A8B081A8BC9
:1007B000081A8C081A8C081A8D081A8D081A8E08C7
:1007C0001A8E081A8F0814901F40149010401A9126
:1007D000081A91081A9208147B2FC01A7B481B7BB9
:1007E000200C1320C01A7C58147C2F401A7C141A39
:1007F0007D0C1A7E201A7E0C1A7E1C1A7F101A7F1E
:100800000C1C81208098190419081A83081A840482
:100810001A85041C8A1F80881A80841A80801A8096
:100820007C1A80741AC0703AC0CC11351E1E080F95
:10083000B202A00F02040B160C1218243048606C90
:100840002C903208122D12B5122F126D123A120787
:100850001245120B12461264124712ED1248125141
:1008600012501A260612C0125B12031A5D0412619E
:1008700012A01A6204126B12D9126C12D8127C12D6
:1008800018128112A732A632A912AE126012E41217
:10089000871AF72612F8126E12FB127B1420014100
:1008A000144601801447016014490120144D01329F
:1008B0001452019014530153145501071458012C7C
:1008C0001A5904145C0140145D015C1A6008146834
:1008D00001381476010D1A77301478012514790146
:1008E0008C147C014C147D01A01A7E04147F01C677
:1008F00014CF01BE14D001B3140402C41406022B99
:1009000014180298141B02C5145A0289145B0207BA
:10091000146802201A6A041BB80298137F170A9CF5
:1009200001000000F41600C00002000011574FF350
:1009300002291AAF040419FFFFFF127C1230128043
:1009400012021C7401024812B50C13A902033032C2
:10095000AF32B032B132B212B312FE12B412FA1286
:10096000B512F312B612EA12B712E312B812E2127B
:10097000B912F532BA12BB120912BC121612BD120C
:100980002712BE123812BF124912C0125712C112DA
:100990006112C2126412C3120412C412421AC516A2
:1009A0001AC64E12C73AF7780910681AFD681AF786
:1009B000681AED681AE1681AD8681AD5685AF0689A
:1009C0001A0D681A20681A37681A50681A68521A7D
:1009D0007C681A89685A8E681AAB681A38681A4097
:1009E000685A09681AFF681AFE681AFF681A0368CD
:1009F0001A0C681A17681A20681A20681A11681ADF
:100A0000F4681AE7681AD9681AEB681AF4681A07C2
:100A1000681A23681A44681A62681A78681A806823
:100A20001A22681A28681A8E681A8568122412E435
:100A30003A876C32081A47C01A4BA012551254322A
:100A40005712861AA9A2125212FA123012FB127B06
:100A50003C4A012D2C411A08021A450412F81A6C5E
:100A60001C12F614200139144D01333C5301632448
:100A7000590429011F2021FFFF2223095A2411892B
:100A8000011A2525180C26FF01FF27FF02FF28FF6A
:100A900003121E04FF29FF0508FE06FF2AFF073088
:100AA0000910011E08FF2BFF09081E0AFF2CFF0B6F
:100AB000081E0CFF2DFF0D081E0EFF2EFF0F081E37
:100AC00010FF2FFF11086A12311E13FF30FF1408A8
:100AD0001E15FF31FF1608FA1753180B18191AFFC5
:100AE0001B1C1DFFFF1E0D0A211F84091901012D6A
:100AF0001449B9011425500214690D011AD9042AA8
:100B00009104031D6902092C62211B051E3419354D
:100B10000223C03207320329822904080E1E0F0F58
:100B20000F0D0B1110100D0B121111055C137B42F0
:100B300001000000F01800C000020000AF1A375B8F
:100B4000392839325C0E0E0E051A0C01180F0B0EE7
:100B50000D0D0C0B100E0E0C0B120F0F055B101071
:100B60000A3914391E89052A24052A28052A2C0544
:100B70002A30052A342D2A38052A3C052A40052A20
:100B800064052A68052A6C052A70052A74052A78E6
:100B9000052A7C052A80052A84052A88052A8C05D1
:100BA0002A95732A99052A9D052AA1052AA5052AB1
:100BB00008052A0C0539962A22052A26052A2A051F
:100BC0002A2E052AB8052ABC052AC0052AC40539DB
:100BD000AF39AA39A539A0399B39963991398C3961
:100BE00087397D397831145515B51C3313B5081A7A
:100BF000F50812F51AB10C14B911B5147B09F514E6
:100C00008808F514D809A714DC08A714BD04E71A4E
:100C10004404149006A714E805A7142903E714D880
:100C200002E714EC04991A6E04145E02D91A220425
:100C30001448039914F40299149401D91A6C041AF3
:100C4000760C1A3704142F01C91A11041A300C1427
:100C5000F801991A0D0C12F23AC90C1AC504290CA4
:100C60001ADA043D28080755045A4804D9103D38BB
:100C7000080677045A4804D9103D48080599045AD3
:100C80004804093D10013202971E1205031A881309
:100C90005A010401205928023007323C1E084F0235
:100CA000C03804092268C1145962021A8504140D5F
:100CB00064021A55041A8B0451120A12C01A0E0447
:100CC000F163F16363355E63F5628B295AE42908A9
:100CD000292829081A912829085A71104B815B0884
:100CE000032A204E12061008030304060405071009
:100CF0000809010702080605120B12101214121639
:100D000012201228122C12401250126A128002472E
:100D1000A0180A3F480C013D480C0235041A2D0466
:100D20001E25480D021D041E15480E020D0408095B
:100D30001A05480F0205490F0F04180AB68C1A0B42
:100D400001000000EC1A00C064000000661830BC0E
:100D50003B0808013908080231041A29041E210839
:100D6000090219041E11080A0209040D1A01080BD0
:100D70000F041E6008040258041E500805024804AF
:100D80001E4008060238041E300807022804110C11
:100D90001608030F041E1808010210041977091B16
:100DA000282904091E88091E4001180000000000BF
:100DB0006F8D18DA01000000000000000002000042
:100DC0000447BA081CF09FE51CF09FE51CF09FE566
:100DD0001CF09FE51CF09FE51CF09FE51CF09FE5D3
:100DE0001CF09FE506370C072815000000150000D1
:100DF00004150000081500000C1500001015000077
:100E00001415000021150000000000EAFC0200EAB1
:100E100028008FE2000C90E800A08AE000B08BE090
:100E200001704AE20B005AE1F502000A0F00BAE82D
:100E300014E04FE2010013E303F0471013FF2FE12A
:100E4000C4A0020034A1020001C08FE21CFF2FE108
:100E50008A18037801305C07640F01D104780130EF
:100E60001D1101D105780130013C05D00678013013
:100E70000E700131013CF9D11E0706D42E1C0ED094
:100E8000013E8C55FCD1491909E0047801300C1B56
:100E90000135267801340E700131013DF9D59142BA
:100EA000D7D37047102052E27800B0287800A128EC
:100EB000FBFFFF8A822EB0E13000B0283000A1286D
:100EC00000409045004081451EFF2FE10030A0E327
:100ED0000040A0E30050A0E30060A0E3102052E235
:100EE0007800A128FCFFFF8A822EB0E13000A12803
:100EF000003081451EFF2FE17847C04604309FE552
:100F000003308FE013FF2FE1911200007847C046B5
:100F1000203052E20400005A203062E21112A0E1B7
:100F2000301381E11002A0E11EFF2FE11013A0E1B8
:100F30000000A0E31EFF2FE17847C04600402DE9E6
:100F400000E0A0E1920E8CE092C121E0931E21E02E
:100F50000040BDE81EFF2FE17847C04670402DE9F4
:100F6000A2CF93E10140A0E10050A0E10060A0E326
:100F70001100001A020012E1CC00000AA2C7B0E181
:100F80001060860212C6A0E1ACEBB0E10CC4A00177
:100F900008608602ACEDB0E10CC2A00104608602DC
:100FA000ACEEB0E10CC1A001026086022CEFB0E112
:100FB0008CC0A00101608602170000EA020113E361
:100FC0001C1A677501000000FC010000000200000F
:100FD000C09265231200001AA3C7B0E11060860218
:100FE00013C6A0E1ACEBB0E10CC4A001086086021E
:100FF000ACEDB0E10CC2A00104608602ACEEB0E141
:101000000CC1A001026086022CEFB0E101608602F3
:10101000203066E28CC0A00132C38CE112E6A0E170
:101020004C0000EA03C0A0E102E0A0E19C0000EA5D
:101030008C0054E10030A0E38C4044200230832235
:101040000C0054E10C4044200030B3E2202086E242
:10105000200052E300C06CE20300003A250F94E147
:101060000540A0010050A00320204202100052E3DE
:101070000010A0E30200003A2407B0E10448A001F8
:101080001010810201E042E008005EE30200003A35
:10109000240BB0E10444A00108108102200061E2A9
:1010A000012042E0354084E11551A0E1010052E306
:1010B0002000003A012042E2070002E2070020E29D
:1010C000800090E000F18FE00000A0E10550B5E065
:1010D0008440BCE004406C300550B5E08440BCE086
:1010E00004406C300550B5E08440BCE004406C30F6
:1010F0000550B5E08440BCE004406C300550B5E0DC
:101100008440BCE004406C300550B5E08440BCE055
:1011100004406C300550B5E08440BCE004406C30C5
:101120000550B5E08440BCE0082042E2020012E134
:1011300004406C30E4FFFF5A3426A0E11246C4E1BB
:101140000500B5E00410A4E0131681E07040BDE88E
:101150000030A0E31EFF2FE10E0055E00C10D4E09C
:101160000030A0E30050A0210140A0210030B3E2F4
:101170000E0055E00C10D4E00050A0210140A02149
:101180000030B3E20E0055E00C10D4E00140A02185
:101190000050A0210030B3E200E07EE200C0ECE2AB
:1011A000100056E30010A0E30200003A2407B0E16B
:1011B0000448A00110108102012046E0080052E31B
:1011C0000200003A240BB0E10444A001081081029F
:1011D0005B657F1F01000000F803000000020000B3
:1011E000347ADB9E200061E2012046E0354084E154
:1011F0001551A0E1010052E32000003A012042E233
:10120000030002E2030060E2800090E080F18FE0E2
:101210000000A0E10550B5E00440B4E00500BEE0E8
:101220000410BCE00050A0210140A0210550B5E011
:101230000440B4E00500BEE00410BCE00050A02172
:101240000140A0210550B5E00440B4E00500BEE037
:101250000410BCE00050A0210140A0210550B5E0E1
:101260000440B4E00500BEE00410BCE0042042E20B
:10127000020012E10050A0210140A021E4FFFF5A2A
:101280003526A0E11256C5E10500B5E00010A0E347
:101290000010A1E213E6B0E13436A0E11346C4E148
:1012A0000010A1E2742682E10E0090E07040BDE8DB
:1012B0000010A1E21EFF2FE10E2055E00C30D4E01B
:1012C0000520A0310430A0317040BDE80010A0E33B
:1012D0000100A1E01EFF2FE17040BDE80000A0E387
:1012E0000010A0E3EC0100EAE0B5002617B41000FE
:1012F0008AB075290A9915A511D0C046C0460028A4
:1013000002DA404212A508E00A9989698A0701D5E4
:1013100010A502E0490704D50FA5012601E0C0464B
:10132000C046002402AF04E000F070FC30313955B3
:10133000641C0028F8D12B0000960A98220002A90C
:1013400000F0AEFB0DB0F0BC08BC18470000000078
:101350002D0000002B000000200000000FB4094900
:101360001CB506AB6A4679440090059800F0EEFB88
:1013700004000020694600F003FC20001CBC08BCEF
:1013800004B0184717080000194930B417220A6042
:1013900036224A60174C184A0021030C8D001B1896
:1013A0005351164B491C584300193729F5DB30BC03
:1013B00070470120E8E770B40D4C0F4D606821685C
:1013C00083008E00EA58AE59491E401E9219EA5019
:1013D00036230029216002DA6060236003E00028E0
:1013E000D8310A9F01000000F4050000000200004F
:1013F0002D8205EE606000DA636070BC500040082A
:1014000070470000801D00C0E119D66694CE01C06F
:10141000CD0D010010B4042A0ED303000B439B072B
:101420000AD108C810C9A34202D1121F042AF8D257
:10143000A34201D0001F091F002A02D1002010BCC6
:101440007047D30701D0521C05E003780C78401C8C
:10145000491CA34207D103780C78401C491CA342C5
:1014600001D1921EF1D1181BE9E700007847C04670
:10147000FF3002E2032483E1022882E19D0000EABA
:101480007847C046030052E32A00009A03C010E2E6
:101490000800000A0130D1E402005CE30C2082E085
:1014A00001C0D1940130C0E40130D13401C0C094F6
:1014B000042042E20130C034033011E25C00000A33
:1014C000042052E21B00003A03C031E7020053E35C
:1014D0000800000A0F00008A2C34A0E104C0B1E526
:1014E000042052E20C3C83E1043080E4F9FFFF2A3F
:1014F000011081E20F0000EA2C38A0E104C0B1E540
:10150000042052E20C3883E1043080E4F9FFFF2A22
:10151000021081E2070000EA2C3CA0E104C0B1E522
:10152000042052E20C3483E1043080E4F9FFFF2A06
:10153000031081E20000A0E1822FB0E10130D1244C
:1015400001C0D1240120D1440130C02401C0C024F5
:101550000120C0441EFF2FE17847C046013050E013
:1015600003005221C6FFFF9A030052E3020080E00D
:10157000021081E02500009A030010E3013071158C
:101580000120421201306015030010E3FAFFFF1A38
:10159000033011E28C01000A042052E21B00003AE1
:1015A00003C031E7020053E30800003A0F00008A4D
:1015B0000C38A0E104C031E5042052E22C3883E16C
:1015C000043020E5F9FFFF2A021081E20F0000EA53
:1015D0000C3CA0E104C031E5042052E22C3483E14C
:1015E000043020E5F9FFFF2A011081E2070000EA3C
:1015F000402D082501000000F00700000002000057
:10160000D96ABB530C34A0E104C031E5042052E296
:101610002C3C83E1043020E5F9FFFF2A031081E22E
:101620000000A0E1822FB0E10130712501C07125D9
:10163000012051450130602501C060250120404551
:101640001EFF2FE17847C04610402DE9202052E2CE
:101650000500003A1850B1281850A0281850B12899
:101660001850A02820205222F9FFFF2A02CEB0E114
:101670001850B1281850A0281800B1481800A048E8
:101680001040BDE802CFB0E1043091240430802442
:101690001EFF2F01822FB0E1B230D1200120D144B2
:1016A000B230C0200120C0441EFF2FE17847C04661
:1016B0000020A0E300402DE9201051E20230A0E11B
:1016C00002C0A0E102E0A0E10C50A0280C50A0282C
:1016D00020105122FBFFFF2A011EB0E10C50A02870
:1016E0000C00A0480040BDE80111B0E104208024B6
:1016F0001EFF2F01B220C040010111E30120C014E0
:101700001EFF2FE17847C0460020A0E3040051E30C
:101710000700003A03C010E2E5FFFF0A04C06CE2D4
:1017200002005CE30120C0140C1041E0B220C0A014
:10173000DFFFFFEA81CFB0E10120C0240120C024F7
:101740000120C0441EFF2FE103000B43020070B4D0
:101750009B0710D10F4CE50100E008C208C91E1B11
:101760009E432E42F9D01906090E1170521C002911
:101770000DD01B0AF7E70C78491C531C002C147081
:1017800005D00C78491C5A1C002C1C70F3D170BC7D
:1017900070470000010101017847C04610402DE963
:1017A000030010E3030011030040A0E10A00001A47
:1017B00050E09FE5042052E2060000BA043091E4B4
:1017C0000EC043E003C0CCE18EC31CE004308004B3
:1017D000F7FFFF0A041041E2042082E2012052E2F6
:1017E000050000BA0130D1E4000053E30130C0E449
:1017F000F9FFFF1A0210A0E1C2FFFFEB0400A0E115
:101800000481A87F01000000EC0900000002000034
:101810001E73B90E1040BDE81EFF2FE1010101014A
:1018200070B4441C06E00178401C002902D1001B62
:1018300070BC70478107F6D10A4AD50102C88E1ADA
:101840008E432E42FAD0001B0A0601D1C01EEFE7DC
:101850000A04120E01D1801EEAE70902090EFBD12B
:10186000401EE5E7010101017847C0460120D0E5AF
:101870000010D0E50230D0E50300D0E5021481E18C
:10188000031881E1000C81E11EFF2FE17847C0467B
:101890002024A0E10000C1E50120C1E52028A0E14D
:1018A0000220C1E5202CA0E10320C1E51EFF2FE1AD
:1018B0007847C04601C090E12100004AA0C071E015
:1018C0000020A0E31A00003A20C271E00F00003AA5
:1018D00020C471E00100003A0030A0E3200000EADB
:1018E000A0C371E0810340200220A2E020C371E088
:1018F000010340200220A2E0A0C271E0810240204A
:101900000220A2E020C271E0010240200220A2E0F9
:10191000A0C171E0810140200220A2E020C171E05D
:10192000010140200220B2E0A0C071E0810040200F
:101930000220A2E0011050E00010A0310200A2E05D
:101940001EFF2FE1022111E200106142403032E01F
:101950000000602220C271E01D00003A20C471E046
:101960000F00003A0113A0E120C471E03F2382E39D
:101970000B00003A0113A0E120C471E03F2682E38E
:101980000700003A0113A0E120C471E03F2982E37F
:101990000113A0213F2C822300C071E21D00002A08
:1019A0002113A021A0C371E0810340200220A2E006
:1019B00020C371E0010340200220A2E0A0C271E038
:1019C000810240200220A2E020C271E001024020FA
:1019D0000220A2E0A0C171E0810140200220A2E02B
:1019E00020C171E0010140200220B2E0EBFFFF2A9C
:1019F000A0C071E0810040200220A2E0011050E070
:101A00000010A0310200A2E0C33FB0E1000060423C
:101A1000BAE47CE801000000E80B000000020000CE
:101A2000EA9B07B3001061221EFF2FE10000A0E334
:101A30002C0000EA7847C0460030A0E35CFDFFEAD6
:101A40007847C0460120A0E1920081E01EFF2FE10F
:101A50007847C04601C05EE50C0053E10330DE3735
:101A60000C30DE2783C08EE01CFF2FE100470847C3
:101A7000104718472047284730473847B80100EB40
:101A8000530100EB03002DE9B60100EB0300BDE8B4
:101A90007B0100EB0F002DE9B50100EB0F00BDE865
:101AA0001CC09FE50FC08CE001001CE30DE08F120D
:101AB0000FE0A0011CFF2FE101C08FE21CFF2FE10E
:101AC00000F07BFA8567010001402DE9AC0100EBD5
:101AD000A10200EB0140BDE8000000EA0000E0E3E5
:101AE000690000EA1EFF2FE11EFF2FE11EFF2FE11C
:101AF000F0B504000FB48169150081B0880604D5E3
:101B0000A06B10229143A16100E001200027A842B0
:101B100000DD471B0A98616B7A198018081A606308
:101B2000A069C00602D42000C046C046002609E0D5
:101B30000498616AE269805DFFF79AFFE06B401CE0
:101B4000761CE0630A988642F2DBA069C0060BD5DA
:101B50002000C046C04607E0616AE2693020FFF716
:101B600087FFE06B401CE06338007F1E0028F3DC39
:101B700008E00298616AE269405DFFF779FFE06B77
:101B8000401CE06328006D1E0028F2DC2000C046E7
:101B9000C04605B0F0BC08BC184700000FB591B0B6
:101BA0000800079008481900784408AB05C30020D6
:101BB0000C90064878440A9011A80B90684600F0F3
:101BC00071F815B008BC1847E5030000F9030000E0
:101BD0000A681070521C0A6070470000013050E023
:101BE00003005221A1FEFF9A020080E0030010E3EF
:101BF000021081E0013071150120421201306015A0
:101C0000030010E3FAFFFF1A102052E20500003A29
:101C100010402DE9185031E9102052E2185020E907
:101C20003AFE090D01000000E40D00000002000072
:101C3000F363D9C3FBFFFF2A1040BDE8823EB0E149
:101C4000081031290810202904303145043020457E
:101C5000030012E31EFF2F01822FB0E1B230712189
:101C600001205145B2306021012040451EFF2FE187
:101C70007847C0460A1040E2200140E0200280E0A0
:101C8000200480E0200880E0A001A0E1002180E0A5
:101C9000821051E0010080520A1081421EFF2FE1A4
:101CA0000C109FE51800A0E3563412EF1EFF2FE141
:101CB00048FEFFFF26000200F0B587B0C046C046D0
:101CC00004000D000020D6E0E06A0768049704E0F5
:101CD000E06AE16B0768491CE163A16AFFF7D1FE86
:101CE000060001D0252EF3D10498B84205D03A0061
:101CF000236A04992000FFF7C6FE002E6DD0A84F7E
:101D000000267F44E06AA16AFFF7BBFE202808DBBB
:101D1000312806D2391820390978002901D00E431C
:101D2000F0E70021A1630F0061632A280FD101CDE4
:101D3000B90009194863E06AA16AFFF7A2FE012F02
:101D400020D1A16B002928DA20218E4325E0010053
:101D500030390A2914D2B800001905904163E06AAD
:101D6000A16AFFF78EFE010030390A2908D20599D1
:101D70000A23496B59434018059930384863EEE708
:101D8000012F0AD02E2808D1E06AA16AFFF779FE58
:101D900020210E437F1C022FC7DB616B002903DA71
:101DA0004942616301214E40F10701D010218E4369
:101DB000B10701D504218E436C2801D0682813D1C6
:101DC0000700E06AA16AFFF75CFEB84206D18020F6
:101DD0006C2F00D0C000064316E089E040216C2F34
:101DE00000D089000E4313E04C2805D06A2803D0A8
:101DF000742801D07A280BD100214C2803D08021EF
:101E00006A2800D000210E43E06AA16AFFF739FE7C
:101E10006528A6616BD014DC4728FBD008DC0028BD
:101E200066D0412865D04528F4D04628F2D01CE081
:101E3000CB1D06DC01000000E00F000000020000E6
:101E4000078B677E582862D06128F5D063281ED0A2
:101E500064287BD013E06F2869D008DC6628E3D0C3
:101E60006728E1D0692871D06E283ED007E070283D
:101E70004DD073281CD0752868D0782847D0616A67
:101E8000E269FFF709FEE06B401CE06326E70122F0
:101E9000700606D56B460020D88001CD01A9988038
:101EA0000CE06B460020587001CD6946187011E0B7
:101EB00029680022D24370060BD52D1D206B002807
:101EC00003D02000C046C04608E72000C046C046F8
:101ED00004E72D1D206B002803D02000C046C0461B
:101EE000FCE62000C046C046F8E6700504D4F005C4
:101EF00002D4300600D4700602CD2000C046C04691
:101F0000ECE636E051E042E001E01FE00FE0310690
:101F100006D5ED1DED08ED002A0008350CCA01E0DC
:101F200004CD002301002000C046C046D6E630069E
:101F300006D5ED1DED08ED002A0008350CCA01E0BC
:101F400004CD00232000C046C046C7E631060AD5AE
:101F5000ED1D0100ED08ED002A0008350CCA200037
:101F6000C046C046BAE604CD01002000FFF7F8F9EC
:101F7000B4E6ED1D02ABED08ED002900083506C9F9
:101F800006C30100200002AAC046C046A6E6ED1D19
:101F900002ABED08ED002900083506C906C30100B3
:101FA000200002AAC046C04698E6E06B07B0F0BC2D
:101FB00008BC18476292020070B505000C001600BC
:101FC00005E02078696AEA69641CFFF765FDB442A0
:101FD000F7D370BC08BC184701684A1C0260087837
:101FE000704710B5C046C0460400C046C046200039
:101FF00000F0CEFA10BC08BC184700000E40A0E16B
:102000006A0000EB04E0A0E101402DE97F0000EB55
:102010000040A0E10140BDE813402DE9121DA0E3FE
:102020000100A0E3081084E5000084E51340BDE84A
:102030000010A0E1040084E50EF0A0E110402DE9BD
:10204000E66A8F9A01000000DC1100000002000027
:102050007990C0CE03002DE9710000EB0040A0E1B3
:102060000300BDE8042094E50D30A0E100E082E02B
:1020700003005EE1002081E50B00008A0E3093E052
:10208000011A8EE26330A0E1071081E20730C3E35A
:102090000710C1E3030051E10310A081041084E59F
:1020A0001040BDE8020041E01EFF2FE10020A0E14A
:1020B0000000A0E30000A0E11040BDE81EFF2FE1FA
:1020C00001C08FE21CFF2FE1F0B585B0C046C046CD
:1020D00005000C0027F030FB002002940195C0465B
:1020E000C046039001A8FEF761FF04000D0001A89F
:1020F000009303C81600C046C046C046C046FFF75E
:102100009EF900210800C046C046070000F092F882
:102110000490002107600800C046C046411C049896
:10212000416000210800C046C0460100049881605B
:1021300000210800C046C04601000498C16000218B
:102140000800C046C046010004980161C046C04670
:10215000C046C046C046C046C046C046C046C0464F
:10216000C046C046C046C046C046C046C046C0463F
:10217000009B05B02000049C29003200A646F0BC5C
:1021800001B0704710B5C046C0460020C046C046EA
:10219000C046C046C046C04610BC08BC1847000038
:1021A0001EFF2FE10000E0E30210E0E31EFF2FE13D
:1021B00010402DE9230000EB1040BDE81EFF2FE189
:1021C0001EFF2FE10E50A0E1210000EB05E0A0E191
:1021D0000050A0E10D10A0E10700C0E300D0A0E195
:1021E00060D08DE20A30A0E120402DE9AE2B00EB5B
:1021F0002040BDE80060A0E30070A0E305C0A0E1BE
:102200000080A0E300B0A0E3C009ACE80710C1E380
:10221000C009ACE8C009ACE8C009ACE801D0A0E155
:102220001EFF2FE104009FE51EFF2FE11EFF2FE19F
:1022300080CF01C07847C04604009FE51EFF2FE114
:102240001EFF2FE190CF01C01EFF2FE110B410BC84
:10225000CE1E246F01000000D81300000002000011
:102260008D787E737047000000009FE51EFF2FE110
:1022700070CF01C004009FE51EFF2FE11EFF2FE17C
:1022800074CF01C07847C04620C271E00020A0E3AF
:10229000B7FDFF3A20C471E0A9FDFF3A0030A0E38A
:1022A000C8FDFFEA913082E00300A0E10210A0E146
:1022B0001EFF2FE100A0004784129FE5E8219FE563
:1022C000DB00A0E300F021E1021081E00310C1E394
:1022D000041041E201D0A0E100A0A0E300B0A0E31F
:1022E000C8219FE5D200A0E300F021E1021081E0C7
:1022F0000310C1E3041041E201D0A0E1D300A0E348
:1023000000F021E19C319FE5001083E594119FE5E9
:10231000000091E5040080E29C119FE59C319FE55F
:102320008C219FE5000081E5002083E5020080E02C
:102330008C119FE50020A0E3002081E574219FE53A
:10234000000082E5FC219FE5FC019FE52C0082E571
:102350003F00A0E3300082E50900A0E3000082E531
:102360000B10A0E3101082E50130A0E3243082E5D9
:10237000283082E5D4219FE51030A0E3083082E5C3
:10238000CC019FE5100F01EE1EFF2FE10EF0B0E132
:102390000EF0B0E1FEFFFFEAFEFFFFEAFEFFFFEAFC
:1023A000860000EA01F034FE6B480047F34611F066
:1023B0009BFD0000A0019FE5A0119FE5001080E5B6
:1023C0009C019FE5001090E598019FE5001090E5C5
:1023D00094319FE50310C1E10030A0E3031081E1D7
:1023E000001080E564619FE50235A0E3083186E5D1
:1023F00078019FE5100F01EE74F19FE5900F07EE55
:102400001EFF2FE16C019FE50010E0E3001080E566
:1024100064019FE564119FE5001080E560019FE580
:10242000001090E5081081E3001080E5001090E5B1
:10243000081011E2FCFFFF0A900F07EE1EFF2FE1CC
:10244000100F11EE1EFF2FE1100F01EE1EFF2FE106
:10245000010050E2FDFFFF1A1EFF2FE124019FE55E
:10246000E651B69601000000D415000000020000FD
:102470009480A00324119FE5F720A0E3040081E4E9
:10248000012042E20000A0E3040081E4012052E2C6
:10249000FCFFFF1A08019FE508119FE5001080E589
:1024A00004019FE504119FE5001080E500019FE510
:1024B00000119FE5001080E51EFF2FE15C5E000427
:1024C000100000000004000000040000145D00047F
:1024D000345D0004385D00043C5D000401C05EE52D
:1024E0000C0053E10330DE370C30DE2783C08EE072
:1024F0001CFF2FE10E30A0E1BCE09FE51EFF2FE1A5
:1025000010B49E46042A0ED3031C0B439B070AD12A
:1025100008C810C9A34202D1043A042AF8D2A3423F
:1025200001D004380439002A02D1002010BC7047C1
:10253000D30701D5013205E003780C780131013071
:10254000A34207D103780C7801310130A34201D1B5
:10255000023AF1D1181BE9E7B0A102000030008077
:10256000FFF90000002800807C1F0000194CF003D8
:102570000C20008023387E500060009044200080B2
:102580003CC60000741F0000440000000C280080BE
:102590000828008002004000C4200080F0F0F0F025
:1025A000245C0004D85C000429140000DC5C0004F6
:1025B000ED520200E05C00041915000061160000F5
:1025C00000C09FE51CFF2FE10D1300007847C046B7
:1025D00055FDFFEA04F01FE5244DF0037847C0469F
:1025E0008AFFFFEA7847C04600C09FE51CFF2FE145
:1025F000FD4EF0037847C04600C09FE51CFF2FE169
:102600001144F0037847C04600C09FE51CFF2FE14E
:102610005145F0037847C04600C09FE51CFF2FE1FD
:102620005947F0037847C04600C09FE51CFF2FE1E3
:102630009D45F0037847C04600C09FE51CFF2FE191
:10264000D11DF0037847C04600C09FE51CFF2FE175
:10265000951FF0037847C04600C09FE51CFF2FE19F
:10266000C91FF0037847C04600C09FE51CFF2FE15B
:10267000C59DAEAB01000000D017000000020000B5
:1026800060681EBED51EF0037847C04600C09FE5B7
:102690001CFF2FE19913F0037847C04600C09FE567
:1026A0001CFF2FE10110F0037847C04600C09FE5F2
:1026B0001CFF2FE1C916F0037847C04600C09FE514
:1026C0001CFF2FE11513F0037847C04600C09FE5BB
:1026D0001CFF2FE1F514F0037847C04600C09FE5CA
:1026E0001CFF2FE13911F0037847C04600C09FE579
:1026F0001CFF2FE17515F0037847C04600C09FE529
:102700001CFF2FE1C111F0037847C04600C09FE5D0
:102710001CFF2FE1C531F0037847C04600C09FE59C
:102720001CFF2FE1D536F0037847C04600C09FE577
:102730001CFF2FE1C538F0037847C04600C09FE575
:102740001CFF2FE1653CF0037847C04600C09FE5C1
:102750001CFF2FE1613BF0037847C04600C09FE5B6
:102760001CFF2FE12D3DF0037847C04600C09FE5D8
:102770001CFF2FE1993EF0037847C0463DFFFFEA7A
:102780007847C04600C09FE51CFF2FE12D41F003B4
:102790007847C04600C09FE51CFF2FE1813FF00352
:1027A0007847C04600C09FE51CFF2FE10D41F003B4
:1027B0007847C04600C09FE51CFF2FE10D3EF003A7
:1027C0007847C04600C09FE51CFF2FE1011100C003
:1027D0007847C04614FFFFEA7847C04628FFFFEA63
:1027E0007847C04600C09FE51CFF2FE13D2BF0035A
:1027F0007847C04600C09FE51CFF2FE1E541F0038C
:102800007847C04600C09FE51CFF2FE1994DF003BB
:1028100030B50120400289B00AF04EFB05003F4868
:10282000002101603E480268012A2BD101603D4829
:102830003D4C0068C17849070AD420680AF050F876
:10284000002860D120680021006D17F0C7FD5AE014
:10285000417802782030090211434018C01C8008DA
:102860008000417802780902114310390170090A89
:10287000417021680B6E09884A07520F002101F050
:1028800032DDEE1101000000CC1900000002000052
:10289000A7711CE31BFD42E029480268012A3CD1D4
:1028A000016028482422446A01006846FEF724FF9C
:1028B000280707D524480168491C0160200008F05A
:1028C0005FF82AE008988079C00708D11F4800689F
:1028D0008179890703D5817AFD221140817220898F
:1028E0000019606108984178007809020843089946
:1028F00010380870000A4870A08800212038A08095
:10290000200001F047FE002807D00400694606F0C9
:102910006FFE2000694624F013FE02F013FF0C49FD
:102920000868032212029043086009B030BD00001D
:10293000C01200C0C41200C0C81200C0541300C0AE
:10294000CC1200C0B84600043C2600C0D01200C023
:1029500000A00090417B007B09020843000601D5DE
:10296000012070470020704710B5174C2268521C98
:102970002260164A00235268FEF770FB616810005F
:10298000FFF79EFC142800D31320410009190A897F
:10299000521C1204120C0A81218E4900091909895E
:1029A000914200D2208620680321890388420AD3FD
:1029B000400820600020410009190A89401C520883
:1029C00014280A81F7D310BDA0CD01C090D001C05A
:1029D000054900200A68642A04D9088E49684843DA
:1029E000800A800270470000A0CD01C010B50748E2
:1029F0003421FEF7B5FE064814214068FFF760FC5D
:102A00000249486003490020886110BDA0CD01C083
:102A100090D001C010D101C0F3B50E008BB018F0FA
:102A20004BF90490059116F0A8FD02900020039048
:102A3000964800690500FF30EC30FEF765FF0400A2
:102A40002800FF30E730FEF75FFF002808D0092399
:102A5000F1560723F05608F0ABF901F0D5F903E081
:102A60000723F05601F0C3F90006000E012207907B
:102A70000B98032122F0E6FC07000B98002512308A
:102A80000A9042E05120684300190E30FEF73CFFE7
:102A9000F1BF0CBF01000000C81B000000020000D5
:102AA0005399A25E801C0A990622FEF721FD002898
:102AB00034D15120684324180E34002F03D0B87845
:102AC0000299884211D076480069FF30E730FEF75E
:102AD00025FF05000100200017F096F80100079877
:102AE0002A0017F0A6F8002816D00723F05601F0A8
:102AF00088F905002000FEF711FF09230572F15641
:102B00000723F05608F05EF901F088F908222073D7
:102B1000201D04A9FEF722FD0DB0F0BD6D1C207B29
:102B2000A842B9D80B984178007809020D000543F6
:102B3000403D002F03D10298ED1C03900CE0B978C2
:102B40000298814208D05648C1680069CB00591AE2
:102B50004018407A8007DFD5280009300004000CB7
:102B6000089027E009980028D6D04D480069FF302A
:102B7000E730FEF7D3FE0100200017F054F80706F7
:102B800047483F0E0069FF30E730FEF7C7FE51218E
:102B900079430A190E3201000190100017F034F841
:102BA0000799019A17F045F80028B5D1390020009F
:102BB0001EF0B7FA207B0990617B8842D2D2201D9B
:102BC000FEF7ACFE0899471820000830FEF7A6FE75
:102BD0008742C7D82000FEF7A1FE0700201DFEF7A0
:102BE0009DFE3F1838000930069008980622801E86
:102BF0003870000A78700A99B81CFEF7AFFC0723FA
:102C0000F05601F0FEF838720B992A000698203130
:102C1000FEF7A4FC069803994019002905D003216A
:102C200001700121417003998170207B5123584329
:102C300001190E313800FEF783FE207B512304A9D1
:102C40005843001912300822FEF788FC0923F15678
:102C50000723F05608F0B6F801F0E0F8217B512385
:102C6000594309198876207B584301190C48C268DA
:102C70000069D3009A1A8018C2795123CA76217B41
:102C8000007A594309190877207B401C2073201DC6
:102C9000FEF744FE08994018211DFEF751FE3BE760
:102CA0006A46571801000000C41D00000002000021
:102CB0004A617C2E3C1500C00020704770B50500AD
:102CC0000E0003F06FFA012801D1002070BD0B4CFB
:102CD0002068401C5421FEF74FFE2820484300196D
:102CE0002160C56220682823584300190830242237
:102CF0003100FEF73DFC012070BD000050B301C063
:102D000070B5050003F082FA012801D1002070BDE2
:102D1000054C2068401C1D21FEF72EFE880000197E
:102D200021608560012070BDD4B201C010B50400DF
:102D30000021084A001D16F03DF9211D2000064A19
:102D4000103016F037F9211D2000044A1C3016F00F
:102D500031F910BDD11E0000711E000035C0000009
:102D600070B504004A68080091685368026826003C
:102D700025001C3610350D2A11D007DC521C0BD053
:102D8000092A1CD118000AF061FF03E0192A0ED0AD
:102D9000252A14D1290006E00AF004FE0EE00800FE
:102DA0000AF0B0FD06E0200016F028F906E0080061
:102DB0000AF000FE002801D13100F4E7002070BDC8
:102DC00010B50968491C03D10100103116F016F93D
:102DD000002010BD10B504000021084A001D16F0A7
:102DE000E9F8211D2000064A103016F0E3F8211DF5
:102DF0002000044A1C3016F0DDF810BD611F0000F1
:102E0000191F00007DC0000010B5040008004968CB
:102E100002688B684968521C18D0082A13D0112AFE
:102E200006D0142A13D1112118000BF07DF80DE003
:102E300018000BF021F8002808D121001C312000D7
:102E400016F0DCF802E008000BF0E4F8002010BDFA
:102E500010B50968491C03D10100103116F0CEF8F5
:102E6000002010BD70B504000E00002868D0002EB0
:102E700066D00022FF2133482D310BF0CDFE002813
:102E80005ED0022181815A2275210A549C21451865
:102E9000018135600600AB36F11F0020FEF75AFDB8
:102EA0000F21297100216971E07AA17A00020143A2
:102EB000EB12CB6A01000000C01F000000020000FE
:102EC000BE89C293A970090AE97025F029FB002880
:102ED00000D0207A2873687BF12140084000084028
:102EE0006873E07AA17A000202000A4321000C31E3
:102EF0003000FEF747FB207B002813D1607B0028C1
:102F000010D1A07B00280DD1E07B00280AD1207CC5
:102F1000002807D1607C002804D106220F49300028
:102F2000FEF730FBA07C002814D1E07C002811D1F2
:102F3000207D00280ED1607D00280BD1A07D0028C7
:102F400008D1E07D002805D1054806220168B01DA2
:102F5000FEF718FB70BD000084400004F84A00042E
:102F6000F81100C00F4910B5002801D1012010BD93
:102F7000CA7B8B7B12021A430AD10021FF22017007
:102F8000193241708270120AC2700171417107E0FA
:102F90004A7B0B7B12021A43921D0831FEF7F2FAAC
:102FA000002010BD0CD001C0FEB50027194E3C001A
:102FB0000297822060438519E87BA97B00020843C1
:102FC00023D0082229006846FEF7DCFA0199009810
:102FD000002279405040084317D182206043801975
:102FE000083002A9FFF748FFE87BA97B7D23000298
:102FF0000843DB005843C1170822019100902800C4
:103000006946FEF7BFFA0298FEBD641C012CD0D3BE
:103010000020FEBD0CD001C000B500F001F800BDDD
:1030200010B5064C002001008222424312190B0AFF
:10303000401C91730128D373F6D310BD0CD001C08E
:103040001CB5194C002804D12100A0730C39E07381
:1030500023E0C1788278090211430A00FF3A193A45
:103060001FD14179027909020A430100921D200013
:103070000830FEF787FAE07BA17B7D23000208433E
:10308000DB005843C11708220191009020006946D7
:10309000FEF778FA044904480C39FEF765FC002075
:1030A0001CBD01201CBD00000CD001C0F0B50026E5
:1030B000354F34008BB017F01DFE0822099108909F
:1030C000B693251D01000000BC2100000002000095
:1030D000B656334E391D6846FEF75EFA0898009AD8
:1030E0000999019B801A99410BD30822391D02A826
:1030F000FEF752FA0898029A0999039B801A99419F
:103100000CE00822391D04A8FEF746FA0498059938
:10311000089A099BC043C9438018594100237D2266
:10312000D200FDF7C3FF0D000690822060431B49CB
:103130000C3140180A90C17B807B0902084321D0E2
:103140000A99082204A8FEF727FA04A807C82B004A
:10315000121A8B4110D20A99082204A8FEF71CFA11
:1031600004A807C8801AA941039102900A9808226E
:1031700002A9FEF711FA05E00A98082208A1FEF755
:103180000BFA0126641C012CCFD30822381D08A994
:10319000FEF702FA30000BB0F0BD000000D001C015
:1031A0000000000000000000F0B5040000782823B3
:1031B000214958430A588BB0012A3AD100220A50BB
:1031C000207A082637270028E07909AD22D0611C33
:1031D00002F042F8002804D0E079611C02F07CFF84
:1031E00021E0E07908AB0622611C1871681CFEF72B
:1031F000D3F9207A08ABD87201A81AF071FC0497B1
:1032000009980A9905906B46069101A8DE811FF086
:103210009DF908E0611C02F00DF80028E1D0E0798A
:10322000611C02F0FFFE237AE2796089611C08F0DC
:1032300017FB0BB0F0BD0000C45202C0F7B5070089
:10324000002634000D4920010A5C002A0ED04518E2
:10325000E91C01980622FEF769F9002806D1687872
:10326000B84203D1A878029901260870641C24068C
:10327000240E022CE6D33000FEBD000040470004BF
:10328000F3B507000026340081B0142060430B49D9
:103290000A5C002A0BD04518291D02980622FEF769
:1032A00045F9002803D16878B84200D10126641C92
:1032B0002406240E022CE8D33000FEBD184700047B
:1032C00010B500280DD0074B074A04E08478890028
:1032D0009018324F01000000B823000000020000E7
:1032E00042BE8DF3C9180C60001D01889142F7D1D0
:1032F0008478FF2CF4D110BD00100090FFFF000077
:1033000010B5064C064B0022100000F00BF8985444
:10331000521C1204120CA242F6D910BD1E0300006A
:10332000249101C003498000401800680006000E87
:103330007047000000100090024A80008018016071
:103340007047000000100090F0B54A680500D06892
:1033500096688BB0039008680F00290058310A91D5
:1033600092492C004919099190498034C91F491983
:10337000089129006431079148390691303105914F
:1033800044311028049177D018DC062875D00ADC67
:10339000801C73D0012848D0042870D1506811686F
:1033A00021F00CFCF3E009286AD00A28F5D1804806
:1033B00000F096FD00221100032013E0132860D0D6
:1033C00013DC11285ED01228E7D103980C300400DA
:1033D00016F026F90028E5D0E079A1792200000254
:1033E0000143082020F0BAFBCFE015284BD01B2862
:1033F000D3D16F48401E00F073FD3868FF22F032D1
:10340000E06004983100FEF7D1F8049816F044FC0F
:103410000028C7D11CF0B0F9002842D1FF36E136B0
:10342000B07A00283DD1059898E0E96F059881426F
:1034300001D122F0DDF8E068002803D00006000E7C
:1034400021F09EF80320800218F0DCFD14F0A8FBA8
:103450000020E060012018F085FD0321012018F014
:10346000BDFD17F061FB01200BF09AF920790028CF
:1034700098D0E1884F4AB5E722E017E08AE092E071
:1034800019E03AE06DE003980C30040016F0C8F83B
:1034900000287CD0E079A1792200000201430920B4
:1034A000A0E70599280015F0C7FD70E05068116885
:1034B00021F0ACFC6BE05068116822F035F866E052
:1034C000FF22F032E06004983100FEF76FF8072227
:1034D0000898F11DFEF76AF8062209983100FEF7F8
:1034E0002FC1A43601000000B42500000002000036
:1034F0005B46538365F83100A32008220E3180001B
:103500004019FEF75DF8C82018F086FD2DE001A8EF
:1035100021F03EFE062209983100FEF751F86B4675
:103520001879B17982078B07920F9B0F9A420FD1BE
:1035300000070907800F890F884209D16B46587927
:10354000F179884204D13868310010F0DFFC28E0BE
:103550003868FF22F032E06004983100FEF730F85E
:1035600007220898B11DFEF72BF8012020720A9857
:1035700020600799A0E7039806220C3009990400FF
:10358000FEF71EF8039820F07FF838680006000E5A
:1035900021F000F8200016F04DF8002801D006991F
:1035A0008AE700200BB0F0BD17F066FA0321002077
:1035B00018F01EFD2868E867F3E73800F2E700001E
:1035C0008602000004080000F84A00043EB500F03E
:1035D00087FA002824D10C220092042215480523E2
:1035E00010A105F089FA1348001F05F077F80124AF
:1035F000B122A40210482100FDF7D8FF0F49002294
:103600000FA06B4607C30B48220008380A4907235E
:1036100005F098FB002803D11BF08AFC00203EBD7A
:1036200001203EBD434250726F63534D454D736759
:1036300051000000D02500C0E0190004F1E00000B6
:1036400043422050726F6300094810B5C06905F00D
:10365000F3FB07480C220121283005F001FB044848
:103660000C2200212C3005F0FBFA0BF071F810BD94
:10367000AC2500C007220100034810B5006A05F020
:103680009FF8002010BD0000AC2500C0F7B506680B
:1036900088B0099815002030FEF772F90700203035
:1036A0000400C078800608D5B08810380004000CEB
:1036B000B08040380028079002DC00200BB0F0BD3D
:1036C0000998417B007B0902084324F005FE29008C
:1036D000303105902B00081F0C33019002910693A6
:1036E00060782178000240180490E079A179000206
:1036F000A8B694C701000000B02700000002000037
:10370000AFAEED3E40186179000240182179000209
:10371000091810480391466209992422FDF75AFFBF
:103720000D49012008600D4908600D482100056021
:10373000059A079800920204120C069B380000F0CC
:10374000EDFC04980299088001980399016001201A
:10375000BEE70000B8460004C01200C0CC1200C092
:10376000D01200C000280BD0002905D0202A01D19A
:1037700016207047173200E00E321006000E704718
:1037800010007047F7B5144F002428256543EE1943
:1037900031002036F078019A904216D11D31009800
:1037A0000622FDF7E1FE00280FD130790299884208
:1037B0000BD17859002808D028206043C019001D7B
:1037C00008F076FD00207851FEBD641C2406240E0E
:1037D000042CDAD3FEBD0000C45202C0FEB50600C0
:1037E0000C007B481500FFF789FD0E2C02D17948AB
:1037F0008021016002F028FB002802D07648FFF704
:103800007DFD01200AF078FE002E12D1022D05D098
:10381000032D03D00E2C01D1704808E07048407C85
:103820008006800F012801D16E4800E06E48FFF746
:1038300065FD290030000AF025FE6C4F6C48B9691F
:103840008522012D0CD0022D01D0032D09D1002994
:1038500001D0052102E0032D02D1C521016000E065
:1038600002606448816A0222114381622A003100A9
:10387000200018F095FB01AA00922A0031002000D8
:1038800002AB18F01FFB06F015FD290030001CF0FC
:10389000D1FE300015F0F0F80100302006F080FD78
:1038A00006F0A8FC01201CF01EFF002E11D1022DF5
:1038B00005D1072C01D8641C51E008244FE0032DEA
:1038C00005D1052C01D3E41E49E0022447E0641E23
:1038D00045E0022D01D0032D41D1702C38D011DCF0
:1038E000A007800F26D1A310093BFEF73DF9132551
:1038F0002527271515292915151515151515152F02
:1039000042DCE55F01000000AC290000000200007D
:1039100068B7EF632F311500882C29D00CDC7C2C84
:1039200024D004DC742C1FD0782C1DD00CE0802C0B
:103930001CD0842C1CD007E0952C0DD0992C0BD0DA
:103940009D2C0BD0A12C09D0362412E0262410E0A7
:103950002E240EE03E240CE097240AE09F2408E089
:10396000662406E06E2404E0762402E07E2400E073
:103970008624210030001CF0BFFE210030001CF026
:103980008DFE210030001CF0D3FE06F099FC1F488C
:10399000072102694903002E07D18A4302610169A8
:1039A000052252031143016114E08A430261016957
:1039B0000322520311430161012E0BD112494039F8
:1039C0000A6A33049A430B0C1A430A62104A4A6289
:1039D000CA0D8A6201690822114301610120BE708B
:1039E000FEBD0000881D00C090130090941E00C012
:1039F0008C1F00C034C701C0BC1E00C0241F00C003
:103A0000701100C03010009000A80080C0A200809B
:103A100002000002FFB51948012721C87F070E00E8
:103A2000401C1D2181B0FDF7E3FF009121E0134808
:103A3000A90040188468208824F062FC0399884219
:103A400011D1049801280BD12000143005F0F4FCAA
:103A5000002808D0A0683843A0604034267702E0F0
:103A6000A068B843F8E71D21681CFDF7C1FF0D00F1
:103A70000099A942DBD105B0F0BD0000D4B201C06D
:103A80000D490020142242438A5C012A0BD0401CBD
:103A90000006000E0228F5D3074900202831020154
:103AA0008A5C012A01D101207047401C0006000EEB
:103AB0000228F4D300207047184700040348808888
:103AC0000349C004000F085C70470000002000801C
:103AD000C02600C010B5002805D000218173012147
:103AE00081810BF00FF910BD002210B5054870213F
:103AF0000BF0CEF8002803D00121817302218181CF
:103B000010BD0000F01200C0F8B52E4A2E4B110077
:103B1000C56CA4DB01000000A82B0000000200001F
:103B20009C5F51DE08390800183013F07FF8002838
:103B30000AD12B4A2949009208222A482A4BE83107
:103B400012F01EFD002801D10120F8BDFFF7D6FFBD
:103B500005001026002818D02C0018345021200011
:103B6000FDF758FE002C0AD0E07A3043E072E07A8C
:103B700002210843E072E07A40084000E0722A0027
:103B800068321848290012F05EFCFFF7B7FF050005
:103B900018D02C00183450212000FDF73BFE002CDB
:103BA0000AD0E07A3043E072E07A01210843E07203
:103BB000E07AFD210840E0722A00683209482900B5
:103BC00012F041FC0449094808310860080023F05C
:103BD00043FF0020F8BD0000E01200C0A04F000429
:103BE0004377000078C001C039770000F19E0000E3
:103BF00010B502E0406A06F01DFF05F027FD002821
:103C0000F8D110BD10B503E0006D002116F04AFC9C
:103C100005F032FD0028F7D110BDFFB585B00E9F2D
:103C200005980D00049114001E0010215130FDF77D
:103C30001DFE022F0DD10599102251312300029251
:103C40000191012204A905A8009604F0B1FC09B075
:103C5000F0BD059A33001000513200922200290075
:103C600004F034FCF3E70000F8B501210024090357
:103C7000884202D10E2420020CE00121490388422F
:103C800002D10724A00205E00121C902884201D126
:103C90001C24A0011C49FF220880411E0906090EB0
:103CA000521C511A4018FB3005042D0C02E0012073
:103CB00005F0EEF815480BF03EF8060014480BF03E
:103CC0003AF83618124808210BF05FF88642EED118
:103CD000104E00223068232114F03DFC08F0CAFC8D
:103CE0000B4800F0CFF90C480C4A85800100847124
:103CF00007480B4B12F09AFF0420009030682421F3
:103D00006A4614F028FCF8BDAE2500C084400004CB
:103D100048400004041100C05440000470450004F1
:103D2000489AC88D01000000A42D00000002000088
:103D300085A78FAE002900C0F7B50D000600002151
:103D400086B00A0002A806C001916980A878F32114
:103D5000AC1C8008800008400830A87024F026FCC5
:103D60000028F079B1790CD000020843EA2803D189
:103D7000707B08210843707320780007000F8030A3
:103D80000AE000020843E92803D1607820210843B3
:103D9000607020780007000F2070707BC0070CD087
:103DA00024F004FC0028207803D00007000FC03066
:103DB00002E00007000F403020706078EF21364F9E
:103DC000084033490968497CC907C90E0843607037
:103DD00030482900C07912310591891F01280491CA
:103DE0002DD0022817D0032849D106220899A81DF2
:103DF000FDF70EFC2749062204982039FDF708FC40
:103E0000396805980622FDF703FC60780221400816
:103E10004000084332E006220899A81DFDF7F8FB90
:103E2000396804980622FDF7F3FB1A490622059823
:103E30002039FDF7EDFB6078400840001CE0154993
:103E400006222039A81DFDF7E3FB396804980622F5
:103E5000FDF7DEFBF179B07909020843E62803D1CA
:103E60000C490622203901E0089906220598FDF741
:103E7000CFFB607801210843FD21084060700622D5
:103E800028001A3002A9FDF7C3FB019809B0F0BD64
:103E9000FC1100C0184B0004F81100C0002801DD1F
:103EA000002004E06521C943884200DA080040424E
:103EB000000600167047002801DD002004E06421A0
:103EC000C943884200DA08004042000600167047E5
:103ED000662801DD662002E0002800DA00200006E6
:103EE0000016704770B50D0013F008F8002823D0B5
:103EF00018F062FD0600114810F0F6FB040015D022
:103F00000F49012208889203C004C00C8018207158
:103F1000000A60710888401C08802868A11DFDF710
:103F200069FD0648210014381BF0F9FC300018F038
:103F300093299EF901000000A02F0000000200005C
:103F4000714F311348FD4020FFF7C6FB70BD0000E4
:103F500048CE01C0001900C010B500210EF004F9D0
:103F600010BD000070B504000E0018F02FFD3106E2
:103F70000500090E200000F08FFE0400022818D270
:103F80000E4D0021200129544019C160807816F09F
:103F900007FD012044402001285C002805D1084984
:103FA0000868012212059043086007F063FC0120B5
:103FB00070BD280018F00FFD002070BD40470004C0
:103FC000C0AA0080FEB506000C0018F0FFFC05003A
:103FD0002100300001AA6B4601F0D2FA280018F047
:103FE000FAFC6B461879052801D0062842D127062D
:103FF0003F0E380024F0F2FA24F0E8FA06006B468F
:10400000187910F077FE6B461A79012528001A4CB2
:104010009040A1690842FCD0100000F051F86B46B6
:104020001979187816F040FD6B4618790FF0B8F939
:104030006B4618793A003100002303F071FF30001D
:1040400010F058FE2900B140A0690142FCD06B4637
:104050001978300008F0EEF96B461879310008F055
:1040600019FA300011F0CEFC6B46187911F0CAFC39
:104070000120FEBD0020FEBD40A2008010B5002939
:1040800011D00C000A00C034216ACC32814208D120
:10409000002A06D01078022803D10348806813F064
:1040A0002BFB0020206210BD381100C010B58068C5
:1040B000006804F01BFD002800D0012010BD0000A6
:1040C00030B50021084C0B008200A150074C4A007B
:1040D00015196D78854200D1A354491C0906090EB3
:1040E0000229F4D330BD0000E0460004641100C092
:1040F000F0B50C4F00221226242353430021DD1972
:104100008B005B195C78844200D15E70491C090603
:10411000090E0929F4D3521C1206120E032AEBD3FE
:10412000F0BD0000841400C070B50E48046820067D
:10413000000F03D0E0208443102004430A4E0025E2
:10414000A593E623010000009C310000000200005E
:104150000F5496A30BE0E00707D0A8003258002ABE
:1041600003D021002800FDF741FD64086D1C002CE0
:10417000F1D1002070BD0000002800803846000406
:10418000FFB506001900162785B02B480E9C0025A8
:1041900009F01AF80798812100041030C90008437B
:1041A00025490839486024F015FA002809D0B0786C
:1041B0000107890F022904D10009082801D1182715
:1041C00025002300079A310001A803F0A7FD1A4833
:1041D00001A9383008F0F8FF3A00310001A803F0D7
:1041E00065FD154801A9483008F0EEFF2A003100AE
:1041F00001A803F073FD104801A9583008F0E4FF4E
:104200002200310001A803F031FD0B4801A9203044
:1042100008F0DAFF0849283608398E630698C86323
:10422000064802680123DB031A4302600A68012082
:1042300002430A6009B0F0BD08A0009000B10090F0
:10424000FFB51100162785B028480E9D002608F0FE
:10425000BBFF06984121254C000409014018083C89
:104260006060606808218843606024F0B3F900282A
:1042700001D018272E000599069A2B0001A803F0FB
:104280004DFD1A4801A9383008F09EFF05993A0003
:1042900001A803F00BFD154801A9483008F094FF70
:1042A0000599320001A803F019FD104801A9583002
:1042B00008F08AFF05992A0001A803F0D7FC0B48F3
:1042C00001A9203008F080FF0898A06305982830E5
:1042D000E063074801680122D203114301602068AE
:1042E000012108432060002009B0F0BD08A0009023
:1042F00000B10090F8B5050000680F0000901400B0
:10430000002608002030FDF777FBC2780100530635
:1043100005D42948407B40074BD4012649E08078EA
:104320000009042801D00C2804D1BF20024001203C
:10433000CA70F8BD002C01D10020F8BD8879C007F3
:10434000A07A1BD0C00734D0E079012808D1220020
:104350008C3776B4010000009833000000020000A2
:10436000FBBC281E3900684607F094FD0600009843
:10437000286028E022003900684600F05DFA060057
:1043800000982860E07901281DD117F0EBFE1AE0B3
:10439000C00718D0E079012805D12200390068460D
:1043A00007F078FD04E022003900684600F044FA86
:1043B00006000098286006D0A079800703D5A07A6F
:1043C000FD210840A0723000F8BD00003C4D000403
:1043D000F8B504001D480121016041608460E07867
:1043E000402116000843E070188F00211D00208432
:1043F0002000203081702021C170686B606218F04D
:10440000F9FA07000096607821782300000228332B
:104410002A0001430C322000FFF71CFF06006078E1
:1044200021780002084310302070000A60703800C4
:1044300018F0E5FA288F401C0004000C288702D1F0
:10444000686B401C68633000F8BD0000C01200C0FB
:10445000FEB505001400080021000C321C316B462B
:1044600007C3290001262031238F626B280001F049
:1044700039FB208F401C0004000C208702D1606BA8
:10448000401C606368782978000208430C3028706B
:10449000000A68703000FEBDF7B5012188B00791B1
:1044A00008218C4604218E4615000021174B40320E
:1044B000127A1C68260C6B461E73260A5E739C7368
:1044C00013019B1A5E19737B002B02D01027012168
:1044D00000E008270023FF1E07E0F41803ADED18E5
:1044E000A47B5B1C1B061B0EEC70BB42F5DB019230
:1044F000099A00916146521A01007144203120301E
:1045000003AB01F0FBFB07980BB0F0BD00A60080E9
:10451000FFB50400008985B00719787E397E000256
:10452000084301090007000F039004917878397857
:1045300000020843483806040398360C002832D19C
:104540004F4DA86900280BD102E0012004F0C8FCFF
:104550004C494D4800220AF0CDFB0028A861F4D058
:10456000036FD8A201000000943500000002000093
:10457000E244F66E4748806923F0AAFD484806F0F9
:10458000F5FA4448464980692022086001894518A7
:104590004349280020308860390028000DF06CFE67
:1045A000300040302870000A68703E480068394981
:1045B000496809183A48C16019E039490868002873
:1045C00002D00289851805D16189E088032200F0B4
:1045D00047FC39E0087D0399401C884226D1687861
:1045E00029780002084380192870000A687007992A
:1045F0002B4800910195321D39008068069B2431BB
:1046000001F022FB002822D10898810026480E18CC
:1046100034363000FDF704FA401C3100FDF712FA81
:104620000899079A069B280007F0B2F96189E0888B
:10463000032200F015FC174CA0690AF09FFB1848F4
:1046400006F094FA0020A061002009B0F0BD280017
:1046500006F0FEFAF878400712D4687829780D4DF4
:1046600000020843A969032288806189E08800F07C
:10467000F7FB0B4806F07AFAA8690021A961E4E784
:1046800007480499818081688919816003990175BF
:104690009AE70000902600C02C0600005C40000451
:1046A000F85902C000A6008048480004FEB54669DB
:1046B0000400707E317E00020843010907073F0FA6
:1046C000019109D1F078400706D470783178000262
:1046D0000843A0802000FEBDA088202803D92038F0
:1046E0000004000C00E000200090544800780128ED
:1046F00007D1002F07D06189E088032200F0B0FBCA
:1047000052E0002F30D14D4D0020287068690028FC
:104710000CD102E0012004F0EDFB00227D2148488D
:1047200009010AF0F1FA00286861F3D043484069B2
:1047300023F0CEFC434806F019FA4048414940694D
:1047400020220860018945183E49280020308860F1
:10475000310028000DF090FD3B480068374949685A
:1047600040183849C86032E0364D0198A988814226
:1047700054510B15010000009037000000020000AA
:1047800016AC48D30AD128680622018909180C31D1
:1047900030000C30FCF738FF002811D02C4D686930
:1047A0000AF0F6FA6189E088032200F063FB2A48E8
:1047B00006F0E6F901202870002068610020FEBDA7
:1047C0002868290002898518087D401CB842E5D177
:1047D0006878297800020143009840182870000A80
:1047E00068700098002806D01B4831008068009A45
:1047F00020310DF04BFD1848009A816889188160BE
:10480000F178490720D4009800280AD168782978DF
:10481000202200020843A188511A401A2870000A79
:104820006870687829780A4D000208436969032294
:1048300088806189E08800F01DFB074806F0A0F938
:10484000686900216961FEBD0199818007755CE797
:10485000902600C05C400004F85902C000A6008009
:10486000F7B515008AB00A9A08001268089200226B
:10487000002D029211D020300990FDF7DBF80400E2
:10488000C078400603D4089880880DB0F0BD6078E9
:10489000217800020843482801D80020F5E72000CD
:1048A000203001786B461973417859738178997378
:1048B000C1788E093101891B4F19797B002903D0FA
:1048C00010220121029100E008220021D21E94460C
:1048D00005E07A18927B03AB5B18491CDA706145DE
:1048E000F7D3E178490705D4617E227E090211439E
:1048F00009071AD00898029A330003A9FFF71CFE93
:10490000040003D10A9800210160C6E70A980460F8
:10491000208909990019FDF79FF84178007809026C
:104920000843A080012007903AE002990194009189
:104930006178227803AB09020A43443A011D01F071
:104940008DF90028079017D0200006F08BF96078C9
:1049500021780002084308382070000A6070089827
:104960000899808808388880A879800718D5A87A9F
:10497000FD210840A87213E00A48B1000C18343435
:10498000815028EF010000008C3900000002000077
:10499000D1B54A8E2000FDF757F8401C2100FDF7E5
:1049A00065F80998FDF750F83B000E33029A310084
:1049B00007F002F8079872E74848000470B5050050
:1049C0001FF0ECFF0026F64300281FD068792979F4
:1049D00000020843441915F00BFE002803D1A08AF9
:1049E0002200163202E0A08922000E3208498842D5
:1049F0000CD12100A01D05F042FB002806D0280A9A
:104A00000002001D06F05CF8002070BD300070BD93
:104A1000888E000030B543680022002B0DD1CA609B
:104A2000016041604968002903D0017A491C017284
:104A300030BD417A491C417230BD4B68002B04D116
:104A4000CA604268D1604160F3E7057A02680024D9
:104A5000230002E01400D2685B1C9D42FADC002CAB
:104A6000CA6001D10160E0E7002AE160DDD1416068
:104A7000DBE70000024880680006000E7047000077
:104A8000E42500C0034841680122920211434160BD
:104A90007047000000A00090024A012180001150E0
:104AA00070470000E0460004F8B5040000780D00EF
:104AB00000264106490E3700009117F0B9FF009912
:104AC0000E2908D36169E269914204D98E1AA1695D
:104AD000B14200D2771AA1687618E1687F1817F002
:104AE000ACFF002E40D0642078433100FDF788FCF5
:104AF000002228600098FF2112F08AF8B04205D801
:104B000000220098FF2112F06BF826E000220098A6
:104B1000FF2112F085F8B04205D800220098FF214D
:104B200012F066F80BE000220098FF2112F068F8FE
:104B3000B04208D800220098FF2112F049F82968F5
:104B4000884211D80CE020697D21C90088420BD32E
:104B500000220098FF2112F03BF82968884201D812
:104B60000020F8BD0120F8BD0220F8BD01004A690F
:104B7000C96980688A4201D9511A4018704701708A
:104B8000002141608160C160016141618161C16159
:104B90008E0E8BC801000000883B00000002000060
:104BA000255DF433704701697D22D200914201D224
:104BB0000A310161704770B502780B7E5406D50941
:104BC0004268640ED21842600A19203252784E7D33
:104BD000ED011300A64205D1897E002902D05B1E9B
:104BE0001B061B0E002D03D0012A01D90122130040
:104BF000C168C918C160816889188160100070BDE2
:104C0000F7B5050014008CB0282101A8FCF752FE6E
:104C100008AB5A7D21002700A4317C37102D01A854
:104C200011D102246B469C8004241207DC8004D539
:104C300006212A00D980390003E005226B46DA807C
:104C40001022801D30E0202D31D101266B469E8040
:104C50000426DE802C4B2D4E6B4412076E440B93C2
:104C600011D506216B46D98010223900801DFCF732
:104C700015FD2100082294313000FCF70FFD0822B9
:104C800021008C310FE005226B46DA801022801D56
:104C9000FCF704FD21000822BC313000FCF7FEFCCB
:104CA00008222100B4310B98FCF7F8FC24E00D2D0C
:104CB00001D0052D25D1002604206B469E80D8808A
:104CC000120703A80CD52A003900FCF7BFFD6B467C
:104CD000D98802200843D88001209E72D8720BE048
:104CE0002A00FCF7B3FD6B46D88801210843C03485
:104CF000D88060899872DE726B4601A81D8112F01F
:104D00009BFB0FB0F0BD0000220000001A00000065
:104D1000F8B50D4E07000D0000242001315C01297B
:104D20000AD180194178A94206D1C01C0622390057
:104D3000FCF77EFC002804D0641C2406240E022C00
:104D4000EBD32000F8BD000040470004F8B50F4C3D
:104D50000F4B00201025020001015E5C012E08D1DE
:104D6000CE185A54F2602168B7782E00BE40B14385
:104D70002160401C0006000E0228EDD320680121AE
:104D800009058843206006F0B1FDF8BDC0AA008087
:104D900040470004F8B50E4F002514266E43B85D59
:104DA000C2CAAD7001000000843D00000002000096
:104DB0003CA52A4301280DD1F419E0780EF006FB3A
:104DC0000020B855E060E078FFF7C0F9E178A078FE
:104DD00015F036FE6D1C2D062D0E022DE7D306F0C4
:104DE0008FFDF8BD1847000470B5094D002426005A
:104DF000282060432958002904D02E504019001D56
:104E000007F0C4FA641C2406240E042CF0D370BDF1
:104E1000C45202C0F3B583B00498039E0024050673
:104E20002D1611E00298874207D23000FCF720FED1
:104E300002000299380002F0EDFF641C24062416DB
:104E40000C21614303980E1830000830FCF710FE67
:104E50000700301DFCF70CFE874202901AD8049818
:104E60008442DFDD16E00C21694303980E18300000
:104E7000FCF7FEFD0700301DFCF7FAFD0190300045
:104E80000830FCF7F5FD01993A0005F039FF6D1E79
:104E90002D062D16AC42E6DD05B0F0BD0349884273
:104EA00001D100207047012070470000184902C05E
:104EB000F7B5070082B00498242358431E494618CA
:104EC00017F0CAFD01901D4805692805C40D039916
:104ED000049A380002F082FF194B0127FF071EE0F9
:104EE0007069E1004018426800211160195531696C
:104EF000491EA14209D1F168ED430901394301601E
:104F0000012000030540002409E0B16808350901CB
:104F10003943ED04641CED0C2404240C0160185D7D
:104F20000028DDD128040499000C15F0DFFE01985B
:104F300017F097FD05B0F0BD00D201C080A300803E
:104F4000B0D301C0FEB506000022FF2147489131D1
:104F500009F002FF040001D10120FEBD15F0FAFAAC
:104F60000004000C0827208105190F212800A781C3
:104F7000FCF7D6FC0F20287100206871380AAF7149
:104F80003B4F2C00E8710F340622B9682000FCF773
:104F90008FFB0622F968A01DFCF78AFB3548002725
:104FA0002073000A607330796B46A07401975879BA
:104FB000C884B34F01000000803F000000020000E1
:104FC000C84D94FEB179C0084907C000490F084395
:104FD00058711879032108431871E07458792075C5
:104FE000300067750930A775FCF74CFD21001731BB
:104FF000FCF75AFD30000D30FCF744FD21001B3159
:10500000FCF752FD202120001F30FCF793FC1021FB
:1050100020003F30FCF78EFC082120004F30FCF7C9
:1050200089FC082120005730FCF784FC2300603302
:10503000380ADF73187420005F210E30040001F07D
:105040001DF9187CD97B000208430102000A0843BD
:10505000D873000A18746B46587963214207520FBF
:1050600020000092094A1023FEF73BFE7120A87031
:105070000020E870280015F09DFA0020FEBD000019
:1050800084400004381100C0888E00005C8F01C08D
:10509000F3B506000022FF215948913183B009F091
:1050A00065FE040002D1012005B0F0BD15F05CFAE8
:1050B0000004000C0827208105190F212800A78172
:1050C000FCF738FC0F20287100206871380AAF7196
:1050D000E8714C482C0081680F3406222000FCF750
:1050E000F1FA48480622C168A01DFCF7EBFA4648D1
:1050F0006B462073000A60733079A07400206075DD
:10510000A0750290587AB179C0084907C000490FCC
:10511000084338435872187A012108431872E07422
:10512000587A207530000930FCF7ACFC21001731AB
:10513000FCF7BAFC30000D30FCF7A4FC21001B3159
:10514000FCF7B2FC04992022203120001F30FCF72C
:10515000B9FA102120003F30FCF7ECFB08212000B9
:105160004F30FCF7E7FB082120005730FCF7E2FB4B
:10517000A07C012814D023488168C26820007130C7
:10518000012308F0BDF8002804D020006030817CA5
:10519000891C02E0002120006030C173090A0174FB
:1051A00020006030017C0300C07B090208435F30AF
:1051B0000604360C200031000E30040001F05EF8C9
:1051C00001EAA2C5010000007C41000000020000CD
:1051D0002D1AC9F9197CD87B090208430102000A7B
:1051E0000143D973090A19746B46587A4207520F62
:1051F000301D0104090C20000092094A1023FEF71B
:105200007AFD1236300AAE70E870280015F0DCF92D
:10521000002053E784400004381100C0888E00004D
:105220005C8F01C0FEB506000022FF214D48913180
:1052300009F0A6FD040001D10120FEBD15F09EF984
:105240000004000C08212081A18105190F212800EC
:10525000FCF77AFB0F202871002068710820A871E4
:105260000020414F2C00E8710F340622B96820005D
:10527000FCF732FA0622F968A01DFCF72DFA3B482C
:1052800000272073000A607330796B46A074019781
:105290005879B179C0084907C000490F084308216F
:1052A00008435871187901210843FD2118710840FD
:1052B00071798907C90F490008431871E07458795A
:1052C0002075380A6775A07530000930FCF7E4FBDB
:1052D00021001731FCF7F2FB30000D30FCF7DCFB4E
:1052E00021001B31FCF7EAFB202120001F30FCF7D6
:1052F0002BFB102120003F30FCF726FB082120006B
:105300004F30FCF721FB082120005730FCF71CFB35
:1053100023006033380ADF73187420005F210E30D9
:10532000040000F0B5FF187CD97B0002084301029D
:10533000000A0843D873000A18746B465879632131
:105340004207520F20000092094A1023FEF7D3FCB7
:105350007120A8700020E870280015F035F90020B1
:10536000FEBD000084400004381100C0888E00009B
:105370005C8F01C00200080010B51100FFF7E6FCC9
:10538000022804D2034900014018C06810BD002063
:10539000C04310BD40470004F8B5114D06000F0092
:1053A000002414206043295C01290AD1411948785E
:1053B000B04206D1091D06223800FCF757F9002833
:1053C00004D0641C2406240E022CEAD3022C01D142
:1053D000CD6F97A10100000078430000000200009B
:1053E000D9F27744E01EF8BD142060434019C0682C
:1053F000F8BD0000184700040200002010B5C905E0
:1054000008D4100015F084FD0006000E0FF0D2FA4B
:105410000004000C10BD00B515F0C0FE0FF0CAFA74
:1054200000BD70B5050088071600800F012801D166
:105430001E2400E0182423F027F9002800D0A41C23
:10544000A419241D0E2D0ED328000FF0C1FA0A2135
:10545000FDF708F80004810BE0001530FDF702F8B5
:10546000800032301BE0052D0ED328000FF0B0FA7B
:105470000A21FCF7F7FF0004810BE0001530FCF770
:10548000F1FF80001E300AE028000FF0A1FA0104AD
:1054900050206043090C401EFCF7E4FFC1300A3085
:1054A0000004000C70BD00000148C0887047000077
:1054B000301200C010B5064B102400201A682100DD
:1054C00081400A4202D0401C0228F7D310BD0000E0
:1054D000C0AA008010B5064B002001241A682100E4
:1054E00081400A4202D0401C0228F7D310BD0000C0
:1054F000C0AA008010B5072101700021040041708E
:10550000801C12F0B5FF002806D0811EA170090A88
:10551000801C0006000EE17010BD10B51C00FFF7E6
:1055200080FF00190004000C10BDF8B506000D0046
:1055300017000024C80505D429003000FFF75CFFE0
:105540004004040C3A0029003000FFF76AFF0019FC
:105550000004000CF8BDF8B505000E001700FFF7B9
:105560005AFF04003A0031002800FFF7D6FF001967
:105570000004000CF8BD000024235843114930B545
:105580004018C16905690B05DC0D01236D1E1B0365
:10559000A54213D0140AE4000919C904C90C120663
:1055A000C16101D1C16903E00831C904C90CC161FD
:1055B0000A052924120D2401A24201D98B43C3619B
:1055C000C06930BD00D201C024235843F0B513494F
:1055D0004018C16944690905C90DCA000669A318C4
:1055E0009F20B6E6010000007445000000020000A4
:1055F000C00AA9340022751E1B6801273F053B40E5
:105600008D4205D1C1693F128F430021C76105E07A
:10561000C7690837FF04FF0C491CC761002B05D17F
:10562000CB001B19521C96428161E5D2C069F0BDC6
:1056300000D201C008490020282242438A58002A8B
:1056400004D1012228234343CA507047401C00065E
:10565000000E0428F0D37047C45202C0FFB5154FA6
:10566000002481B014266643B85D012818D1F519CD
:1056700068780299884213D1281D01990622FCF707
:1056800009F800280CD114206043C019C078039990
:105690000870A978049801700020B855E86004E00B
:1056A000641C2406240E022CDCD306F051F905B04C
:1056B000F0BD000018470004F8B50F000400150005
:1056C000002648211000FCF727F941E06178881C8A
:1056D000B8423FDC20782D2847D010DC05283CD08C
:1056E00007DC002837D0012839D003282BD12C62C1
:1056F00029E0062837D02A2825D1EC6223E04A2861
:1057000039D008DC32282CD03D2831D048281AD195
:10571000A01CE86317E07F2830D0DD2813D10729CB
:1057200011D3092F0FDBA01C00F022FF012828D085
:10573000022828D0042806D1B0004019761C042E77
:10574000046100DB03266078A41C3F1ABF1E2418E6
:10575000002FBBD1F8BD2C60F5E76C60F3E76C62FD
:10576000F1E7AC62EFE72C63EDE7A01C6863EAE7C2
:10577000A01CA863E7E7A01C2864E4E7A01C6864F9
:10578000E1E7AC60DFE7EC60DDE70000F8B5114E63
:105790000700002418256543705D00280AD11820F1
:1057A00060438019401C06223900FBF7A9FF012045
:1057B00070550CE0A819401C06223900FBF76AFF5F
:1057C000002804D0641C2406240E042CE2D32000FC
:1057D000F8BD0000404F0004F0B51F4D04680022E2
:1057E000012693001819C778FF43BF0618D14778E0
:1057F000490C062E01000000704700000002000066
:1058000034E21789FF2F15D18078FF2812D1A869BB
:10581000002802D0EB69002B26D1002905D0EB69C6
:10582000002B02D1501C287219E0084317D1501CDC
:10583000A87114E0E05C904211D1002905D0E8691C
:10584000002802D1EE612A7206E0A869084301D15E
:10585000AE61AA71002901D06A7200E0EA71521C9F
:105860001206120E152AC6D90120F0BD141500C06B
:10587000F0B524238E46584300218C462349401816
:10588000C1690905CA0D82614169D3005B18012114
:10589000090324E01C68A50201D5E4072ED10469A0
:1058A000641E94420BD1C26801241201E407224312
:1058B0001A60C3690A009A43C26100220BE084683F
:1058C00001252401ED072C431C60C3690833DB0468
:1058D000DB0C521CC3614369D4001B198261C4698B
:1058E000056A26052F05360D3F0DBE42D2D10C406C
:1058F0000D40AC42CED06146012904D1C069714649
:1059000008805868F0BD0020F0BD000000D201C042
:1059100038B50020009003F025FF002819D00400BE
:10592000006A694611F070FD012803D0606A05F035
:105930000DF9F0E7009A002AF8D0D079022807D1B3
:10594000210020002430FDF74BFF0028EED038BDA9
:10595000FEE703F01DFF0028F9D00A490860016D39
:105960004A780B7812021A43103A0A70120A4A70E7
:105970000188036E006D4A07520F0021FEF78CFD6F
:1059800038BD0000541300C0094A0021481E4B00D6
:10599000D35C002B05D10123480013548018C05656
:1059A0007047491C0906090E0229F0D37047000010
:1059B000641100C01B4A527893061B4AD27920D446
:1059C0001A4BDB6980335B68002B1CD04B1E022B0B
:1059D00002D80E2812D107E001280DD00B2801D1E2
:1059E0000E200CE00E2801D10C2008E0042903D081
:1059F000082901D00C2901D10F2000E0102090428D
:105A0000F438EA84010000006C4900000002000044
:105A1000F3FB15D400DB10007047431E0E2B00D3A0
:105A2000012003010748C018401820381023C05631
:105A30009042F0DA0200EEE75C4D0004141500C05D
:105A400010530004F41700C00200054805494078CF
:105A50008306887902D40E2A00D1087A70470000A4
:105A60005C4D0004141500C010B507F047FF10BDD1
:105A700010B50400FF20002C0AD0012C0CD0022C01
:105A800001D0032C03D1190010000CF076FA10BDE0
:105A900008000CF082FA10BD08000CF057FA10BD97
:105AA0000200080010B5110007F03AFF10BD000019
:105AB000FFB5414F040081B000210A9D0B9E38685C
:105AC000C94303F079F93100280000F039FB07F0F1
:105AD000F9FA3A4E00203060F06AB06A306B20006C
