:1000000001000000000000040002000024B3398B4E
:10001000011014F552025A04085A060832071475E2
:10002000720132081ACD08320F1AF90832101AB5C7
:100030000832111A5D08022716021F01234A0928F7
:100040000E6307630786074A098607EB0E6881314E
:100050001E680744096914915AAA015AEE018BFEE1
:10006000FF01480A7FBFDFEFF7FBFDFC7E085A7EE9
:1000700078041559AF02080B14706F6F6C5F6964D8
:100080005F7478A8B00E4944305F424C4B5F504FCC
:100090004F4C307CFC081C3C0A17723C0A14313C63
:1000A0007B07043C0C15736D653C0A14333C8A03D2
:1000B0003C8B6D6C3DA9DE0C144944343CBB010300
:1000C0001CAA311C8B0402940F1163616E62756669
:1000D000940A1435587B09013C6C636D643BD93C30
:1000E0000B1230363D8BFC0778193C3D72657370FE
:1000F00040C93C09133B193C7A033C0C15657674E6
:10010000780A14373C117A063C5E726D6C6D653E60
:10011000C93C0A15397889F06D656E637279C93CFE
:100120000B133132F0031B0202ABFFFF461344A056
:100130001B804C041A54041A5C041A64041A6C04DC
:100140001A74041A7C041A34041A3C041A1C041A83
:1001500024041A2C041A14041A40041A48041A50CD
:10016000041A58041A60041A68041A70041A7804ED
:100170001A30041A38041A18041A20041A28041A07
:100180001004163A010201DF12D512D012381234CF
:1001900012301A2C023A2802011612082B0401CE42
:1001A0003A05063A06061A0706123C3A160C3A17A2
:1001B000063A26063A27063A28063A290604112462
:1001C00001101A491AD2321203022601131F1F1BF3
:1001D000FFFF93021A084B2823044B941108237045
:1001E000178BB80B042364191AC87F232C4C239057
:1001F000652358982320CB2384E44BE8FD3023BCAF
:100200003423786923349E23F0D214686595839053
:1002100001000000FC0100043C0100007AEDAC7418
:100220003C0114E0A501149CDA0114580F0223F1DB
:100230000423E30923D50E23C61323AA1D238D27E8
:100240001B7E2C4022315A8F209AC71C23543B23FB
:100250001A4F23FD581BE16264111E78010A041431
:10026000CA181068049C06D008380DA011701A40F6
:1002700023A82C3023C6048C09520E1813A41C305A
:1002800026F62ABC2F6804EA09D413BE1DA8277CD1
:100290003B504F3A5924633201193E1A08041A1090
:1002A000045A18041A28041A30041A38041A40048C
:1002B0001A48041A50041A58045A60041A01041AFD
:1002C00009041A11041A19041A21041A29041A31EA
:1002D000041A39041B05490422481A0D041A15048E
:1002E0001A1D041A25041A2D041A35041A3D041384
:1002F00084281BC080041A7C045A78041A58041AF3
:1003000054041A50041A4C041A48041A44041A409B
:10031000045A3C041A1C041A18041A14041A10046F
:100320001A0C041A08041A040411190413DC271BFC
:10033000C0D8041AD4041AD0041ACC041AC8041A57
:10034000C4041AC0041ABC044A0E0120080F10117C
:1003500012131415000000005D89FE8101000000E9
:10036000001100C000020000A63C20377847C046BC
:1003700000C09FE51CFF2FE1DDCC01007847C0469F
:1003800000C09FE51CFF2FE1E7CC010010B5FFF78F
:10039000EDFF084A084C022111606168074B1940C3
:1003A000074BC91861601168491E1160FBD2FFF745
:1003B000E5FF10BD801300C040200080C327FFFF71
:1003C00014480000C100231E4D617276656C6C20DC
:1003D0004669726D776172652053444B2056657291
:1003E00073696F6E20322E332E3004154DAF025AD2
:1003F00054187201DA0F0441100F0A14376EDC0B27
:100400000F0A0E090D080C0768090102030405060E
:100410000720092A03016A0701EA080129272F0397
:10042000050507070901890839075B09097B2AFFC8
:100430000102440A02250569F0014C3CF552027E96
:1004400014AD730229CB1A9508021F0CD812706FD5
:100450006F6C5F69645F6369706865724275669C02
:10046000980F494431315F424C4B5F504F4F4C30F5
:1004700038119202890AA14B5DAF1645FEFFFFFFBE
:10048000190739088103360A04699C13381C42C0D5
:100490001AD0081AB4041AEC045AF814D13023FF05
:1004A00003020101FF0707060605050404FF0B0A06
:1004B0000A09090808080F0F0E0E0D0D0C0C0C0789
:1004C0000E22223303120A10190869203307100A7A
:1004D0001026082A08201A240829100A11280809B9
:1004E0001D20714B6C20BC5A9C080912FA12021A8A
:1004F00003021A05021A07027A0902491E992A19EB
:100500000D1E010102040109490CE9041C02050247
:10051000DF1F02120204021258390CE9041C020502
:1005200003081A03241A0324490CE904035C020596
:100530003AFF0189DCA9E4091734200B07070703F8
:10054000020303010103100B070607070405070256
:100550000307200C0108050708030408010208A985
:100560000C320F32073202194C6D54D901000000D1
:10057000FC1200C000020000FC472F3ED4091F0CF3
:10058000A9309A100C0A15110C092E300A2D0E0CE8
:100590000922B409FD0C095B0C5E0F1212120F0147
:1005A0001A0E0139102C1010100489102B1111048F
:1005B000095E101A0D01A98029101A0E1029282988
:1005C000013920591C091604DA0C0131843338F939
:1005D00029F211E3F4014B550111023F801202127E
:1005E0000B32041209129C1A1A4E122712AB12294E
:1005F0001203122C12011240129A12451283126F2A
:1006000012311A026F140301121405010B1419019F
:1006100036141C010F141E01291422015214250145
:10062000EF144201C81A4394144501E6144C011A10
:100630001450010614510116146E01440415FFFFF5
:10064000FF1A3776125412613C3B015424290423CB
:100650000C9010230C908E3A0E9F1C730E9FAAAC28
:100660000E9038E50E90C71D109F5556109FE38FD2
:10067000109071C8129F180F01129F8E3A12901C91
:10068000731290AAAC14342027F81F6277F81FE584
:10069000BFF8106908F810EC51FA1F6F98FA1FF2B2
:1006A000E1FA107628FA10F971FC1F7CB9FC1018D9
:1006B00057FC108349FE1F0691FE1F89DAFE10C405
:1006C000EDA81F8001A81FD8E5A81031C8A8108A7E
:1006D000ACA810E38FAA1F3C73AA1F9556AA1FEE61
:1006E0003AAA10471DAA10A001AA10F8E5AC1F51A4
:1006F000C8AC1FAAACAC108001A010CCCEA21F22A7
:1007000023A21F7778A21F0C1A100C1A100C1918AC
:100710001AA4181AA4181AA4181AA4181AA4181A91
:10072000A41827A61F999B862018168620471D8689
:10073000208E3A8620D556881F1C73881F638F88A9
:1007400058180A881FF1C8881038E58860180E8884
:1007500010C71D8A1F0E3A8A1F55568AB818267C64
:100760002FB13C7C2FF2E17C2034847C2076287CE5
:1007700020B7CC7C20F9717E33BE24B40100000088
:10078000F81400C00002000031332C702F3B157E9E
:100790002F7CB97E2FBE5D7E5C18647E2041A57ED5
:1007A0002083497E20C4ED802F6277542FC00154EE
:1007B0002FEC73542018E554204556542071C8542A
:1007C000209E3A5420CAAC5420F71D562F238F5632
:1007D0002F5001562F7C73562FA8E5562FD556560D
:1007E00020400150206667502091125020BBBD5020
:1007F00020E667522F1112522F3BBD522F660C1A62
:10080000910C1ABB0C19181A20181A201819301735
:100810005220CCCE581A1BC090041AC80411121BC7
:100820001BC038041A70041AA8041AE00432041217
:100830002C12011245128323020114190136146E81
:1008400001440461FFFFFF14030109141C010C148F
:100850001E0118141F0120142501FF3C4501E77CEF
:100860001C0301121C1A0F1C1A291C1A301C1AEF27
:100870001C3AE61C1C1E013A209A240C3A2D0C232B
:10088000822F2382201A83081A83081A84081A8464
:10089000081A85081A85081B8A1F0422101A8B085B
:1008A0001A8B081A8C081A8C081A8D081A8D081AC7
:1008B0008E081A8E081A8F0814901F40149010404A
:1008C0001A91081A91081A9208147B2FC01A7B48B3
:1008D0001B7B200C1320C01A7C58147C2F401A7CE0
:1008E000141A7D0C1A7E201A7E0C1A7E1C1A7F1098
:1008F0001A7F0C1C81208098190419081A83081A81
:1009000084041A85041C8A1F80881A80841A8080B7
:100910001A807C1A80741AC0703AC0CC300F02045E
:100920000B160C1218243048606C2C90351E1E08D3
:100930000F0213023208122D12B5122F126D123A45
:1009400012071245120B12461264124712ED12489A
:10095000125112501A260612C0125B12031A5D04BD
:10096000126112A01A6204126B12D9126C12D81200
:100970007C1218128112A732A632A912AE1260128E
:10098000E412871AF72612F831A2F23901000000AA
:10099000F41600C00002000011574FF3126E12FB54
:1009A000127B142001411446018014470160144950
:1009B0000120144D01321452019014530153145567
:1009C00001071458012C1A5904145C0140145D01EC
:1009D0005C1A6008146801381476010D1A77301417
:1009E0007801251479018C147C014C147D01A01A26
:1009F0007E04147F01C614CF01BE14D001B31404C9
:100A000002C41406022B14180298141B02C5145AAF
:100A10000289145B0207146802201A6A041AB8F9E2
:100A200014AE02291AAF040419FFFFFF127C123022
:100A3000128012021C7401024812B50C13A90203A1
:100A40003032AF32B032B132B212B312FE12B4123F
:100A5000FA12B512F312B612EA12B712E312B81272
:100A6000E212B912F532BA12BB120912BC121612F6
:100A7000BD122712BE123812BF124912C0125712ED
:100A8000C1126112C2126412C3120412C412421AB9
:100A9000C5161AC64E12C73AF7780910681AFD68CB
:100AA0001AF7681AED681AE1681AD8681AD5685AF0
:100AB000F0681A0D681A20681A37681A50681A68A0
:100AC000521A7C681A89685A8E681AAB681A386894
:100AD0001A40685A09681AFF681AFE681AFF681AED
:100AE00003681A0C681A17681A20681A20681A1105
:100AF000681AF4681AE7681AD9681AEB681AF46871
:100B00001A07681A23681A44681A62681A78681AF9
:100B100080681A22681A28681A8E681A8568122452
:100B200012E43A876C32081A47C01A4BA0125512C9
:100B300054325712861AA9A2125212FA123012FB1C
:100B4000127B3C4A012D2C411A08021A450412F866
:100B50001A6C1C12F614200139144D013314530180
:100B6000631A70743C72014A2C590429011F202118
:100B7000FFFF2223095A241189011A2525180C2662
:100B8000FF01FF27FF02FF28FF03121E04FF29FFBA
:100B90000508FE06FF2AFF07034F93B5010000007A
:100BA000F01800C000020000AF1A375B30091001D6
:100BB0001E08FF2BFF09081E0AFF2CFF0B081E0C46
:100BC000FF2DFF0D081E0EFF2EFF0F081E10FF2F1A
:100BD000FF11086A12311E13FF30FF14081E15FFA3
:100BE00031FF1608FA1753180B18191AFF1B1C1D92
:100BF000FFFF1E0D0A211F8409190101451206106D
:100C00000803030406040507100809010702080683
:100C100005120B12101214121612201228122C1286
:100C2000401250126A128032A014FDCB011491526E
:100C30000214411B011AB1041A6904041DC1770290
:100C4000092EA61B051E3419350223C032073203B4
:100C500029822904080E1E0F0F0F0D0B1110100D05
:100C60000B12111105392839325C0E0E0E051A0CC3
:100C700001180F0B0E0D0D0C0B100E0E0C0B120F9E
:100C80000F055B10100A3914391E89052A24052A1C
:100C900028052A2C052A30052A342D2A38052A3C15
:100CA000052A40052A64052A68052A6C052A70056C
:100CB0002A74052A78052A7C052A80052A84052AB3
:100CC00088052A8C052A95732A99052A9D052AA14B
:100CD000052AA5052A08052A0C0539962A22052A7F
:100CE00026052A2A052A2E052AB8052ABC052AC067
:100CF000052AC40539AF39AA39A539A0399B3996D7
:100D00003991398C3987397D397831145515B51CAD
:100D10003313B5081AF50812F51AB10C14B911B548
:100D2000147B09F5148808F514D809A714DC08A762
:100D300014BD04E71A4404149006A714E805A71488
:100D40002903E714D802E714EC04991A6E04145E20
:100D500002D91A22041448039914F4029914940134
:100D6000D91A6C041A760C1A3704142F01C91A11F7
:100D7000041A300C14F801991A0D0C12F23AC90C2D
:100D80001AC504290C1ADA043D28080755045A48E4
:100D900004D9103D38080677045A4804D9103D4854
:100DA000080599045A480409C9B7A02D010000009C
:100DB000EC1A00C0EC01000038CC392C3D10015277
:100DC000121E038A2C01120503108813299F091E85
:100DD000A35924023008323C1E084302C0380409DB
:100DE0001E64011014A970021AD504145D72021A4F
:100DF000A5041ADB0451120A12C01A0E04F1634151
:100E00006363855D6345628B7959E0290829282948
:100E1000081AE12829081AC12829084BD15A0803C1
:100E20005A204E180A3F480C013D480C0235041A5E
:100E30002D041E25480D021D041E15480E020D042A
:100E400008091A05480F0205490F0F04180A3B0844
:100E500008013908080231041A29041E2108090270
:100E600019041E11080A0209040D1A01080B0F04C7
:100E70001E6008040258041E5008050248041E4063
:100E800008060238041E300807022804110C160850
:100E9000030F041E1808010210041977091B2829E2
:100EA00004091E88091E4001181312013202480E5F
:100EB0004086123C201331010203010A061212017E
:100EC0001409023C200801010480FA0904180A06EA
:100ED000FFFFFF05070501021E4C0705810719B832
:100EE00029074A82074A03072A830709143C22403C
:100EF000293C39074A02074A82074A03072A83071F
:100F000010080403090410034D12611272127612C4
:100F1000651A6C02DA3010122012571A6910290E65
:100F200012651A730212201A440A1A76161A6308F6
:100F300014220330091C020B10360342124C1241DA
:100F40001A4E081243126F126E1A662012671A7533
:100F50002412611A740C29140A192E361A49201AFF
:100F600074161A723A3A61862B2A03141A760E1AEC
:100F70006C361A64241A53221A720C1A6E5A4932A9
:100F80001A6428127832051390291BC094041AA4FD
:100F9000041AD4041AF604132C2A1BC05A040000A5
:100FA00000000000EBF371C9010000000000000028
:100FB000000200000447BA081CF09FE51CF09FE502
:100FC0001CF09FE51CF09FE51CF09FE51CF09FE5E1
:100FD0001CF09FE51CF09FE503290C262815000056
:100FE0000015000004150000081500000C15000095
:100FF000101500001415000021150000000000EA83
:10100000FC0200EA28008FE2000C90E800A08AE0D1
:1010100000B08BE001704AE20B005AE1F502000AD1
:101020000F00BAE814E04FE2010013E303F04710A9
:1010300013FF2FE1E8AE020078AF020001C08FE29B
:101040001CFF2FE18A18037801305C07640F01D17F
:10105000047801301D1101D105780130013C05D023
:10106000067801300E700131013CF9D11E0706D41B
:101070002E1C0ED0013E8C55FCD1491909E0047894
:1010800001300C1B0135267801340E700131013D11
:10109000F9D59142D7D37047102052E27800B0289A
:1010A0007800A128FBFFFF8A822EB0E13000B02833
:1010B0003000A12800409045004081451EFF2FE1EF
:1010C0000030A0E30040A0E30050A0E30060A0E3F4
:1010D000102052E27800A128FCFFFF8A822EB0E1A6
:1010E0003000A128003081451EFF2FE17847C0461F
:1010F00004309FE503308FE013FF2FE191120000D1
:101100007847C046203052E20400005A203062E2A4
:101110001112A0E1301381E11002A0E11EFF2FE1C6
:101120001013A0E10000A0E31EFF2FE17847C046A6
:1011300000402DE900E0A0E1920E8CE092C121E098
:10114000931E21E00040BDE81EFF2FE17847C04616
:1011500070402DE9A2CF93E10140A0E10050A0E151
:101160000060A0E31100001A020012E1CC00000AA6
:10117000A2C7B0E11060860212C6A0E1ACEBB0E1FC
:101180000CC4A00108608602ACEDB0E10CC2A00165
:1011900004608602ACEEB0E10CC1A00102608602E0
:1011A0002CEFB0E18CC0A00101608602170000EABC
:1011B000020113E3C8DD1F1E01000000FC01000056
:1011C00000020000C09265231200001AA3C7B0E11C
:1011D0001060860213C6A0E1ACEBB0E10CC4A00124
:1011E00008608602ACEDB0E10CC2A001046086028A
:1011F000ACEEB0E10CC1A001026086022CEFB0E1C0
:1012000001608602203066E28CC0A00132C38CE10E
:1012100012E6A0E14C0000EA03C0A0E102E0A0E178
:101220009C0000EA8C0054E10030A0E38C40442094
:10123000023083220C0054E10C4044200030B3E221
:10124000202086E2200052E300C06CE20300003A56
:10125000250F94E10540A0010050A0032020420288
:10126000100052E30010A0E30200003A2407B0E1AE
:101270000448A0011010810201E042E008005EE392
:101280000200003A240BB0E10444A00108108102DE
:10129000200061E2012042E0354084E11551A0E1E7
:1012A000010052E32000003A012042E2070002E27E
:1012B000070020E2800090E000F18FE00000A0E154
:1012C0000550B5E08440BCE004406C300550B5E00A
:1012D0008440BCE004406C300550B5E08440BCE084
:1012E00004406C300550B5E08440BCE004406C30F4
:1012F0000550B5E08440BCE004406C300550B5E0DA
:101300008440BCE004406C300550B5E08440BCE053
:1013100004406C300550B5E08440BCE0082042E257
:10132000020012E104406C30E4FFFF5A3426A0E1D1
:101330001246C4E10500B5E00410A4E0131681E0F4
:101340007040BDE80030A0E31EFF2FE10E0055E025
:101350000C10D4E00030A0E30050A0210140A021F7
:101360000030B3E20E0055E00C10D4E00050A02194
:101370000140A0210030B3E20E0055E00C10D4E093
:101380000140A0210050A0210030B3E200E07EE245
:1013900000C0ECE2100056E30010A0E30200003AA7
:1013A0002407B0E10448A00110108102012046E0AA
:1013B000080052E30200003A240BB0E10444A0010B
:1013C000081081025B657F1F01000000F803000028
:1013D00000020000347ADB9E200061E2012046E03A
:1013E000354084E11551A0E1010052E32000003AAC
:1013F000012042E2030002E2030060E2800090E08C
:1014000080F18FE00000A0E10550B5E00440B4E0B9
:101410000500BEE00410BCE00050A0210140A02166
:101420000550B5E00440B4E00500BEE00410BCE0A7
:101430000050A0210140A0210550B5E00440B4E0D7
:101440000500BEE00410BCE00050A0210140A02136
:101450000550B5E00440B4E00500BEE00410BCE077
:10146000042042E2020012E10050A0210140A0212C
:10147000E4FFFF5A3526A0E11256C5E10500B5E0AC
:101480000010A0E30010A1E213E6B0E13436A0E1C1
:101490001346C4E10010A1E2742682E10E0090E040
:1014A0007040BDE80010A1E21EFF2FE10E2055E0C4
:1014B0000C30D4E00520A0310430A0317040BDE8EC
:1014C0000010A0E30100A1E01EFF2FE17040BDE885
:1014D0000000A0E30010A0E3EC0100EAE0B5002664
:1014E00017B410008AB075290A9915A511D0C04605
:1014F000C046002802DA404212A508E00A9989692C
:101500008A0701D510A502E0490704D50FA50126D9
:1015100001E0C046C046002402AF04E000F070FCC9
:1015200030313955641C0028F8D12B0000960A98F8
:10153000220002A900F0AEFB0DB0F0BC08BC1847B9
:10154000000000002D0000002B0000002000000023
:101550000FB409491CB506AB6A467944009005985A
:1015600000F0EEFB04000020694600F003FC2000C0
:101570001CBC08BC04B0184717080000194930B457
:1015800017220A6036224A60174C184A0021030CC1
:101590008D001B185351164B491C5843001937290D
:1015A000F5DB30BC70470120E8E770B40D4C0F4DFF
:1015B0006068216883008E00EA58AE59491E401EBB
:1015C0009219EA5036230029216002DA6060236014
:1015D00003E00028D8310A9F01000000F405000054
:1015E000000200002D8205EE606000DA636070BCCE
:1015F0005000400870470000F41D00C0E119D66695
:10160000A8DF01C0CD0D010010B4042A0ED30300E1
:101610000B439B070AD108C810C9A34202D1121F6D
:10162000042AF8D2A34201D0001F091F002A02D1C8
:10163000002010BC7047D30701D0521C05E003788E
:101640000C78401C491CA34207D103780C78401C3D
:10165000491CA34201D1921EF1D1181BE9E70000F9
:101660007847C046FF3002E2032483E1022882E18A
:101670009D0000EA7847C046030052E32A00009A22
:1016800003C010E20800000A0130D1E402005CE36C
:101690000C2082E001C0D1940130C0E40130D1348B
:1016A00001C0C094042042E20130C034033011E292
:1016B0005C00000A042052E21B00003A03C031E73C
:1016C000020053E30800000A0F00008A2C34A0E156
:1016D00004C0B1E5042052E20C3C83E1043080E414
:1016E000F9FFFF2A011081E20F0000EA2C38A0E187
:1016F00004C0B1E5042052E20C3883E1043080E4F8
:10170000F9FFFF2A021081E2070000EA2C3CA0E169
:1017100004C0B1E5042052E20C3483E1043080E4DB
:10172000F9FFFF2A031081E20000A0E1822FB0E15F
:101730000130D12401C0D1240120D1440130C02482
:1017400001C0C0240120C0441EFF2FE17847C046DD
:10175000013050E003005221C6FFFF9A030052E31C
:10176000020080E0021081E02500009A030010E3EF
:10177000013071150120421201306015030010E3A1
:10178000FAFFFF1A033011E28C01000A042052E232
:101790001B00003A03C031E7020053E30800003A9F
:1017A0000F00008A0C38A0E104C031E5042052E2A9
:1017B0002C3883E1043020E5F9FFFF2A021081E292
:1017C0000F0000EA0C3CA0E104C031E5042052E225
:1017D0002C3483E1043020E5F9FFFF2A011081E277
:1017E000070000EA79309C2601000000F0070000A5
:1017F00000020000D96ABB530C34A0E104C031E5FB
:10180000042052E22C3C83E1043020E5F9FFFF2A5A
:10181000031081E20000A0E1822FB0E101307125C8
:1018200001C07125012051450130602501C06025AE
:10183000012040451EFF2FE17847C04610402DE9AA
:10184000202052E20500003A1850B1281850A02874
:101850001850B1281850A02820205222F9FFFF2A42
:1018600002CEB0E11850B1281850A0281800B14895
:101870001800A0481040BDE802CFB0E10430912428
:10188000043080241EFF2F01822FB0E1B230D1201E
:101890000120D144B230C0200120C0441EFF2FE1FE
:1018A0007847C0460020A0E300402DE9201051E217
:1018B0000230A0E102C0A0E102E0A0E10C50A028AB
:1018C0000C50A02820105122FBFFFF2A011EB0E17E
:1018D0000C50A0280C00A0480040BDE80111B0E168
:1018E000042080241EFF2F01B220C040010111E31B
:1018F0000120C0141EFF2FE17847C0460020A0E35E
:10190000040051E30700003A03C010E2E5FFFF0ABC
:1019100004C06CE202005CE30120C0140C1041E042
:10192000B220C0A0DFFFFFEA81CFB0E10120C024D8
:101930000120C0240120C0441EFF2FE103000B43FF
:10194000020070B49B0710D10F4CE50100E008C203
:1019500008C91E1B9E432E42F9D01906090E1170AC
:10196000521C00290DD01B0AF7E70C78491C531CA8
:10197000002C147005D00C78491C5A1C002C1C70CB
:10198000F3D170BC70470000010101017847C046E7
:1019900010402DE9030010E3030011030040A0E113
:1019A0000A00001A50E09FE5042052E2060000BA47
:1019B000043091E40EC043E003C0CCE18EC31CE0D0
:1019C00004308004F7FFFF0A041041E2042082E2A1
:1019D000012052E2050000BA0130D1E4000053E3D7
:1019E0000130C0E4F9FFFF1A0210A0E1C2FFFFEBD3
:1019F0000400A0E10481A87F01000000EC090000C0
:101A0000000200001E73B90E1040BDE81EFF2FE15A
:101A10000101010170B4441C06E00178401C00295A
:101A200002D1001B70BC70478107F6D10A4AD5016C
:101A300002C88E1A8E432E42FAD0001B0A0601D12C
:101A4000C01EEFE70A04120E01D1801EEAE7090268
:101A5000090EFBD1401EE5E7010101017847C046B0
:101A60000120D0E50010D0E50230D0E50300D0E53C
:101A7000021481E1031881E1000C81E11EFF2FE1D6
:101A80007847C0462024A0E10000C1E50120C1E55F
:101A90002028A0E10220C1E5202CA0E10320C1E51F
:101AA0001EFF2FE17847C04601C090E12100004AA7
:101AB000A0C071E00020A0E31A00003A20C271E04B
:101AC0000F00003A20C471E00100003A0030A0E3AA
:101AD000200000EAA0C371E0810340200220A2E0C0
:101AE00020C371E0010340200220A2E0A0C271E007
:101AF000810240200220A2E020C271E001024020C9
:101B00000220A2E0A0C171E0810140200220A2E0F9
:101B100020C171E0010140200220B2E0A0C071E0CC
:101B2000810040200220A2E0011050E00010A0310E
:101B30000200A2E01EFF2FE1022111E2001061422B
:101B4000403032E00000602220C271E01D00003A07
:101B500020C471E00F00003A0113A0E120C471E03D
:101B60003F2382E30B00003A0113A0E120C471E09F
:101B70003F2682E30700003A0113A0E120C471E090
:101B80003F2982E30113A0213F2C822300C071E290
:101B90001D00002A2113A021A0C371E08103402071
:101BA0000220A2E020C371E0010340200220A2E055
:101BB000A0C271E0810240200220A2E020C271E0B8
:101BC000010240200220A2E0A0C171E0810140207A
:101BD0000220A2E020C171E0010140200220B2E019
:101BE000EBFFFF2AA0C071E0810040200220A2E0AC
:101BF000011050E00010A0310200A2E0C33FB0E1AC
:101C000000006042BAE47CE801000000E80B00003C
:101C100000020000EA9B07B3001061221EFF2FE1C3
:101C20000000A0E32C0000EA7847C0460030A0E3A3
:101C30005CFDFFEA7847C0460120A0E1920081E008
:101C40001EFF2FE17847C04601C05EE50C0053E15E
:101C50000330DE370C30DE2783C08EE01CFF2FE11F
:101C6000004708471047184720472847304738475C
:101C7000B80100EB530100EB03002DE9B60100EBC6
:101C80000300BDE87B0100EB0F002DE9B50100EB7F
:101C90000F00BDE81CC09FE50FC08CE001001CE3F5
:101CA0000DE08F120FE0A0011CFF2FE101C08FE2B9
:101CB0001CFF2FE100F07BFA317A010001402DE991
:101CC000AC0100EB980200EB0140BDE8000000EA27
:101CD0000000E0E3690000EA1EFF2FE11EFF2FE194
:101CE0001EFF2FE1F0B504000FB48169150081B02B
:101CF000880604D5A06B10229143A16100E0012069
:101D00000027A84200DD471B0A98616B7A198018EA
:101D1000081A6063A069C00602D42000C046C0460D
:101D2000002609E00498616AE269805DFFF79AFF86
:101D3000E06B401C761CE0630A988642F2DBA069E7
:101D4000C0060BD52000C046C04607E0616AE269C4
:101D50003020FFF787FFE06B401CE06338007F1EF8
:101D60000028F3DC08E00298616AE269405DFFF751
:101D700079FFE06B401CE06328006D1E0028F2DC58
:101D80002000C046C04605B0F0BC08BC18470000A3
:101D90000FB591B00800079008481900784408ABC7
:101DA00005C300200C90064878440A9011A80B90B7
:101DB000684600F071F815B008BC1847E50300004C
:101DC000F90300000A681070521C0A607047000096
:101DD000013050E003005221A1FEFF9A020080E092
:101DE000030010E3021081E001307115012042125E
:101DF00001306015030010E3FAFFFF1A102052E2D1
:101E00000500003A10402DE9185031E9102052E247
:101E1000185020E9DC23AE8D01000000E40D000025
:101E200000020000F363D9C3FBFFFF2A1040BDE8A6
:101E3000823EB0E1081031290810202904303145D4
:101E400004302045030012E31EFF2F01822FB0E172
:101E5000B230712101205145B2306021012040454E
:101E60001EFF2FE17847C0460A1040E2200140E003
:101E7000200280E0200480E0200880E0A001A0E1B2
:101E8000002180E0821051E0010080520A1081425E
:101E90001EFF2FE10C109FE51800A0E3563412EF4F
:101EA0001EFF2FE148FEFFFF26000200F0B587B0BD
:101EB000C046C04604000D000020D6E0E06A076876
:101EC000049704E0E06AE16B0768491CE163A16ADA
:101ED000FFF7D1FE060001D0252EF3D10498B842B9
:101EE00005D03A00236A04992000FFF7C6FE002EB1
:101EF0006DD0A84F00267F44E06AA16AFFF7BBFEC1
:101F0000202808DB312806D2391820390978002921
:101F100001D00E43F0E70021A1630F0061632A287E
:101F20000FD101CDB90009194863E06AA16AFFF732
:101F3000A2FE012F20D1A16B002928DA20218E4397
:101F400025E0010030390A2914D2B80000190590A3
:101F50004163E06AA16AFFF78EFE010030390A2969
:101F600008D205990A23496B59434018059930381E
:101F70004863EEE7012F0AD02E2808D1E06AA16A53
:101F8000FFF779FE20210E437F1C022FC7DB616B18
:101F9000002903DA4942616301214E40F10701D073
:101FA00010218E43B10701D504218E436C2801D046
:101FB000682813D10700E06AA16AFFF75CFEB84207
:101FC00006D180206C2F00D0C000064316E089E0C7
:101FD00040216C2F00D089000E4313E04C2805D01F
:101FE0006A2803D0742801D07A280BD100214C280C
:101FF00003D080216A2800D000210E43E06AA16A44
:10200000FFF739FE6528A6616BD014DC4728FBD0AA
:1020100008DC002866D0412865D04528F4D0462841
:10202000F2D01CE0CB1D06DC01000000E00F000038
:1020300000020000078B677E582862D06128F5D027
:1020400063281ED064287BD013E06F2869D008DC99
:102050006628E3D06728E1D0692871D06E283ED089
:1020600007E070284DD073281CD0752868D07828D8
:1020700047D0616AE269FFF709FEE06B401CE0634C
:1020800026E70122700606D56B460020D88001CDD8
:1020900001A998800CE06B460020587001CD69467C
:1020A000187011E029680022D24370060BD52D1D4F
:1020B000206B002803D02000C046C04608E720005F
:1020C000C046C04604E72D1D206B002803D0200029
:1020D000C046C046FCE62000C046C046F8E6700593
:1020E00004D4F00502D4300600D4700602CD2000DE
:1020F000C046C046ECE636E051E042E001E01FE0B9
:102100000FE0310606D5ED1DED08ED002A0008357B
:102110000CCA01E004CD002301002000C046C046E7
:10212000D6E6300606D5ED1DED08ED002A0008358F
:102130000CCA01E004CD00232000C046C046C7E61B
:1021400031060AD5ED1D0100ED08ED002A00083525
:102150000CCA2000C046C046BAE604CD01002000EB
:10216000FFF7F8F9B4E6ED1D02ABED08ED0029002C
:10217000083506C906C30100200002AAC046C046B1
:10218000A6E6ED1D02ABED08ED002900083506C9F5
:1021900006C30100200002AAC046C04698E6E06BD4
:1021A00007B0F0BC08BC184786A0020070B5050057
:1021B0000C00160005E02078696AEA69641CFFF7E4
:1021C00065FDB442F7D370BC08BC184701684A1CCF
:1021D00002600878704710B5C046C0460400C0468B
:1021E000C046200000F0BCFA10BC08BC1847000034
:1021F0000E40A0E16A0000EB04E0A0E101402DE9FF
:102200007F0000EB0040A0E10140BDE813402DE954
:10221000121DA0E30100A0E3081084E5000084E59E
:102220001340BDE80010A0E1040084E50EF0A0E139
:1022300010402DE9954D1ACF01000000DC1100007F
:10224000000200007990C0CE03002DE9710000EB80
:102250000040A0E10300BDE8042094E50D30A0E1BA
:1022600000E082E003005EE1002081E50B00008ACF
:102270000E3093E0011A8EE26330A0E1071081E294
:102280000730C3E30710C1E3030051E10310A0814D
:10229000041084E51040BDE8020041E01EFF2FE17C
:1022A0000020A0E10000A0E30000A0E11040BDE894
:1022B0001EFF2FE101C08FE21CFF2FE1F0B585B0BA
:1022C000C046C04605000C0028F038FA00200294F1
:1022D0000195C046C046039001A8FEF761FF0400C7
:1022E0000D0001A8009303C81600C046C046C046B2
:1022F000C046FFF79EF900210800C046C04607000F
:1023000000F092F80490002107600800C046C04623
:10231000411C0498416000210800C046C0460100ED
:102320000498816000210800C046C046010004985E
:10233000C16000210800C046C04601000498016148
:10234000C046C046C046C046C046C046C046C0465D
:10235000C046C046C046C046C046C046C046C0464D
:10236000C046C046009B05B02000049C29003200F6
:10237000A646F0BC01B0704710B5C046C04600206C
:10238000C046C046C046C046C046C04610BC08BC99
:10239000184700001EFF2FE10000E0E30210E0E319
:1023A0001EFF2FE110402DE9230000EB1040BDE897
:1023B0001EFF2FE11EFF2FE10E50A0E1210000EBD8
:1023C00005E0A0E10050A0E10D10A0E10700C0E38E
:1023D00000D0A0E160D08DE20A30A0E120402DE9DC
:1023E000B32E00EB2040BDE80060A0E30070A0E346
:1023F00005C0A0E10080A0E300B0A0E3C009ACE804
:102400000710C1E3C009ACE8C009ACE8C009ACE8FA
:1024100001D0A0E11EFF2FE104009FE51EFF2FE188
:102420001EFF2FE194E001C07847C04604009FE5FD
:102430001EFF2FE11EFF2FE1A4E001C01EFF2FE1D0
:1024400010B410BCBAB197F801000000D813000016
:10245000000200008D787E737047000000009FE549
:102460001EFF2FE184E001C004009FE51EFF2FE165
:102470001EFF2FE188E001C07847C04620C271E00E
:102480000020A0E3B7FDFF3A20C471E0A9FDFF3AA8
:102490000030A0E3C8FDFFEA913082E00300A0E134
:1024A0000210A0E11EFF2FE100A0004768129FE587
:1024B000CC219FE5DB00A0E300F021E1021081E0E8
:1024C0000310C1E3041041E201D0A0E100A0A0E3A9
:1024D00000B0A0E3AC219FE5D200A0E300F021E131
:1024E000021081E00310C1E3041041E201D0A0E139
:1024F000D300A0E300F021E180319FE5001083E5E7
:1025000078119FE5000091E5040080E280119FE5CD
:1025100080319FE570219FE5000081E5002083E583
:10252000020080E070119FE50020A0E3002081E51B
:1025300058219FE5000082E5E0219FE5E0019FE54D
:102540002C0082E53F00A0E3300082E50900A0E313
:10255000000082E50B10A0E3101082E50130A0E33B
:10256000243082E5283082E5B8219FE51030A0E3D1
:10257000083082E5B0019FE5100F01EE1EFF2FE14C
:102580000EF0B0E10EF0B0E1FEFFFFEAFEFFFFEA61
:10259000FEFFFFEA7D0000EA01F00CFE6448004700
:1025A000F34612F0E7FC000084019FE584119FE5EB
:1025B000001080E580019FE5001090E564619FE5D3
:1025C0000235A0E3083186E570019FE5100F01EEAA
:1025D0006CF19FE5900F07EE1EFF2FE164019FE570
:1025E0000010E0E3001080E55C019FE55C119FE5D1
:1025F000001080E558019FE5001090E5081081E388
:10260000001080E5001090E5081011E2FCFFFF0AC1
:10261000900F07EE1EFF2FE1100F11EE1EFF2FE1AE
:10262000100F01EE1EFF2FE1010050E2FDFFFF1A27
:102630001EFF2FE11C019FE51C119FE5F720A0E381
:10264000040081E4012042E20000A0E3040081E4F0
:10265000012052E24CD1174601000000D4150000C1
:10266000000200009480A003FCFFFF1A00019FE518
:1026700000119FE5001080E5FC009FE5FC109FE540
:10268000001080E5F8009FE5F8109FE5001080E558
:102690001EFF2FE15C5E000410000000000400003B
:1026A00000040000145D0004345D0004385D000483
:1026B0003C5D000401C05EE50C0053E10330DE37F1
:1026C0000C30DE2783C08EE01CFF2FE10E30A0E12E
:1026D000B4E09FE51EFF2FE110B49E46042A0ED3FE
:1026E000031C0B439B070AD108C810C9A34202D19F
:1026F000043A042AF8D2A34201D004380439002A4B
:1027000002D1002010BC7047D30701D5013205E08B
:1027100003780C7801310130A34207D103780C789B
:1027200001310130A34201D1023AF1D1181BE9E78E
:102730004CB9020000300080FFF900000028008042
:102740007C1F0000194CF0030C20008023387E50C1
:1027500000600090741F0000440000000C280080FE
:102760000828008002004000C4200080F0F0F0F053
:10277000245C0004D85C000429140000DC5C000424
:1027800059550200E05C00041915000045160000D0
:1027900000C09FE51CFF2FE10D1300007847C046E5
:1027A0005EFDFFEA04F01FE5244DF0037847C046C4
:1027B0008CFFFFEA7847C04600C09FE51CFF2FE171
:1027C000FD4EF0037847C04600C09FE51CFF2FE197
:1027D0001144F0037847C04600C09FE51CFF2FE17D
:1027E0005145F0037847C04600C09FE51CFF2FE12C
:1027F0005947F0037847C04600C09FE51CFF2FE112
:102800009D45F0037847C04600C09FE51CFF2FE1BF
:10281000D11DF0037847C04600C09FE51CFF2FE1A3
:10282000951FF0037847C04600C09FE51CFF2FE1CD
:10283000C91FF0037847C04600C09FE51CFF2FE189
:10284000D51EF0037847C04600C09FE51CFF2FE16E
:102850009913F0037847C04600C09FE51CFF2FE1A5
:102860000110F003A5AB2EA801000000D017000056
:102870000002000060681EBE7847C04600C09FE5A9
:102880001CFF2FE1C916F0037847C04600C09FE542
:102890001CFF2FE11513F0037847C04600C09FE5E9
:1028A0001CFF2FE1F514F0037847C04600C09FE5F8
:1028B0001CFF2FE13911F0037847C04600C09FE5A7
:1028C0001CFF2FE17515F0037847C04600C09FE557
:1028D0001CFF2FE1C111F0037847C04600C09FE5FF
:1028E0001CFF2FE1C531F0037847C04600C09FE5CB
:1028F0001CFF2FE1D536F0037847C04600C09FE5A6
:102900001CFF2FE1C538F0037847C04600C09FE5A3
:102910001CFF2FE1653CF0037847C04600C09FE5EF
:102920001CFF2FE1613BF0037847C04600C09FE5E4
:102930001CFF2FE12D3DF0037847C04600C09FE506
:102940001CFF2FE1993EF0037847C0463FFFFFEAA6
:102950007847C04600C09FE51CFF2FE12D41F003E2
:102960007847C04600C09FE51CFF2FE1813FF00380
:102970007847C04600C09FE51CFF2FE10D41F003E2
:102980007847C04600C09FE51CFF2FE10D3EF003D5
:102990007847C04600C09FE51CFF2FE1211100C011
:1029A0007847C0462CFFFFEA7847C04600C09FE545
:1029B0001CFF2FE13D2BF0037847C04600C09FE588
:1029C0001CFF2FE1E541F0037847C04600C09FE5BA
:1029D0001CFF2FE1994DF00330B50120400289B072
:1029E0000BF06EF905003F48002101603E48026887
:1029F000012A2BD101603D483D4C0068C178490750
:102A00000AD420680AF0A0F9002860D120680021CB
:102A1000006D18F02BFF5AE041780278203009024F
:102A200011434018C01C80088000417802780902D8
:102A3000114310390170090A417021680B6E098831
:102A40004A07520F002101F009FD42E029480268BF
:102A5000012A3CD1016028482422446A01006846CA
:102A6000FEF73AFF280707D524480168491C016092
:102A7000200008F078A4B35F01000000CC1900002A
:102A800000020000A7711CE31FF82AE00898807973
:102A9000C00708D11F4800688179890703D5817A6A
:102AA000FD221140817220890019606108984178E7
:102AB000007809020843089910380870000A487025
:102AC000A08800212038A080200001F035FE0028D9
:102AD00007D00400694606F04FFE2000694625F045
:102AE00045FD02F001FF0C490868032212029043E1
:102AF000086009B030BD0000F4AF0200F8AF02007A
:102B0000FCAF0200D41300C000B002005C3000042F
:102B1000042700C004B0020000A00090417B007BAD
:102B200009020843000601D50120704700207047C4
:102B300010B5174C2268521C2260164A00235268B6
:102B4000FEF786FB61681000FFF7B4FC142800D381
:102B50001320410009190A89521C1204120C0A811F
:102B6000218E490009190989914200D220862068E6
:102B70000321890388420AD34008206000204100D5
:102B800009190A89401C520814280A81F7D310BD7C
:102B900024DF01C0A8E101C0054900200A68642AB9
:102BA00004D9088E49684843800A800270470000B3
:102BB00024DF01C010B507483421FEF7CBFE0648DC
:102BC00014214068FFF776FC024948600349002061
:102BD000886110BD24DF01C0A8E101C030E201C05E
:102BE000F3B50E008BB019F0A7FA0490059117F019
:102BF0000CFF029000200390964800690500FF300A
:102C0000EC30FEF77BFF04002800FF30E730FEF7D2
:102C100075FF002808D00923F1560723F05608F065
:102C2000B9F901F0DFF903E00723F05601F0CDF91F
:102C30000006000E012207900B98032122F02CFEC3
:102C400007000B98002512300A9042E0512068439B
:102C500000190E30FEF752FF801C0A990622FEF77B
:102C600037FD002834D15120684324180E34002F3A
:102C700003D0B8780299884211D076480069FF30B5
:102C8000E730FEF7EED2F2FF01000000C81B0000A3
:102C9000000200005399A25E3BFF050001002000E6
:102CA00018F0FAF9010007982A0018F00AFA00282B
:102CB00016D00723F05601F092F905002000FEF728
:102CC00027FF09230572F1560723F05608F06CF927
:102CD00001F092F908222073201D04A9FEF738FDA7
:102CE0000DB0F0BD6D1C207BA842B9D80B9841787F
:102CF000007809020D000543403D002F03D10298E2
:102D0000ED1C03900CE0B9780298814208D0564837
:102D1000C1680069CB00591A4018407A8007DFD596
:102D2000280009300004000C089027E009980028CA
:102D3000D6D04D480069FF30E730FEF7E9FE0100CC
:102D4000200018F0B8F9070647483F0E0069FF3029
:102D5000E730FEF7DDFE512179430A190E320100FA
:102D60000190100018F098F90799019A18F0A9F944
:102D70000028B5D1390020001FF087FB207B099087
:102D8000617B8842D2D2201DFEF7C2FE0899471807
:102D900020000830FEF7BCFE8742C7D82000FEF7AF
:102DA000B7FE0700201DFEF7B3FE3F1838000930BC
:102DB000069008980622801E3870000A78700A99DA
:102DC000B81CFEF7C5FC0723F05601F008F938726D
:102DD0000B992A0006982031FEF7BAFC0698039951
:102DE0004019002905D00321017001214170039988
:102DF0008170207B5123584301190E313800FEF7B2
:102E000099FE207B512304A958430019123008224F
:102E1000FEF79EFC0923F1560723F05608F0C4F88C
:102E200001F0EAF8217B5123594309198876207B68
:102E3000584301190C48C2680069D3009A1A8018D7
:102E4000C2795123CA76217B007A59430919087740
:102E5000207B401C2073201DFEF75AFE0899401865
:102E6000211DFEF767FE3BE7C41500C00020704738
:102E700070B505000E0003F069FA012801D10020A9
:102E800070BD0B4C2068401C3821FEF765FE2820E1
:102E90004843001979D857C701000000C41D00003D
:102EA000000200004A617C2E2160C5622068282350
:102EB00058430019083024223100FEF753FC01204A
:102EC00070BD000084B0020070B5050003F07CFA0C
:102ED000012801D1002070BD054C2068401C1D2137
:102EE000FEF744FE8800001921608560012070BD56
:102EF00008B0020010B504000021084A001D17F0B8
:102F0000A1FA211D2000064A103017F09BFA211D5E
:102F10002000044A1C3017F095FA10BDA51E0000D1
:102F2000451E000049CC000070B504004A68080046
:102F3000916853680268260025001C3610350D2A5A
:102F400011D007DC521C0BD0092A1CD118000BF041
:102F500085FD03E0192A0ED0252A14D1290006E0A8
:102F60000BF022FC0EE008000BF0CEFB06E0200088
:102F700017F08CFA06E008000BF01EFC002801D1C7
:102F80003100F4E7002070BD10B50968491C03D179
:102F90000100103117F07AFA002010BD10B50400BE
:102FA0000021084A001D17F04DFA211D2000064A95
:102FB000103017F047FA211D2000044A1C3017F08A
:102FC00041FA10BD351F0000ED1E000091CC00003D
:102FD00010B504000800496802688B684968521CF3
:102FE00018D0082A13D0112A06D0142A13D111217F
:102FF00018000BF0A1FE0DE018000BF045FE0028B4
:1030000008D121001C31200017F040FA02E008002E
:103010000BF030FF002010BD10B50968491C03D12A
:103020000100103117F032FA002010BD70B5040015
:103030000E00002868D0002E66D00022FF21334801
:103040002D310CF041FD00285ED0022181815A22F1
:1030500075210A549C214518018135600600AB3664
:10306000F11F0020FEF770FD0F2129710021697109
:10307000E07AA17A00020143A970090AE97026F0FA
:1030800047FA002800D0207A2873687BF121400895
:10309000400008406873E07AA17A000202000A4307
:1030A00021000C31C65DC33701000000C01F0000C5
:1030B00000020000BE89C2933000FEF75DFB207B5A
:1030C000002813D1607B002810D1A07B00280DD1EF
:1030D000E07B00280AD1207C002807D1607C0028F2
:1030E00004D106220F493000FEF746FBA07C0028E1
:1030F00014D1E07C002811D1207D00280ED1607D04
:1031000000280BD1A07D002808D1E07D002805D142
:10311000054806220168B01DFEF72EFB70BD0000B9
:10312000BC010004403700044C1200C00F4910B528
:10313000002801D1012010BDCA7B8B7B12021A43EB
:103140000AD10021FF220170193241708270120AE7
:10315000C2700171417107E04A7B0B7B12021A4376
:10316000921D0831FEF708FB002010BD20E101C0D0
:10317000FEB50027194E3C00029782206043851956
:10318000E87BA97B0002084323D008222900684677
:10319000FEF7F2FA01990098002279405040084366
:1031A00017D1822060438019083002A9FFF748FF39
:1031B000E87BA97B7D2300020843DB005843C1174D
:1031C00008220191009028006946FEF7D5FA02987E
:1031D000FEBD641C012CD0D30020FEBD20E101C047
:1031E00000B500F001F800BD10B5064C002001004C
:1031F0008222424312190B0A401C91730128D37397
:10320000F6D310BD20E101C01CB5194C002804D133
:103210002100A0730C39E07323E0C17882780902A1
:1032200011430A00FF3A193A1FD141790279090284
:103230000A430100921D20000830FEF79DFAE07B52
:10324000A17B7D2300020843DB005843C1170822FD
:103250000191009020006946FEF78EFA0449044867
:103260000C39FEF77BFC00201CBD01201CBD0000BA
:1032700020E101C0F0B50026354F34008BB018F0C6
:1032800079FF082209910890391D6846FEF774FA03
:103290000898009A0999019B801A99410BD308223A
:1032A000391D02A8FEF768FA0898029A0999039B4B
:1032B000801A99410A5658EC01000000BC21000018
:1032C00000020000B656334E0CE00822391D04A857
:1032D000FEF75CFA04980599089A099BC043C94314
:1032E0008018594100237D22D200FDF7D9FF0D003F
:1032F0000690822060431B490C3140180A90C17B24
:10330000807B0902084321D00A99082204A8FEF70D
:103310003DFA04A807C82B00121A8B4110D20A9953
:10332000082204A8FEF732FA04A807C8801AA941A7
:10333000039102900A98082202A9FEF727FA05E0F5
:103340000A98082208A1FEF721FA0126641C012C24
:10335000CFD30822381D08A9FEF718FA30000BB0A9
:10336000F0BD000014E101C00000000000000000FA
:10337000F0B5040000782823214958430A588BB03F
:10338000012A3AD100220A50207A0826372700283D
:10339000E07909AD22D0611C02F030F8002804D099
:1033A000E079611C02F076FF21E0E07908AB0622AB
:1033B000611C1871681CFEF7E9F9207A08ABD87215
:1033C00001A81BF0CDFD049709980A9905906B465A
:1033D000069101A8DE811FF0B9F908E0611C01F037
:1033E000FBFF0028E1D0E079611C02F0F9FE237AAE
:1033F000E2796089611C08F025FB0BB0F0BD00008C
:10340000C44602C0F7B50700002634000D4920016C
:103410000A5C002A0ED04518E91C01980622FEF726
:103420007FF9002806D16878B84203D1A8780299BC
:1034300001260870641C2406240E022CE6D33000FA
:10344000FEBD000088330004F3B5070000263400F9
:1034500081B0142060430B490A5C002A0BD0451848
:10346000291D02980622FEF75BF9002803D168782F
:10347000B84200D10126641C2406240E022CE8D395
:103480003000FEBD6033000410B500280DD0074B9E
:10349000074A04E084788900C9180C60001D01887F
:1034A0009142F7D18478FF2CF4D110BD0010009028
:1034B000FFFF000010B5064C064B0022100000F084
:1034C0000BF89854B0BD4BE501000000B823000094
:1034D0000002000042BE8DF3521C1204120CA242E4
:1034E000F6D910BD1E03000024AF01C003498000BF
:1034F000401800680006000E7047000000100090A1
:10350000024A80008018016070470000001000909F
:10351000F0B54A680500D06896688BB003900868DB
:103520000F00290058310A9191492C00491909913D
:103530008F498034C91F49190891290064310791C6
:10354000483906913031059144311028049176D0E4
:1035500018DC062874D00ADC801C72D0012848D000
:1035600004286FD15068116821F04EFDF2E009285F
:1035700069D00A28F5D17F4800F0A0FD0022110093
:10358000032013E013285FD013DC11285DD012282C
:10359000E7D103980C30040017F08AFA0028E5D030
:1035A000E079A179220000020143082020F0C2FC4A
:1035B000CEE015284AD01B28D3D16E48401E00F01B
:1035C0007DFD3868FF22F032E06004983100FEF79C
:1035D000E7F8049817F0A8FD0028C7D109F0B6FB5A
:1035E000002841D0FF36E136B07A00283CD105985A
:1035F00097E0E96F0598814201D122F023FAE06853
:10360000002803D00006000E21F080F95A4819F076
:1036100045FF15F0ADFC0020E060012019F0EEFE42
:103620000321012019F026FF18F0BEFC01200CF048
:103630000FF82079002899D0E188504AB6E722E0B7
:1036400017E08AE092E019E03AE06DE003980C3070
:10365000040017F02DFA00287CD0E079A17922002F
:10366000000201430920A1E70599280016F02CFF6C
:1036700070E05068116821F0EFFD6BE05068116850
:1036800022F07CF966E0FF22F032E060049831001D
:10369000FEF786F807220898F11DFEF781F806224A
:1036A00009983100FEF77CF83100A32008220E3182
:1036B00080004019FEF774F8C82019F0EFFE2DE0E5
:1036C00001A821F081FF062209983100FEF768F871
:1036D0006B4618793558A66001000000B42500003B
:1036E000000200005B465383B17982078B07920F7B
:1036F0009B0F9A420FD100070907800F890F88425C
:1037000009D16B465879F179884204D13868310083
:1037100011F042FC28E03868FF22F032E0600498A3
:103720003100FEF747F807220898B11DFEF742F86E
:10373000012020720A9820600799A0E703980622CA
:103740000C3009990400FEF735F8039820F08AF947
:1037500038680006000E21F0E3F8200017F0B2F9F7
:10376000002801D006998AE700200BB0F0BD18F0C0
:10377000C3FB0321002019F087FE2868E867F3E700
:103780003800F2E78602000004080000DC050000B3
:10379000403700043EB500F093FA002824D10C22F3
:1037A000009204221548052310A105F069FA134878
:1037B000001F05F057F80124B122A402104821008F
:1037C000FDF7EEFF0F4900220FA06B4607C30B4821
:1037D000220008380A49072305F078FB002803D1A6
:1037E0001CF072FE00203EBD01203EBD43425072DF
:1037F0006F63534D454D736751000000982600C01C
:1038000060440004F1ED000043422050726F6300F9
:10381000094810B5C06905F0D3FB07480C22012107
:10382000283005F0E1FA04480C2200212C3005F084
:10383000DBFA0BF0E5FE10BD742600C00722010084
:10384000034810B5006A05F07FF8002010BD0000A5
:10385000742600C0F7B5066888B0099815002030B6
:10386000FEF788F9070020300400C078800608D5EC
:10387000B08810380004000CB08040380028079051
:1038800002DC00200BB0F0BD0998417B007B0902EF
:10389000084325F023FD2900303105902B00081F37
:1038A0000C33019002910693607821780002401851
:1038B0000490E079A1790002401861790002401873
:1038C00021790002091810480391466209992422BF
:1038D000FDF770FF0D49012008600D4908600D4893
:1038E00021000560FC93FCBC01000000B027000033
:1038F00000020000AFAEED3E059A07980092020468
:10390000120C069B380000F0DBFC0498029908803A
:103910000198039901600120BEE700005C300004BB
:10392000F4AF020000B0020004B0020000280BD087
:10393000002905D0202A01D116207047173200E057
:103940000E321006000E704710007047F7B5144F86
:10395000002428256543EE1931002036F078019ABD
:10396000904216D11D3100980622FDF7F7FE00287F
:103970000FD13079029988420BD17859002808D0AC
:1039800028206043C019001D08F0F8FE002078517F
:10399000FEBD641C2406240E042CDAD3FEBD0000F8
:1039A000C44602C0FEB5814F06000C00B8708048C6
:1039B0001500FFF787FD0E2C02D17E49802008609C
:1039C00002F020FB002802D07B48FFF77BFD01209E
:1039D0000BF0F4FC002E12D1022D05D0032D03D0E4
:1039E0000E2C01D1754808E07548407C8006800F98
:1039F000012801D1734800E07348FFF763FD2900F7
:103A000030000BF0A1FC7148B9698522012D0CD062
:103A1000022D01D0032D09D1002901D0052102E09A
:103A2000032D02D1C521016000E002606848816A6F
:103A30000222114381622A003100200019F0FCFCAF
:103A400001AA00922A003100200002AB19F086FC86
:103A500006F0DEFC290030001DF0B8FF300016F043
:103A600053FA0100302006F031FD06F069FC012018
:103A70001EF005F8002E1BD156480421022D08D156
:103A8000826911438161092C01D8641C56E0082425
:103A900054E08269032D07D111438161052C01D3C4
:103AA000E41E4BE0022449E08A438261641E45E043
:103AB000022D01D0032D41D1702C38D011DCA0078C
:103AC000800F26D1A310093BFEF748F913252527BF
:103AD000271515292915151515151515152F2F310C
:103AE0001500882C29D00CDC7C2C24D004DC742C10
:103AF0001FD0782C3CA22B0101000000AC29000053
:103B00000002000068B7EF631DD00CE0802C1CD0D1
:103B1000842C1CD007E0952C0DD0992C0BD09D2C1B
:103B20000BD0A12C09D0362412E0262410E02E243C
:103B30000EE03E240CE097240AE09F2408E066246F
:103B400006E06E2404E0762402E07E2400E0862471
:103B5000210030001DF09CFF210030001DF06AFFA5
:103B6000210030001DF0B0FF06F058FC1F4807216F
:103B700002694903002E07D18A43026101690522C7
:103B800052031143016114E08A4302610169032277
:103B9000520311430161012E0BD1124940390A6AC7
:103BA00033049A430B0C1A430A62114A4A62CA0D43
:103BB0008A6201690822114301610120FEBD0000F3
:103BC000C41100C0FC1D00C090130090081F00C06D
:103BD000002000C0B8D801C0301F00C0981F00C02E
:103BE0003010009000A8008080A10080C0A200805A
:103BF00002000002FFB51948012721C87F070E0007
:103C0000401C1D2181B0FDF7EDFF009121E013481C
:103C1000A90040188468208825F074FB0399884225
:103C200011D1049801280BD12000143005F0C8FCF4
:103C3000002808D0A0683843A0604034267702E00E
:103C4000A068B843F8E71D21681CFDF7CBFF0D0005
:103C50000099A942DBD105B0F0BD000008B0020018
:103C60000D490020142242438A5C012A0BD0401CDB
:103C70000006000E0228F5D3074900202831020172
:103C80008A5C012A01D101207047401C0006000E09
:103C90000228F4D300207047603300040348808872
:103CA0000349C004000F085C70470000002000803A
:103CB000102200C010B5002805D00021C1810121CB
:103CC00081810BF084FF10BD002210B505487021E2
:103CD0000BF036FF002803D00121C1810221818130
:103CE00010BD00003C1300C0F8B52E4A2E4B110049
:103CF00030310800203814F0BBF900280AD12B4AD3
:103D000029490092AC0AC44A01000000A82B000017
:103D1000000200009C5F51DE08222A482A4BE8314D
:103D200013F0AEFD002801D10120F8BDFFF7D6FF4A
:103D300005001026002818D02C001834502120002F
:103D4000FDF762FE002C0AD0E07A3043E072E07AA0
:103D500002210843E072E07A40084000E0722A0045
:103D600068321848290013F0EEFCFFF7B7FF050092
:103D700018D02C00183450212000FDF745FE002CEF
:103D80000AD0E07A3043E072E07A01210843E07221
:103D9000E07AFD210840E0722A00683209482900D3
:103DA00013F0D1FC0449094808310860080024F0E8
:103DB00065FE0020F8BD00002C1300C0003C00048C
:103DC000D7760000FCD101C0CD760000E19E000056
:103DD00010B502E0406A06F0D1FE05F0FBFC0028B9
:103DE000F8D110BD10B503E0006D002117F0A2FD61
:103DF00005F006FD0028F7D110BDFFB585B00E9F78
:103E000005980D00049114001E0010215130FDF79B
:103E100027FE022F0DD10599102251312300029265
:103E20000191012204A905A8009604F085FC09B0BF
:103E3000F0BD059A33001000513200922200290093
:103E400004F008FCF3E70000F8B5012100240903A1
:103E5000884201D10E240AE001214903884201D1A0
:103E6000072404E00121C902884200D11C241D4915
:103E7000FF220880411E0906090E521C511A4018E3
:103E8000FB3005042D0C02E0012005F0C5F81648B2
:103E90000BF0CBFE060015480BF0C7FE3618134892
:103EA00008210BF0EDFE8642EED1114E0022306863
:103EB000232115F098FD08F019FE0C4800F0D0F908
:103EC0000C480D4A05830100847608480B4B14F01A
:103ED000D9F804200090306824216A4615F083FD4B
:103EE000F8BD0000762600C0BC01000408010004F3
:103EF000581100C028010004142F0004002B00C03A
:103F0000F7B50D000600002186B00A0002A806C021
:103F1000019169807BD28B0101000000A42D00007B
:103F20000002000085A78FAEA878F321AC1C8008A2
:103F3000800008400830A87025F03AFB0028F0798E
:103F4000B1790CD000020843EA2803D1707B082124
:103F50000843707320780007000F80300AE00002E9
:103F60000843E92803D16078202108436070207855
:103F70000007000F2070707BC0070CD025F018FBE5
:103F80000028207803D00007000FC03002E00007AF
:103F9000000F403020706078EF21364F08403349E1
:103FA0000968497CC907C90E084360703048290078
:103FB000C07912310591891F012804912DD0022862
:103FC00017D0032849D106220899A81DFDF71AFC2D
:103FD0002749062204982039FDF714FC3968059812
:103FE0000622FDF70FFC60780221400840000843DC
:103FF00032E006220899A81DFDF704FC39680498F0
:104000000622FDF7FFFB1A49062205982039FDF725
:10401000F9FB6078400840001CE015490622203971
:10402000A81DFDF7EFFB396804980622FDF7EAFBAF
:10403000F179B07909020843E62803D10C49062238
:10404000203901E0089906220598FDF7DBFB60782E
:1040500001210843FD2108406070062228001A3023
:1040600002A9FDF7CFFB019809B0F0BD501200C0C6
:10407000603700044C1200C0002801DD002004E07D
:104080006521C943884200DA080040420006001654
:104090007047002801DD002004E06421C943884204
:1040A00000DA08004042000600167047662801DD6D
:1040B000662002E0002800DA0020000600167047A3
:1040C00070B50D0014F02EF9002823D019F0C8FEA9
:1040D0000600114811F092FB040015D00F4901228F
:1040E00008889203C004C00C80182071000A607117
:1040F0000888401C08802868A11DFDF775FD06484A
:10410000210014381CF099FD300019F0AEFE40205B
:10411000FFF7BCFB70BD000004CB01C0B81200C0AB
:1041200010B500216BDB034C01000000A02F000044
:1041300000020000714F31130FF08CF810BD000029
:1041400070B504000E0019F095FE31060500090E49
:10415000200000F073FE0400022818D20E4D00214A
:10416000200129544019C160807817F059FE0120C0
:1041700044402001285C002805D108490868012234
:1041800012059043086007F067FC012070BD28000D
:1041900019F075FE002070BD88330004C0AA0080AD
:1041A000FEB506000C0019F065FE05002100300088
:1041B00001AA6B4601F0B6FA280019F060FE6B46C2
:1041C0001879052801D0062842D127063F0E38006D
:1041D00025F006FA25F0FCF906006B46187911F077
:1041E00013FE6B461A79012528001A4C9040A169EC
:1041F0000842FCD0100000F051F86B46197918788D
:1042000017F092FE6B46187910F02AF96B46187970
:104210003A003100002303F047FF300011F0F4FDB5
:104220002900B140A0690142FCD06B4619783000EA
:1042300008F066FB6B461879310008F091FB3000FE
:1042400012F018FD6B46187912F014FD0120FEBD26
:104250000020FEBD40A2008010B5002911D00C0046
:104260000A00C034216ACC32814208D1002A06D02B
:104270001078022803D10348806814F005FC002060
:10428000206210BD8C1100C010B5C069406904F0F7
:10429000F1FC002800D0012010BD000030B5002145
:1042A000084C0B008200A150074C4A0015196D788C
:1042B000854200D1A354491C0906090E0229F4D3F2
:1042C00030BD000028330004B81100C070B50E489E
:1042D00004682006000F03D0E0208443102004432C
:1042E0000A4E00250BE0E00707D0A8003258002A4C
:1042F00003D021002800FDF769FD64086D1C002C27
:10430000F1D1002070BD000000280080DC2F0004E7
:10431000FFB506001900162785B02B480E9C002516
:1043200009F04CFE0798812100041030C9000843B1
:1043300025490839AC7672F2010000009C3100007A
:10434000000200000F5496A3486025F045F90028AC
:1043500009D0B0780107890F022904D10009082883
:1043600001D1182725002300079A310001A803F086
:1043700099FD1A4801A9383009F02AFE3A003100A7
:1043800001A803F057FD154801A9483009F020FEA7
:104390002A00310001A803F065FD104801A958303A
:1043A00009F016FE2200310001A803F023FD0B489E
:1043B00001A9203009F00CFE0849283608398E631F
:1043C0000698C863064802680123DB031A430260AB
:1043D0000A68012002430A6009B0F0BD08A00090FD
:1043E00000B10090FFB51100162785B028480E9D3A
:1043F000002609F0EDFD06984121254C0004090135
:104400004018083C6060606808218843606025F0BF
:10441000E3F8002801D018272E000599069A2B00F2
:1044200001A803F03FFD1A4801A9383009F0D0FD7A
:1044300005993A0001A803F0FDFC154801A9483090
:1044400009F0C6FD0599320001A803F00BFD1048E4
:1044500001A9583009F0BCFD05992A0001A803F014
:10446000C9FC0B4801A9203009F0B2FD0898A063EF
:1044700005982830E063074801680122D203114300
:1044800001602068012108432060002009B0F0BDD0
:1044900008A0009000B10090F8B5050000680F007A
:1044A00000901400002608002030FDF79FFBC27822
:1044B0000100530605D42948407B40074BD4012610
:1044C00049E080780009042801D00C2804D1BF20DD
:1044D00002400120CA70F8BD002C01D10020F8BDB7
:1044E0008879C007A07A1BD0C00734D0E0790128B2
:1044F00008D122003900684607F0B4FD0600009894
:10450000286028E022003900684600F05DFA0600C5
:1045100000982860E07901281DD119F065F81AE0AB
:10452000C00718D0E079012805D12200390068467B
:1045300007F098FD04E022003900684600F044FAD4
:10454000060000982025E73701000000983300009E
:1045500000020000FBBC281E286006D0A07980075E
:1045600003D5A07AFD210840A0723000F8BD0000FC
:1045700074390004F8B504001D4801210160416050
:104580008460E078402116000843E070188F002115
:104590001D0020842000203081702021C170686BB4
:1045A000606219F07BFC0700009660782178230098
:1045B000000228332A0001430C322000FFF71CFFC1
:1045C0000600607821780002084310302070000A4D
:1045D0006070380019F067FC288F401C0004000C44
:1045E000288702D1686B401C68633000F8BD00006A
:1045F000F4AF0200FEB505001400080021000C32E3
:104600001C316B4607C3290001262031238F626BC2
:10461000280001F045FB208F401C0004000C20877F
:1046200002D1606B401C60636878297800020843FF
:104630000C302870000A68703000FEBDF7B501210B
:1046400088B0079108218C4604218E461500002170
:10465000174B4032127A1C68260C6B461E73260AD2
:104660005E739C7313019B1A5E19737B002B02D03F
:104670001027012100E008270023FF1E07E0F4189F
:1046800003ADED18A47B5B1C1B061B0EEC70BB423C
:10469000F5DB0192099A00916146521A01007144BA
:1046A0002031203003AB01F007FC07980BB0F0BDC0
:1046B00000A60080FFB50400008985B00719787E48
:1046C000397E0002084301090007000F039004919E
:1046D0007878397800020843483806040398360C85
:1046E000002832D14F4DA86900280BD102E00120EB
:1046F00004F0BAFC4C494D4800220BF053FA002854
:10470000A861F4D04748806924F0D6FC484806F0F8
:10471000C7FA444846498069202208600189451843
:104720004349280020308860390028000EF010FE30
:10473000300040302870000A68703E4800683949EF
:10474000496809183A48C16019E0394908680028E1
:1047500002D002897C217C88010000009435000091
:1047600000020000E244F66E851805D16189E088F8
:10477000032200F047FC39E0087D0399401C884281
:1047800026D1687829780002084380192870000A29
:10479000687007992B4800910195321D3900806897
:1047A000069B243101F02EFB002822D108988100BD
:1047B00026480E1834363000FDF72CFA401C310024
:1047C000FDF73AFA0899079A069B280007F0D2F9F4
:1047D0006189E088032200F015FC174CA0690BF0FA
:1047E00032FA184806F066FA0020A061002009B0ED
:1047F000F0BD280006F01EFBF878400712D4687858
:1048000029780D4D00020843A96903228880618937
:10481000E08800F0F7FB0B4806F04CFAA86900218D
:10482000A961E4E70748049981808168891981605A
:10483000039901759AE70000582700C02C06000074
:1048400044010004F84D02C000A60080903400042A
:10485000FEB546690400707E317E000208430109FE
:1048600007073F0F019109D1F078400706D470780F
:10487000317800020843A0802000FEBDA0882028D7
:1048800003D920380004000C00E0002000905448B8
:104890000078012807D1002F07D06189E088032222
:1048A00000F0B0FB52E0002F30D14D4D00202870B9
:1048B000686900280CD102E0012004F0DFFB00222F
:1048C0007D21484809010BF077F900286861F3D091
:1048D0004348406924F0FAFB434806F0EBF94048AE
:1048E0004149406920220860018945183E49280055
:1048F00020308860310028000EF034FD3B4800680D
:104900003749496840183849C86032E0364D019847
:10491000A98881420AD128680622018909180C3128
:1049200030000C30FCF760FF002811D02C4D686976
:104930000BF089F96189E088032200F063FB2A48C3
:1049400006F0B8F901202870002068610020FEBD43
:104950002868290002898518087D401CB842E5D1E5
:1049600068782978B003CA01010000009037000080
:104970000002000016AC48D3000201430098401822
:104980002870000A68700098002806D01B48310083
:104990008068009A20310EF0EFFC1848009A816878
:1049A00089188160F178490720D4009800280AD13D
:1049B00068782978202200020843A188511A401AF9
:1049C0002870000A6870687829780A4D0002084348
:1049D0006969032288806189E08800F01DFB07482F
:1049E00006F072F9686900216961FEBD0199818054
:1049F00007755CE7582700C044010004F84D02C069
:104A000000A60080F7B515008AB00A9A080012685F
:104A100008920022002D029211D020300990FDF75B
:104A200003F90400C078400603D4089880880DB0CC
:104A3000F0BD6078217800020843482801D80020A2
:104A4000F5E72000203001786B46197341785973DF
:104A500081789973C1788E093101891B4F19797B4F
:104A6000002903D010220121029100E00822002138
:104A7000D21E944605E07A18927B03AB5B18491C62
:104A8000DA706145F7D3E178490705D4617E227E6B
:104A90000902114309071AD00898029A330003A9A2
:104AA000FFF71CFE040003D10A9800210160C6E74D
:104AB0000A980460208909990019FDF7C7F8417820
:104AC000007809020843A080012007903AE002998B
:104AD000019400916178227803AB09020A43443AB9
:104AE000011D01F099F90028079017D0200006F069
:104AF000ABF9607821780002084308382070000A7A
:104B0000607008980899808808388880A87980079C
:104B100018D5A87AFD210840A87213E00A48B10010
:104B20000C1834342000FDF77FF8401C2100FDF7FD
:104B30008DF80998FDF778F83B000E33029A3100A2
:104B400007F022F8079872E79034000470B505006A
:104B500020F0E4F80026F64300281FD06879297970
:104B600000020843441916F081FF002803D1A08AEF
:104B70002200163207BFE9F6010000008C39000060
:104B800000020000D1B54A8E02E0A08922000E3258
:104B9000084988420CD12100A01D05F016FB002811
:104BA00006D0280A0002001D06F02EF8002070BD75
:104BB000300070BD888E000030B543680022002BA5
:104BC0000DD1CA60016041604968002903D0017AB3
:104BD000491C017230BD417A491C417230BD4B689D
:104BE000002B04D1CA604268D1604160F3E7057AC6
:104BF00002680024230002E01400D2685B1C9D427E
:104C0000FADC002CCA6001D10160E0E7002AE16013
:104C1000DDD14160DBE70000024880680006000E3D
:104C200070470000AC2600C0034841680122920290
:104C3000114341607047000000A00090024A01212A
:104C4000800011507047000028330004F8B50400BC
:104C500000780D0000264106490E3700009119F03A
:104C60003BF900990E2908D36169E269914204D9A0
:104C70008E1AA169B14200D2771AA1687618E1684C
:104C80007F1819F02EF9002E40D0642078433100AF
:104C9000FDF7B0FC002228600098FF2113F0E4F932
:104CA000B04205D800220098FF2113F0C5F926E094
:104CB00000220098FF2113F0DFF9B04205D800224E
:104CC0000098FF2113F0C0F90BE000220098FF21AB
:104CD00013F0C2F9B04208D800220098FF2113F067
:104CE000A3F92968884211D80CE020697D21C90008
:104CF00088420BD300220098FF2113F095F9296810
:104D0000884201D80020F8BD0120F8BD0220F8BD7E
:104D100001004A69C96980688A4201D9511A40185C
:104D200070470170002141608160C1600161416193
:104D30008161C161704701697D22D200914201D237
:104D40000A310161704770B502780B7E5406D509AF
:104D50004268640ED21842600A19203252784E7DA1
:104D6000ED011300A64205D1897E002902D05B1E09
:104D70001B061B0E002D03D0012A01D901221300AE
:104D8000C168C9186B4ACEE501000000883B0000ED
:104D900000020000255DF433C160816889188160DC
:104DA000100070BDF7B5050014008CB0282101A8D3
:104DB000FCF77AFE08AB5A7D21002700A4317C372E
:104DC000102D01A811D102246B469C8004241207E7
:104DD000DC8004D506212A00D980390003E00522B1
:104DE0006B46DA801022801D30E0202D31D1012663
:104DF0006B469E800426DE802C4B2D4E6B441207A2
:104E00006E440B9311D506216B46D98010223900D0
:104E1000801DFCF73DFD2100082294313000FCF795
:104E200037FD082221008C310FE005226B46DA8025
:104E30001022801DFCF72CFD21000822BC3130001F
:104E4000FCF726FD08222100B4310B98FCF720FD69
:104E500024E00D2D01D0052D25D1002604206B4620
:104E60009E80D880120703A80CD52A003900FCF7D1
:104E7000E7FD6B46D98802200843D88001209E7246
:104E8000D8720BE02A00FCF7DBFD6B46D8880121C5
:104E90000843C034D88060899872DE726B4601A8DE
:104EA0001D8113F091FC0FB0F0BD00002200000046
:104EB0001A000000F8B50D4E07000D000024200177
:104EC000315C01290AD180194178A94206D1C01C60
:104ED00006223900FCF7A6FC002804D0641C240636
:104EE000240E022CEBD32000F8BD00008833000410
:104EF000F8B50F4C0F4B00201025020001015E5C3D
:104F0000012E08D1CE185A54F2602168B7782E00CD
:104F1000BE40B1432160401C0006000E0228EDD3C4
:104F20002068012109058843206006F0D1FDF8BD05
:104F3000C0AA008088330004F8B50E4F002514265F
:104F40006E43B85D01280DD1F419E0780FF094FAA2
:104F50000020B855E060E078FFF7DCF9E178A07850
:104F600016F0A4FF6D1C2D062D0E022DE7D306F0C2
:104F7000AFFDF8BD6033000470B5094D0024260074
:104F8000282060432958002904D02E504019001DC4
:104F900007F058FCBE990C5901000000843D000048
:104FA000000200003CA52A43641C2406240E042CA5
:104FB000F0D370BDC44602C0F3B583B00498039E1D
:104FC000002405062D1611E00298874207D2300012
:104FD000FCF748FE02000299380002F0DFFF641C73
:104FE000240624160C21614303980E183000083063
:104FF000FCF738FE0700301DFCF734FE87420290B4
:105000001AD804988442DFDD16E00C216943039826
:105010000E183000FCF726FE0700301DFCF722FEBC
:10502000019030000830FCF71DFE01993A0005F0B0
:1050300059FF6D1E2D062D16AC42E6DD05B0F0BD04
:105040000349884201D100207047012070470000C9
:10505000183D02C0F7B5070082B0049824235843D6
:105060001E49461818F04CFF01901D480569280597
:10507000C40D0399049A380002F074FF194B0127FC
:10508000FF071EE07069E1004018426800211160CE
:1050900019553169491EA14209D1F168ED43090151
:1050A00039430160012000030540002409E0B16894
:1050B000083509013943ED04641CED0C2404240C6B
:1050C0000160185D0028DDD128040499000C17F058
:1050D0004DF8019818F019FF05B0F0BD00E301C0CC
:1050E00080A30080B0E401C0FEB506000022FF21CD
:1050F000474891310AF088FD040001D10120FEBD2E
:1051000016F070FC0004000C0827208105190F21FF
:105110002800A781FCF7FEFC0F2028710020687191
:10512000380AAF713B4F2C00E8710F340622B96882
:105130002000FCF7B7FB0622F968A01DFCF7B2FBC4
:10514000354800272073000A607330796B46A074DD
:1051500001975879B179C0084907C000490F084341
:1051600058711879032108431871E0745879207533
:10517000300067750930A775FCF774FD2100173101
:10518000FCF782FD30000D30FCF76CFD21001B3177
:10519000FCF77AFD202120001F30FCF7BBFC10211A
:1051A00020003F30372234DE01000000803F000045
:1051B00000020000C84D94FEFCF7B6FC0821200058
:1051C0004F30FCF7B1FC082120005730FCF7ACFC55
:1051D00023006033380ADF73187420005F210E301B
:1051E000040001F029F9187CD97B00020843010270
:1051F000000A0843D873000A18746B465879632173
:105200004207520F20000092094A1023FEF759FE70
:105210007120A8700020E870280016F013FC002010
:10522000FEBD0000BC0100048C1100C0888E00008F
:105230005CAD01C0F3B506000022FF215948913151
:1052400083B00AF0EBFC040002D1012005B0F0BDF0
:1052500016F0D2FB0004000C0827208105190F214D
:105260002800A781FCF760FC0F20287100206871DE
:10527000380AAF71E8714C482C0081680F3406225F
:105280002000FCF719FB48480622C168A01DFCF766
:1052900013FB46486B462073000A60733079A07494
:1052A00000206075A0750290587AB179C00849074E
:1052B000C000490F084338435872187A0121084347
:1052C0001872E074587A207530000930FCF7D4FC6D
:1052D00021001731FCF7E2FC30000D30FCF7CCFC6C
:1052E00021001B31FCF7DAFC049920222031200038
:1052F0001F30FCF7E1FA102120003F30FCF714FCCE
:10530000082120004F30FCF70FFC08212000573007
:10531000FCF70AFCA07C012814D023488168C268ED
:1053200020007130012308F0EFFE002804D0200097
:105330006030817C891C02E0002120006030C17354
:10534000090A017420006030017C0300C07B09025F
:1053500008435F300604360C200031000E30040094
:1053600001F06AF8197CD87B090208430102000A9F
:105370000143D973090A19746B46587A4207520FD0
:10538000301D0104090C20000092094A1023FEF789
:1053900098FD1236300AAE70E870280016F052FB05
:1053A000002053E7BC0100048C1100C0888E00006F
:1053B0005CAD01C0C3F7E917010000007C410000AB
:1053C000000200002D1AC9F9FEB506000022FF21D7
:1053D0004D4891310AF02CFC040001D10120FEBDA2
:1053E00016F014FB0004000C08212081A18105198E
:1053F0000F212800FCF7A2FB0F2028710020687104
:105400000820A8710020414F2C00E8710F340622BB
:10541000B9682000FCF75AFA0622F968A01DFCF7CB
:1054200055FA3B4800272073000A607330796B46B9
:10543000A07401975879B179C0084907C000490F95
:105440000843082108435871187901210843FD21B8
:105450001871084071798907C90F4900084318710C
:10546000E07458792075380A6775A07530000930E6
:10547000FCF70CFC21001731FCF71AFC30000D3052
:10548000FCF704FC21001B31FCF712FC202120005A
:105490001F30FCF753FB102120003F30FCF74EFB80
:1054A000082120004F30FCF749FB0821200057302D
:1054B000FCF744FB23006033380ADF7318742000C4
:1054C0005F210E30040000F0C1FF187CD97B000280
:1054D00008430102000A0843D873000A18746B4697
:1054E000587963214207520F20000092094A102385
:1054F000FEF7F1FC7120A8700020E870280016F07B
:10550000ABFA0020FEBD0000BC0100048C1100C0FD
:10551000888E00005CAD01C00200080010B51100CB
:10552000FFF7E6FC022804D2034900014018C068D6
:1055300010BD0020C04310BD88330004F8B5114DE4
:1055400006000F00002414206043295C01290AD1C1
:1055500041194878B04206D1091D06223800FCF7EF
:105560007FF9002804D0641C2406240E022CEAD300
:10557000022C01D1E01EF8BD142060434019C06820
:10558000F8BD0000603300040200002010B5C9051A
:1055900008D4100016F0F2FE0006000E10F08AFA91
:1055A0000004000C10BD00B517F02EF810F082FAC0
:1055B00000BD70B5050088071600800F012801D1D5
:1055C0001E2400E0BFFDCD3F010000007843000035
:1055D00000020000D9F27744182424F057F800287C
:1055E00000D0A41CA419241D0E2D0ED3280010F0E9
:1055F00079FA0A21FDF730F80004810BE00015303C
:10560000FDF72AF8800032301BE0052D0ED328006C
:1056100010F068FA0A21FDF71FF80004810BE00082
:105620001530FDF719F880001E300AE0280010F050
:1056300059FA010450206043090C401EFDF70CF894
:10564000C1300A300004000C70BD00000148C08861
:1056500070470000881200C010B5064B10240020CF
:105660001A68210081400A4202D0401C0228F7D368
:1056700010BD0000C0AA008010B5064B0020012418
:105680001A68210081400A4202D0401C0228F7D348
:1056900010BD0000C0AA008010B5072101700021D4
:1056A00004004170801C14F033F9002806D0811EDC
:1056B000A170090A801C0006000EE17010BD10B533
:1056C0001C00FFF780FF00190004000C10BDF8B5A6
:1056D00006000D0017000024C80505D4290030007D
:1056E000FFF75CFF4004040C3A0029003000FFF78C
:1056F0006AFF00190004000CF8BDF8B505000E00A3
:105700001700FFF75AFF04003A0031002800FFF7A6
:10571000D6FF00190004000CF8BD000024235843F4
:10572000114930B54018C16905690B05DC0D01232D
:105730006D1E1B03A54213D0140AE4000919C90405
:10574000C90C1206C16101D1C16903E00831C90465
:10575000C90CC1610A05FF24120DB134A24201D95E
:105760008B43C361C06930BD00E301C024235843AB
:10577000F0B513494018C16944690905C90DCA004B
:105780000669A3180022751E1B6801273F053B40D0
:105790008D4205D1C1693F128F430021C76105E0E9
:1057A000C7690837FF04FF0C491CC761002B05D1EE
:1057B000CB001B19521C96428161E5D2C069F0BD35
:1057C00000E301C008490020282242438A58002AE9
:1057D00004D101225192750F0100000074450000B0
:1057E00000020000C00AA93428234343CA5070476E
:1057F000401C0006000E0428F0D37047C44602C0C7
:10580000FFB5154F002481B014266643B85D01280A
:1058100018D1F51968780299884213D1281D019989
:105820000622FCF731F800280CD114206043C0197F
:10583000C07803990870A978049801700020B855C1
:10584000E86004E0641C2406240E022CDCD306F07D
:1058500071F905B0F0BD000060330004F8B50F0029
:1058600004001500002648211000FCF74FF941E024
:105870006178881CB8423FDC20782D2847D010DCA6
:1058800005283CD007DC002837D0012839D0032870
:105890002BD12C6229E0062837D02A2825D1EC62AA
:1058A00023E04A2839D008DC32282CD03D2831D0DA
:1058B00048281AD1A01CE86317E07F2830D0DD28E3
:1058C00013D1072911D3092F0FDBA01C00F0F8FE1C
:1058D000012828D0022828D0042806D1B000401979
:1058E000761C042E046100DB03266078A41C3F1A9A
:1058F000BF1E2418002FBBD1F8BD2C60F5E76C60EB
:10590000F3E76C62F1E7AC62EFE72C63EDE7A01C14
:105910006863EAE7A01CA863E7E7A01C2864E4E743
:10592000A01C6864E1E7AC60DFE7EC60DDE7000045
:10593000F8B5114E0700002418256543705D002856
:105940000AD1182060438019401C06223900FBF759
:10595000D1FF012070550CE0A819401C0622390027
:10596000FBF792FF002804D0641C2406240E042CAC
:10597000E2D32000F8BD0000A03B0004F0B51F4DAD
:1059800004680022012693001819C778FF43BF0658
:1059900018D14778FF2F15D18078FF2812D1A86938
:1059A000002802D0EB69002B26D1002905D0EB6935
:1059B000002B02D1501C687219E0084317D1501C0B
:1059C000E87114E0E05C904211D1002905D0E8694B
:1059D000002802D1EE616A7206E0A869084301D18D
:1059E000AE61EA71E39FD4830100000070470000BC
:1059F0000002000034E21789002901D0AA7200E0F9
:105A00002A72521C1206120E152AC6D90120F0BDA8
:105A1000941500C0F0B524238E46584300218C46CF
:105A200023494018C1690905CA0D82614169D30043
:105A30005B180121090324E01C68A50201D5E407D5
:105A40002ED10469641E94420BD1C2680124120154
:105A5000E40722431A60C3690A009A43C261002224
:105A60000BE0846801252401ED072C431C60C36909
:105A70000833DB04DB0C521CC3614369D4001B19DF
:105A80008261C469056A26052F05360D3F0DBE42A9
:105A9000D2D10C400D40AC42CED06146012904D198
:105AA000C069714608805868F0BD0020F0BD000054
:105AB00000E301C038B50020009003F017FF002874
:105AC00019D00400006A694612F066FE012803D06E
:105AD000606A05F0DFF8F0E7009A002AF8D0D07984
