:1000000001000000000000040002000024B3398B4E
:10001000D91B020004000000D91B020006000000EA
:10002000D91B020007000000713A0100080000001F
:10003000B13A01000F000000DD3A0100100000009D
:100040000000000000000000706F6F6C5F69645F6B
:1000500074780000000000000000000001000000B3
:1000600000000000000000004944305F424C4B5F3C
:10007000504F4F4C30000000000000000000000016
:10008000FC070400706F6F6C5F69645F727800003A
:10009000000000000000000001000000000000005F
:1000A000000000004944315F424C4B5F504F4F4CC1
:1000B000300000000000000000000000FC07040009
:1000C000706F6F6C5F69645F736D650000000000A6
:1000D000000000000100000000000000000000001F
:1000E0004944335F424C4B5F504F4F4C300000004F
:1000F0000000000000000000FC030400706F6F6C43
:100100005F69645F6D6C6D650000000000000000B9
:100110000100000000000000000000004944345FBE
:10012000424C4B5F504F4F4C30000000000000002D
:1001300000000000FC010400706F6F6C5F69645F79
:100140007363616E627566000000000001000000CC
:1001500000000000000000004944355F424C4B5F46
:10016000504F4F4C30000000000000000000000025
:10017000FC090100706F6F6C5F69645F636D64629E
:100180007566000000000000010000000000000093
:10019000000000004944365F424C4B5F504F4F4CCB
:1001A000300000000000000000000000FC07030019
:1001B000706F6F6C5F69645F65767462756600006E
:1001C000000000000100000000000000000000002E
:1001D0004944375F424C4B5F504F4F4C300000005A
:1001E0000000000000000000FC010600706F6F6C52
:1001F0005F69645F726D6C6D65627566000000001A
:10020000010000000000000000000000087495AD2F
:1002100001000000FC01000464010000A5008988C1
:100220004944395F424C4B5F504F4F4C3000000007
:100230000000000000000000FC070100706F6F6C00
:100240005F69645F656E637262756600000000003E
:1002500001000000000000000000000049443132AD
:100260005F424C4B5F504F4F4C300000000000008D
:1002700000000000FC03020044A000804CA00080AD
:1002800054A000805CA0008064A000806CA000806E
:1002900074A000807CA0008034A000803CA000807E
:1002A0001CA0008024A000802CA0008014A000804E
:1002B00040A0008048A0008050A0008058A000808E
:1002C00060A0008068A0008070A0008078A00080FE
:1002D00030A0008038A0008018A0008020A00080FE
:1002E00028A0008010A000803A010201DF00D500A4
:1002F000D0003800340030002C002C0028002800EA
:100300002800260001080004010200000005010287
:10031000000000060102000000070102003C001678
:100320000102000000170102000000260102000087
:10033000002701020000002801020000002901023C
:100340000000002401100000000000000000000078
:10035000000000000000004901020032000000001F
:100360000000000000000100030007000F001F0054
:1003700023006300A300A301A302A306A30EA31EF0
:1003800038B3239401000000001000C000020000F8
:10039000E96B48267847C04600C09FE51CFF2FE167
:1003A000595C01007847C04600C09FE51CFF2FE163
:1003B000A15C01007847C04600C09FE51CFF2FE10B
:1003C000D11B02007847C04600C09FE51CFF2FE10B
:1003D0008D1B02007847C04600C09FE51CFF2FE13F
:1003E0000D4C01007847C04600C09FE51CFF2FE17F
:1003F0001D6D00007847C04600C09FE51CFF2FE13F
:10040000815C01007847C04600C09FE51CFF2FE1DA
:10041000611F02007847C04600C09FE51CFF2FE126
:10042000FD6001007847C04600C09FE51CFF2FE13A
:10043000416601007847C04600C09FE51CFF2FE1E0
:10044000696301007847C04600C09FE51CFF2FE1AB
:1004500031A400007847C04600C09FE51CFF2FE193
:1004600011A400007847C04600C09FE51CFF2FE1A3
:10047000E5A300007847C04604F01FE5C807000068
:100480007847C04600C09FE51CFF2FE14965010089
:100490007847C04600C09FE51CFF2FE149A400003B
:1004A0007847C04600C09FE51CFF2FE17D3D01005D
:1004B0007847C04600C09FE51CFF2FE16161010045
:1004C0007847C04600C09FE51CFF2FE12D32000099
:1004D0007847C04604F01FE56C0700007847C04627
:1004E00000C09FE51CFF2FE1099501007847C04639
:1004F00000C09FE51CFF2FE1159501007847C0461D
:1005000000C09FE51CFF2FE119CD00007847C046D1
:1005100000C09FE51CFF2FE1359801007847C046D9
:1005200000C09FE51CFF2FE1799801007847C04685
:1005300000C09FE51CFF2FE1E51A02007847C04686
:1005400000C09FE51CFF2FE1C91B0200B0B5041CD1
:1005500004300021051C084AFFF71CFF291C201C41
:100560001030064AFFF716FF291C201C1C30044AD5
:10057000FFF710FFB0BD0000391200C0F11100C03C
:10058000F11200C0B0B5041C081C49688A684968AB
:10059000A2AF404501000000FC1100C000020000B5
:1005A0002DBE970D05686B1C18D0072D13D0102D8C
:1005B00006D0132D13D11121101C00F001F90DE00C
:1005C000101C00F0A3F8002808D1211C1C31201CAD
:1005D000FFF7F2FE02E0081C00F090F90020B0BD29
:1005E00080B509684B1C03D1011C1031FFF7E4FEF4
:1005F000002080BD10B50A4C0A496068096888422D
:100600000BD02068FFF7E0FE2068FFF7E5FE002032
:10061000606105490120486010BD00F007F810BD79
:10062000C4C600C0BCC600C0F82100C0F0B5184D5B
:100630000026A868174F0130A8602969884211D3A5
:10064000E86800280ED10024AE60385DFF2802D093
:10065000012100F029FB01342406240E032CF4D3DD
:100660000120E860A8682969884210D3E868012859
:100670000DD10024AE60385DFF2802D0002100F0CB
:1006800013FB01342406240E032CF4D3EE60F0BDDA
:10069000C4C600C0F82100C070B5041C081C49681D
:1006A00042C90268531C0ED0251C1035052A02D001
:1006B000252A09D109E0081CFFF796FE301C00F03E
:1006C0003DF9012801D1002070BD291C201CFFF735
:1006D00073FEF8E7044880B507220121090300688A
:1006E000FFF78AFE002080BD24CE00C080B5002226
:1006F00025210548FFF788FEFFF78EFE0022022124
:10070000002000F021FA80BD8CEC00C0F8B5041C7C
:10071000FF205D30FFF788FE051C06D1221C012159
:10072000A07900F011FAE843F8BD231C0B22211C2C
:10073000281CFFF781FE00222A706A70A1791A4EE8
:10074000281C2030318001700B0A43700221718017
:10075000012181700B0AC37002714271062028705A
:10076000030A6B70281CFFF76FFE431C04D1221C88
:100770000121A07900F0E8F90B4C083460680028EA
:1007800004D03221201CFFF767FE0AE0201CFFF78F
:100790006BFE3222009200230121201C034AFFF746
:1007A000890A806001000000F81300C00002000008
:1007B000D95629B06BFE0020C0E70000E4CD00C090
:1007C0002D1300C080B5FFF731FE032000F0D6F9ED
:1007D000002080BDF8B5061CFF2000270D1C5D30F1
:1007E000FFF72CFE041C07D1C743002D02D00320C5
:1007F00000F0C4F9381CF8BD331C0C22311C201C3D
:10080000FFF724FE02202070030A6370B37B707B25
:10081000211C1B02184320310870030A600A4002A1
:1008200004304B700289612102810D54201CFFF7B6
:1008300015FE002DDED00B4DFF2468682D340028F6
:100840000AD1281CFFF71AFE00230121281C00945E
:10085000054AFFF71BFECDE7211C281CFFF706FE0B
:10086000C8E7000004CE00C0091400C0011C2031FC
:10087000B0B5CB788C78021C1B021C432030437827
:1008800000780C321B0218430006000E022C0B4DA0
:1008900007D00E21A980042100F060F90020C04398
:1008A000B0BD4B7909791B021943002900D101E041
:1008B000A980052100F052F90020B0BDE4CD00C0B0
:1008C000011C203110B58A78CB781B021A43022A0A
:1008D00013D00024E443042A0DD14B790979021C7A
:1008E0001B0219430C3200290AD0084881800521D7
:1008F000012000F033F9201C10BD00F07DF810BD80
:100900000021012000F02AF9002010BDE4CD00C034
:100910008CB5017843781B0219433039022902D281
:100920000020C0438CBD011C20314B780978062281
:100930001B02194300ABD980011C0C316846FFF73C
:10094000ADFD12216846FFF7AFFD0020EAE7000089
:10095000F8B5041C2034061C20786378254F002548
:100960001B021843ED43083F0028224903D0012809
:1009700001D080281DD13A88904206D1E378A07832
:100980007A881B021843904201D0012530E0081CF0
:10099000FFF792FD207863781B021843012803D1EA
:1009A000301CFFF78DFF02E0301CFFF75FFF051CD6
:1009B0002824D32701000000F41500C00002000025
:1009C000C0AEF7C01EE0081CFFF780FD20796379F8
:1009D000321C0C321B021843002808D0B880207843
:1009E00063781B0218430006000E052108E00D2065
:1009F000B880207863781B0218430006000E04219B
:100A000000F0B6F8281CF8BDECCD00C0FEB5061C01
:100A10002036071C307973793D1C0C351B021843B6
:100A2000002804D0504A90802A1C052107E0FF20AE
:100A30005D30FFF70DFD041C05D12A1C01210120AA
:100A400000F096F875E02B1C0B22291C201CFFF7E8
:100A500007FD0025257065702379E07840211B0291
:100A600018430843E070030A2371201C012124303D
:100A700001700B0A4370637821783B4A1B021943CB
:100A8000023121700B0A63700421518003218170AF
:100A90000B0AC370637821781B021943023121705D
:100AA0000B0A637005714571637821781B02194345
:100AB000023121700B0A637010218171F179C171CB
:100AC000637821781B021943023121700B0A391C0B
:100AD00028316370F2790830FFF7EAFC63782078F8
:100AE000F1791B021843401808302070030A637024
:100AF000A07800AB211C1871E07802AA123158715D
:100B000000922B1CA01D019AFFF7E8FC012803D0DE
:100B1000201CFFF7EBFC0CE021786378029A1B02A3
:100B20001943201CFFF7EAFC201CFFF7A1FC431C23
:100B300002D10020C043FEBD0B4C08346068002881
:100B400004D03221201CFFF79BFC0AE0201CFFF799
:100B50009FFC322200922B1C0121201C034AFFF72C
:100B60009FFC0120E7E70000E4CD00C02D1300C08A
:100B70001CB500AB0C1C9871111C0622DC71684678
:100B8000FFF796FC0E216846FFF798FC1CBD00009D
:100B90001CB5041C0448FFF799FC00AB9C711121A3
:100BA0006846FFF78BFC1CBD04CE00C080B5182141
:100BB0000748FFF7ABFC064818211830FFF7A6FCE2
:100BC000A5812A5F01000000F01700C000020000AC
:100BD0003446497D034900200839088048808880D0
:100BE00080BD0000ECCD00C00148006870470000E7
:100BF000C0C600C010B5FFF799FC09490222094C94
:100C00000A606268084B1A40084BD21862600A6892
:100C1000013A0A60531CFAD1FFF790FC10BD0000A6
:100C2000081C00C040200080C327FFFF14400000C4
:100C3000F7B5254E9446032807DC234B311C283397
:100C40001C1C1034002200251FE0011F032907D8B7
:100C50001D4B311C2C331C1C10340022042514E0C5
:100C6000194A011C08390432032907D8164B111CF4
:100C700030331C1C10340822082506E0124B111CCE
:100C800034331C1C103408220C25821A520003270E
:100C900097400A68BA433A430A800121B26881400A
:100CA0008A433281401B80000F211A6881406546CB
:100CB00085408A432A431A8022688A4301998140E9
:100CC0000A43101C2080FEBD00020090044AD16837
:100CD000F0230007000E99430843908170470000FD
:100CE00040020090F0B5104E072802DC321C0023B1
:100CF00002E00D4A04320823C31A5B00032415687E
:100D00009C40A5430124271C9F403D432B1C13807E
:100D10008440B368221C93433381F368934381403A
:100D20000B43181CB081F0BD00020090044AD1684A
:100D3000090909010007000F08439081704700006E
:100D4000400200907047000070470000FEB53E4F23
:100D5000051C0024860024203C496043401881196A
:100D60004878122830D202AA10558A7801AB1A5559
:100D7000C9786B46022A195526D0062A24D202A326
:100D80009B5C5B009F4400000C0320141017396823
:100D9000002901D1012100E00021FFF7A3FF13E0AA
:100DA00039680029F8D0F5E70809FFF78FFF0BE055
:100DB0000807000F06E00809FFF788FF6846005D96
:100DC0000007000FFFF7B2FF01342406240E032CA6
:100DD000B35896B601000000EC1900C000020000F4
:100DE000F35F4B20C1D31F4800261F4F002405602E
:100DF00001A8005D02280FD102A8005D012804D0DF
:100E0000B85501363606360E06E06946095D0A0712
:100E1000120F0909FFF716FF01342406240E032CD4
:100E2000E6D3002E10D0114C606900280AD020684B
:100E3000FFF7F2FA2068FFF7F7FA002060610A492D
:100E40000120486000F06AF8002D03D0062D01D083
:100E5000072D01D106480560FEBD0000882100C0B5
:100E60008C2100C0BCC600C0F82100C0C4C600C0B0
:100E7000C0C600C00122034982408868104308812F
:100E80007047000000020090032180B581700B0ABA
:100E9000C37004300149FFF763FB80BD8C2100C0A3
:100EA000F8B50322051D0439130A0C048270C370BF
:100EB000240C174F174E23E0042C27D328786B7887
:100EC0001B021843FF230933984209D0013398428B
:100ED0000DD12106090E321C281CFFF749FB07E043
:100EE0003B1C321C211C281CFFF74AFB00E0201C85
:100EF000844203D3211A0C04240C00E000242D1892
:100F0000002CD9D104480068FFF72AFFF8BD000083
:100F10007D1A00C08C2100C0BCC600C0F8B51748BF
:100F2000174C006800256060E5600A20154E2061BE
:100F30007068002820D00024371C385DFF2802D0BC
:100F40000021FFF7D9FE01342406240E032CF4D32C
:100F50000B4C00210C48A560FFF71AFB60610028CC
:100F600001D10120F8BD4368012223600560012101
:100F7000181CFFF715FB75600020F3E7BCC600C026
:100F8000C4C600C0F82100C04D1200C00700000018
:100F9000322E332E302E30004C5D02005C5D02009C
:100FA000D91B020005000000253B02000A000000DA
:100FB0000D3B02000C0000000000000000000000DB
:100FC000706F6F6C5F69645F6369706865724275AA
:100FD00066000000010000000000000000000000AA
:100FE000CB03C1DF01000000E81B00C000020000CD
:100FF00007B7F59D494431315F424C4B5F504F4F2D
:101000004C300000000000000000000070000200F2
:10101000BC5D0200020000000900000000000000AA
:10102000205E02000A04000001FF1800FFFF00001C
:10103000010000000000000000001F18181820190F
:101040001919191A1A1A1A000000000000000000ED
:1010500000000000001B1B00001C1C01011D1D02E4
:10106000021E1E030303030404040405050505060C
:10107000060606070707070700000000000000003B
:101080000000000000000000000000000000000060
:101090000000000000000008080808090909090A02
:1010A0000A0A0A0B0B0B0B0C0C0C0C0D0D0D0D0E84
:1010B0000E0E0E0F0F0F0F10101010111111111234
:1010C000121212000000000013131313141414144E
:1010D0001515151516161616171717170000000008
:1010E000000000000000000000002122232324252E
:1010F0002626262727272728282828000000000042
:1011000000000000000000000000000000000000DF
:1011100000000000000000000000000000000000CF
:1011200000000000000000000000000000000000BF
:1011300000000000E61E00C01E1F00C0C61F00C049
:101140008E1F00C0FE1F00C0561F00C0AE1E00C094
:101150008E1F00C0030007030E10160219251A0483
:101160001CFF1DF01E54325E33953529369743A976
:1011700045FF460C4B744C644D3B502762986BEE18
:101180006F5B77F279FF7C057F2DFFFFFFFFFFFF8D
:1011900000000300325E339535296BEE7A777F2DA0
:1011A000FFFFFFFFFFFF0310325C339A352A6BA26B
:1011B0007A227F22FFFFFFFFFFFF2C0011004E006D
:1011C0001B00E9003000EA006B00EF00150014017D
:1011D0001E0015010C00FFFFFF00FFFFFF00FFFFD7
:1011E000FF002C0016004E009F00E9002000EA00DE
:1011F000A38FAA7601000000E41D00C000020000D9
:101200001E4F2BED6F00EF000000140119001501B7
:101210000800FFFFFF00FFFFFF00FFFFFF00FFFFD1
:101220000000FFFF0000C5000000C4000000A30094
:1012300000006800000058000000590010005A002B
:101240001E005B0024005C0018005D0000005E00D2
:10125000EE005F00DE006000EB006100F000620065
:10126000000063001800640035006500500066004F
:10127000640067006C00FFFFFF00C500FF00C400B2
:10128000FF00A300FF006800030058000A00590097
:1012900013005A001B005B001B005C000E005D0089
:1012A000F6005E00EC005F00E0006000EF0061000F
:1012B000F6006200060063001D006400380065004F
:1012C00051006600630067006900FFFFFF00A80F80
:1012D0008001A80FD8E4A80031C7A8008AABA800F5
:1012E000E38EAA0F3C72AA0F9555AA0FEE39AA00F9
:1012F000471CAA00A001AA00F8E4AC0F51C7AC0F2C
:10130000AAABAC008001A000CCCDA20F2222A20F7C
:101310007777A20FCCCDA2002222A2007777A2007D
:10132000CCCDA40F2222A40F7777A40FCCCDA4009C
:101330002222A4007777A400CCCDA60F999A86002C
:1013400000008686471C86008E398600D555880F9A
:101350001C72880F638E880FAAAB880FF1C78800B4
:1013600038E4880080018800C71C8A0F0E398A0F74
:1013700055558A0000007C0FB13B7C0FF2DF7C00EA
:1013800034837C0076277C00B7CB7C00F9707E0F1D
:101390003B147E0F7CB87E0FBE5C7E0000007E009A
:1013A00041A47E0083487E00C4EC800F6276540F17
:1013B000C001540FEC72540018E454004555540019
:1013C00071C754009E395400CAAB5400F71C560F25
:1013D000238E560F5001560F7C72560FA8E4560FFD
:1013E000D5555600400150006666500091115000DE
:1013F000BBBC5000E666520F1111520F3BBC520F9E
:10140000D7F56D7A01000000E01F00C00002000067
:10141000EAA795506666520F9111520FBBBC520F4E
:10142000E6665200111152003BBC52006666520043
:10143000CCCD6D00A2E96D00DD176F0F17466F0F61
:1014400051746F0F8BA36F0FC5D16F0000006F0039
:101450003A2F6F00745D6F00AE8C6F00E8BA710FA9
:1014600022E9710F5D17710FE8BAFF800B000C00C5
:101470000A0006000C0003000000030080000300C7
:10148000000010008200190002001B0060001D0017
:1014900032001F0017002C00110032000000340041
:1014A0004E0035000100360080003700A0003800F3
:1014B000A0003F00300040003000420044004500E2
:1014C000680046000F00490080004B0040004E00BD
:1014D0001F00560001005700FF006F0091007800C8
:1014E0000000790080007F00230082000100850059
:1014F0002900890029008A00D900A4002200AB003D
:101500000300AC00A800C300D500CB007400CD00E0
:101510005900CF007400D0000A00D3006600D60046
:101520000000DA00AA00DB004700DC003F00DD001D
:10153000C500DE00A000DF000300E6006500E80053
:101540003400E9003000EA006B00EB002A00EC00F8
:101550002400ED00FC00EF001500F900FE000C0176
:1015600072000D0112000F013D001301360014013D
:101570001E0015010C002D011500FFFFFF00FFFFED
:10158000FF00FFFFFF00FFFFFF00FFFFFF000A1447
:10159000376EDC0B0F0A0E090D080C070001020361
:1015A00003050507070909090900020D566C06081D
:1015B000C02A40FFFFFFFFFF0A00000001000000FB
:1015C000010100000101020401010100010100000C
:1015D0000101000001010000010100000101000003
:1015E00001010205021200000212020402120100AF
:1015F000021200000212000002120000021200009B
:10160000021200000212020503120000031202047B
:10161000852623F901000000DC2100C00002000043
:101620005C98C0CF031201000312000003120000F7
:10163000031200000312000003120000031202054F
:10164000FFFFFF0001000000FFFFFFFFFFFFFFFFA4
:10165000FFFFFFFFFFFFFFFFFFFFFFFFFFFFFFFF9A
:10166000FFFFFFFFFFFFFFFFFFFFFFFFFFFFFFFF8A
:10167000FFFFFFFFFFFFFFFFFFFFFFFFFFFFFFFF7A
:10168000FFFFFFFFFFFFFFFFFFFFFFFFFFFFFFFF6A
:10169000FFFFFFFFFFFFFFFFFFFFFFFFFFFFFFFF5A
:1016A000FFFFFFFFFFFFFFFFFFFFFFFFFFFFFFFF4A
:1016B000FFFFFFFFFFFFFFFFFFFFFFFFFFFFFFFF3A
:1016C000FFFFFFFFFFFFFFFFFFFFFFFFFFFFFFFF2A
:1016D000FFFFFFFFFFFFFFFFFFFFFFFFFFFFFFFF1A
:1016E000FFFFFFFFFFFFFFFFFFFFFFFFFFFFFFFF0A
:1016F000FFFFFFFFFFFFFFFFFFFFFFFFFFFFFFFFFA
:10170000FFFFFFFFFFFFFFFF0500010001000000DA
:10171000304F8EE532020000F401000000000000AE
:10172000000000000101050A0D00FFFF010000009C
:101730008000000000000000000000000000000029
:101740000000000000000000000000000000000099
:101750000000000000000000000000000000000089
:101760000000000000000000000000000000000079
:10177000FEFFFFFF00000000FFFFFFFF0000000072
:10178000FFFFFFFFFFFF0101010100010100000059
:1017900001000100010101010002040B160C1218E6
:1017A000243048606C2C900001940100351B02002D
:1017B000EDFC000059FD000011FD00006D3E02002F
:1017C00000000000010000003C00000028FC00C0F8
:1017D00001000000000400C0353802006538020036
:1017E000DD390200213A0200593A020000000000EF
:1017F000000800C048FC00C0B80900C0000000009C
:101800000000000000000000D95A000000000000A5
:101810000155000000000000D95900000000000040
:1018200054986E5601000000D82300C0000200004A
:10183000A8707E72E550000001000000000000006A
:1018400001000000D95A0000010000005D550000B1
:1018500001000000555A0000010000003D52000048
:1018600001000000000000000000000000AAAAAA79
:10187000AAAAAAAAAAEEEEEEEEEEEEEEEEFEFFFFAA
:10188000FFFFFFFFFFFFFFFFFF7FBFDFEFF7FBFD66
:10189000FC7EBFDFEFF7FBFD7E00000000010207CA
:1018A0000305040237006E00A000C800DC00400100
:1018B0009001B801800220032A0400054006E006DA
:1018C000E006E00605000B001000140016002000E2
:1018D00028002C00400050006A008000000000003A
:1018E0000000000000000000FFFFFFFF1E002C01B1
:1018F00007000000000000000000000000000000E1
:1019000000000000000000000000000000000000D7
:101910000000000000000000000000000500881327
:1019200001000000010000000000000000000000B5
:10193000010000006464000001000000204E00006F
:101940000D0F1212120D0F1212120102020202FFEB
:10195000010101010101000012010002000000402C
:10196000861231201331010203010A060002000031
:10197000004001000902200001010480FA0904006E
:101980000002FFFFFF0507050202000200070583B2
:10199000020002000902200001010480FA0904008B
:1019A0000002FFFFFF050705020240000007058354
:1019B000024000000403090410034D00610072009E
:1019C000760065006C006C0030034D006100720011
:1019D000760065006C006C00200057006900720002
:1019E00065006C0065007300730020004400650012
:1019F000760069006300650022033000300030008B
:101A00003000300030003000300030003000300056
:101A100030003000300030003000360357006900DD
:101A2000720065006C0065007300730020004C00BC
:101A3000B210589401000000D42500C09C000000A2
:101A400066D43DBD41004E00200043006F006E0093
:101A5000660069006700750072006100740069002B
:101A60006F006E002E0357006900720065006C0065
:101A700065007300730020004C0041004E00200000
:101A800049006E007400650072006600610063002A
:101A900065002A0349006E00760061006C00690051
:101AA0006400200053007400720069006E0067003B
:101AB000200049006E006400650078000500000009
:101AC000582500C05C2500C06C2500C09C2500C0C6
:101AD000BE2500C0F42500C0222600C054085C2AA0
:101AE0000100000000000000000200000447BA08E6
:101AF0001CF09FE51CF09FE51CF09FE51CF09FE5A6
:101B00001CF09FE51CF09FE51CF09FE51CF09FE595
:101B100001290A1A40180000181800001C180000BB
:101B20002018000024180000281800002C180000BD
:101B300039180000C4808FE2030098E8080080E0B4
:101B4000081081E001B040E2010050E11300000AFA
:101B50007000B0E8050054E1FAFFFF0A010014E349
:101B60000B408410010015E30B508510020015E3B3
:101B7000095085100350C5E3106056E28C10B4285C
:101B80008C10A528FBFFFF8A866EB0E10C00B428FC
:101B90000C00A5280470944404708544E9FFFFEA12
:101BA000082098E50C3098E5082082E0083083E0B2
:101BB00001C042E20070A0E30000A0E30060A0E3E7
:101BC00000B0A0E3030052E1B804000B3000B2E81B
:101BD000010014E30C408410020014E30940841057
:101BE0000340C4E3105055E2C108A428FCFFFF8A5B
:101BF000855EB0E14100A42804708444F0FFFFEA50
:101C000080730200E0730200E0730200207402009F
:101C1000704770470FB430B591B00F900C4816A9BB
:101C20000E91784408900B48784409900FAD281C19
:101C300001AB0EAA159900F09BFC041C291C002086
:101C400001F02CF9201C11B030BC08BC04B01847BE
:101C5000771200007F12000000470847104718471E
:101C6000204728473047384778470000020090E077
:101C70000310A1E01EFF2FE178470000020090E072
:101C8000C21FA1E01EFF2FE178470000020090E094
:101C90000010A1E21EFF2FE178470000030051E190
:101CA000020050011EFF2FE17847000070402DE92F
:101CB00000E0A0E1920E8CE092C121E0931E21E0B1
:101CC0007040BDE81EFF2FE1784700004230A0E1E0
:101CD000F5FFFFEA784700000030A0E3F2FFFFEADB
:101CE000784700000030A0E30120A0E1B29D510E32
:101CF00001000000FC01000000020000C09265230A
:101D00000010A0E3EDFFFFEA78470000020070E05A
:101D1000C21FE1E01EFF2FE178470000020070E0E3
:101D20000010E1E21EFF2FE178470000203052E270
:101D30000400005A203062E21112A0E1301381E168
:101D40001002A0E11EFF2FE11013A0E10000A0E3AC
:101D50001EFF2FE178470000203052E20400005AB5
:101D6000203062E23002A0E1110380E15112A0E1D3
:101D70001EFF2FE15103A0E1C11FA0E11EFF2FE1D3
:101D800078470000020050E00010C1E21EFF2FE182
:101D9000784700001EFF2FE17847000070402DE9D2
:101DA0000140A0E10050A0E10060A0E3A2CF93E1D8
:101DB0001100001A020012E1CC00000AA2C7B0E133
:101DC0001060860212C6A0E1ACEBB0E10CC4A00129
:101DD00008608602ACEDB0E10CC2A001046086028E
:101DE000ACEEB0E10CC1A001026086022CEFB0E1C4
:101DF0008CC0A00101608602170000EA800413E392
:101E00001200001AA3C7B0E11060860213C6A0E159
:101E1000ACEBB0E10CC4A00108608602ACEDB0E10F
:101E20000CC2A00104608602ACEEB0E10CC1A001BE
:101E3000026086022CEFB0E18CC0A0010160860236
:101E4000203066E232C38CE112E6A0E14C0000EAE9
:101E500003C0A0E102E0A0E19C0000EA0030A0E3A2
:101E60008C0054E18C404420023083220C0054E169
:101E70000C4044200030B3E200C06CE2202086E237
:101E8000200052E30300003A250F94E10540A00131
:101E90000050A003202042020010A0E3100052E3F3
:101EA0000200003A2407B0E10448A00110108102AA
:101EB00001E042E008005EE30200003A240BB0E1DA
:101EC0000444A00108108102200061E2354084E151
:101ED0001551A0E1012042E0010052E32000003A48
:101EE000012042E2070002E2070020E2800090E0C9
:101EF00000F18FE00000A0E10550B5E03D54DFB4F3
:101F000001000000F803000000020000347ADB9EAC
:101F10008440BCE004406C300550B5E08440BCE037
:101F200004406C300550B5E08440BCE004406C30A7
:101F30000550B5E08440BCE004406C300550B5E08D
:101F40008440BCE004406C300550B5E08440BCE007
:101F500004406C300550B5E08440BCE004406C3077
:101F60000550B5E08440BCE004406C30082042E2FB
:101F7000020012E1E4FFFF5A3426A0E11246C4E158
:101F80000500B5E00410A4E0131681E00030A0E3E2
:101F90007040BDE81EFF2FE10030A0E30E0055E0C9
:101FA0000C10D4E00050A0210140A0210030B3E289
:101FB0000E0055E00C10D4E00050A0210140A021FB
:101FC0000030B3E20E0055E00C10D4E00050A02128
:101FD0000140A0210030B3E200E07EE200C0ECE26C
:101FE0000010A0E3100056E30200003A2407B0E11D
:101FF0000448A00110108102012046E0080052E3CD
:102000000200003A240BB0E10444A0010810810250
:10201000200061E2354084E11551A0E1012046E055
:10202000010052E32000003A012042E2030002E2F4
:10203000030060E2800090E080F18FE00000A0E10A
:102040000550B5E00440B4E00500BEE00410BCE07B
:102050000050A0210140A0210550B5E00440B4E0AB
:102060000500BEE00410BCE00050A0210140A0210A
:102070000550B5E00440B4E00500BEE00410BCE04B
:102080000050A0210140A0210550B5E00440B4E07B
:102090000500BEE00410BCE00050A0210140A021DA
:1020A000042042E2020012E1E4FFFF5A3526A0E1DB
:1020B0001256C5E10010A0E30500B5E00010A1E252
:1020C00013E6B0E10010A1E20E0090E00010A1E2E2
:1020D0003436A0E11346C4E1742682E17040BDE8C5
:1020E0001EFF2FE10E2055E00C30D4E00520A0317A
:1020F0000430A0310010A0E30100A1E07040BDE871
:102100001EFF2FE17040BDE80C0500EA916AAB4C60
:1021100001000000F4050000000200002D8205EE21
:1021200078470000203052E20400005A203062E27A
:102130003002A0E1110380E13112A0E11EFF2FE186
:102140003103A0E10010A0E31EFF2FE110B4042A28
:102150000ED3031C0B439B070AD108C810C9A34226
:1021600002D1043A042AF8D2A34201D00438043937
:10217000002A02D1002010BC7047D30701D50132DC
:1021800005E003780C7801310130A34207D10378D0
:102190000C7801310130A34201D1023AF1D1181B70
:1021A000E9E7000030B4264A17211160362151605A
:1021B000234C244A00210834030C1B188D00635162
:1021C000214B0131584380183729F5DB30BC70476B
:1021D0001B4930B41720086036204860184A194956
:1021E0000020012308321C0CE418850054511C1CEB
:1021F000154B013063435B183728F4DB30BC704764
:102200000F4830B4416803688A000D499D000831C9
:102210008C584D59013B64198C500360083949684A
:1022200036220139002B02DA4160026003E041608E
:10223000002900DA42606000400830BC70470000AE
:1022400018ED00C0E119D666CD0D010078470000F9
:102250000020A0E3040051E30800003A03C010E2AC
:102260000D00000A04C06CE202005CE30120C0E43F
:102270000120C0A40120C0C40C1041E0060000EA07
:1022800081CFB0E10120C0240120C0240120C0443E
:102290001EFF2FE1784700000020A0E300402DE959
:1022A0000230A0E102C0A0E102E0A0E1201051E272
:1022B0000C50A0280C50A02820105122FBFFFF2A10
:1022C000011EB0E10C50A0280C00A0480040BDE861
:1022D0000111B0E1042080241EFF2F010120C04421
:1022E0000120C044400411E30120C0141EFF2FE16F
:1022F00078470000030052E33E00009A03C010E25A
:102300000800000A0130D1E402005CE30C2082E006
:1023100001C0D1940130C0E40130D1342F7DDD35CE
:1023200001000000F007000000020000D96ABB5362
:10233000042042E201C0C0940130C034033011E2F5
:102340001E00000A042052E22F00003A03C031E7C9
:10235000020053E30800000A0F00008A2C34A0E1B9
:1023600004C0B1E5042052E20C3C83E1043080E477
:10237000F9FFFF2A011081E2230000EA2C38A0E1D6
:1023800004C0B1E5042052E20C3883E1043080E45B
:10239000F9FFFF2A021081E21B0000EA2C3CA0E1B9
:1023A00004C0B1E5042052E20C3483E1043080E43F
:1023B000F9FFFF2A031081E2130000EA78470000CA
:1023C00010402DE9202052E20500003A1850B128B3
:1023D0001850A0281850B1281850A02820205222A8
:1023E000F9FFFF2A02CEB0E11850B1281850A028FA
:1023F0001800B1481800A0481040BDE802CFB0E175
:1024000004309124043080241EFF2F01822FB0E17C
:102410000120D1440130D12401C0D1240120C04485
:102420000130C02401C0C0241EFF2FE17847000006
:10243000013040E0020053E1B2FFFF2A030010E345
:1024400003001103C502000A020080E0021081E0CF
:10245000012052E20130712501C0718501306025F3
:1024600001C06085022052E2F9FFFF2A1EFF2FE122
:1024700078470000FF3001E20210A0E1032483E16D
:10248000022882E177FFFFEA021C031C0B439B0733
:1024900070B410D10F4CE60100E008C208C91D1B42
:1024A0009D433540F9D01906090E117001320029FB
:1024B0000DD01B0AF7E70B78013113700132002BA6
:1024C00005D00B78013113700132002BF3D170BCB1
:1024D000704700000101010130B4441C810708D09D
:1024E00001780130002902D1001B30BC7047810700
:1024F000F6D10B4AD50102C88B1A8B432B40FAD078
:10250000001B0A0601D10338EFE70A04120E01D1BD
:102510000238EAE70902090EE7D10138E5E70000D1
:1025200001010101F0B4031C041C0C437B98ED383D
:1025300001000000EC090000000200001E73B90E4B
:10254000A4070CD1104DEF0102E00431043A10C38E
:10255000042A04D30C68661BA6433E40F5D0002A2B
:1025600007D00C7801311C700133002C03D0013AE4
:10257000F7D1F0BC7047012AFBD9511E00221A7016
:1025800001330139FBD1F4E7010101017847000073
:102590000010D0E50120D0E50230D0E50300D0E501
:1025A000021481E1031881E1000C81E11EFF2FE19B
:1025B000784700000000C1E52024A0E10120C1E52A
:1025C0002028A0E10220C1E5202CA0E10320C1E5E4
:1025D0001EFF2FE1F0B50FB489B0002007900878F6
:1025E0004F1C1E1C151C002864D0252807D0F2693A
:1025F0000999FFF765FB07980130079039E100243E
:1026000005940021B1600121042208203B780137A4
:102610002B2B089313D005DC202B13D0232B13D1A5
:102620000443F3E72D2B05D0302B0DD1FF230133CD
:102630001C43EBE7FF2301339C430C43E6E70223F3
:102640001C43E3E71443E1E7089B00222A2B0AD14D
:102650002B6804CB2B60002A01DA52424C403B78B5
:102660000137089310E0089930390A290CD29100FB
:102670008918089B4900CA183B780137303A191C61
:1026800030390A290893F2D300210B1C002A00DB01
:10269000131C0693089B2E2B22D13B780137002276
:1026A0002A2B089307D12B6804CB2B603B7801378A
:1026B000089310E04AE2089B303B0A2B0DD29300AE
:1026C0009A18089B5200D2183B780137303A089389
:1026D000303B0A2BF3D3002A02DB10231C43B260E9
:1026E000089B6C2B03D0089B4C2B0DD106E03A784D
:1026F0006C2A03D140221443013701E02022144305
:102700003B780137089322E0089B682B0DD13A787B
:10271000682A04D1012292021443013701E0802289
:1027200014433B780137089311E0089B6A2B05D1CD
:102730003B78402214430137089308E0422B72CEC5
:1027400001000000E80B000000020000EA9B07B354
:10275000089B742B02D0089B7A2B02D13B7801375F
:102760000893089B672B66D012DC632B21D008DC12
:10277000002B56D0452B5ED0472B5CD0582B65D014
:102780001BE0642B63D0652B55D0662B53D014E02F
:10279000702B66D006DC692B59D06E2B43D06F2B83
:1027A00068D00AE0732B66D0752B65D0782B64D087
:1027B00003E0286802C828600891069B013B069345
:1027C000E00716D43020E10500D420200006000EDA
:1027D00004900698013806900BD4079801300790B2
:1027E000F26904980999FFF775FA0698013806907E
:1027F000F3D5F26908A903C9FFF76CFA079801300D
:102800000790E0073FD5069C013C3CD40798013077
:102810000790F26909992020FFF75CFA013CF5D591
:1028200031E0013F2FE0600506D5079A286802C80D
:1028300028600A7027E070E1200609D5296801C9DF
:102840002960079A0270130A43701CE079E02BE1BB
:10285000600607D5286810C828600798C11703C408
:1028600011E0C7E0A00609D5079A286802C82860C9
:102870000A6008E0CEE007E0F3E08EE0079A2868FF
:1028800002C828600A60B4E0286802C82860049181
:10289000E0060FD50021B068029102E002990131F3
:1028A00002910299814209DA0499029A895C00290D
:1028B000F4D103E00498FFF723FE02900298069BF0
:1028C000181A0690E00716D43020E10500D4202025
:1028D0000006000E01900698013806900BD4079868
:1028E00001300790F26901980999FFF7F3F906980A
:1028F00001380690F3D500200299039000290CDDE1
:1029000003A903C9085CF2690999FFF7E3F9039881
:102910000299013003908842F2DB0798029940182F
:102920000790E00765D5069C013C62D4079801300A
:102930000790F26909992020FFF7CCF9013CF5D501
:1029400057E06006286807D5011C0831DEC1521A1D
:1029500001000000E40D000000020000F363D9C391
:102960002960016840683063F16202E002C82860B3
:102970000591600504D505990906090E059105E044
:10298000200603D505990904090C0591F0A0706291
:10299000200704D50599002901D0F2A000E0F0A09D
:1029A0007060E0063FD5FF2301339C433BE06006A7
:1029B000286807D5011C0831296001684068306328
:1029C000F16202E002C828600591600504D505990E
:1029D0000906090E059105E0200603D505990904AD
:1029E000090C0591E0A07062200704D50599002923
:1029F00001D0E2A000E0DAA07060E00613D5FF236A
:102A000001339C430FE0B0E02A6802CA2A600591B6
:102A1000D5A17162210701D5D9A100E0D0A1102371
:102A2000B06071601C4381E06006286807D5011C16
:102A300008312960016840683063F16202E002C831
:102A400028600591600504D505990906090E0591D0
:102A500005E0200603D505990904090C0591200716
:102A600001D5C8A000E0BEA07060E0065ED5FF23DF
:102A700001339C435AE06006286807D5011C0831E1
:102A80002960016840683063F16202E002C8286092
:102A90000591600504D505990906090E059105E023
:102AA000200603D505990904090C0591ACA07060B6
:102AB000E0063BD5FF2301339C4337E060062968DD
:102AC00011D5081C0830286003C9F0623163AEA23A
:102AD0000CCA00F0F1FA1ADAF06A316B00F0F4FA7D
:102AE000F062316311E001C92960610502D5000679
:102AF000001603E0210601D500040014414200281D
:102B000000DB011C0591002801DAA1A008E0A00764
:102B100001D5A0A004E0600701D59FA000E090A02F
:102B20007060E00602D5FF2301339C4311E00120D1
:102B300040020443E00601D40620B0602868021C6D
:102B400008322A6002684068B061716072610021D9
:102B50000591069B321CB362346009984A6436675B
:102B600001000000E00F000000020000078B677EFC
:102B70000899059B00F016F8079A80180790387896
:102B80000137002800D04EE5316A0998FFF7B5F803
:102B9000002805D00020C0430DB0F0BC08BC184789
:102BA0000798F9E7F0B5071C081C141C12688FB0D1
:102BB0000025E9430492E1602161212109010026F9
:102BC0000A4001D10121A16074A167280ED026DC42
:102BD000642864D006DC452808D0472806D0582849
:102BE00009D136E0652801D0662804D1221C05A948
:102BF00024F040FE061CA16A049A0291900571D54A
:102C000000200390E068002801DD0138039020696E
:102C1000002868DD039940180138039063E07028AC
:102C200017D012DC69283AD06F28E4D1049A5006F4
:102C30005ED5206BE26A039058A102920CC9011C78
:102C40000298FFF779F852D037E0752827D0782816
:102C5000D1D1049A500623D5206BE26A03904FA18C
:102C600002920CC9011C0298FFF766F8C3D002A9B2
:102C700003C90007616A000F095C301C05AA1154E2
:102C800002A90136042203C9FFF77CFA029043A08F
:102C900003910CC80298FFF74FF8ACD0E7E73AE091
:102CA000002BA8D005AA1907606A090F415C301CE7
:102CB00001361B0911549ED0F5E702A903C940074C
:102CC000616A400F095C301C05AA115402A9013643
:102CD000032203C9FFF756FA029030A003910CC8F3
:102CE000029801E072E077E0FFF726F8E5D10AE00C
:102CF000002B08D005AA5907490F3031301C013686
:102D0000DB081154F7D1049A100700D473E7A068C8
:102D10000138A0606FE7049A500649D5206BE26A3B
:102D200003901EA102920CC9011C0298FFF704F83F
:102D3000ECD002A903C900F0D9F90E90101C303074
:102D40000D91011C301C05AA11540E980D9902908A
:102D500012A003910CC802980136FEF7EDFFD5D002
:102D6000E7E70000303132333435363719C44C4C84
:102D700001000000DC110000000200007990C0CECC
:102D800038394142434445460000000030580000B5
:102D900030313233343536373839616263646566D1
:102DA000000000003078000040000000300000000B
:102DB00000000000000000002D0000002B000000BB
:102DC00020000000002BABD0181C00F003FC3031B9
:102DD0000A1C311C05AB5A540136031CA0D0F3E782
:102DE000A068811B039101D5002003906068FFF764
:102DF000A5FB0399049A891940180299081A0290B0
:102E0000D00512D4049AD0070FD420200190029844
:102E10000138029009D40135E2690198391CFEF7A6
:102E200077FF029801380290F5D561680878013182
:102E3000019100280AD0391CE269FEF769FF019967
:102E400001350878013101910028F4D1049AD007A6
:102E500015D4049A3020D10500D420200006000E9D
:102E6000019002980138029009D40135E269019875
:102E7000391CFEF74DFF029801380290F5D5049AEF
:102E8000900534D500210191002E4DDD019905A852
:102E9000405C3C2806D03E281ED1206901382061C4
:102EA0001FD40EE0E0680138E0601AD40135391C07
:102EB0003020E269FEF72CFFE0680138E060F5D5CC
:102EC0000FE00135391C3020E269FEF721FF20694F
:102ED00001382061F5D504E0391CE269FEF718FFDE
:102EE0000135019901310191B142CFDB1CE003981A
:102EF0000138039009D40135391C3020E269FEF70E
:102F000007FF039801380390F5D5AD19301C013E39
:102F1000002809DD05A8805DE269391CFEF7F8FE8E
:102F2000301C013E0028F5DC049AD0070AD5029E29
:102F3000013E07D40135391C2020E269FEF7E8FE86
:102F4000013EF7D5281C0FB0F0BC08BC18470000A4
:102F500000060A68000E107001320A6070470020F7
:102F6000704700008F0000EB9C0100EB1CC09FE548
:102F70000FC08CE001001CE30DE08F123B650D8D4E
:102F800001000000D8130000000200008D787E735D
:102F90000FE0A0011CFF2FE101C08FE21CFF2FE119
:102FA00000F042F8C93A01007847000001402DE9DD
:102FB000920100EB0140BDE8010000EA7847000003
:102FC0000000E0E3900100EA78470000013050E0A3
:102FD0000300522117FDFF9A10402DE9021081E0F5
:102FE000020080E0030010E301307115012042125D
:102FF00001306015FAFFFF1A102052E218503129F3
:103000001850202910205222FBFFFF2A822EB0E107
:1030100018003129180020290430114504300045DA
:103020001040BDE81EFF2FE110B5041C00F000F8B1
:10303000201CFFF7B9FF10BC08BC1847F0B5041CF2
:103040000D1C83B024F01CFC00940195002000F0BE
:1030500000F8029026486946784400F000F8051C04
:103060000E1C00A903C900F000F800F000F8FFF7FB
:10307000F5F80021002000F000F8071C00F022F90C
:10308000041C00210762002000F000F8411C61626E
:103090000021002000F000F80021A062002000F0D4
:1030A00000F80021E062002000F000F8206300F04A
:1030B00000F800F000F800F000F800F000F800F070
:1030C00000F800F000F800F000F800F000F8281C0C
:1030D000311C03B0F0BC08BC184708B500F000F87C
:1030E00000F000F800F000F801B008BC184700003C
:1030F0009400000078470000020050E00310D1E087
:103100001EFF2FE178470000000070E20010E1E2AE
:103110001EFF2FE17847000030402DE90A2050E2E1
:103120000030D1E220E1A0E101EF8EE10E0050E09D
:103130002111C1E020E2A0E101EE8EE10E0090E05D
:103140002112A1E020E4A0E101EC8EE10E0090E06C
:103150002114A1E020E8A0E101E88EE10E0090E05A
:103160002118A1E0010090E00010A1E2A001A0E17F
:10317000810E80E1A111A0E10141A0E1204F84E195
:10318000005190E00140A4E0055095E01A5AA5B224
:1031900001000000D4150000000200009480A0038C
:1031A0000440A4E0052052E00430D3E00030A0E366
:1031B0000A2082423040BD481EFF2F41010090E2AC
:1031C0000010A1E23040BDE81EFF2FE1784700006B
:1031D0000E50A0E1400000EB05E0A0E10040A0E1BE
:1031E0000D10A0E10A30A0E10700C0E360D080E24A
:1031F00010402DE90B0100EB1040BDE807D0C1E302
:103200000060A0E30070A0E30080A0E300B0A0E3B2
:1032100004C0A0E1C009ACE8C009ACE8C009ACE852
:10322000C009ACE813402DE90000A0E30010A0E3C2
:10323000FFFFFFEB401081E2012080E0442F82E29B
:103240001C2084E5181084E50100A0E3100084E54B
:103250001340BDE8140084E50010A0E10EF0A0E1E9
:103260007847000010402DE903002DE91A0000EB1B
:103270000040A0E10300BDE81C3094E503304DE0C0
:10328000142094E5002081E500E082E003005EE187
:103290000B00008A0E3093E06330A0E10730C3E3F7
:1032A000401D8EE2071081E20710C1E3030051E1E7
:1032B0000310A081020041E0141084E51040BDE835
:1032C0001EFF2FE10020A0E10000A0E3FFFFFFEBC5
:1032D0001040BDE81EFF2FE17847000000009FE589
:1032E0001EFF2FE1FCED00C0002070477847000072
:1032F00010402DE9F8FFFFEB040080E21040BDE82C
:103300001EFF2FE1913082E00300A0E10210A0E156
:103310001EFF2FE100A0004770129FE5D4219FE51A
:10332000DB00A0E300F021E1021081E00310C1E323
:10333000041041E201D0A0E100A0A0E300B0A0E3AE
:10334000B4219FE5D200A0E300F021E1021081E06A
:103350000310C1E3041041E201D0A0E1D300A0E3D7
:1033600000F021E188319FE5001083E580119FE5A1
:10337000000091E5040080E288119FE588319FE517
:1033800078219FE5000081E5002083E5020080E0D0
:1033900078119FE50020A0E3002081E533B9768312
:1033A00001000000D01700000002000060681EBE8F
:1033B00060219FE5000082E5E8219FE5E8019FE5A7
:1033C0002C0082E51C00A0E3300082E50900A0E3A8
:1033D000000082E50B10A0E3101082E50130A0E3AD
:1033E000243082E5283082E5C0219FE51030A0E33B
:1033F000083082E51EFF2FE10EF0B0E10EF0B0E1E3
:10340000FEFFFFEAFEFFFFEAFEFFFFEA8D0000EA93
:1034100001F0BEFA67480047F3460FF0F3FB0000E7
:1034200090019FE5100F01EE8C019FE58C119FE547
:10343000001080E588019FE5001090E584019FE57C
:10344000001090E580319FE50310C1E17C319FE5DC
:10345000031081E1001080E550619FE58038A0E312
:10346000083186E568F19FE5900F07EE1EFF2FE11A
:1034700060019FE50010E0E3001080E558019FE542
:10348000401EA0E3001080E550019FE5001090E58C
:10349000801481E3001080E5900F07EE1EFF2FE1FE
:1034A000100F11EE1EFF2FE1100F01EE1EFF2FE196
:1034B000010050E2FDFFFF1A1EFF2FE120019FE5F2
:1034C00020119FE5F720A0E3040081E4012042E2FF
:1034D0000000A0E3040081E4012052E2FCFFFF1A97
:1034E00004019FE504119FE5001080E500019FE5C0
:1034F00000119FE5001080E5FC009FE5FC109FE5B2
:10350000001080E51EFF2FE15C3E0004100000006B
:103510000004000000040000143D0004343D0004D9
:10352000383D00043C3D000401C05EE50C0053E161
:103530000330DE370C30DE2783C08EE01CFF2FE126
:103540000E30A0E1B8E09FE51EFF2FE110B49E46CB
:10355000042A0ED3031C0B439B070AD108C810C9C9
:10356000A34202D1043A042AF8D2A34201D004387B
:103570000439002A02D1002010BC7047D30701D5BE
:10358000013205E003780C7801310130A34207D104
:1035900003780C7801310130A34201D1023AF1D114
:1035A000181BE9E734750200003000805D7B6E5B1C
:1035B00001000000CC19000000020000A7711CE30C
:1035C0004771000000280080194CF003741F0000B0
:1035D0000C20008023387E10006000904420008082
:1035E0003CC6000014420000440000000C2800808B
:1035F0000828008030200080F0F0F0F0243C000427
:10360000D83C000449170000DC3C0004391E0200CD
:10361000E03C0004311800006D19000004F01FE5C3
:103620006090F2037847C04604F01FE53090F20343
:1036300000C09FE51CFF2FE18514000000C09FE53E
:103640001CFF2FE12315000004F01FE54491F20355
:1036500000C09FE51CFF2FE1C9B5000004F01FE585
:10366000244DF0037847C04604F01FE5288FF2038D
:103670007847C04600C09FE51CFF2FE1611900C0DC
:103680007847C0467CFFFFEA7847C04600C09FE508
:103690001CFF2FE1DD1700C07847C04600C09FE542
:1036A0001CFF2FE1C11700C07847C04600C09FE54E
:1036B0001CFF2FE1451300C07847C04604F01FE50A
:1036C000508EF2037847C04600C09FE51CFF2FE1F3
:1036D000FD4EF0037847C04600C09FE51CFF2FE178
:1036E000052AF0037847C04600C09FE51CFF2FE184
:1036F000C929F0037847C04600C09FE51CFF2FE1B1
:103700005947F0037847C04600C09FE51CFF2FE1F2
:10371000E51BF0037847C04600C09FE51CFF2FE182
:10372000D51CF0037847C04600C09FE51CFF2FE181
:10373000191DF0037847C04600C09FE51CFF2FE12C
:10374000791CF0037847C04600C09FE51CFF2FE1BD
:10375000251AF0037847C04600C09FE51CFF2FE103
:103760008918F0037847C04600C09FE51CFF2FE191
:10377000A11BF0037847C04600C09FE51CFF2FE166
:10378000FD19F0037847C04600C09FE51CFF2FE1FC
:103790008D1AF0037847C04600C09FE51CFF2FE15B
:1037A000D518F0037847C04600C09FE51CFF2FE105
:1037B0001D23F0037847C04600C09FE514B3E9B667
:1037C00001000000C81B0000000200005399A25E27
:1037D0001CFF2FE1E124F0037847C04600C09FE5BD
:1037E0001CFF2FE12D25F0037847C04600C09FE560
:1037F0001CFF2FE10D26F0037847C04600C09FE56F
:103800001CFF2FE17925F0037847C04600C09FE5F3
:103810001CFF2FE19526F0037847C04600C09FE5C6
:103820001CFF2FE1E926F0037847C04629FFFFEA95
:103830007847C04600C09FE51CFF2FE11129F00327
:103840007847C04600C09FE51CFF2FE19127F00399
:103850007847C04600C09FE51CFF2FE1D528F00344
:103860007847C04600C09FE51CFF2FE1CD26F0033E
:103870007847C04600C09FE51CFF2FE1691900C0D2
:103880007847C04600C09FE51CFF2FE1051800C027
:103890007847C04600C09FE51CFF2FE1A91A00C071
:1038A0007847C04600C09FE51CFF2FE1911A00C079
:1038B0007847C04600C09FE51CFF2FE1111800C0EB
:1038C0007847C046F3FEFFEA7847C04600C09FE550
:1038D0001CFF2FE1191400C07847C04600C09FE5C7
:1038E0001CFF2FE1B91100C07847C046FCFEFFEA7B
:1038F0007847C04600C09FE51CFF2FE13D2BF00339
:103900007847C04600C09FE51CFF2FE1E541F0036A
:103910007847C04604F01FE5EC8FF2037847C046B5
:1039200000C09FE51CFF2FE1994DF0037847C0468A
:1039300000C09FE51CFF2FE1651900C000C09FE596
:103940001CFF2FE11D17000070B5194C051C2068E5
:1039500000230130206017484268281CFEF79EFAB9
:10396000111C6068FFF788FE142800D31320410063
:1039700009190A8901321204120C0A81111C228EC3
:103980005200121913898B4200D22086032120682D
:10399000890388420BD3221C40082060002041008C
:1039A00089180B8901305B080B811428F7D370BD8F
:1039B0008CD400C0C80B01C0054900200A68642AE5
:1039C00004D9088E49684843800A8002A4CF76A3B0
:1039D00001000000C41D0000000200004A617C2EAE
:1039E000704700008CD400C010B5074C3421201C57
:1039F000FEF7C8FC054841681420FFF747FE6060E9
:103A000003490020886110BD8CD400C0C80B01C0E0
:103A1000740C01C0F3B58FB00E1C15F0C3FC0490FC
:103A2000059114F0B9F902909948002103910569B4
:103A3000281CFF30EC30FEF70DFE041C281CFF3064
:103A4000E730FEF707FE002805D0301C0FF082FD9E
:103A500000F06AFF04E0301C0FF048FD00F056FF54
:103A60000006000E0890012203210F981FF0FEF9B6
:103A70000F99071C002512310E9140E02801401BD0
:103A800000190E30FEF7E6FD023006220E99FEF711
:103A9000D5FB002832D12801401B04190E34002F19
:103AA00003D0B8780299884211D079480069FF3074
:103AB000E730FEF7CFFD051C011C201C14F0E6FCCE
:103AC000011C08982A1C14F0F7FC002814D0301CA4
:103AD0000FF00CFD00F01AFF051C201CFEF7BAFDCC
:103AE0000572301C0FF036FD00F01EFF2073082217
:103AF000201D04A9FEF774FC11B0F0BD0135207B38
:103B0000A842BBD80F9908784B781B02184330386D
:103B10000990093005042D0C002F05D102990335B9
:103B20002D042D0C03910CE0B8780299884208D03E
:103B30005749C8680969C300181A4018407A8007B5
:103B4000DAD5201C08300D90271D28E00C9800289D
:103B5000D2D04F480069FF30E730FEF77BFD011CF3
:103B6000201C14F0A3FC0006000E079048480069D2
:103B7000FF30E730FEF76EFD011C0090079803014F
:103B8000181A00190E3014F081FC0899009A14F0EC
:103B900093FC0028B0D1201C07991CF03BF9207B36
:103BA0000C90617B8842D1D2381CFEF753FD41193D
:103BB0000B910D98FEF74EFD0B998142C6D8201C43
:103BC000FEF748FD0A90381CFEF744FD0A990622CC
:103BD0000818019009300690A81E019916489C3FCC
:103BE00001000000C01F000000020000BE89C29357
:103BF000030A08704B7001980E990230FEF7FAFB29
:103C0000301C0FF07DFC00F08BFE019908720F99BB
:103C1000099A06982031FEF7EDFB0698099940189D
:103C20000399002905D003210170012141700399F6
:103C30008170207B0301181A01190E310198FEF7DB
:103C400025FD207B04A90301181A0019123008224F
:103C5000FEF7D0FB301C0FF087FC00F06FFE217BDD
:103C6000104A0B01591A09198876207BD16812690C
:103C70000301181ACB00591A8918CA790019C2769B
:103C8000087A217B0B01591A09190877207B01302A
:103C90002073381CFEF7E8FC4019391CFEF7F6FCCF
:103CA00034E70000DCEC00C007490A230A7801323F
:103CB0000A70C2564B88D2184A800B23C0568A8895
:103CC0008018888000207047C6C400C0B0B5041CAE
:103CD00004300021051C084A13F0D6FD291C201CC5
:103CE0001030064A13F0D0FD291C201C1C30044A59
:103CF00013F0CAFDB0BD000035210000D520000042
:103D000009B4000070B5041C4868251C836840682D
:103D10000A68261C10361C350D2A10D006DC531CF0
:103D20000AD0082A1CD109F0F1FE03E0192A0CD0B0
:103D3000252A15D1311C0EE009F020FE0EE0181CDA
:103D400009F0CCFD002809D104E0181C09F01EFE82
:103D5000002803D1291C201C13F0BAFD002070BDDF
:103D6000081C70BD80B509684B1C03D1011C1031C3
:103D700013F0AEFD002080BDF8B50E1C041C002819
:103D800071D0002E6FD00022FF212D313D480AF066
:103D90006DFC002867D00221818118214218018121
:103DA0005A214032517284210181451835602E1C00
:103DB0001836291C0027381CFEF768FC291D381C02
:103DC000FEF764FC291C0831701BFEF75FFCE37AE8
:103DD000A07A1B0218432873030A6B7322F0C8FBF6
:103DE000002802D0207A287500E02F75833BA35865
:103DF00001000000BC21000000020000B656334E56
:103E0000687D02214008400088430421884308213E
:103E100088436875A27AE37A211C0C311B021A438D
:103E2000301CFEF7F1FA207B002813D1607B0028BC
:103E300010D1A07B00280DD1E07B00280AD1207C86
:103E4000002807D1607C002804D10622301C1349C9
:103E5000FEF7DAFA0622311C281C0E30FEF7D4FADF
:103E6000A07C002809D1E07C002806D1207D002814
:103E700003D1607D002800D100E00BE0A07D002888
:103E800008D1E07D002805D1054806220168B01858
:103E9000FEF7BAFAF8BD0000B4400004844B0004F9
:103EA000B449000480B50F49002801D1012080BD2C
:103EB0008A7BCB7B1B021A43002A09D1FF211931CF
:103EC0000270427081700B0AC3700271427107E088
:103ED0000A7B4B7B1B021A4306320831FEF794FA29
:103EE000002080BDA70A01C0FEB500201C4E029034
:103EF000002419A7822060438519A87BEB7B1B0255
:103F00001843002823D00822291C6846FEF77CFAB3
:103F100000AB0CCB03CF083FFDF768FF17D1822021
:103F200060438019083002A9FFF730FFA87BEB7BC4
:103F300008221B0218437D23DB005843C11701915F
:103F40000090281C6946FEF75FFA0298FEBD013416
:103F5000012CCFD30020F9E7000000000000000092
:103F6000A70A01C000B500F001F800BD10B500209F
:103F7000054A0021822343439C180B0AA173013098
:103F80000128E373F6D310BDA70A01C07CB5184E13
:103F9000184D341C002803D1A073E073291C21E0C4
:103FA0008178C3781B021943FF3919391ED1017971
:103FB00043791B0219438A1D011C201C0830FEF79F
:103FC00023FAA07BE37B08221B0218437D23DB003E
:103FD0005843C11701910090201C6946FEF714FA5E
:103FE000291C301CFEF75CFB00207CBD0120FCE797
:103FF000A70A01C0802400C0F0B53848E988E0C5B0
:1040000001000000B82300000002000042BE8DF352
:1040100089B0089000200790002515F0E1F905907F
:104020000691089903A80822FEF7F8F90598069961
:10403000039A049BFDF7E4FE0BD3082203A808991A
:10404000FEF7ECF90598039A0699049B801A9941AA
:104050000EE0082203A80899FEF7E0F90022D243F7
:1040600003980499FDF7FAFE059A069B80185941BA
:1040700020A20CCAFDF73AFF071C0E1C82201F4924
:1040800068434418A07BE37B1B021843002823D01D
:104090000822211C03A8FEF7C1F9331C3A1C03981F
:1040A0000499FDF7ADFE10D90822211C01A8FEF7E6
:1040B000B5F901980299C01BB141049103900822FF
:1040C000201C03A9FEF7AAF906E00822201C0CA177
:1040D000FEF7A4F9012007900135012DCED3082267
:1040E00005A90898FEF79AF9079809B0F0BD0000F5
:1040F000842400C0E803000000000000A70A01C0FB
:104100000000000000000000B0B5074D041C03E0F3
:1041100000F01EF8A07004342088A842F8D1A178DD
:10412000FF29F5D1B0BD0000FFFF0000B0B5074D7D
:10413000041C03E0A17800F01BF804342088A84296
:10414000F8D1A178FF29F5D1B0BD0000FFFF000034
:1041500010B5041C1FF0D4FA01480481007910BD89
:10416000200800900149FF2008707047362000C0E9
:10417000B0B5041C0D1C1FF0C3FA0348048105717F
:10418000012010F0D5F9B0BD20080090F0B54A68C4
:10419000041CD06896688BB0039008680F1C211C23
:1041A00058310A919249251C61180991904980352E
:1041B000073961180891211C64310791483906912B
:1041C0003031059144310491102871D018DC062853
:1041D0006FD00ADC831C6DD0431C46D002286AD104
:1041E000506811681EF084FA7EE0092864D00A281D
:1041F00061D1804800F0EAFB0022002103206EE03C
:1042000013286FD011DC11286DD01228DCB152BEFA
:1042100001000000B4250000000200005B4653834B
:1042200053D103980C30051C13F0FEFD002865D017
:10423000A979EB792A1C1B021943082059E015289B
:104240004AD01B2841D17048013800F0C9FB3868BA
:10425000FF22F032E8600498311CFEF7E9F8049878
:1042600014F05EF9002849D108F04EF9002846D034
:10427000FF36E136B07A002841D1059999E0E06F28
:104280000599884201D11EF07BFEE868002803D022
:104290000006000E1DF006FF0320800216F0DAFA79
:1042A00011F0A2FF0020E860012016F0A5FA03211A
:1042B000012016F0BBFA14F0EBFF012009F07CFF9F
:1042C000287904E027E01CE091E099E01EE0002856
:1042D00014D0E9884D4A0CE003980C30051C13F00B
:1042E000A3FD00280AD0A979EB792A1C1B021943E7
:1042F00009201DF077FA73E02AE05DE074E005998B
:104300006FE0506811681EF0E5FA6DE050681168C2
:104310001EF0F0FD68E0FF22F032E8600498311CE6
:10432000FEF786F80722B1180898FEF781F80622F2
:10433000311C0998FEF77CF8311CA32080000E3157
:1043400008222018FEF774F8C82016F083FA2DE032
:1043500001A81EF055FC0622311C0998FEF768F8EA
:1043600000AB18798107B079890F8207920F9142CB
:104370000FD119790007800F0907890F814208D1F1
:104380005879F179884204D1311C38680EF078FBF5
:104390002AE03868FF22F032E8600498311CFEF70A
:1043A00047F80722B11D0898FEF742F8012028724D
:1043B0000A992960079914E0039806220C30051C1D
:1043C0000999FEF735F803981DF018F838680006CB
:1043D000000E1DF067FE281C13F026FD002803D0F8
:1043E0000699201C13F092FA00200BB0F0BD14F0D7
:1043F0000FFF0321002016F019FA2068E067F3E7A9
:10440000381CF2E78602000004080000844B000418
:104410000EB500F0FDF8002820D10C224D6BCAC566
:1044200001000000B027000000020000AFAEED3E2A
:104430000092052304220F490F4804F0C9FB0E48DF
:10444000043804F06DFA0D490A48002202920191E5
:104450000838094901229202009007230C310848CC
:1044600004F07AFC002803D119F0BEFE00200EBD36
:104470000120FCE7A45D0200F81200044DCF00000B
:10448000D4EE00C0094880B5006804F0A3FC0C22FB
:104490000121074804F020FC05480C2200210430CB
:1044A00004F01AFC09F066FE80BD0000D4EE00C0E6
:1044B000FC1200040722011C034880B5006804F0C8
:1044C0006DFA002080BD0000F4120004F7B586B03C
:1044D000041C0798171C10300590FEF7EDF8051C1A
:1044E000061C2036F07880066BD5A08810380004B2
:1044F000000CA08030380490002862DD0798437BD0
:10450000007B1B02184321F01DFF3A1C3032111FA3
:1045100001910292717832783B1C0C3309028918A0
:104520009C460B041B0C0393F179B279090289189C
:10453000727909028918327909028F18019909687C
:10454000B94204D1029A1288039B9A4239D24B1C79
:1045500001D0B94235D800900498311C0204120CE5
:10456000281C634600F090FA002805D0E8782B79E3
:104570001B021843800624D5029A039B13800199DD
:104580000F606B7828781B02184310382870030AD4
:104590006B70E8782B791B021843400705D4287EFE
:1045A0006B7E1B021843000713D0A088002110382F
:1045B000A080208900196061201C00F05DFD0028AA
:1045C00002D1002009B0F0BD028905991018FEF74C
:1045D00085F80120F6E7000003480088C00403497D
:1045E000400F085C7047000000200080402400C09D
:1045F00080B5002805D00021C181012181810AF008
:10460000AFF880BD80B50022702105480AF056F849
:10461000002803D00121C1810221818180BD0000D9
:10462000C81B00C0F8B52E4B2E4A2F49A65783331E
:1046300001000000AC2900000002000068B7EF6331
:104640002F4810F0C9FE00280CD12E4A29492A4EC5
:1046500000920822E8311036301C2B4B10F0C2FBC0
:10466000002801D10120F8BDFFF7D6FF051C022765
:10467000002818D02C1C18345021201CFDF7BEFE39
:10468000002C0AD0E07A10210843E072E07A384327
:10469000E072E07A40084000E0722A1C6832291C6F
:1046A000301C10F0FFFAFFF7B7FF051C18D02C1CC8
:1046B00018345021201CFDF7A1FE002C0AD0E07A0E
:1046C00010210843E072E07A01210843E072E07AA9
:1046D000B843E0722A1C6832291C301C10F0E2FA40
:1046E00005490A4808310860081C21F0A3FA002097
:1046F000B9E700007844000484C100C0E81B00C092
:10470000C81B00C0456C0000396C0000A58B000080
:1047100010B50A4C011C221CFF3AC13A0820402364
:104720000029D16804D00843D0602069184303E011
:104730008143D16020699843206110BDC0A80080EA
:10474000FFB585B0049105980C1C10211E1C151C8A
:1047500051300E9FFDF72EFE022F0DD1059910222C
:10476000513101912B1C0292012204A9009605A847
:1047700003F0F4FF09B0F0BD0598331C021C513260
:1047800000922A1C211C03F077FFF3E7F0B589B0F3
:10479000051C07A8002204C004C005A804C004C06A
:1047A00003A804C004C001A804C004C000200090F5
:1047B00048800E1C8C1C0C21884308302070030A92
:1047C000637021F007FFF0270028E87D0CD0EA286D
:1047D00003D1687D082108436875207863781B023F
:1047E0001843B84380300FE0E92808D1A3786078F7
:1047F00020211B02184308436070030AA37020782D
:1048000063781B021843B8432070030A6370687D05
:10481000C00713D521F0DEFE002806D0207863788B
:104820001B021843B843C03005E0207863781B02B0
:104830001843B84340302070030A6370668A0BFE49
:1048400001000000A82B0000000200009C5F51DE68
:104850004748A37800686178407C1B021943102206
:10486000C007C00E914308436070030A4148A3701B
:10487000C179AF1801293FD007A8023002291FD003
:1048800003295BD10422391CFDF7F0FDA87B00ABA6
:1048900038491877E87B06222039587705A8FDF7B4
:1048A000E5FD354800680168406803910490607830
:1048B000A37802211B0218434008400008433AE055
:1048C0000422391CFDF7D2FDA87B00AB0622187725
:1048D000E87B5877284800680168406805912549B9
:1048E000069003A82039FDF7C1FD6078A3781B026C
:1048F0001843400840001CE01E490622203907A842
:10490000FDF7B4FD1C480422006801684068059169
:10491000069003A8391C0230FDF7A8FDA87B00AB68
:1049200001211873E87B58736078A3781B02184341
:104930000843022188436070030AA3700622B0185E
:1049400007A9FDF793FD0622301C0C3005A9FDF7E1
:104950008DFD0622301C123003A9FDF787FD0622CB
:10496000301C1A3001A9FDF781FD009809B0F0BD97
:10497000B8490004A44B0004B4490004002801DD38
:10498000002004E06421C943884200DA081C404248
:104990000006001670470000002801DD002004E03A
:1049A0006321C943884200DA081C40420006001611
:1049B00070470000002800DA00200006001670474B
:1049C00070B50E1C10F046FE002823D016F0F0FB48
:1049D000051C11480EF060FC041C15D00E4A843AE8
:1049E0001088411C11800121C004C00C89034018AB
:1049F000030A207163713068A11DFDF783FE06482C
:104A0000211C143819F078FF281C16F0D7FB402021
:104A1000FFF764FD70BD00009CE200C080B500217E
:104A20000DF0ECF980BD000010B50A1C11D0141C6B
:104A3000C034111C226ACC31824208D1002906D030
:104A40000878022803D10348806811F07B0E8D0D91
:104A500001000000A42D00000002000085A78FAE19
:104A6000EBF90020206210BD00BE00C070B51349F4
:104A70000C68A007124E08D5002008610021012013
:104A8000B26DFDF7D1F9022084432006000F03D058
:104A9000E02084431020044300250BE0E00707D505
:104AA000A8003258002A03D0211C281CFDF7BCF9AD
:104AB00064080135002CF1D1002070BD0028008071
:104AC0003C000004FFB5041C394885B00E9D00274A
:104AD0001626F943006804F015F93648089908F0DD
:104AE000C7FB0798A121C900324A00040843083ACD
:104AF0005060106801210843106021F07FFD0028FC
:104B00000DD0A078E3781B0218430107890F022912
:104B100005D10006000F082801D118262F1C2B1CD8
:104B2000211C01A8079A03F0E9F9224801A93830AD
:104B300008F09EFB321C211C01A803F0A3F91D48BC
:104B400001A9483008F094FB3A1C211C01A803F08D
:104B5000B1F9184801A9583008F08AFB2A1C211C19
:104B600001A803F071F9134801A9203008F080FB77
:104B7000201C104C2830083CA0630698E0630420F9
:104B800008F086FA20680221084320600E02301CDB
:104B900008F07EFA051C281C70402060044800685C
:104BA00004F0EAF8281C0821084009B0F0BD000014
:104BB000E0EE00C008A00090FFB5041C324885B0AC
:104BC0000E9D00271626F943006804F09BF82F4835
:104BD000079908F04DFB0698052109022B4A0004AD
:104BE0000843083A506050680821884350601068B4
:104BF00001210843106021F001FD002801D0182692
:104C00002F1C2B1C211C01A8069A03F077F91F48C2
:104C100001A9383008F02CFB321C211C01A803F03C
:104C200031F91A4801A9483008F022FB3A1C211C2E
:104C300001A803F03FF9154801A9583008F018FB06
:104C40002A1C211C01A803F0FFF8104801A92030FC
:104C500008F00EFB0D4D0898083DA863FB2F672C4C
:104C600001000000A02F000000020000714F31136E
:104C70002834EC63042008F015FA28680221084360
:104C800028600C02201C08F00DFA604028600348E0
:104C9000006804F07BF8002009B0F0BDE0EE00C031
:104CA00008A00090FFB583B0051C049801271E1CC6
:104CB00010300290FDF728FD041C0379C0781B0218
:104CC000184340063BD5002E39D00498437B007B27
:104CD0001B02184321F05EFBF179022938D1A98823
:104CE000331C0C331039A98030390A04211C2031BF
:104CF000120C0090201CFFF7EFFE002802D00020CD
:104D0000A8801CE0637820781B02184310382070BC
:104D1000030A6370E07823791B021843400705D427
:104D2000207E637E1B021843000710D0A888002154
:104D30001038A880281C00F0C7F9002802D10120F3
:104D400007B0F0BD018908180299FDF7EFFC0027B4
:104D5000381CF5E7F8B5071C081C0E1C0025141CB0
:104D60001030FDF7D1FCC2780379011C1B021A43F5
:104D7000530608D43348837840781B021843400711
:104D80005ED401255CE0C37880781B0218430006DE
:104D9000000F042801D00C2806D140208243130ABA
:104DA000CA700B710120F8BD002C01D10020FAE778
:104DB0008879C10720D5A17AC9071DD0E0790128DB
:104DC00005D1221C311C381C06F024FD06E0022807
:104DD00006D1221C311C381CFFF7A0FB051C2FE05C
:104DE000221C311C381C00F04DFA051CE07901280A
:104DF00026D115F0DBFD23E0C00721D4A07AC0073F
:104E00001ED0E079012805D1221C311C381C06F087
:104E100001FD0CE0022805D1221C311C381CFFF7D3
:104E20007DFB04E0221C311C381C00F02BFA051C11
:104E300006D0A079800703D5A07A02218843A0720A
:104E4000281CB0E70244000438B51D1C0379041C7B
:104E5000C0781B02402118430843E070030A237105
:104E6000288F00212084201C20308170D19B7EA0BF
:104E7000010000009C310000000200000F5496A3C6
:104E80002021C170686B60620092217863782A1CCF
:104E90000C321B021943231C2833201CFFF7A0FEF1
:104EA000298F01310904090C298702D1696B01316D
:104EB0006963637821781B021943103121700B0A52
:104EC000637038BDFEB5051C141C081C211C1C3168
:104ED00001910C3200900292291C2031238F01266F
:104EE000281C626B01F0EEF8208F01300004000CEA
:104EF000208702D1606B013060636B7828781B02D9
:104F000018430C302870030A6B70301CFEBD000083
:104F1000F7B588B00121079108218E460021161CA3
:104F200004244032184B127A1D682B021F0E00AB6E
:104F30001F732B041F0E00AB5F739D7313019B1A2D
:104F40009F197B7B002B02D01025012100E0082552
:104F50000023033DAC4607E0FD1803AEF618AD7B19
:104F600001331B061B0EF5706345F5DB00910192C2
:104F7000099972468A1A01192031203003AB01F0D9
:104F8000B7F907980BB0F0BD00A60080F7B584B064
:104F9000049908894418207E637E1B021843010986
:104FA00003916378060720781B02360F18433838C0
:104FB000050445482D0C002E40682ED100280DD147
:104FC000424F02E0012003F045FF0022381C404917
:104FD00009F0A6FB3C4900284860F3D03A483A491A
:104FE0004068083108600189202247183649381C7A
:104FF000203008318860211C381CFDF755FA281C28
:1050000030303870030A33487B7000683249496891
:1050100040182D490831C86013E02B4A0832116846
:1050200000294FD00B89CF184CD0117D0131B142EE
:1050300018D17B7838781B02184340193870030A5E
:105040007B70069920480091083001978068211CE8
:105050002A1D2431059B01F0E1F800280CD11A4CDF
:10506000606800E0184C09F0ADFB1748083005F007
:105070006FF90020606025E0E078237975A0E4E016
:10508000010000009833000000020000FBBC281E55
:105090001B021843400717D4104D3A78083528688A
:1050A00001897B7841181B021A43201C0CF018FF61
:1050B0000A4C606809F090FB281C05F053F90020A9
:1050C0006060049807B0F0BD0448039908308180FF
:1050D00081684919816006750020F3E79C1301C0BF
:1050E0003C4000042C06000000A60080DC2400C028
:1050F000FEB54569041C287E6B7E1B02184301091E
:1051000002910107090F01910BD1E8782B791B025D
:105110001843400705D46B7828781B021843A080F9
:10512000A6E0A088202803D920380604360C00E029
:1051300000265A480078012802D10199002971D12E
:105140000199002930D155490020554F0870386821
:1051500000280CD102E0012003F086FE00227D2110
:105160000901504809F0E6FA38600028F3D04C48AD
:10517000083005F0F7F84A493868083108600189B5
:10518000202247184649381C203008318860291CE5
:10519000381C0CF0A5FE4448006840494968401896
:1051A0003F490831C86028E03D4F0837B888029968
:1051B00088420AD138680622018941180C31281C1E
:1051C0000C30FDF7A9F8002805D0354C206809F00F
:1051D00003FB381C54E0324A083210680189471832
:1051E000107D01990130884244D17B7838781B02C8
:1051F000184380193870030A7B70002E07D02848A6
:10520000321C0830291C203180680CF069FE2448CB
:105210000830816889198160E9782B791B0219436C
:10522000490700E038E033D4002E0AD17B78397882
:10523000A2881B02194320239A1A891A39700B0A73
:105240007B707B783A78051C1B021A43A2800068A9
:105250000189411860690CF043FE114E3068002846
:1052600006D009F0B9FA281C05F07CF8002030605F
:10527000201CFEBD0A4C206809F0AEFA0848083030
:1052800005F070F8054901200870002013BABDA68A
:10529000010000009435000000020000E244F66EB8
:1052A000206003E002998180019901750020EAE7FE
:1052B000DC2400C09C1301C03C40000400A6008018
:1052C000F0B50027061C151C002A87B04AD0081C20
:1052D00010300690FDF736FA041C0379C0781B02E3
:1052E0001843400602D4B08807B0F0BD2078637838
:1052F0001B021843382835D9201C2030017800AB18
:1053000019724178597281789972C17889090B01B3
:10531000591A49198C46497B002902D010220127CD
:1053200000E008220021033A964606E06246521841
:10533000927B02AB5B18DA7001317145F6D3E178EC
:1053400023791B021943490705D4217E637E1B0282
:105350001943090714D03A1C301C02A9FFF72AFE92
:10536000051C01D10020BFE7288906994019FDF7E7
:10537000FBF9637820781B021843A8800120B3E76B
:1053800000970194227863781B021A43343A011D76
:1053900002AB00F057FF0028A6D0637821781B02EB
:1053A0001943083921700B0A6370B1880839B1803C
:1053B000A979890798D5A97A02229143A97293E71E
:1053C000F8B5051C1CF0FCFF0026F643002820D091
:1053D000281C0830FDF7B6F94419271C13F0E2FC2D
:1053E000002803D1221C1632A08A02E0A089221CC8
:1053F0000E32094988420CD1391CB81D04F060FCFA
:10540000002806D0680A4002043009F0EFF90020B5
:10541000F8BD301CFCE70000888E000030B5436802
:105420000022002B09D1CA6001604160496800294F
:105430001ED1417A0131417230BD4B68002B04D13D
:10544000CA604268D1604160F3E70024057A0268CF
:10545000002302E0141CD26801339D42FADCCA60CA
:10546000002C01D1016003E0E160002A00D141601D
:10547000017A0131017230BD10B5041C07F014FD32
:1054800000281CD00E480F494078A0420BD98879DB
:105490000C1C012813D01EF05BF930217DBD4F8E0E
:1054A00001000000903700000002000016AC48D355
:1054B000092004F0D5FE01200AE088790C1C02289E
:1054C00007D01EF04FF90021092004F0C9FE022088
:1054D000A07110BDC82200C0D8E100C002484068D9
:1054E0000006000E70470000842300C070B50578E8
:1054F000041C80680E1C002829D0201C00F02CF809
:1055000018236B43134D3060A1685A19D668B14215
:1055100003D3E958884218D315E01369994203D39D
:105520005168884213D30EE05369994203D39168BE
:1055300088420CD307E07D232169DB00994206D322
:105540009168884201D3002070BD012070BD022007
:1055500070BD00004073020080B5C16864235943E8
:105560008068FEF715F90006000E80BD8068704760
:105570000170002141608160C160016170470000DD
:105580007D220169D200914201D20A310161704746
:10559000F3B581B002990578061C19488C7900880A
:1055A000012809D1291C201C03F0ACF9071C291C77
:1055B000201C03F099F915E0022809D1291C201CB0
:1055C00005F0F2FE071C291C201C05F0DBFE09E09B
:1055D000AC4201D1002700E0FF27A54201D1FF2006
:1055E00000E0012002993B1C4C7B71680919716035
:1055F00000900299221C301CC97B00F003F8FEBD0C
:10560000324D000430B500249342039D1BD2D21AC0
:105610001206120EAA4206D9C1682C1C4919C16093
:10562000816849190EE0002904D0C168141C89184A
:10563000013904E0002A06D0C168141C8918C16031
:10564000816889188160201C30BD0000F7B5041CFA
:10565000151C8AB068462821FCF716FF2A1C7C32EC
:105660009446291C01A80230A43104220126102CE2
:1056700015D1022500AB1D805A8008AB5A7B9B7B5D
:105680001B021A43120705D5062100AB598061465B
:10569000221C36E0052200AB5A80102231E0202C7B
:1056A00032D100AB1E805A8008AB5A7B5B96E55E18
:1056B000010000008C39000000020000D1B54A8EC4
:1056C0009B7B07AE05AF1B021A4312070237023657
:1056D000002A10DA062100AB598061461022FCF73F
:1056E0000BFF291C94310822381CFCF705FF082207
:1056F000291C8C310EE0052200AB5A801022FCF7E9
:10570000FBFE291CBC310822381CFCF7F5FE0822E0
:10571000291CB431301CFCF7EFFE26E00D2C01D023
:10572000052C27D1002700AB1F805A8008AB587B7F
:105730009B7B1B021843020702A80BD5221C614663
:10574000FCF736FF00AB58880225284358809F712C
:10575000DE710AE0221CFCF72BFF00AB58883043B7
:105760005880C03568899871DF7100AB9C806846AD
:1057700010F0E0F90DB0F0BDF3B583B0049800244B
:1057800005062D16039E11E00299B94207D2301C7E
:10579000FCF7ECFF021C0298391C02F00FFC0134EC
:1057A000240624160C20039960434618301C083048
:1057B000FCF7DCFF02900190301DFCF7D7FF019948
:1057C000071C81421AD804988442DDDD16E00C20C3
:1057D000039968434618301CFCF7C8FF0090301D41
:1057E000FCF7C4FF071C301C0830FCF7BFFF391C56
:1057F000009A04F045FEFF352D062D16AC42E6DD7D
:1058000005B0F0BDFEB5061C7D21002209015248FD
:1058100008F0AEFF041C01D10120FEBD13F07AFA9E
:105820000004000C20810821A18118210519281CE1
:10583000FCF710FE291C08311820FCF7A9FF0820EE
:10584000E875464F281C06220E30B968FCF754FE56
:105850002C1C18340622201CB968FCF74DFE0622C9
:10586000A018F968FCF748FE3D4800272073030A9A
:1058700063733079A0740297F379B0791B021843EF
:1058800000AB597A9B7A4007400F1B021943C908A5
:10589000C900084300AB5872020A9A7218890121A4
:1058A00008431881022108431881187AE074587A55
:1058B00020756775301C0930A775FCF7328FA92059
:1058C00001000000883B000000020000255DF43369
:1058D00057FF211C1731FCF765FF301C0D30FCF71A
:1058E0004FFF211C1B31FCF75DFF2021201C1F30C6
:1058F000FCF7BAFD1021201C3F30FCF7B5FD082154
:10590000201C4F30FCF7B0FD0821201C5730FCF75D
:10591000ABFD261C6036201C0E30F7735F21041C83
:10592000377400F0F1FE337CF07B114A1B02184300
:105930000102000A0843F073030A337400AB587A7B
:105940009B7A6C321B0218434107490F0091632177
:105950001023201CFEF74EFF71202873030A6B737F
:10596000281C13F005FA002061E700000040000445
:1059700000BE00C0888E0000F3B5061C7D21002209
:105980000901654883B008F0FDFE041C02D1012026
:1059900005B0F0BD13F0C8F90004000C2081082107
:1059A000A18118210519281CFCF75EFD291C08316E
:1059B0001820FCF7F7FE0821584FE9750622281C2D
:1059C0000E30B968FCF7A2FD2C1C18340622201CEE
:1059D000B968FCF79BFD0622A018F968FCF796FD54
:1059E0004F4801272073030A63733079A0740020A5
:1059F0006075A0750290F379B0791B02184300AB73
:105A0000597A9B7A4007400F1B021943C908C90005
:105A1000084300AB5872020A9A720821084300AB8F
:105A20005872020A9A72188938431881187AE074F9
:105A3000587A2075301C0930FCF7A2FE211C173162
:105A4000FCF7B0FE301C0D30FCF79AFE211C1B3118
:105A5000FCF7A8FE049920228918201C1F30FCF7AF
:105A600055FD1021201C3F30FCF7FEFC0821201CB6
:105A70004F30FCF7F9FC0821201C5730FCF7F4FCF0
:105A8000A07C012813D03B1C244F201CB968FA6865
:105A9000713007F081FC002803D07220005D0230D5
:105AA00000E00020211C6031C873030A0B74271C1E
:105AB0006037F87B3B7C1B0218435F300604360CD2
:105AC000201C0E30311C041C00F01EFE98ED0FC788
:105AD00001000000843D0000000200003CA52A43B4
